{
  "_format": "hh-sol-artifact-1",
  "contractName": "SubscriptionTokenBridge",
  "sourceName": "contracts/CCIP.sol",
  "abi": [
    {
      "inputs": [
        {
          "internalType": "address",
          "name": "_router",
          "type": "address"
        },
        {
          "internalType": "address",
          "name": "_link",
          "type": "address"
        },
        {
          "internalType": "uint64[]",
          "name": "_supportedDestinationChains",
          "type": "uint64[]"
        }
      ],
      "stateMutability": "nonpayable",
      "type": "constructor"
    },
    {
      "anonymous": false,
      "inputs": [
        {
          "indexed": true,
          "internalType": "address",
          "name": "from",
          "type": "address"
        },
        {
          "indexed": true,
          "internalType": "address",
          "name": "to",
          "type": "address"
        }
      ],
      "name": "OwnershipTransferRequested",
      "type": "event"
    },
    {
      "anonymous": false,
      "inputs": [
        {
          "indexed": true,
          "internalType": "address",
          "name": "from",
          "type": "address"
        },
        {
          "indexed": true,
          "internalType": "address",
          "name": "to",
          "type": "address"
        }
      ],
      "name": "OwnershipTransferred",
      "type": "event"
    },
    {
      "anonymous": false,
      "inputs": [
        {
          "indexed": true,
          "internalType": "bytes32",
          "name": "messageId",
          "type": "bytes32"
        },
        {
          "indexed": true,
          "internalType": "uint64",
          "name": "destinationChainSelector",
          "type": "uint64"
        },
        {
          "indexed": false,
          "internalType": "address",
          "name": "receipient",
          "type": "address"
        },
        {
          "indexed": false,
          "internalType": "address",
          "name": "token",
          "type": "address"
        },
        {
          "indexed": false,
          "internalType": "address",
          "name": "feeToken",
          "type": "address"
        },
        {
          "indexed": false,
          "internalType": "uint256",
          "name": "amount",
          "type": "uint256"
        },
        {
          "indexed": false,
          "internalType": "uint256",
          "name": "fees",
          "type": "uint256"
        },
        {
          "indexed": false,
          "internalType": "uint256",
          "name": "subscriptionId",
          "type": "uint256"
        },
        {
          "indexed": false,
          "internalType": "uint256",
          "name": "planId",
          "type": "uint256"
        }
      ],
      "name": "TokenTransferred",
      "type": "event"
    },
    {
      "inputs": [],
      "name": "acceptOwnership",
      "outputs": [],
      "stateMutability": "nonpayable",
      "type": "function"
    },
    {
      "inputs": [
        {
          "internalType": "uint64",
          "name": "_chainSelector",
          "type": "uint64"
        }
      ],
      "name": "addDestinationChainSupport",
      "outputs": [],
      "stateMutability": "nonpayable",
      "type": "function"
    },
    {
      "inputs": [
        {
          "internalType": "uint64",
          "name": "",
          "type": "uint64"
        }
      ],
      "name": "allowedDestinationChains",
      "outputs": [
        {
          "internalType": "bool",
          "name": "",
          "type": "bool"
        }
      ],
      "stateMutability": "view",
      "type": "function"
    },
    {
      "inputs": [],
      "name": "owner",
      "outputs": [
        {
          "internalType": "address",
          "name": "",
          "type": "address"
        }
      ],
      "stateMutability": "view",
      "type": "function"
    },
    {
      "inputs": [
        {
          "internalType": "address",
          "name": "to",
          "type": "address"
        }
      ],
      "name": "transferOwnership",
      "outputs": [],
      "stateMutability": "nonpayable",
      "type": "function"
    },
    {
      "inputs": [
        {
          "internalType": "uint64",
          "name": "_chainSelector",
          "type": "uint64"
        },
        {
          "internalType": "address",
          "name": "_receiver",
          "type": "address"
        },
        {
          "internalType": "address",
          "name": "_token",
          "type": "address"
        },
        {
          "internalType": "uint256",
          "name": "_amount",
          "type": "uint256"
        },
        {
          "internalType": "uint256",
          "name": "_subId",
          "type": "uint256"
        },
        {
          "internalType": "uint256",
          "name": "_planId",
          "type": "uint256"
        }
      ],
      "name": "transferToken",
      "outputs": [],
      "stateMutability": "nonpayable",
      "type": "function"
    },
    {
      "inputs": [
        {
          "internalType": "uint64",
          "name": "_chainSelector",
          "type": "uint64"
        },
        {
          "internalType": "address",
          "name": "_receiver",
          "type": "address"
        },
        {
          "internalType": "address",
          "name": "_token",
          "type": "address"
        },
        {
          "internalType": "uint256",
          "name": "_amount",
          "type": "uint256"
        },
        {
          "internalType": "uint256",
          "name": "_subId",
          "type": "uint256"
        },
        {
          "internalType": "uint256",
          "name": "_planId",
          "type": "uint256"
        }
      ],
      "name": "transferTokenPayNative",
      "outputs": [],
      "stateMutability": "nonpayable",
      "type": "function"
    },
    {
      "inputs": [
        {
          "internalType": "address",
          "name": "_beneficiary",
          "type": "address"
        }
      ],
      "name": "withdrawNative",
      "outputs": [],
      "stateMutability": "nonpayable",
      "type": "function"
    },
    {
      "inputs": [
        {
          "internalType": "address",
          "name": "_beneficiary",
          "type": "address"
        },
        {
          "internalType": "address",
          "name": "_token",
          "type": "address"
        }
      ],
      "name": "withdrawToken",
      "outputs": [],
      "stateMutability": "nonpayable",
      "type": "function"
    },
    {
      "stateMutability": "payable",
      "type": "receive"
    }
  ],
  "bytecode": "0x60806040523480156200001157600080fd5b506040516200167438038062001674833981016040819052620000349162000254565b33806000816200008b5760405162461bcd60e51b815260206004820152601860248201527f43616e6e6f7420736574206f776e657220746f207a65726f000000000000000060448201526064015b60405180910390fd5b600080546001600160a01b0319166001600160a01b0384811691909117909155811615620000be57620000be816200015e565b5050600380546001600160a01b038087166001600160a01b03199283161790925560048054928616929091169190911790555060005b815181101562000154576001600260008484815181106200011957620001196200034e565b6020908102919091018101516001600160401b03168252810191909152604001600020805460ff1916911515919091179055600101620000f4565b5050505062000364565b336001600160a01b03821603620001b85760405162461bcd60e51b815260206004820152601760248201527f43616e6e6f74207472616e7366657220746f2073656c66000000000000000000604482015260640162000082565b600180546001600160a01b0319166001600160a01b0383811691821790925560008054604051929316917fed8889f560326eb138920d842192f0eb3dd22b4f139c87a2c57538e05bae12789190a350565b80516001600160a01b03811681146200022157600080fd5b919050565b634e487b7160e01b600052604160045260246000fd5b80516001600160401b03811681146200022157600080fd5b6000806000606084860312156200026a57600080fd5b620002758462000209565b925060206200028681860162000209565b60408601519093506001600160401b0380821115620002a457600080fd5b818701915087601f830112620002b957600080fd5b815181811115620002ce57620002ce62000226565b8060051b604051601f19603f83011681018181108582111715620002f657620002f662000226565b60405291825284820192508381018501918a8311156200031557600080fd5b938501935b828510156200033e576200032e856200023c565b845293850193928501926200031a565b8096505050505050509250925092565b634e487b7160e01b600052603260045260246000fd5b61130080620003746000396000f3fe60806040526004361061008a5760003560e01c80638da5cb5b116100595780638da5cb5b1461010d578063a50508f91461013a578063aa6f7fb31461015a578063d768b1f81461019a578063f2fde38b146101ba57600080fd5b80632f622e6b146100965780633aeac4e1146100b85780634faa5da6146100d857806379ba5097146100f857600080fd5b3661009157005b600080fd5b3480156100a257600080fd5b506100b66100b1366004610ff5565b6101da565b005b3480156100c457600080fd5b506100b66100d3366004611017565b6102d6565b3480156100e457600080fd5b506100b66100f3366004611062565b6103af565b34801561010457600080fd5b506100b661078e565b34801561011957600080fd5b506000546040516001600160a01b0390911681526020015b60405180910390f35b34801561014657600080fd5b506100b6610155366004611062565b610838565b34801561016657600080fd5b5061018a6101753660046110c1565b60026020526000908152604090205460ff1681565b6040519015158152602001610131565b3480156101a657600080fd5b506100b66101b53660046110c1565b610ae1565b3480156101c657600080fd5b506100b66101d5366004610ff5565b610b0e565b6101e2610b22565b4760008190036102395760405162461bcd60e51b815260206004820181905260248201527f696e73756666696369656e742062616c616e636520746f20776974686472617760448201526064015b60405180910390fd5b6000826001600160a01b03168260405160006040518083038185875af1925050503d8060008114610286576040519150601f19603f3d011682016040523d82523d6000602084013e61028b565b606091505b50509050806102d15760405162461bcd60e51b81526020600482015260126024820152716661696c656420746f20776974686472617760701b6044820152606401610230565b505050565b6102de610b22565b6040516370a0823160e01b81523060048201526000906001600160a01b038316906370a0823190602401602060405180830381865afa158015610325573d6000803e3d6000fd5b505050506040513d601f19601f8201168201806040525081019061034991906110dc565b90508060000361039b5760405162461bcd60e51b815260206004820181905260248201527f696e73756666696369656e742062616c616e636520746f2077697468647261776044820152606401610230565b6102d16001600160a01b0383168483610b77565b67ffffffffffffffff8616600090815260026020526040902054869060ff1661041a5760405162461bcd60e51b815260206004820152601960248201527f696e76616c69642064657374696e6174696f6e20636861696e000000000000006044820152606401610230565b600454600090610438908890889088906001600160a01b0316610bc9565b6003546040516320487ded60e01b81529192506000916001600160a01b03909116906320487ded90610470908c908690600401611145565b602060405180830381865afa15801561048d573d6000803e3d6000fd5b505050506040513d601f19601f820116820180604052508101906104b191906110dc565b600480546040516370a0823160e01b815230928101929092529192506001600160a01b03909116906370a0823190602401602060405180830381865afa1580156104ff573d6000803e3d6000fd5b505050506040513d601f19601f8201168201806040525081019061052391906110dc565b81111561053f57610538898989898989610838565b5050610785565b6004805460035460405163095ea7b360e01b81526001600160a01b039182169381019390935260248301849052169063095ea7b3906044016020604051808303816000875af1158015610596573d6000803e3d6000fd5b505050506040513d601f19601f820116820180604052508101906105ba9190611222565b506040516323b872dd60e01b8152336004820152306024820152604481018790526001600160a01b038816906323b872dd906064016020604051808303816000875af115801561060e573d6000803e3d6000fd5b505050506040513d601f19601f820116820180604052508101906106329190611222565b5060035460405163095ea7b360e01b81526001600160a01b039182166004820152602481018890529088169063095ea7b3906044016020604051808303816000875af1158015610686573d6000803e3d6000fd5b505050506040513d601f19601f820116820180604052508101906106aa9190611222565b506003546040516396f4e9f960e01b81526000916001600160a01b0316906396f4e9f9906106de908d908790600401611145565b6020604051808303816000875af11580156106fd573d6000803e3d6000fd5b505050506040513d601f19601f8201168201806040525081019061072191906110dc565b60045460405191925067ffffffffffffffff8c169183917fc7b90d381d970b7cd50b0dd75cd059e29277f6cc1a0c3a2e9b2e3ec4f37dba0091610779918e918e916001600160a01b0316908e908a908f908f90611244565b60405180910390a35050505b50505050505050565b6001546001600160a01b031633146107e15760405162461bcd60e51b815260206004820152601660248201527526bab9ba10313290383937b837b9b2b21037bbb732b960511b6044820152606401610230565b60008054336001600160a01b0319808316821784556001805490911690556040516001600160a01b0390921692909183917f8be0079c531659141344cd1fd0a4f28419497f9722a3daafe3b4186f6b6457e091a350565b60006108478686866000610bc9565b6003546040516320487ded60e01b81529192506000916001600160a01b03909116906320487ded9061087f908b908690600401611145565b602060405180830381865afa15801561089c573d6000803e3d6000fd5b505050506040513d601f19601f820116820180604052508101906108c091906110dc565b905080471161091c5760405162461bcd60e51b815260206004820152602260248201527f6e6f7420656e6f756768206e61746976652062616c616e636520666f72206665604482015261657360f01b6064820152608401610230565b6040516323b872dd60e01b8152336004820152306024820152604481018690526001600160a01b038716906323b872dd906064016020604051808303816000875af115801561096f573d6000803e3d6000fd5b505050506040513d601f19601f820116820180604052508101906109939190611222565b5060035460405163095ea7b360e01b81526001600160a01b039182166004820152602481018790529087169063095ea7b3906044016020604051808303816000875af11580156109e7573d6000803e3d6000fd5b505050506040513d601f19601f82011682018060405250810190610a0b9190611222565b506003546040516396f4e9f960e01b81526000916001600160a01b0316906396f4e9f9908490610a41908d908890600401611145565b60206040518083038185885af1158015610a5f573d6000803e3d6000fd5b50505050506040513d601f19601f82011682018060405250810190610a8491906110dc565b90508867ffffffffffffffff16817fc7b90d381d970b7cd50b0dd75cd059e29277f6cc1a0c3a2e9b2e3ec4f37dba008a8a60008b888c8c604051610ace9796959493929190611244565b60405180910390a3505050505050505050565b610ae9610b22565b67ffffffffffffffff166000908152600260205260409020805460ff19166001179055565b610b16610b22565b610b1f81610d3b565b50565b6000546001600160a01b03163314610b755760405162461bcd60e51b815260206004820152601660248201527527b7363c9031b0b63630b1363290313c9037bbb732b960511b6044820152606401610230565b565b604080516001600160a01b038416602482015260448082018490528251808303909101815260649091019091526020810180516001600160e01b031663a9059cbb60e01b1790526102d1908490610de4565b610c046040518060a0016040528060608152602001606081526020016060815260200160006001600160a01b03168152602001606081525090565b604080516001808252818301909252600091816020015b6040805180820190915260008082526020820152815260200190600190039081610c1b5790505090506040518060400160405280866001600160a01b031681526020018581525081600081518110610c7557610c75611285565b60209081029190910101526040805160a081019091526001600160a01b03871660c08201528060e081016040516020818303038152906040528152602001604051806020016040528060008152508152602001828152602001846001600160a01b03168152602001610d2d6040518060200160405280600081525060408051915160248084019190915281518084039091018152604490920190526020810180516001600160e01b03166397a657c960e01b17905290565b90529150505b949350505050565b336001600160a01b03821603610d935760405162461bcd60e51b815260206004820152601760248201527f43616e6e6f74207472616e7366657220746f2073656c660000000000000000006044820152606401610230565b600180546001600160a01b0319166001600160a01b0383811691821790925560008054604051929316917fed8889f560326eb138920d842192f0eb3dd22b4f139c87a2c57538e05bae12789190a350565b6000610e39826040518060400160405280602081526020017f5361666545524332303a206c6f772d6c6576656c2063616c6c206661696c6564815250856001600160a01b0316610eb69092919063ffffffff16565b8051909150156102d15780806020019051810190610e579190611222565b6102d15760405162461bcd60e51b815260206004820152602a60248201527f5361666545524332303a204552433230206f7065726174696f6e20646964206e6044820152691bdd081cdd58d8d9595960b21b6064820152608401610230565b6060610d33848460008585600080866001600160a01b03168587604051610edd919061129b565b60006040518083038185875af1925050503d8060008114610f1a576040519150601f19603f3d011682016040523d82523d6000602084013e610f1f565b606091505b5091509150610f3087838387610f3b565b979650505050505050565b60608315610faa578251600003610fa3576001600160a01b0385163b610fa35760405162461bcd60e51b815260206004820152601d60248201527f416464726573733a2063616c6c20746f206e6f6e2d636f6e74726163740000006044820152606401610230565b5081610d33565b610d338383815115610fbf5781518083602001fd5b8060405162461bcd60e51b815260040161023091906112b7565b80356001600160a01b0381168114610ff057600080fd5b919050565b60006020828403121561100757600080fd5b61101082610fd9565b9392505050565b6000806040838503121561102a57600080fd5b61103383610fd9565b915061104160208401610fd9565b90509250929050565b803567ffffffffffffffff81168114610ff057600080fd5b60008060008060008060c0878903121561107b57600080fd5b6110848761104a565b955061109260208801610fd9565b94506110a060408801610fd9565b9350606087013592506080870135915060a087013590509295509295509295565b6000602082840312156110d357600080fd5b6110108261104a565b6000602082840312156110ee57600080fd5b5051919050565b60005b838110156111105781810151838201526020016110f8565b50506000910152565b600081518084526111318160208601602086016110f5565b601f01601f19169290920160200192915050565b6000604067ffffffffffffffff851683526020604081850152845160a0604086015261117460e0860182611119565b905081860151603f19808784030160608801526111918383611119565b6040890151888203830160808a01528051808352908601945060009350908501905b808410156111e557845180516001600160a01b03168352860151868301529385019360019390930192908601906111b3565b5060608901516001600160a01b031660a08901526080890151888203830160c08a015295506112148187611119565b9a9950505050505050505050565b60006020828403121561123457600080fd5b8151801515811461101057600080fd5b6001600160a01b03978816815295871660208701529390951660408501526060840191909152608083015260a082019290925260c081019190915260e00190565b634e487b7160e01b600052603260045260246000fd5b600082516112ad8184602087016110f5565b9190910192915050565b602081526000611010602083018461111956fea26469706673582212205d00a5f637211b3d7fd1202f0d2d6a63b326dcbddc54e6c83539a53d229d187664736f6c63430008180033",
  "linkReferences": {},
  "deployedLinkReferences": {}
}