{
  "_format": "hh-sol-artifact-1",
  "contractName": "SubscriptionPlugin",
  "sourceName": "contracts/SubscriptionPlugin.sol",
  "abi": [
    {
      "inputs": [
        {
          "internalType": "uint256",
          "name": "chainId",
          "type": "uint256"
        },
        {
          "internalType": "address",
          "name": "_bridge",
          "type": "address"
        }
      ],
      "stateMutability": "nonpayable",
      "type": "constructor"
    },
    {
      "inputs": [],
      "name": "AlreadyInitialized",
      "type": "error"
    },
    {
      "inputs": [],
      "name": "InvalidAction",
      "type": "error"
    },
    {
      "inputs": [
        {
          "internalType": "address",
          "name": "caller",
          "type": "address"
        }
      ],
      "name": "NotContractCaller",
      "type": "error"
    },
    {
      "inputs": [
        {
          "internalType": "bytes4",
          "name": "selector",
          "type": "bytes4"
        },
        {
          "internalType": "uint8",
          "name": "functionId",
          "type": "uint8"
        }
      ],
      "name": "NotImplemented",
      "type": "error"
    },
    {
      "inputs": [],
      "name": "NotInitialized",
      "type": "error"
    },
    {
      "anonymous": false,
      "inputs": [
        {
          "indexed": true,
          "internalType": "uint256",
          "name": "productId",
          "type": "uint256"
        },
        {
          "indexed": true,
          "internalType": "uint256",
          "name": "planId",
          "type": "uint256"
        },
        {
          "indexed": false,
          "internalType": "uint256",
          "name": "price",
          "type": "uint256"
        },
        {
          "indexed": false,
          "internalType": "uint256",
          "name": "chargeInterval",
          "type": "uint256"
        },
        {
          "indexed": false,
          "internalType": "bool",
          "name": "isActive",
          "type": "bool"
        }
      ],
      "name": "PlanCreated",
      "type": "event"
    },
    {
      "anonymous": false,
      "inputs": [
        {
          "indexed": true,
          "internalType": "uint256",
          "name": "planId",
          "type": "uint256"
        },
        {
          "indexed": false,
          "internalType": "bool",
          "name": "isActive",
          "type": "bool"
        }
      ],
      "name": "PlanUpdated",
      "type": "event"
    },
    {
      "anonymous": false,
      "inputs": [
        {
          "indexed": true,
          "internalType": "uint256",
          "name": "productId",
          "type": "uint256"
        },
        {
          "indexed": true,
          "internalType": "address",
          "name": "provider",
          "type": "address"
        },
        {
          "indexed": false,
          "internalType": "bytes32",
          "name": "name",
          "type": "bytes32"
        },
        {
          "indexed": false,
          "internalType": "string",
          "name": "description",
          "type": "string"
        },
        {
          "indexed": false,
          "internalType": "string",
          "name": "logoUrl",
          "type": "string"
        },
        {
          "indexed": false,
          "internalType": "enum SubscriptionPlugin.ProductType",
          "name": "productType",
          "type": "uint8"
        },
        {
          "indexed": false,
          "internalType": "address",
          "name": "chargeToken",
          "type": "address"
        },
        {
          "indexed": false,
          "internalType": "address",
          "name": "receivingAddress",
          "type": "address"
        },
        {
          "indexed": false,
          "internalType": "uint256",
          "name": "destinationChain",
          "type": "uint256"
        },
        {
          "indexed": false,
          "internalType": "bool",
          "name": "isActive",
          "type": "bool"
        }
      ],
      "name": "ProductCreated",
      "type": "event"
    },
    {
      "anonymous": false,
      "inputs": [
        {
          "indexed": true,
          "internalType": "uint256",
          "name": "productId",
          "type": "uint256"
        },
        {
          "indexed": false,
          "internalType": "address",
          "name": "receivingAddress",
          "type": "address"
        },
        {
          "indexed": false,
          "internalType": "uint256",
          "name": "destinationChain",
          "type": "uint256"
        },
        {
          "indexed": false,
          "internalType": "bool",
          "name": "isActive",
          "type": "bool"
        }
      ],
      "name": "ProductUpdated",
      "type": "event"
    },
    {
      "anonymous": false,
      "inputs": [
        {
          "indexed": true,
          "internalType": "address",
          "name": "subscriber",
          "type": "address"
        },
        {
          "indexed": false,
          "internalType": "address",
          "name": "provider",
          "type": "address"
        },
        {
          "indexed": true,
          "internalType": "uint256",
          "name": "product",
          "type": "uint256"
        },
        {
          "indexed": true,
          "internalType": "uint256",
          "name": "plan",
          "type": "uint256"
        },
        {
          "indexed": false,
          "internalType": "uint256",
          "name": "subscriptionId",
          "type": "uint256"
        },
        {
          "indexed": false,
          "internalType": "uint256",
          "name": "endTime",
          "type": "uint256"
        }
      ],
      "name": "Subscribed",
      "type": "event"
    },
    {
      "anonymous": false,
      "inputs": [
        {
          "indexed": true,
          "internalType": "address",
          "name": "subscriber",
          "type": "address"
        },
        {
          "indexed": false,
          "internalType": "address",
          "name": "recipient",
          "type": "address"
        },
        {
          "indexed": false,
          "internalType": "uint256",
          "name": "subscriptionId",
          "type": "uint256"
        },
        {
          "indexed": true,
          "internalType": "uint256",
          "name": "planId",
          "type": "uint256"
        },
        {
          "indexed": true,
          "internalType": "uint256",
          "name": "productId",
          "type": "uint256"
        },
        {
          "indexed": false,
          "internalType": "uint256",
          "name": "amount",
          "type": "uint256"
        },
        {
          "indexed": false,
          "internalType": "uint256",
          "name": "timestamp",
          "type": "uint256"
        }
      ],
      "name": "SubscriptionCharged",
      "type": "event"
    },
    {
      "anonymous": false,
      "inputs": [
        {
          "indexed": true,
          "internalType": "address",
          "name": "user",
          "type": "address"
        },
        {
          "indexed": false,
          "internalType": "uint256",
          "name": "subscriptionId",
          "type": "uint256"
        },
        {
          "indexed": false,
          "internalType": "uint256",
          "name": "planId",
          "type": "uint256"
        }
      ],
      "name": "SubscriptionPlanChanged",
      "type": "event"
    },
    {
      "anonymous": false,
      "inputs": [
        {
          "indexed": true,
          "internalType": "address",
          "name": "user",
          "type": "address"
        },
        {
          "indexed": false,
          "internalType": "uint256",
          "name": "subscriptionId",
          "type": "uint256"
        }
      ],
      "name": "UnSubscribed",
      "type": "event"
    },
    {
      "inputs": [],
      "name": "AUTHOR",
      "outputs": [
        {
          "internalType": "string",
          "name": "",
          "type": "string"
        }
      ],
      "stateMutability": "view",
      "type": "function"
    },
    {
      "inputs": [],
      "name": "NAME",
      "outputs": [
        {
          "internalType": "string",
          "name": "",
          "type": "string"
        }
      ],
      "stateMutability": "view",
      "type": "function"
    },
    {
      "inputs": [],
      "name": "VERSION",
      "outputs": [
        {
          "internalType": "string",
          "name": "",
          "type": "string"
        }
      ],
      "stateMutability": "view",
      "type": "function"
    },
    {
      "inputs": [
        {
          "internalType": "uint256",
          "name": "_chainId",
          "type": "uint256"
        },
        {
          "internalType": "uint64",
          "name": "_selector",
          "type": "uint64"
        }
      ],
      "name": "addChainSelector",
      "outputs": [],
      "stateMutability": "nonpayable",
      "type": "function"
    },
    {
      "inputs": [],
      "name": "admin",
      "outputs": [
        {
          "internalType": "address",
          "name": "",
          "type": "address"
        }
      ],
      "stateMutability": "view",
      "type": "function"
    },
    {
      "inputs": [
        {
          "internalType": "uint256",
          "name": "",
          "type": "uint256"
        }
      ],
      "name": "ccipChainSelectors",
      "outputs": [
        {
          "internalType": "uint64",
          "name": "",
          "type": "uint64"
        }
      ],
      "stateMutability": "view",
      "type": "function"
    },
    {
      "inputs": [
        {
          "internalType": "uint256",
          "name": "subscriptionId",
          "type": "uint256"
        },
        {
          "internalType": "uint256",
          "name": "endTime",
          "type": "uint256"
        }
      ],
      "name": "changeSubscriptionEndTime",
      "outputs": [],
      "stateMutability": "nonpayable",
      "type": "function"
    },
    {
      "inputs": [],
      "name": "changeSubscriptionPlan",
      "outputs": [],
      "stateMutability": "pure",
      "type": "function"
    },
    {
      "inputs": [
        {
          "internalType": "address",
          "name": "subscriber",
          "type": "address"
        },
        {
          "internalType": "uint256",
          "name": "subscriptionId",
          "type": "uint256"
        }
      ],
      "name": "charge",
      "outputs": [],
      "stateMutability": "nonpayable",
      "type": "function"
    },
    {
      "inputs": [
        {
          "internalType": "uint256",
          "name": "_productId",
          "type": "uint256"
        },
        {
          "internalType": "uint32",
          "name": "_chargeInterval",
          "type": "uint32"
        },
        {
          "internalType": "uint256",
          "name": "_price",
          "type": "uint256"
        }
      ],
      "name": "createPlan",
      "outputs": [],
      "stateMutability": "nonpayable",
      "type": "function"
    },
    {
      "inputs": [
        {
          "internalType": "bytes32",
          "name": "_name",
          "type": "bytes32"
        },
        {
          "internalType": "string",
          "name": "_description",
          "type": "string"
        },
        {
          "internalType": "string",
          "name": "_logoUrl",
          "type": "string"
        },
        {
          "internalType": "enum SubscriptionPlugin.ProductType",
          "name": "_type",
          "type": "uint8"
        },
        {
          "internalType": "address",
          "name": "_chargeToken",
          "type": "address"
        },
        {
          "internalType": "address",
          "name": "_receivingAddress",
          "type": "address"
        },
        {
          "internalType": "uint256",
          "name": "_destinationChain",
          "type": "uint256"
        }
      ],
      "name": "createProduct",
      "outputs": [],
      "stateMutability": "nonpayable",
      "type": "function"
    },
    {
      "inputs": [
        {
          "internalType": "bytes32",
          "name": "_name",
          "type": "bytes32"
        },
        {
          "internalType": "string",
          "name": "_description",
          "type": "string"
        },
        {
          "internalType": "string",
          "name": "_logoUrl",
          "type": "string"
        },
        {
          "internalType": "enum SubscriptionPlugin.ProductType",
          "name": "_type",
          "type": "uint8"
        },
        {
          "internalType": "address",
          "name": "_chargeToken",
          "type": "address"
        },
        {
          "internalType": "address",
          "name": "_receivingAddress",
          "type": "address"
        },
        {
          "internalType": "uint256",
          "name": "_destinationChain",
          "type": "uint256"
        },
        {
          "components": [
            {
              "internalType": "uint256",
              "name": "price",
              "type": "uint256"
            },
            {
              "internalType": "uint32",
              "name": "chargeInterval",
              "type": "uint32"
            }
          ],
          "internalType": "struct SubscriptionPlugin.InitPlanParam[]",
          "name": "_plans",
          "type": "tuple[]"
        }
      ],
      "name": "createProductWithPlans",
      "outputs": [],
      "stateMutability": "nonpayable",
      "type": "function"
    },
    {
      "inputs": [
        {
          "internalType": "bytes32",
          "name": "_name",
          "type": "bytes32"
        },
        {
          "internalType": "string",
          "name": "_description",
          "type": "string"
        },
        {
          "internalType": "string",
          "name": "_logoUrl",
          "type": "string"
        },
        {
          "internalType": "address",
          "name": "_chargeToken",
          "type": "address"
        },
        {
          "internalType": "address",
          "name": "_receivingAddress",
          "type": "address"
        },
        {
          "internalType": "uint256",
          "name": "_destinationChain",
          "type": "uint256"
        },
        {
          "internalType": "uint32",
          "name": "_chargeInterval",
          "type": "uint32"
        },
        {
          "internalType": "uint256",
          "name": "_price",
          "type": "uint256"
        }
      ],
      "name": "createRecurringSubscription",
      "outputs": [],
      "stateMutability": "nonpayable",
      "type": "function"
    },
    {
      "inputs": [],
      "name": "currentChainId",
      "outputs": [
        {
          "internalType": "uint256",
          "name": "",
          "type": "uint256"
        }
      ],
      "stateMutability": "view",
      "type": "function"
    },
    {
      "inputs": [],
      "name": "getManifestHash",
      "outputs": [
        {
          "internalType": "bytes32",
          "name": "",
          "type": "bytes32"
        }
      ],
      "stateMutability": "view",
      "type": "function"
    },
    {
      "inputs": [
        {
          "internalType": "bytes",
          "name": "",
          "type": "bytes"
        }
      ],
      "name": "onInstall",
      "outputs": [],
      "stateMutability": "pure",
      "type": "function"
    },
    {
      "inputs": [
        {
          "internalType": "bytes",
          "name": "",
          "type": "bytes"
        }
      ],
      "name": "onUninstall",
      "outputs": [],
      "stateMutability": "pure",
      "type": "function"
    },
    {
      "inputs": [
        {
          "internalType": "address",
          "name": "addr",
          "type": "address"
        },
        {
          "internalType": "uint8",
          "name": "functionId",
          "type": "uint8"
        }
      ],
      "name": "pack",
      "outputs": [
        {
          "internalType": "FunctionReference",
          "name": "",
          "type": "bytes21"
        }
      ],
      "stateMutability": "pure",
      "type": "function"
    },
    {
      "inputs": [],
      "name": "planNonce",
      "outputs": [
        {
          "internalType": "uint256",
          "name": "",
          "type": "uint256"
        }
      ],
      "stateMutability": "view",
      "type": "function"
    },
    {
      "inputs": [
        {
          "internalType": "uint256",
          "name": "",
          "type": "uint256"
        }
      ],
      "name": "plans",
      "outputs": [
        {
          "internalType": "uint256",
          "name": "productId",
          "type": "uint256"
        },
        {
          "internalType": "uint256",
          "name": "planId",
          "type": "uint256"
        },
        {
          "internalType": "address",
          "name": "provider",
          "type": "address"
        },
        {
          "internalType": "uint256",
          "name": "price",
          "type": "uint256"
        },
        {
          "internalType": "uint32",
          "name": "chargeInterval",
          "type": "uint32"
        },
        {
          "internalType": "bool",
          "name": "isActive",
          "type": "bool"
        }
      ],
      "stateMutability": "view",
      "type": "function"
    },
    {
      "inputs": [],
      "name": "pluginManifest",
      "outputs": [
        {
          "components": [
            {
              "internalType": "bytes4[]",
              "name": "interfaceIds",
              "type": "bytes4[]"
            },
            {
              "internalType": "bytes4[]",
              "name": "dependencyInterfaceIds",
              "type": "bytes4[]"
            },
            {
              "internalType": "bytes4[]",
              "name": "executionFunctions",
              "type": "bytes4[]"
            },
            {
              "internalType": "bytes4[]",
              "name": "permittedExecutionSelectors",
              "type": "bytes4[]"
            },
            {
              "internalType": "bool",
              "name": "permitAnyExternalAddress",
              "type": "bool"
            },
            {
              "internalType": "bool",
              "name": "canSpendNativeToken",
              "type": "bool"
            },
            {
              "components": [
                {
                  "internalType": "address",
                  "name": "externalAddress",
                  "type": "address"
                },
                {
                  "internalType": "bool",
                  "name": "permitAnySelector",
                  "type": "bool"
                },
                {
                  "internalType": "bytes4[]",
                  "name": "selectors",
                  "type": "bytes4[]"
                }
              ],
              "internalType": "struct ManifestExternalCallPermission[]",
              "name": "permittedExternalCalls",
              "type": "tuple[]"
            },
            {
              "components": [
                {
                  "internalType": "bytes4",
                  "name": "executionSelector",
                  "type": "bytes4"
                },
                {
                  "components": [
                    {
                      "internalType": "enum ManifestAssociatedFunctionType",
                      "name": "functionType",
                      "type": "uint8"
                    },
                    {
                      "internalType": "uint8",
                      "name": "functionId",
                      "type": "uint8"
                    },
                    {
                      "internalType": "uint256",
                      "name": "dependencyIndex",
                      "type": "uint256"
                    }
                  ],
                  "internalType": "struct ManifestFunction",
                  "name": "associatedFunction",
                  "type": "tuple"
                }
              ],
              "internalType": "struct ManifestAssociatedFunction[]",
              "name": "userOpValidationFunctions",
              "type": "tuple[]"
            },
            {
              "components": [
                {
                  "internalType": "bytes4",
                  "name": "executionSelector",
                  "type": "bytes4"
                },
                {
                  "components": [
                    {
                      "internalType": "enum ManifestAssociatedFunctionType",
                      "name": "functionType",
                      "type": "uint8"
                    },
                    {
                      "internalType": "uint8",
                      "name": "functionId",
                      "type": "uint8"
                    },
                    {
                      "internalType": "uint256",
                      "name": "dependencyIndex",
                      "type": "uint256"
                    }
                  ],
                  "internalType": "struct ManifestFunction",
                  "name": "associatedFunction",
                  "type": "tuple"
                }
              ],
              "internalType": "struct ManifestAssociatedFunction[]",
              "name": "runtimeValidationFunctions",
              "type": "tuple[]"
            },
            {
              "components": [
                {
                  "internalType": "bytes4",
                  "name": "executionSelector",
                  "type": "bytes4"
                },
                {
                  "components": [
                    {
                      "internalType": "enum ManifestAssociatedFunctionType",
                      "name": "functionType",
                      "type": "uint8"
                    },
                    {
                      "internalType": "uint8",
                      "name": "functionId",
                      "type": "uint8"
                    },
                    {
                      "internalType": "uint256",
                      "name": "dependencyIndex",
                      "type": "uint256"
                    }
                  ],
                  "internalType": "struct ManifestFunction",
                  "name": "associatedFunction",
                  "type": "tuple"
                }
              ],
              "internalType": "struct ManifestAssociatedFunction[]",
              "name": "preUserOpValidationHooks",
              "type": "tuple[]"
            },
            {
              "components": [
                {
                  "internalType": "bytes4",
                  "name": "executionSelector",
                  "type": "bytes4"
                },
                {
                  "components": [
                    {
                      "internalType": "enum ManifestAssociatedFunctionType",
                      "name": "functionType",
                      "type": "uint8"
                    },
                    {
                      "internalType": "uint8",
                      "name": "functionId",
                      "type": "uint8"
                    },
                    {
                      "internalType": "uint256",
                      "name": "dependencyIndex",
                      "type": "uint256"
                    }
                  ],
                  "internalType": "struct ManifestFunction",
                  "name": "associatedFunction",
                  "type": "tuple"
                }
              ],
              "internalType": "struct ManifestAssociatedFunction[]",
              "name": "preRuntimeValidationHooks",
              "type": "tuple[]"
            },
            {
              "components": [
                {
                  "internalType": "bytes4",
                  "name": "executionSelector",
                  "type": "bytes4"
                },
                {
                  "components": [
                    {
                      "internalType": "enum ManifestAssociatedFunctionType",
                      "name": "functionType",
                      "type": "uint8"
                    },
                    {
                      "internalType": "uint8",
                      "name": "functionId",
                      "type": "uint8"
                    },
                    {
                      "internalType": "uint256",
                      "name": "dependencyIndex",
                      "type": "uint256"
                    }
                  ],
                  "internalType": "struct ManifestFunction",
                  "name": "preExecHook",
                  "type": "tuple"
                },
                {
                  "components": [
                    {
                      "internalType": "enum ManifestAssociatedFunctionType",
                      "name": "functionType",
                      "type": "uint8"
                    },
                    {
                      "internalType": "uint8",
                      "name": "functionId",
                      "type": "uint8"
                    },
                    {
                      "internalType": "uint256",
                      "name": "dependencyIndex",
                      "type": "uint256"
                    }
                  ],
                  "internalType": "struct ManifestFunction",
                  "name": "postExecHook",
                  "type": "tuple"
                }
              ],
              "internalType": "struct ManifestExecutionHook[]",
              "name": "executionHooks",
              "type": "tuple[]"
            }
          ],
          "internalType": "struct PluginManifest",
          "name": "",
          "type": "tuple"
        }
      ],
      "stateMutability": "pure",
      "type": "function"
    },
    {
      "inputs": [],
      "name": "pluginMetadata",
      "outputs": [
        {
          "components": [
            {
              "internalType": "string",
              "name": "name",
              "type": "string"
            },
            {
              "internalType": "string",
              "name": "version",
              "type": "string"
            },
            {
              "internalType": "string",
              "name": "author",
              "type": "string"
            },
            {
              "components": [
                {
                  "internalType": "bytes4",
                  "name": "functionSelector",
                  "type": "bytes4"
                },
                {
                  "internalType": "string",
                  "name": "permissionDescription",
                  "type": "string"
                }
              ],
              "internalType": "struct SelectorPermission[]",
              "name": "permissionDescriptors",
              "type": "tuple[]"
            }
          ],
          "internalType": "struct PluginMetadata",
          "name": "",
          "type": "tuple"
        }
      ],
      "stateMutability": "pure",
      "type": "function"
    },
    {
      "inputs": [
        {
          "internalType": "uint8",
          "name": "functionId",
          "type": "uint8"
        },
        {
          "internalType": "bytes",
          "name": "preExecHookData",
          "type": "bytes"
        }
      ],
      "name": "postExecutionHook",
      "outputs": [],
      "stateMutability": "nonpayable",
      "type": "function"
    },
    {
      "inputs": [
        {
          "internalType": "uint8",
          "name": "functionId",
          "type": "uint8"
        },
        {
          "internalType": "address",
          "name": "sender",
          "type": "address"
        },
        {
          "internalType": "uint256",
          "name": "value",
          "type": "uint256"
        },
        {
          "internalType": "bytes",
          "name": "data",
          "type": "bytes"
        }
      ],
      "name": "preExecutionHook",
      "outputs": [
        {
          "internalType": "bytes",
          "name": "",
          "type": "bytes"
        }
      ],
      "stateMutability": "nonpayable",
      "type": "function"
    },
    {
      "inputs": [
        {
          "internalType": "uint8",
          "name": "functionId",
          "type": "uint8"
        },
        {
          "internalType": "address",
          "name": "sender",
          "type": "address"
        },
        {
          "internalType": "uint256",
          "name": "value",
          "type": "uint256"
        },
        {
          "internalType": "bytes",
          "name": "data",
          "type": "bytes"
        }
      ],
      "name": "preRuntimeValidationHook",
      "outputs": [],
      "stateMutability": "nonpayable",
      "type": "function"
    },
    {
      "inputs": [
        {
          "internalType": "uint8",
          "name": "functionId",
          "type": "uint8"
        },
        {
          "components": [
            {
              "internalType": "address",
              "name": "sender",
              "type": "address"
            },
            {
              "internalType": "uint256",
              "name": "nonce",
              "type": "uint256"
            },
            {
              "internalType": "bytes",
              "name": "initCode",
              "type": "bytes"
            },
            {
              "internalType": "bytes",
              "name": "callData",
              "type": "bytes"
            },
            {
              "internalType": "uint256",
              "name": "callGasLimit",
              "type": "uint256"
            },
            {
              "internalType": "uint256",
              "name": "verificationGasLimit",
              "type": "uint256"
            },
            {
              "internalType": "uint256",
              "name": "preVerificationGas",
              "type": "uint256"
            },
            {
              "internalType": "uint256",
              "name": "maxFeePerGas",
              "type": "uint256"
            },
            {
              "internalType": "uint256",
              "name": "maxPriorityFeePerGas",
              "type": "uint256"
            },
            {
              "internalType": "bytes",
              "name": "paymasterAndData",
              "type": "bytes"
            },
            {
              "internalType": "bytes",
              "name": "signature",
              "type": "bytes"
            }
          ],
          "internalType": "struct UserOperation",
          "name": "userOp",
          "type": "tuple"
        },
        {
          "internalType": "bytes32",
          "name": "userOpHash",
          "type": "bytes32"
        }
      ],
      "name": "preUserOpValidationHook",
      "outputs": [
        {
          "internalType": "uint256",
          "name": "",
          "type": "uint256"
        }
      ],
      "stateMutability": "nonpayable",
      "type": "function"
    },
    {
      "inputs": [],
      "name": "productNonce",
      "outputs": [
        {
          "internalType": "uint256",
          "name": "",
          "type": "uint256"
        }
      ],
      "stateMutability": "view",
      "type": "function"
    },
    {
      "inputs": [
        {
          "internalType": "uint256",
          "name": "",
          "type": "uint256"
        }
      ],
      "name": "products",
      "outputs": [
        {
          "internalType": "uint256",
          "name": "productId",
          "type": "uint256"
        },
        {
          "internalType": "enum SubscriptionPlugin.ProductType",
          "name": "productType",
          "type": "uint8"
        },
        {
          "internalType": "address",
          "name": "provider",
          "type": "address"
        },
        {
          "internalType": "address",
          "name": "chargeToken",
          "type": "address"
        },
        {
          "internalType": "address",
          "name": "receivingAddress",
          "type": "address"
        },
        {
          "internalType": "uint256",
          "name": "destinationChain",
          "type": "uint256"
        },
        {
          "internalType": "bool",
          "name": "isActive",
          "type": "bool"
        }
      ],
      "stateMutability": "view",
      "type": "function"
    },
    {
      "inputs": [
        {
          "internalType": "uint8",
          "name": "functionId",
          "type": "uint8"
        },
        {
          "internalType": "address",
          "name": "sender",
          "type": "address"
        },
        {
          "internalType": "uint256",
          "name": "value",
          "type": "uint256"
        },
        {
          "internalType": "bytes",
          "name": "data",
          "type": "bytes"
        }
      ],
      "name": "runtimeValidationFunction",
      "outputs": [],
      "stateMutability": "nonpayable",
      "type": "function"
    },
    {
      "inputs": [
        {
          "internalType": "address",
          "name": "_bridgeAddr",
          "type": "address"
        }
      ],
      "name": "setTokenBridge",
      "outputs": [],
      "stateMutability": "nonpayable",
      "type": "function"
    },
    {
      "inputs": [
        {
          "internalType": "uint256",
          "name": "planId",
          "type": "uint256"
        },
        {
          "internalType": "uint256",
          "name": "endTime",
          "type": "uint256"
        }
      ],
      "name": "subscribe",
      "outputs": [],
      "stateMutability": "nonpayable",
      "type": "function"
    },
    {
      "inputs": [
        {
          "internalType": "address",
          "name": "",
          "type": "address"
        },
        {
          "internalType": "uint256",
          "name": "",
          "type": "uint256"
        }
      ],
      "name": "subscribedToProduct",
      "outputs": [
        {
          "internalType": "bool",
          "name": "",
          "type": "bool"
        }
      ],
      "stateMutability": "view",
      "type": "function"
    },
    {
      "inputs": [
        {
          "internalType": "address",
          "name": "",
          "type": "address"
        }
      ],
      "name": "subscriptionNonces",
      "outputs": [
        {
          "internalType": "uint256",
          "name": "",
          "type": "uint256"
        }
      ],
      "stateMutability": "view",
      "type": "function"
    },
    {
      "inputs": [
        {
          "internalType": "bytes4",
          "name": "interfaceId",
          "type": "bytes4"
        }
      ],
      "name": "supportsInterface",
      "outputs": [
        {
          "internalType": "bool",
          "name": "",
          "type": "bool"
        }
      ],
      "stateMutability": "view",
      "type": "function"
    },
    {
      "inputs": [],
      "name": "tokenBridge",
      "outputs": [
        {
          "internalType": "contract ITokenBridge",
          "name": "",
          "type": "address"
        }
      ],
      "stateMutability": "view",
      "type": "function"
    },
    {
      "inputs": [
        {
          "internalType": "uint256",
          "name": "subscriptionId",
          "type": "uint256"
        }
      ],
      "name": "unSubscribe",
      "outputs": [],
      "stateMutability": "nonpayable",
      "type": "function"
    },
    {
      "inputs": [
        {
          "internalType": "uint256",
          "name": "_planId",
          "type": "uint256"
        },
        {
          "internalType": "bool",
          "name": "_isActive",
          "type": "bool"
        }
      ],
      "name": "updatePlan",
      "outputs": [],
      "stateMutability": "nonpayable",
      "type": "function"
    },
    {
      "inputs": [
        {
          "internalType": "uint256",
          "name": "_productId",
          "type": "uint256"
        },
        {
          "internalType": "address",
          "name": "_receivingAddr",
          "type": "address"
        },
        {
          "internalType": "uint256",
          "name": "_destChain",
          "type": "uint256"
        },
        {
          "internalType": "bool",
          "name": "_isActive",
          "type": "bool"
        }
      ],
      "name": "updateProduct",
      "outputs": [],
      "stateMutability": "nonpayable",
      "type": "function"
    },
    {
      "inputs": [
        {
          "internalType": "uint8",
          "name": "functionId",
          "type": "uint8"
        },
        {
          "components": [
            {
              "internalType": "address",
              "name": "sender",
              "type": "address"
            },
            {
              "internalType": "uint256",
              "name": "nonce",
              "type": "uint256"
            },
            {
              "internalType": "bytes",
              "name": "initCode",
              "type": "bytes"
            },
            {
              "internalType": "bytes",
              "name": "callData",
              "type": "bytes"
            },
            {
              "internalType": "uint256",
              "name": "callGasLimit",
              "type": "uint256"
            },
            {
              "internalType": "uint256",
              "name": "verificationGasLimit",
              "type": "uint256"
            },
            {
              "internalType": "uint256",
              "name": "preVerificationGas",
              "type": "uint256"
            },
            {
              "internalType": "uint256",
              "name": "maxFeePerGas",
              "type": "uint256"
            },
            {
              "internalType": "uint256",
              "name": "maxPriorityFeePerGas",
              "type": "uint256"
            },
            {
              "internalType": "bytes",
              "name": "paymasterAndData",
              "type": "bytes"
            },
            {
              "internalType": "bytes",
              "name": "signature",
              "type": "bytes"
            }
          ],
          "internalType": "struct UserOperation",
          "name": "userOp",
          "type": "tuple"
        },
        {
          "internalType": "bytes32",
          "name": "userOpHash",
          "type": "bytes32"
        }
      ],
      "name": "userOpValidationFunction",
      "outputs": [
        {
          "internalType": "uint256",
          "name": "",
          "type": "uint256"
        }
      ],
      "stateMutability": "nonpayable",
      "type": "function"
    },
    {
      "inputs": [
        {
          "internalType": "address",
          "name": "",
          "type": "address"
        },
        {
          "internalType": "uint256",
          "name": "",
          "type": "uint256"
        }
      ],
      "name": "userSubscriptions",
      "outputs": [
        {
          "internalType": "uint256",
          "name": "subscriptionId",
          "type": "uint256"
        },
        {
          "internalType": "uint256",
          "name": "product",
          "type": "uint256"
        },
        {
          "internalType": "address",
          "name": "provider",
          "type": "address"
        },
        {
          "internalType": "uint256",
          "name": "plan",
          "type": "uint256"
        },
        {
          "internalType": "uint256",
          "name": "lastChargeDate",
          "type": "uint256"
        },
        {
          "internalType": "uint256",
          "name": "endTime",
          "type": "uint256"
        },
        {
          "internalType": "bool",
          "name": "isActive",
          "type": "bool"
        }
      ],
      "stateMutability": "view",
      "type": "function"
    }
  ],
  "bytecode": "0x60806040523480156200001157600080fd5b506040516200389738038062003897833981016040819052620000349162000076565b60018054336001600160a01b0319918216178255600480549091166001600160a01b0393909316929092179091556000919091556002819055600355620000b5565b600080604083850312156200008a57600080fd5b825160208401519092506001600160a01b0381168114620000aa57600080fd5b809150509250929050565b6137d280620000c56000396000f3fe608060405234801561001057600080fd5b50600436106102485760003560e01c8063a3f4df7e1161013b578063c7763130116100b8578063e4f955b01161007c578063e4f955b01461070d578063e9f3380814610720578063f7fc32a21461074e578063f851a44014610761578063ffa1ad741461077457600080fd5b8063c7763130146105e9578063c95d6edc146105fe578063cd61587e146106a6578063cd8c5272146106e7578063dfc2f42e146106fa57600080fd5b8063be8534e2116100ff578063be8534e214610561578063bfa15c75146105ae578063bfd151c11461028a578063c2a96c18146105b6578063c6328a46146105be57600080fd5b8063a3f4df7e14610452578063a3ffa9cd14610484578063a7be85c614610497578063af8734831461043f578063b1620616146104c557600080fd5b80632a73740c116101c95780637acc0b201161018d5780637acc0b20146103a95780637f5f66be14610419578063843708131461042c57806388e18ce41461043f5780638a91b0e31461039757600080fd5b80632a73740c1461032b57806339d048601461035b57806346d60eb21461036e5780636cbadbfa1461038e5780636d61fe701461039757600080fd5b8063151d267711610210578063151d2677146102c5578063157f7123146102dc5780631b7c82ec146102ef5780631feea06a146102f85780632796b0301461031857600080fd5b806301ffc9a71461024d5780630c497af3146102755780630c7ecd841461028a5780631128186d1461029d578063118a5389146102b0575b600080fd5b61026061025b3660046124c2565b610798565b60405190151581526020015b60405180910390f35b6102886102833660046124ff565b6107cf565b005b6102886102983660046125ab565b610a71565b6102886102ab36600461261d565b610a9a565b6102b8610ac3565b60405161026c91906126c1565b6102ce60035481565b60405190815260200161026c565b6102886102ea3660046127a8565b610b93565b6102ce60025481565b6102ce6103063660046127d8565b60086020526000908152604090205481565b6102886103263660046127f5565b610c89565b61028861033936600461280e565b3360009081526009602090815260408083209483529390529190912060050155565b6102886103693660046127d8565b610ce2565b61038161037c3660046125ab565b610d1b565b60405161026c9190612830565b6102ce60005481565b6102886103a5366004612843565b5050565b6104066103b73660046127f5565b600660205260009081526040902080546001820154600283015460038401546004850154600590950154939460ff808516956101009095046001600160a01b0390811695948116949316921687565b60405161026c97969594939291906128ae565b610288610427366004612909565b610d46565b61028861043a36600461280e565b610d63565b6102ce61044d3660046129c2565b611220565b6103816040518060400160405280601381526020017229bab139b1b934b83a34b7b71028363ab3b4b760691b81525081565b610288610492366004612a21565b61124a565b6103816040518060400160405280600f81526020016e5465652d70792026204a617962656560881b81525081565b61051f6104d33660046127f5565b60076020526000908152604090208054600182015460028301546003840154600490940154929391926001600160a01b03909116919063ffffffff811690640100000000900460ff1686565b6040805196875260208701959095526001600160a01b0390931693850193909352606084015263ffffffff9091166080830152151560a082015260c00161026c565b61059161056f366004612a4d565b60581b60ff60581b1660609190911b6bffffffffffffffffffffffff19161790565b6040516affffffffffffffffffffff19909116815260200161026c565b6102ce6115d4565b610288611667565b6004546105d1906001600160a01b031681565b6040516001600160a01b03909116815260200161026c565b6105f161169f565b60405161026c9190612c23565b61066161060c366004612a21565b60096020908152600092835260408084209091529082529020805460018201546002830154600384015460048501546005860154600690960154949593946001600160a01b0390931693919290919060ff1687565b6040805197885260208801969096526001600160a01b03909416948601949094526060850191909152608084015260a0830191909152151560c082015260e00161026c565b6106cf6106b43660046127f5565b6005602052600090815260409020546001600160401b031681565b6040516001600160401b03909116815260200161026c565b6102886106f5366004612dc1565b611c86565b610288610708366004612ea6565b611d5d565b61028861071b366004612ed7565b611da3565b61026061072e366004612a21565b600a60209081526000928352604080842090915290825290205460ff1681565b61028861075c366004612f98565b611dd1565b6001546105d1906001600160a01b031681565b610381604051806040016040528060058152602001640312e302e360dc1b81525081565b60006001600160e01b0319821663f23b1ed760e01b14806107c957506301ffc9a760e01b6001600160e01b03198316145b92915050565b6000838152600660205260408120548491036108265760405162461bcd60e51b8152602060048201526011602482015270141c9bd91d58dd08139bdd08119bdd5b99607a1b60448201526064015b60405180910390fd5b600084815260066020526040902060010154849061010090046001600160a01b031633146108665760405162461bcd60e51b815260040161081d90612fe2565b620151808463ffffffff161015801561088957506301e133808463ffffffff1611155b6108c85760405162461bcd60e51b815260206004820152601060248201526f1a5b9d985b1a59081a5b9d195c9d985b60821b604482015260640161081d565b600060066000878152602001908152602001600020905060006040518060c0016040528088815260200160035481526020018360010160019054906101000a90046001600160a01b03166001600160a01b031681526020018681526020018763ffffffff168152602001600115158152509050806007600083602001518152602001908152602001600020600082015181600001556020820151816001015560408201518160020160006101000a8154816001600160a01b0302191690836001600160a01b031602179055506060820151816003015560808201518160040160006101000a81548163ffffffff021916908363ffffffff16021790555060a08201518160040160046101000a81548160ff0219169083151502179055509050506001600360008282546109fb9190613019565b925050819055508060200151877fefcd7034bb3bc315795fdab1fdca7520ce3650a588e5f33fc58163c79e9b737e836060015184608001518560a00151604051610a609392919092835263ffffffff9190911660208301521515604082015260600190565b60405180910390a350505050505050565b6000356001600160e01b031916856040516384b9b37960e01b815260040161081d92919061303a565b6000356001600160e01b031916836040516384b9b37960e01b815260040161081d92919061303a565b610aee6040518060800160405280606081526020016060815260200160608152602001606081525090565b610b196040518060800160405280606081526020016060815260200160608152602001606081525090565b604080518082018252601381527229bab139b1b934b83a34b7b71028363ab3b4b760691b6020808301919091529083528151808301835260058152640312e302e360dc1b818301528382015281518083018352600f81526e5465652d70792026204a617962656560881b9181019190915290820152919050565b600082815260076020526040812060010154839103610be55760405162461bcd60e51b815260206004820152600e60248201526d141b185b88139bdd08119bdd5b9960921b604482015260640161081d565b600083815260076020526040902060028101546001600160a01b03163314610c1f5760405162461bcd60e51b815260040161081d90612fe2565b60048101805484151564010000000090810264ff0000000019909216919091179182905560018301546040519190920460ff16151581527fe8898c20571732660341e9bd58210cbce79a036302e465085395645040fd1cc29060200160405180910390a250505050565b336000818152600960209081526040808320858452825291829020600601805460ff1916905590518381527f3ce0ad9e088ae3e7555f42cc73d57bf59207a30deef3eea8654a27e86650a4a9910160405180910390a250565b6001546001600160a01b03163314610cf957600080fd5b600480546001600160a01b0319166001600160a01b0392909216919091179055565b60606000356001600160e01b031916866040516384b9b37960e01b815260040161081d92919061303a565b610d57898989898989898989611f6e565b50505050505050505050565b6000828152600760205260409020600401548290640100000000900460ff16610dc15760405162461bcd60e51b815260206004820152601060248201526f506c616e20697320696e61637469766560801b604482015260640161081d565b333b600003610e205760405162461bcd60e51b815260206004820152602560248201527f4163636f756e74206973206e6f74206f6620736d61727420636f6e7472616374604482015264207479706560d81b606482015260840161081d565b6000838152600760209081526040808320815160c08101835281548082526001808401548387015260028401546001600160a01b0316838601526003840154606084015260049093015463ffffffff8116608084015260ff6401000000009091048116151560a084015290865260068552838620845160e08101909552805485528084015492969590939085019290911690811115610ec157610ec1612884565b6001811115610ed257610ed2612884565b815260018201546001600160a01b036101009091048116602083015260028301548116604083015260038301541660608201526004820154608082015260059091015460ff16151560a0918201528301519091508015610f3357508060c001515b610f7f5760405162461bcd60e51b815260206004820152601f60248201527f506c616e20616e642070726f64756374206d7573742062652061637469766500604482015260640161081d565b336000908152600a602090815260408083208451845290915290205460ff1615610ff75760405162461bcd60e51b815260206004820152602360248201527f50726f6475637420737562736372697074696f6e20616c72656164792065786960448201526273747360e81b606482015260840161081d565b60006040518060e0016040528060086000336001600160a01b03166001600160a01b031681526020019081526020016000205481526020018360000151815260200184604001516001600160a01b0316815260200184602001518152602001428152602001868152602001600115158152509050611092836060015133846060015185608001518660a00151866000015189602001516121aa565b3360008181526009602090815260408083208551845282528083208551815585830151600180830191909155868301516002830180546001600160a01b0319166001600160a01b03909216919091179055606087015160038301556080870151600483015560a0870151600583015560c08701516006909201805460ff191692151592909217909155938352600890915281208054909190611135908490613019565b9091555050336000818152600a6020908152604080832086518452825291829020805460ff19166001179055845186830151855184516001600160a01b039092168252928101929092529181018890528892907f1913e17d5784005a914657f9e879fcc261644776365f1d84aeb45afcb6da48649060600160405180910390a48151608080840151835160608781015186850151604080516001600160a01b039096168652602086019490945292840152820152889133917ff525c8253dece3e354aaae6f24c19577dea21f33ca86474610ed00771fb13689910160405180910390a4505050505050565b600080356001600160e01b031916846040516384b9b37960e01b815260040161081d92919061303a565b6001600160a01b03821660009081526009602090815260408083208484529091529020600601548290829060ff166112c45760405162461bcd60e51b815260206004820152601760248201527f537562736372697074696f6e206e6f7420616374697665000000000000000000604482015260640161081d565b6001600160a01b0380851660009081526009602090815260408083208784528252808320600380820154855260078452828520835160c08101855281548152600180830154828801526002830154909816818601529181015460608301526004015463ffffffff8116608083015260ff6401000000009091048116151560a083015286830154865260068552838620845160e081019095528054855280880154939792969590939085019291169081111561138157611381612884565b600181111561139257611392612884565b815260018201546001600160a01b0361010090910481166020830152600283015481166040830152600383015416606082015260048083015460808084019190915260059093015460ff16151560a090920191909152850154908401519192504291611404919063ffffffff16613019565b111561144a5760405162461bcd60e51b81526020600482015260156024820152741d1a5b5948125b9d195c9d985b081b9bdd081b595d605a1b604482015260640161081d565b428360050154118061145e57506005830154155b6114aa5760405162461bcd60e51b815260206004820152601d60248201527f737562736372697074696f6e20656e642074696d6520656c6170736564000000604482015260640161081d565b8060c001516114f15760405162461bcd60e51b815260206004820152601360248201527250726f6475637420697320696e61637469766560681b604482015260640161081d565b8160a001516115355760405162461bcd60e51b815260206004820152601060248201526f506c616e20697320696e61637469766560801b604482015260640161081d565b61155c826060015188836060015184608001518560a00151886000015488602001516121aa565b42600484018190558251602080850151608085810151606080890151604080516001600160a01b0394851681529687018f905286015284019590955292939092908b16917ff525c8253dece3e354aaae6f24c19577dea21f33ca86474610ed00771fb13689910160405180910390a450505050505050565b6000306001600160a01b031663c77631306040518163ffffffff1660e01b8152600401600060405180830381865afa158015611614573d6000803e3d6000fd5b505050506040513d6000823e601f3d908101601f1916820160405261163c919081019061340f565b60405160200161164c9190612c23565b60405160208183030381529060405280519060200120905090565b60405162461bcd60e51b815260206004820152600d60248201526c139bdd081cdd5c1c1bdc9d1959609a1b604482015260640161081d565b6116a7612408565b6116af612408565b604080516002808252606082018352909160208301908036833750505060208201819052805163f23b1ed760e01b91906000906116ee576116ee6135ec565b6001600160e01b0319909216602092830291909101820152810151805163f23b1ed760e01b91906001908110611726576117266135ec565b6001600160e01b031992909216602092830291909101820152604080516007808252610100820190925291820160e080368337505050604082018190528051638437081360e01b919060009061177e5761177e6135ec565b6001600160e01b031990921660209283029190910190910152604081015180516302796b0360e41b919060019081106117b9576117b96135ec565b6001600160e01b031990921660209283029190910190910152604081015180516318552d8360e31b919060029081106117f4576117f46135ec565b6001600160e01b03199092166020928302919091019091015260408101518051633fafb35f60e11b9190600390811061182f5761182f6135ec565b6001600160e01b03199092166020928302919091019091015260408101518051630c497af360e01b9190600490811061186a5761186a6135ec565b6001600160e01b03199092166020928302919091019091015260408101518051637bfe195160e11b919060059081106118a5576118a56135ec565b6001600160e01b0319909216602092830291909101909101526040810151805163157f712360e01b919060069081106118e0576118e06135ec565b6001600160e01b031992909216602092830291909101820152604080516060810182526002815260009281019290925260018282015280516007808252610100820190925290816020015b61193361246d565b81526020019060019003908161192b57505060e0830190815260408051808201909152638437081360e01b8152602081018390529051805160009061197a5761197a6135ec565b60200260200101819052506040518060400160405280632796b03060e01b6001600160e01b0319168152602001828152508260e001516001815181106119c2576119c26135ec565b6020026020010181905250604051806040016040528063c2a96c1860e01b6001600160e01b0319168152602001828152508260e00151600281518110611a0a57611a0a6135ec565b60200260200101819052506040518060400160405280637f5f66be60e01b6001600160e01b0319168152602001828152508260e00151600381518110611a5257611a526135ec565b60200260200101819052506040518060400160405280630c497af360e01b6001600160e01b0319168152602001828152508260e00151600481518110611a9a57611a9a6135ec565b6020026020010181905250604051806040016040528063f7fc32a260e01b6001600160e01b0319168152602001828152508260e00151600581518110611ae257611ae26135ec565b6020026020010181905250604051806040016040528063157f712360e01b6001600160e01b0319168152602001828152508260e00151600681518110611b2a57611b2a6135ec565b60209081029190910101526040805160038082526080820190925290816020015b611b5361246d565b815260200190600190039081611b4b5750506101408301908152604080518082018252638437081360e01b8152815160608101835260048152600060208083018290529382018190529282015291518051909190611bb357611bb36135ec565b6020908102919091018101919091526040805180820182526302796b0360e41b81528151606081018352600481526000818501819052928101929092529182015261014083015180516001908110611c0d57611c0d6135ec565b6020908102919091018101919091526040805180820182526318552d8360e31b81528151606081018352600481526000818501819052928101929092529182015261014083015180516002908110611c6757611c676135ec565b60209081029190910101525060016080820181905260a0820152919050565b6000819003611cd75760405162461bcd60e51b815260206004820152601760248201527f706c616e73206d757374206e6f7420626520656d707479000000000000000000604482015260640161081d565b6000611cea8c8c8c8c8c8c8c8c8c611f6e565b905060005b82811015611d4e57611d4682858584818110611d0d57611d0d6135ec565b9050604002016020016020810190611d259190613602565b868685818110611d3757611d376135ec565b905060400201600001356107cf565b600101611cef565b50505050505050505050505050565b6001546001600160a01b03163314611d7457600080fd5b600091825260056020526040909120805467ffffffffffffffff19166001600160401b03909216919091179055565b6000611db78b8b8b8b8b60008c8c8c611f6e565b9050611dc48184846107cf565b5050505050505050505050565b600084815260066020526040812054859103611e235760405162461bcd60e51b8152602060048201526011602482015270141c9bd91d58dd08139bdd08119bdd5b99607a1b604482015260640161081d565b600085815260066020526040902060010154859061010090046001600160a01b03163314611e635760405162461bcd60e51b815260040161081d90612fe2565b6000548414611ed2576000848152600560205260408120546001600160401b03169003611ed25760405162461bcd60e51b815260206004820152601f60248201527f64657374696e6174696f6e20636861696e206e6f7420737570706f7274656400604482015260640161081d565b6000868152600660209081526040918290206003810180546001600160a01b0319166001600160a01b038a169081179091556004820188905560058201805460ff19168815159081179091558254855192835293820189905260ff16151593810193909352917f0e816aab067090cfcfffdd25d4bd81f5a9fa515ea99385748c73eb642debca649060600160405180910390a250505050505050565b600080548214611fde576000828152600560205260408120546001600160401b03169003611fde5760405162461bcd60e51b815260206004820152601f60248201527f64657374696e6174696f6e20636861696e206e6f7420737570706f7274656400604482015260640161081d565b60006040518060e00160405280600254815260200187600181111561200557612005612884565b8152602001336001600160a01b03168152602001866001600160a01b03168152602001856001600160a01b031681526020018481526020016001151581525090508060066000836000015181526020019081526020016000206000820151816000015560208201518160010160006101000a81548160ff0219169083600181111561209257612092612884565b0217905550604082015160018281018054610100600160a81b0319166101006001600160a01b03948516021790556060840151600280850180546001600160a01b03199081169386169390931790556080860151600386018054909316941693909317905560a0840151600484015560c0909301516005909201805460ff191692151592909217909155805460009061212c908490613019565b92505081905550336001600160a01b031681600001517ff9815db369a250e4360ba847cf51ab4c7702b42b361aac1288caeed4404cc0ad8d8d8d8d8d8d89606001518a608001518b60a001518c60c001516040516121939a99989796959493929190613646565b60405180910390a3519a9950505050505050505050565b6040513060248201526044810188905260009060640160408051601f198184030181529181526020820180516001600160e01b031663a9059cbb60e01b179052516338997b1160e01b81529091506001600160a01b038816906338997b119061221c90899060009086906004016136bc565b6000604051808303816000875af115801561223b573d6000803e3d6000fd5b505050506040513d6000823e601f3d908101601f1916820160405261226391908101906136ec565b5060005484036122e65760405163a9059cbb60e01b81526001600160a01b038681166004830152602482018a905287169063a9059cbb906044016020604051808303816000875af11580156122bc573d6000803e3d6000fd5b505050506040513d601f19601f820116820180604052508101906122e0919061377f565b506123fe565b6004805460405163095ea7b360e01b81526001600160a01b0391821692810192909252602482018a905287169063095ea7b3906044016020604051808303816000875af115801561233b573d6000803e3d6000fd5b505050506040513d601f19601f8201168201806040525081019061235f919061377f565b5060048054600086815260056020526040908190205490516327d52ed360e11b81526001600160401b03909116928101929092526001600160a01b0387811660248401528881166044840152606483018b90526084830186905260a483018590521690634faa5da69060c401600060405180830381600087803b1580156123e557600080fd5b505af11580156123f9573d6000803e3d6000fd5b505050505b5050505050505050565b604051806101800160405280606081526020016060815260200160608152602001606081526020016000151581526020016000151581526020016060815260200160608152602001606081526020016060815260200160608152602001606081525090565b6040805180820190915260008152602081016124a46040805160608101909152806000815260006020820181905260409091015290565b905290565b6001600160e01b0319811681146124bf57600080fd5b50565b6000602082840312156124d457600080fd5b81356124df816124a9565b9392505050565b803563ffffffff811681146124fa57600080fd5b919050565b60008060006060848603121561251457600080fd5b83359250612524602085016124e6565b9150604084013590509250925092565b60ff811681146124bf57600080fd5b6001600160a01b03811681146124bf57600080fd5b80356124fa81612543565b60008083601f84011261257557600080fd5b5081356001600160401b0381111561258c57600080fd5b6020830191508360208285010111156125a457600080fd5b9250929050565b6000806000806000608086880312156125c357600080fd5b85356125ce81612534565b945060208601356125de81612543565b93506040860135925060608601356001600160401b0381111561260057600080fd5b61260c88828901612563565b969995985093965092949392505050565b60008060006040848603121561263257600080fd5b833561263d81612534565b925060208401356001600160401b0381111561265857600080fd5b61266486828701612563565b9497909650939450505050565b60005b8381101561268c578181015183820152602001612674565b50506000910152565b600081518084526126ad816020860160208601612671565b601f01601f19169290920160200192915050565b6000602080835283516080828501526126dd60a0850182612695565b905081850151601f196040818785030160408801526126fc8484612695565b935060408801519250818785030160608801526127198484612695565b6060890151888203840160808a015280518083529195508601935085850190600581901b8601870160005b8281101561278b5787820386018452865180516001600160e01b031916835289015189830186905261277886840182612695565b978a0197948a0194925050600101612744565b509a9950505050505050505050565b80151581146124bf57600080fd5b600080604083850312156127bb57600080fd5b8235915060208301356127cd8161279a565b809150509250929050565b6000602082840312156127ea57600080fd5b81356124df81612543565b60006020828403121561280757600080fd5b5035919050565b6000806040838503121561282157600080fd5b50508035926020909101359150565b6020815260006124df6020830184612695565b6000806020838503121561285657600080fd5b82356001600160401b0381111561286c57600080fd5b61287885828601612563565b90969095509350505050565b634e487b7160e01b600052602160045260246000fd5b600281106128aa576128aa612884565b9052565b87815260e081016128c2602083018961289a565b6001600160a01b039687166040830152948616606082015292909416608083015260a082015291151560c09092019190915292915050565b8035600281106124fa57600080fd5b600080600080600080600080600060e08a8c03121561292757600080fd5b8935985060208a01356001600160401b038082111561294557600080fd5b6129518d838e01612563565b909a50985060408c013591508082111561296a57600080fd5b506129778c828d01612563565b909750955061298a905060608b016128fa565b935060808a013561299a81612543565b925060a08a01356129aa81612543565b8092505060c08a013590509295985092959850929598565b6000806000606084860312156129d757600080fd5b83356129e281612534565b925060208401356001600160401b038111156129fd57600080fd5b84016101608187031215612a1057600080fd5b929592945050506040919091013590565b60008060408385031215612a3457600080fd5b8235612a3f81612543565b946020939093013593505050565b60008060408385031215612a6057600080fd5b8235612a6b81612543565b915060208301356127cd81612534565b60008151808452602080850194506020840160005b83811015612ab65781516001600160e01b03191687529582019590820190600101612a90565b509495945050505050565b600082825180855260208086019550808260051b84010181860160005b84811015612b3757858303601f19018952815180516001600160a01b0316845284810151151585850152604090810151606091850182905290612b2381860183612a7b565b9a86019a9450505090830190600101612ade565b5090979650505050505050565b805160058110612b5657612b56612884565b825260208181015160ff1690830152604090810151910152565b60008151808452602080850194506020840160005b83811015612ab657815180516001600160e01b0319168852830151612bac84890182612b44565b506080969096019590820190600101612b85565b60008151808452602080850194506020840160005b83811015612ab657815180516001600160e01b031916885283810151612bfd858a0182612b44565b5060400151612c0f6080890182612b44565b5060e0969096019590820190600101612bd5565b6020815260008251610180806020850152612c426101a0850183612a7b565b91506020850151601f1980868503016040870152612c608483612a7b565b93506040870151915080868503016060870152612c7d8483612a7b565b93506060870151915080868503016080870152612c9a8483612a7b565b935060808701519150612cb160a087018315159052565b60a087015180151560c0880152915060c08701519150808685030160e0870152612cdb8483612ac1565b935060e08701519150610100818786030181880152612cfa8584612b70565b945080880151925050610120818786030181880152612d198584612b70565b945080880151925050610140818786030181880152612d388584612b70565b945080880151925050610160818786030181880152612d578584612b70565b908801518782039092018488015293509050612d738382612bc0565b9695505050505050565b60008083601f840112612d8f57600080fd5b5081356001600160401b03811115612da657600080fd5b6020830191508360208260061b85010111156125a457600080fd5b60008060008060008060008060008060006101008c8e031215612de357600080fd5b8b359a506001600160401b038060208e01351115612e0057600080fd5b612e108e60208f01358f01612563565b909b50995060408d0135811015612e2657600080fd5b612e368e60408f01358f01612563565b9099509750612e4760608e016128fa565b9650612e5560808e01612558565b9550612e6360a08e01612558565b945060c08d013593508060e08e01351115612e7d57600080fd5b50612e8e8d60e08e01358e01612d7d565b81935080925050509295989b509295989b9093969950565b60008060408385031215612eb957600080fd5b8235915060208301356001600160401b03811681146127cd57600080fd5b6000806000806000806000806000806101008b8d031215612ef757600080fd5b8a35995060208b01356001600160401b0380821115612f1557600080fd5b612f218e838f01612563565b909b50995060408d0135915080821115612f3a57600080fd5b50612f478d828e01612563565b90985096505060608b0135612f5b81612543565b945060808b0135612f6b81612543565b935060a08b01359250612f8060c08c016124e6565b915060e08b013590509295989b9194979a5092959850565b60008060008060808587031215612fae57600080fd5b843593506020850135612fc081612543565b9250604085013591506060850135612fd78161279a565b939692955090935050565b60208082526017908201527f4e6f7420617574686f72697a65642070726f7669646572000000000000000000604082015260600190565b808201808211156107c957634e487b7160e01b600052601160045260246000fd5b6001600160e01b031992909216825260ff16602082015260400190565b634e487b7160e01b600052604160045260246000fd5b604051606081016001600160401b038111828210171561308f5761308f613057565b60405290565b604080519081016001600160401b038111828210171561308f5761308f613057565b60405161018081016001600160401b038111828210171561308f5761308f613057565b604051601f8201601f191681016001600160401b038111828210171561310257613102613057565b604052919050565b60006001600160401b0382111561312357613123613057565b5060051b60200190565b600082601f83011261313e57600080fd5b8151602061315361314e8361310a565b6130da565b8083825260208201915060208460051b87010193508684111561317557600080fd5b602086015b8481101561319a57805161318d816124a9565b835291830191830161317a565b509695505050505050565b80516124fa8161279a565b600082601f8301126131c157600080fd5b815160206131d161314e8361310a565b82815260059290921b840181019181810190868411156131f057600080fd5b8286015b8481101561319a5780516001600160401b03808211156132145760008081fd5b908801906060828b03601f190181131561322e5760008081fd5b61323661306d565b8784015161324381612543565b81526040848101516132548161279a565b828a015291840151918383111561326b5760008081fd5b6132798d8a8588010161312d565b9082015286525050509183019183016131f4565b60006060828403121561329f57600080fd5b6132a761306d565b90508151600581106132b857600080fd5b815260208201516132c881612534565b806020830152506040820151604082015292915050565b600082601f8301126132f057600080fd5b8151602061330061314e8361310a565b82815260079290921b8401810191818101908684111561331f57600080fd5b8286015b8481101561319a576080818903121561333c5760008081fd5b613344613095565b815161334f816124a9565b815261335d8983870161328d565b81860152835291830191608001613323565b600082601f83011261338057600080fd5b8151602061339061314e8361310a565b82815260e092830285018201928282019190878511156133af57600080fd5b8387015b85811015612b375781818a0312156133cb5760008081fd5b6133d361306d565b81516133de816124a9565b81526133ec8a83880161328d565b868201526133fd8a6080840161328d565b604082015284529284019281016133b3565b60006020828403121561342157600080fd5b81516001600160401b038082111561343857600080fd5b90830190610180828603121561344d57600080fd5b6134556130b7565b82518281111561346457600080fd5b6134708782860161312d565b82525060208301518281111561348557600080fd5b6134918782860161312d565b6020830152506040830151828111156134a957600080fd5b6134b58782860161312d565b6040830152506060830151828111156134cd57600080fd5b6134d98782860161312d565b6060830152506134eb608084016131a5565b60808201526134fc60a084016131a5565b60a082015260c08301518281111561351357600080fd5b61351f878286016131b0565b60c08301525060e08301518281111561353757600080fd5b613543878286016132df565b60e083015250610100808401518381111561355d57600080fd5b613569888287016132df565b828401525050610120808401518381111561358357600080fd5b61358f888287016132df565b82840152505061014080840151838111156135a957600080fd5b6135b5888287016132df565b82840152505061016080840151838111156135cf57600080fd5b6135db8882870161336f565b918301919091525095945050505050565b634e487b7160e01b600052603260045260246000fd5b60006020828403121561361457600080fd5b6124df826124e6565b81835281816020850137506000828201602090810191909152601f909101601f19169091010190565b60006101008c83528060208401526136618184018c8e61361d565b90508281036040840152613676818a8c61361d565b915050613686606083018861289a565b6001600160a01b0395861660808301529390941660a085015260c0840191909152151560e0909201919091529695505050505050565b60018060a01b03841681528260208201526060604082015260006136e36060830184612695565b95945050505050565b6000602082840312156136fe57600080fd5b81516001600160401b038082111561371557600080fd5b818401915084601f83011261372957600080fd5b81518181111561373b5761373b613057565b61374e601f8201601f19166020016130da565b915080825285602082850101111561376557600080fd5b613776816020840160208601612671565b50949350505050565b60006020828403121561379157600080fd5b81516124df8161279a56fea2646970667358221220627f9c77bb6762b63120b109db312293547e263a20f7a006fa268eb21ba55baf64736f6c63430008180033",
  "linkReferences": {},
  "deployedLinkReferences": {}
}