{
  "_format": "hh-sol-artifact-1",
  "contractName": "SubscriptionPlugin",
  "sourceName": "contracts/SubscriptionPlugin.sol",
  "abi": [
    {
      "inputs": [
        {
          "internalType": "uint256",
          "name": "chainId",
          "type": "uint256"
        },
        {
          "internalType": "address",
          "name": "_bridge",
          "type": "address"
        }
      ],
      "stateMutability": "nonpayable",
      "type": "constructor"
    },
    {
      "inputs": [],
      "name": "AlreadyInitialized",
      "type": "error"
    },
    {
      "inputs": [],
      "name": "InvalidAction",
      "type": "error"
    },
    {
      "inputs": [
        {
          "internalType": "address",
          "name": "caller",
          "type": "address"
        }
      ],
      "name": "NotContractCaller",
      "type": "error"
    },
    {
      "inputs": [
        {
          "internalType": "bytes4",
          "name": "selector",
          "type": "bytes4"
        },
        {
          "internalType": "uint8",
          "name": "functionId",
          "type": "uint8"
        }
      ],
      "name": "NotImplemented",
      "type": "error"
    },
    {
      "inputs": [],
      "name": "NotInitialized",
      "type": "error"
    },
    {
      "anonymous": false,
      "inputs": [
        {
          "indexed": true,
          "internalType": "uint256",
          "name": "productId",
          "type": "uint256"
        },
        {
          "indexed": true,
          "internalType": "uint256",
          "name": "planId",
          "type": "uint256"
        },
        {
          "indexed": false,
          "internalType": "uint256",
          "name": "price",
          "type": "uint256"
        },
        {
          "indexed": false,
          "internalType": "uint256",
          "name": "chargeInterval",
          "type": "uint256"
        },
        {
          "indexed": false,
          "internalType": "bool",
          "name": "isActive",
          "type": "bool"
        }
      ],
      "name": "PlanCreated",
      "type": "event"
    },
    {
      "anonymous": false,
      "inputs": [
        {
          "indexed": true,
          "internalType": "uint256",
          "name": "planId",
          "type": "uint256"
        },
        {
          "indexed": false,
          "internalType": "bool",
          "name": "isActive",
          "type": "bool"
        }
      ],
      "name": "PlanUpdated",
      "type": "event"
    },
    {
      "anonymous": false,
      "inputs": [
        {
          "indexed": true,
          "internalType": "uint256",
          "name": "productId",
          "type": "uint256"
        },
        {
          "indexed": true,
          "internalType": "address",
          "name": "provider",
          "type": "address"
        },
        {
          "indexed": false,
          "internalType": "bytes32",
          "name": "name",
          "type": "bytes32"
        },
        {
          "indexed": false,
          "internalType": "string",
          "name": "description",
          "type": "string"
        },
        {
          "indexed": false,
          "internalType": "string",
          "name": "logoUrl",
          "type": "string"
        },
        {
          "indexed": false,
          "internalType": "enum SubscriptionPlugin.ProductType",
          "name": "productType",
          "type": "uint8"
        },
        {
          "indexed": false,
          "internalType": "address",
          "name": "chargeToken",
          "type": "address"
        },
        {
          "indexed": false,
          "internalType": "address",
          "name": "receivingAddress",
          "type": "address"
        },
        {
          "indexed": false,
          "internalType": "uint256",
          "name": "destinationChain",
          "type": "uint256"
        },
        {
          "indexed": false,
          "internalType": "bool",
          "name": "isActive",
          "type": "bool"
        }
      ],
      "name": "ProductCreated",
      "type": "event"
    },
    {
      "anonymous": false,
      "inputs": [
        {
          "indexed": true,
          "internalType": "uint256",
          "name": "productId",
          "type": "uint256"
        },
        {
          "indexed": false,
          "internalType": "address",
          "name": "receivingAddress",
          "type": "address"
        },
        {
          "indexed": false,
          "internalType": "uint256",
          "name": "destinationChain",
          "type": "uint256"
        },
        {
          "indexed": false,
          "internalType": "bool",
          "name": "isActive",
          "type": "bool"
        }
      ],
      "name": "ProductUpdated",
      "type": "event"
    },
    {
      "anonymous": false,
      "inputs": [
        {
          "indexed": true,
          "internalType": "address",
          "name": "subscriber",
          "type": "address"
        },
        {
          "indexed": false,
          "internalType": "address",
          "name": "provider",
          "type": "address"
        },
        {
          "indexed": true,
          "internalType": "uint256",
          "name": "product",
          "type": "uint256"
        },
        {
          "indexed": true,
          "internalType": "uint256",
          "name": "plan",
          "type": "uint256"
        },
        {
          "indexed": false,
          "internalType": "uint256",
          "name": "subscriptionId",
          "type": "uint256"
        },
        {
          "indexed": false,
          "internalType": "uint256",
          "name": "endTime",
          "type": "uint256"
        }
      ],
      "name": "Subscribed",
      "type": "event"
    },
    {
      "anonymous": false,
      "inputs": [
        {
          "indexed": true,
          "internalType": "address",
          "name": "subscriber",
          "type": "address"
        },
        {
          "indexed": false,
          "internalType": "address",
          "name": "recipient",
          "type": "address"
        },
        {
          "indexed": false,
          "internalType": "uint256",
          "name": "subscriptionId",
          "type": "uint256"
        },
        {
          "indexed": true,
          "internalType": "uint256",
          "name": "planId",
          "type": "uint256"
        },
        {
          "indexed": true,
          "internalType": "uint256",
          "name": "productId",
          "type": "uint256"
        },
        {
          "indexed": false,
          "internalType": "uint256",
          "name": "amount",
          "type": "uint256"
        },
        {
          "indexed": false,
          "internalType": "uint256",
          "name": "timestamp",
          "type": "uint256"
        }
      ],
      "name": "SubscriptionCharged",
      "type": "event"
    },
    {
      "anonymous": false,
      "inputs": [
        {
          "indexed": true,
          "internalType": "address",
          "name": "subscriber",
          "type": "address"
        },
        {
          "indexed": true,
          "internalType": "uint256",
          "name": "id",
          "type": "uint256"
        },
        {
          "indexed": false,
          "internalType": "uint256",
          "name": "endTime",
          "type": "uint256"
        }
      ],
      "name": "SubscriptionEndTimeUpdated",
      "type": "event"
    },
    {
      "anonymous": false,
      "inputs": [
        {
          "indexed": true,
          "internalType": "address",
          "name": "user",
          "type": "address"
        },
        {
          "indexed": false,
          "internalType": "uint256",
          "name": "subscriptionId",
          "type": "uint256"
        },
        {
          "indexed": false,
          "internalType": "uint256",
          "name": "planId",
          "type": "uint256"
        }
      ],
      "name": "SubscriptionPlanChanged",
      "type": "event"
    },
    {
      "anonymous": false,
      "inputs": [
        {
          "indexed": true,
          "internalType": "address",
          "name": "user",
          "type": "address"
        },
        {
          "indexed": false,
          "internalType": "uint256",
          "name": "subscriptionId",
          "type": "uint256"
        }
      ],
      "name": "UnSubscribed",
      "type": "event"
    },
    {
      "inputs": [],
      "name": "AUTHOR",
      "outputs": [
        {
          "internalType": "string",
          "name": "",
          "type": "string"
        }
      ],
      "stateMutability": "view",
      "type": "function"
    },
    {
      "inputs": [],
      "name": "NAME",
      "outputs": [
        {
          "internalType": "string",
          "name": "",
          "type": "string"
        }
      ],
      "stateMutability": "view",
      "type": "function"
    },
    {
      "inputs": [],
      "name": "VERSION",
      "outputs": [
        {
          "internalType": "string",
          "name": "",
          "type": "string"
        }
      ],
      "stateMutability": "view",
      "type": "function"
    },
    {
      "inputs": [
        {
          "internalType": "uint256",
          "name": "_chainId",
          "type": "uint256"
        },
        {
          "internalType": "uint64",
          "name": "_selector",
          "type": "uint64"
        }
      ],
      "name": "addChainSelector",
      "outputs": [],
      "stateMutability": "nonpayable",
      "type": "function"
    },
    {
      "inputs": [],
      "name": "admin",
      "outputs": [
        {
          "internalType": "address",
          "name": "",
          "type": "address"
        }
      ],
      "stateMutability": "view",
      "type": "function"
    },
    {
      "inputs": [
        {
          "internalType": "uint256",
          "name": "",
          "type": "uint256"
        }
      ],
      "name": "ccipChainSelectors",
      "outputs": [
        {
          "internalType": "uint64",
          "name": "",
          "type": "uint64"
        }
      ],
      "stateMutability": "view",
      "type": "function"
    },
    {
      "inputs": [
        {
          "internalType": "uint256",
          "name": "subscriptionId",
          "type": "uint256"
        },
        {
          "internalType": "uint256",
          "name": "endTime",
          "type": "uint256"
        }
      ],
      "name": "changeSubscriptionEndTime",
      "outputs": [],
      "stateMutability": "nonpayable",
      "type": "function"
    },
    {
      "inputs": [],
      "name": "changeSubscriptionPlan",
      "outputs": [],
      "stateMutability": "pure",
      "type": "function"
    },
    {
      "inputs": [
        {
          "internalType": "address",
          "name": "subscriber",
          "type": "address"
        },
        {
          "internalType": "uint256",
          "name": "subscriptionId",
          "type": "uint256"
        }
      ],
      "name": "charge",
      "outputs": [],
      "stateMutability": "nonpayable",
      "type": "function"
    },
    {
      "inputs": [
        {
          "internalType": "uint256",
          "name": "_productId",
          "type": "uint256"
        },
        {
          "internalType": "uint32",
          "name": "_chargeInterval",
          "type": "uint32"
        },
        {
          "internalType": "uint256",
          "name": "_price",
          "type": "uint256"
        }
      ],
      "name": "createPlan",
      "outputs": [],
      "stateMutability": "nonpayable",
      "type": "function"
    },
    {
      "inputs": [
        {
          "internalType": "bytes32",
          "name": "_name",
          "type": "bytes32"
        },
        {
          "internalType": "string",
          "name": "_description",
          "type": "string"
        },
        {
          "internalType": "string",
          "name": "_logoUrl",
          "type": "string"
        },
        {
          "internalType": "enum SubscriptionPlugin.ProductType",
          "name": "_type",
          "type": "uint8"
        },
        {
          "internalType": "address",
          "name": "_chargeToken",
          "type": "address"
        },
        {
          "internalType": "address",
          "name": "_receivingAddress",
          "type": "address"
        },
        {
          "internalType": "uint256",
          "name": "_destinationChain",
          "type": "uint256"
        }
      ],
      "name": "createProduct",
      "outputs": [],
      "stateMutability": "nonpayable",
      "type": "function"
    },
    {
      "inputs": [
        {
          "internalType": "bytes32",
          "name": "_name",
          "type": "bytes32"
        },
        {
          "internalType": "string",
          "name": "_description",
          "type": "string"
        },
        {
          "internalType": "string",
          "name": "_logoUrl",
          "type": "string"
        },
        {
          "internalType": "enum SubscriptionPlugin.ProductType",
          "name": "_type",
          "type": "uint8"
        },
        {
          "internalType": "address",
          "name": "_chargeToken",
          "type": "address"
        },
        {
          "internalType": "address",
          "name": "_receivingAddress",
          "type": "address"
        },
        {
          "internalType": "uint256",
          "name": "_destinationChain",
          "type": "uint256"
        },
        {
          "components": [
            {
              "internalType": "uint256",
              "name": "price",
              "type": "uint256"
            },
            {
              "internalType": "uint32",
              "name": "chargeInterval",
              "type": "uint32"
            }
          ],
          "internalType": "struct SubscriptionPlugin.InitPlanParam[]",
          "name": "_plans",
          "type": "tuple[]"
        }
      ],
      "name": "createProductWithPlans",
      "outputs": [],
      "stateMutability": "nonpayable",
      "type": "function"
    },
    {
      "inputs": [
        {
          "internalType": "bytes32",
          "name": "_name",
          "type": "bytes32"
        },
        {
          "internalType": "string",
          "name": "_description",
          "type": "string"
        },
        {
          "internalType": "string",
          "name": "_logoUrl",
          "type": "string"
        },
        {
          "internalType": "address",
          "name": "_chargeToken",
          "type": "address"
        },
        {
          "internalType": "address",
          "name": "_receivingAddress",
          "type": "address"
        },
        {
          "internalType": "uint256",
          "name": "_destinationChain",
          "type": "uint256"
        },
        {
          "internalType": "uint32",
          "name": "_chargeInterval",
          "type": "uint32"
        },
        {
          "internalType": "uint256",
          "name": "_price",
          "type": "uint256"
        }
      ],
      "name": "createRecurringSubscription",
      "outputs": [],
      "stateMutability": "nonpayable",
      "type": "function"
    },
    {
      "inputs": [],
      "name": "currentChainId",
      "outputs": [
        {
          "internalType": "uint256",
          "name": "",
          "type": "uint256"
        }
      ],
      "stateMutability": "view",
      "type": "function"
    },
    {
      "inputs": [],
      "name": "getManifestHash",
      "outputs": [
        {
          "internalType": "bytes32",
          "name": "",
          "type": "bytes32"
        }
      ],
      "stateMutability": "view",
      "type": "function"
    },
    {
      "inputs": [
        {
          "internalType": "bytes",
          "name": "",
          "type": "bytes"
        }
      ],
      "name": "onInstall",
      "outputs": [],
      "stateMutability": "pure",
      "type": "function"
    },
    {
      "inputs": [
        {
          "internalType": "bytes",
          "name": "",
          "type": "bytes"
        }
      ],
      "name": "onUninstall",
      "outputs": [],
      "stateMutability": "pure",
      "type": "function"
    },
    {
      "inputs": [
        {
          "internalType": "address",
          "name": "addr",
          "type": "address"
        },
        {
          "internalType": "uint8",
          "name": "functionId",
          "type": "uint8"
        }
      ],
      "name": "pack",
      "outputs": [
        {
          "internalType": "FunctionReference",
          "name": "",
          "type": "bytes21"
        }
      ],
      "stateMutability": "pure",
      "type": "function"
    },
    {
      "inputs": [],
      "name": "planNonce",
      "outputs": [
        {
          "internalType": "uint256",
          "name": "",
          "type": "uint256"
        }
      ],
      "stateMutability": "view",
      "type": "function"
    },
    {
      "inputs": [
        {
          "internalType": "uint256",
          "name": "",
          "type": "uint256"
        }
      ],
      "name": "plans",
      "outputs": [
        {
          "internalType": "uint256",
          "name": "productId",
          "type": "uint256"
        },
        {
          "internalType": "uint256",
          "name": "planId",
          "type": "uint256"
        },
        {
          "internalType": "address",
          "name": "provider",
          "type": "address"
        },
        {
          "internalType": "uint256",
          "name": "price",
          "type": "uint256"
        },
        {
          "internalType": "uint32",
          "name": "chargeInterval",
          "type": "uint32"
        },
        {
          "internalType": "bool",
          "name": "isActive",
          "type": "bool"
        }
      ],
      "stateMutability": "view",
      "type": "function"
    },
    {
      "inputs": [],
      "name": "pluginManifest",
      "outputs": [
        {
          "components": [
            {
              "internalType": "bytes4[]",
              "name": "interfaceIds",
              "type": "bytes4[]"
            },
            {
              "internalType": "bytes4[]",
              "name": "dependencyInterfaceIds",
              "type": "bytes4[]"
            },
            {
              "internalType": "bytes4[]",
              "name": "executionFunctions",
              "type": "bytes4[]"
            },
            {
              "internalType": "bytes4[]",
              "name": "permittedExecutionSelectors",
              "type": "bytes4[]"
            },
            {
              "internalType": "bool",
              "name": "permitAnyExternalAddress",
              "type": "bool"
            },
            {
              "internalType": "bool",
              "name": "canSpendNativeToken",
              "type": "bool"
            },
            {
              "components": [
                {
                  "internalType": "address",
                  "name": "externalAddress",
                  "type": "address"
                },
                {
                  "internalType": "bool",
                  "name": "permitAnySelector",
                  "type": "bool"
                },
                {
                  "internalType": "bytes4[]",
                  "name": "selectors",
                  "type": "bytes4[]"
                }
              ],
              "internalType": "struct ManifestExternalCallPermission[]",
              "name": "permittedExternalCalls",
              "type": "tuple[]"
            },
            {
              "components": [
                {
                  "internalType": "bytes4",
                  "name": "executionSelector",
                  "type": "bytes4"
                },
                {
                  "components": [
                    {
                      "internalType": "enum ManifestAssociatedFunctionType",
                      "name": "functionType",
                      "type": "uint8"
                    },
                    {
                      "internalType": "uint8",
                      "name": "functionId",
                      "type": "uint8"
                    },
                    {
                      "internalType": "uint256",
                      "name": "dependencyIndex",
                      "type": "uint256"
                    }
                  ],
                  "internalType": "struct ManifestFunction",
                  "name": "associatedFunction",
                  "type": "tuple"
                }
              ],
              "internalType": "struct ManifestAssociatedFunction[]",
              "name": "userOpValidationFunctions",
              "type": "tuple[]"
            },
            {
              "components": [
                {
                  "internalType": "bytes4",
                  "name": "executionSelector",
                  "type": "bytes4"
                },
                {
                  "components": [
                    {
                      "internalType": "enum ManifestAssociatedFunctionType",
                      "name": "functionType",
                      "type": "uint8"
                    },
                    {
                      "internalType": "uint8",
                      "name": "functionId",
                      "type": "uint8"
                    },
                    {
                      "internalType": "uint256",
                      "name": "dependencyIndex",
                      "type": "uint256"
                    }
                  ],
                  "internalType": "struct ManifestFunction",
                  "name": "associatedFunction",
                  "type": "tuple"
                }
              ],
              "internalType": "struct ManifestAssociatedFunction[]",
              "name": "runtimeValidationFunctions",
              "type": "tuple[]"
            },
            {
              "components": [
                {
                  "internalType": "bytes4",
                  "name": "executionSelector",
                  "type": "bytes4"
                },
                {
                  "components": [
                    {
                      "internalType": "enum ManifestAssociatedFunctionType",
                      "name": "functionType",
                      "type": "uint8"
                    },
                    {
                      "internalType": "uint8",
                      "name": "functionId",
                      "type": "uint8"
                    },
                    {
                      "internalType": "uint256",
                      "name": "dependencyIndex",
                      "type": "uint256"
                    }
                  ],
                  "internalType": "struct ManifestFunction",
                  "name": "associatedFunction",
                  "type": "tuple"
                }
              ],
              "internalType": "struct ManifestAssociatedFunction[]",
              "name": "preUserOpValidationHooks",
              "type": "tuple[]"
            },
            {
              "components": [
                {
                  "internalType": "bytes4",
                  "name": "executionSelector",
                  "type": "bytes4"
                },
                {
                  "components": [
                    {
                      "internalType": "enum ManifestAssociatedFunctionType",
                      "name": "functionType",
                      "type": "uint8"
                    },
                    {
                      "internalType": "uint8",
                      "name": "functionId",
                      "type": "uint8"
                    },
                    {
                      "internalType": "uint256",
                      "name": "dependencyIndex",
                      "type": "uint256"
                    }
                  ],
                  "internalType": "struct ManifestFunction",
                  "name": "associatedFunction",
                  "type": "tuple"
                }
              ],
              "internalType": "struct ManifestAssociatedFunction[]",
              "name": "preRuntimeValidationHooks",
              "type": "tuple[]"
            },
            {
              "components": [
                {
                  "internalType": "bytes4",
                  "name": "executionSelector",
                  "type": "bytes4"
                },
                {
                  "components": [
                    {
                      "internalType": "enum ManifestAssociatedFunctionType",
                      "name": "functionType",
                      "type": "uint8"
                    },
                    {
                      "internalType": "uint8",
                      "name": "functionId",
                      "type": "uint8"
                    },
                    {
                      "internalType": "uint256",
                      "name": "dependencyIndex",
                      "type": "uint256"
                    }
                  ],
                  "internalType": "struct ManifestFunction",
                  "name": "preExecHook",
                  "type": "tuple"
                },
                {
                  "components": [
                    {
                      "internalType": "enum ManifestAssociatedFunctionType",
                      "name": "functionType",
                      "type": "uint8"
                    },
                    {
                      "internalType": "uint8",
                      "name": "functionId",
                      "type": "uint8"
                    },
                    {
                      "internalType": "uint256",
                      "name": "dependencyIndex",
                      "type": "uint256"
                    }
                  ],
                  "internalType": "struct ManifestFunction",
                  "name": "postExecHook",
                  "type": "tuple"
                }
              ],
              "internalType": "struct ManifestExecutionHook[]",
              "name": "executionHooks",
              "type": "tuple[]"
            }
          ],
          "internalType": "struct PluginManifest",
          "name": "",
          "type": "tuple"
        }
      ],
      "stateMutability": "pure",
      "type": "function"
    },
    {
      "inputs": [],
      "name": "pluginMetadata",
      "outputs": [
        {
          "components": [
            {
              "internalType": "string",
              "name": "name",
              "type": "string"
            },
            {
              "internalType": "string",
              "name": "version",
              "type": "string"
            },
            {
              "internalType": "string",
              "name": "author",
              "type": "string"
            },
            {
              "components": [
                {
                  "internalType": "bytes4",
                  "name": "functionSelector",
                  "type": "bytes4"
                },
                {
                  "internalType": "string",
                  "name": "permissionDescription",
                  "type": "string"
                }
              ],
              "internalType": "struct SelectorPermission[]",
              "name": "permissionDescriptors",
              "type": "tuple[]"
            }
          ],
          "internalType": "struct PluginMetadata",
          "name": "",
          "type": "tuple"
        }
      ],
      "stateMutability": "pure",
      "type": "function"
    },
    {
      "inputs": [
        {
          "internalType": "uint8",
          "name": "functionId",
          "type": "uint8"
        },
        {
          "internalType": "bytes",
          "name": "preExecHookData",
          "type": "bytes"
        }
      ],
      "name": "postExecutionHook",
      "outputs": [],
      "stateMutability": "nonpayable",
      "type": "function"
    },
    {
      "inputs": [
        {
          "internalType": "uint8",
          "name": "functionId",
          "type": "uint8"
        },
        {
          "internalType": "address",
          "name": "sender",
          "type": "address"
        },
        {
          "internalType": "uint256",
          "name": "value",
          "type": "uint256"
        },
        {
          "internalType": "bytes",
          "name": "data",
          "type": "bytes"
        }
      ],
      "name": "preExecutionHook",
      "outputs": [
        {
          "internalType": "bytes",
          "name": "",
          "type": "bytes"
        }
      ],
      "stateMutability": "nonpayable",
      "type": "function"
    },
    {
      "inputs": [
        {
          "internalType": "uint8",
          "name": "functionId",
          "type": "uint8"
        },
        {
          "internalType": "address",
          "name": "sender",
          "type": "address"
        },
        {
          "internalType": "uint256",
          "name": "value",
          "type": "uint256"
        },
        {
          "internalType": "bytes",
          "name": "data",
          "type": "bytes"
        }
      ],
      "name": "preRuntimeValidationHook",
      "outputs": [],
      "stateMutability": "nonpayable",
      "type": "function"
    },
    {
      "inputs": [
        {
          "internalType": "uint8",
          "name": "functionId",
          "type": "uint8"
        },
        {
          "components": [
            {
              "internalType": "address",
              "name": "sender",
              "type": "address"
            },
            {
              "internalType": "uint256",
              "name": "nonce",
              "type": "uint256"
            },
            {
              "internalType": "bytes",
              "name": "initCode",
              "type": "bytes"
            },
            {
              "internalType": "bytes",
              "name": "callData",
              "type": "bytes"
            },
            {
              "internalType": "uint256",
              "name": "callGasLimit",
              "type": "uint256"
            },
            {
              "internalType": "uint256",
              "name": "verificationGasLimit",
              "type": "uint256"
            },
            {
              "internalType": "uint256",
              "name": "preVerificationGas",
              "type": "uint256"
            },
            {
              "internalType": "uint256",
              "name": "maxFeePerGas",
              "type": "uint256"
            },
            {
              "internalType": "uint256",
              "name": "maxPriorityFeePerGas",
              "type": "uint256"
            },
            {
              "internalType": "bytes",
              "name": "paymasterAndData",
              "type": "bytes"
            },
            {
              "internalType": "bytes",
              "name": "signature",
              "type": "bytes"
            }
          ],
          "internalType": "struct UserOperation",
          "name": "userOp",
          "type": "tuple"
        },
        {
          "internalType": "bytes32",
          "name": "userOpHash",
          "type": "bytes32"
        }
      ],
      "name": "preUserOpValidationHook",
      "outputs": [
        {
          "internalType": "uint256",
          "name": "",
          "type": "uint256"
        }
      ],
      "stateMutability": "nonpayable",
      "type": "function"
    },
    {
      "inputs": [],
      "name": "productNonce",
      "outputs": [
        {
          "internalType": "uint256",
          "name": "",
          "type": "uint256"
        }
      ],
      "stateMutability": "view",
      "type": "function"
    },
    {
      "inputs": [
        {
          "internalType": "uint256",
          "name": "",
          "type": "uint256"
        }
      ],
      "name": "products",
      "outputs": [
        {
          "internalType": "uint256",
          "name": "productId",
          "type": "uint256"
        },
        {
          "internalType": "enum SubscriptionPlugin.ProductType",
          "name": "productType",
          "type": "uint8"
        },
        {
          "internalType": "address",
          "name": "provider",
          "type": "address"
        },
        {
          "internalType": "address",
          "name": "chargeToken",
          "type": "address"
        },
        {
          "internalType": "address",
          "name": "receivingAddress",
          "type": "address"
        },
        {
          "internalType": "uint256",
          "name": "destinationChain",
          "type": "uint256"
        },
        {
          "internalType": "bool",
          "name": "isActive",
          "type": "bool"
        }
      ],
      "stateMutability": "view",
      "type": "function"
    },
    {
      "inputs": [
        {
          "internalType": "uint8",
          "name": "functionId",
          "type": "uint8"
        },
        {
          "internalType": "address",
          "name": "sender",
          "type": "address"
        },
        {
          "internalType": "uint256",
          "name": "value",
          "type": "uint256"
        },
        {
          "internalType": "bytes",
          "name": "data",
          "type": "bytes"
        }
      ],
      "name": "runtimeValidationFunction",
      "outputs": [],
      "stateMutability": "nonpayable",
      "type": "function"
    },
    {
      "inputs": [
        {
          "internalType": "address",
          "name": "_bridgeAddr",
          "type": "address"
        }
      ],
      "name": "setTokenBridge",
      "outputs": [],
      "stateMutability": "nonpayable",
      "type": "function"
    },
    {
      "inputs": [
        {
          "internalType": "uint256",
          "name": "planId",
          "type": "uint256"
        },
        {
          "internalType": "uint256",
          "name": "endTime",
          "type": "uint256"
        }
      ],
      "name": "subscribe",
      "outputs": [],
      "stateMutability": "nonpayable",
      "type": "function"
    },
    {
      "inputs": [
        {
          "internalType": "address",
          "name": "",
          "type": "address"
        },
        {
          "internalType": "uint256",
          "name": "",
          "type": "uint256"
        }
      ],
      "name": "subscribedToProduct",
      "outputs": [
        {
          "internalType": "bool",
          "name": "",
          "type": "bool"
        }
      ],
      "stateMutability": "view",
      "type": "function"
    },
    {
      "inputs": [
        {
          "internalType": "address",
          "name": "",
          "type": "address"
        }
      ],
      "name": "subscriptionNonces",
      "outputs": [
        {
          "internalType": "uint256",
          "name": "",
          "type": "uint256"
        }
      ],
      "stateMutability": "view",
      "type": "function"
    },
    {
      "inputs": [
        {
          "internalType": "bytes4",
          "name": "interfaceId",
          "type": "bytes4"
        }
      ],
      "name": "supportsInterface",
      "outputs": [
        {
          "internalType": "bool",
          "name": "",
          "type": "bool"
        }
      ],
      "stateMutability": "view",
      "type": "function"
    },
    {
      "inputs": [],
      "name": "tokenBridge",
      "outputs": [
        {
          "internalType": "contract ITokenBridge",
          "name": "",
          "type": "address"
        }
      ],
      "stateMutability": "view",
      "type": "function"
    },
    {
      "inputs": [
        {
          "internalType": "uint256",
          "name": "subscriptionId",
          "type": "uint256"
        }
      ],
      "name": "unSubscribe",
      "outputs": [],
      "stateMutability": "nonpayable",
      "type": "function"
    },
    {
      "inputs": [
        {
          "internalType": "uint256",
          "name": "_planId",
          "type": "uint256"
        },
        {
          "internalType": "bool",
          "name": "_isActive",
          "type": "bool"
        }
      ],
      "name": "updatePlan",
      "outputs": [],
      "stateMutability": "nonpayable",
      "type": "function"
    },
    {
      "inputs": [
        {
          "internalType": "uint256",
          "name": "_productId",
          "type": "uint256"
        },
        {
          "internalType": "address",
          "name": "_receivingAddr",
          "type": "address"
        },
        {
          "internalType": "uint256",
          "name": "_destChain",
          "type": "uint256"
        },
        {
          "internalType": "bool",
          "name": "_isActive",
          "type": "bool"
        }
      ],
      "name": "updateProduct",
      "outputs": [],
      "stateMutability": "nonpayable",
      "type": "function"
    },
    {
      "inputs": [
        {
          "internalType": "uint8",
          "name": "functionId",
          "type": "uint8"
        },
        {
          "components": [
            {
              "internalType": "address",
              "name": "sender",
              "type": "address"
            },
            {
              "internalType": "uint256",
              "name": "nonce",
              "type": "uint256"
            },
            {
              "internalType": "bytes",
              "name": "initCode",
              "type": "bytes"
            },
            {
              "internalType": "bytes",
              "name": "callData",
              "type": "bytes"
            },
            {
              "internalType": "uint256",
              "name": "callGasLimit",
              "type": "uint256"
            },
            {
              "internalType": "uint256",
              "name": "verificationGasLimit",
              "type": "uint256"
            },
            {
              "internalType": "uint256",
              "name": "preVerificationGas",
              "type": "uint256"
            },
            {
              "internalType": "uint256",
              "name": "maxFeePerGas",
              "type": "uint256"
            },
            {
              "internalType": "uint256",
              "name": "maxPriorityFeePerGas",
              "type": "uint256"
            },
            {
              "internalType": "bytes",
              "name": "paymasterAndData",
              "type": "bytes"
            },
            {
              "internalType": "bytes",
              "name": "signature",
              "type": "bytes"
            }
          ],
          "internalType": "struct UserOperation",
          "name": "userOp",
          "type": "tuple"
        },
        {
          "internalType": "bytes32",
          "name": "userOpHash",
          "type": "bytes32"
        }
      ],
      "name": "userOpValidationFunction",
      "outputs": [
        {
          "internalType": "uint256",
          "name": "",
          "type": "uint256"
        }
      ],
      "stateMutability": "nonpayable",
      "type": "function"
    },
    {
      "inputs": [
        {
          "internalType": "address",
          "name": "",
          "type": "address"
        },
        {
          "internalType": "uint256",
          "name": "",
          "type": "uint256"
        }
      ],
      "name": "userSubscriptions",
      "outputs": [
        {
          "internalType": "uint256",
          "name": "subscriptionId",
          "type": "uint256"
        },
        {
          "internalType": "uint256",
          "name": "product",
          "type": "uint256"
        },
        {
          "internalType": "address",
          "name": "provider",
          "type": "address"
        },
        {
          "internalType": "uint256",
          "name": "plan",
          "type": "uint256"
        },
        {
          "internalType": "uint256",
          "name": "lastChargeDate",
          "type": "uint256"
        },
        {
          "internalType": "uint256",
          "name": "endTime",
          "type": "uint256"
        },
        {
          "internalType": "bool",
          "name": "isActive",
          "type": "bool"
        }
      ],
      "stateMutability": "view",
      "type": "function"
    }
  ],
  "bytecode": "0x60806040523480156200001157600080fd5b5060405162003a6038038062003a60833981016040819052620000349162000076565b60018054336001600160a01b0319918216178255600480549091166001600160a01b0393909316929092179091556000919091556002819055600355620000b5565b600080604083850312156200008a57600080fd5b825160208401519092506001600160a01b0381168114620000aa57600080fd5b809150509250929050565b61399b80620000c56000396000f3fe608060405234801561001057600080fd5b50600436106102485760003560e01c8063a3f4df7e1161013b578063c7763130116100b8578063e4f955b01161007c578063e4f955b0146106f0578063e9f3380814610703578063f7fc32a214610731578063f851a44014610744578063ffa1ad741461075757600080fd5b8063c7763130146105cc578063c95d6edc146105e1578063cd61587e14610689578063cd8c5272146106ca578063dfc2f42e146106dd57600080fd5b8063be8534e2116100ff578063be8534e214610544578063bfa15c7514610591578063bfd151c11461028a578063c2a96c1814610599578063c6328a46146105a157600080fd5b8063a3f4df7e14610435578063a3ffa9cd14610467578063a7be85c61461047a578063af87348314610422578063b1620616146104a857600080fd5b80632a73740c116101c95780637acc0b201161018d5780637acc0b201461038c5780637f5f66be146103fc578063843708131461040f57806388e18ce4146104225780638a91b0e31461037a57600080fd5b80632a73740c1461032b57806339d048601461033e57806346d60eb2146103515780636cbadbfa146103715780636d61fe701461037a57600080fd5b8063151d267711610210578063151d2677146102c5578063157f7123146102dc5780631b7c82ec146102ef5780631feea06a146102f85780632796b0301461031857600080fd5b806301ffc9a71461024d5780630c497af3146102755780630c7ecd841461028a5780631128186d1461029d578063118a5389146102b0575b600080fd5b61026061025b36600461268b565b61077b565b60405190151581526020015b60405180910390f35b6102886102833660046126c8565b6107b2565b005b610288610298366004612774565b610a53565b6102886102ab3660046127e6565b610a7c565b6102b8610aa5565b60405161026c919061288a565b6102ce60035481565b60405190815260200161026c565b6102886102ea366004612971565b610b75565b6102ce60025481565b6102ce6103063660046129a1565b60086020526000908152604090205481565b6102886103263660046129be565b610c6b565b6102886103393660046129d7565b610cc4565b61028861034c3660046129a1565b610d21565b61036461035f366004612774565b610d5a565b60405161026c91906129f9565b6102ce60005481565b610288610388366004612a0c565b5050565b6103e961039a3660046129be565b600660205260009081526040902080546001820154600283015460038401546004850154600590950154939460ff808516956101009095046001600160a01b0390811695948116949316921687565b60405161026c9796959493929190612a77565b61028861040a366004612ad2565b610d85565b61028861041d3660046129d7565b610da2565b6102ce610430366004612b8b565b61125f565b6103646040518060400160405280601381526020017229bab139b1b934b83a34b7b71028363ab3b4b760691b81525081565b610288610475366004612bea565b611289565b6103646040518060400160405280600f81526020016e5465652d70792026204a617962656560881b81525081565b6105026104b63660046129be565b60076020526000908152604090208054600182015460028301546003840154600490940154929391926001600160a01b03909116919063ffffffff811690640100000000900460ff1686565b6040805196875260208701959095526001600160a01b0390931693850193909352606084015263ffffffff9091166080830152151560a082015260c00161026c565b610574610552366004612c16565b60581b60ff60581b1660609190911b6bffffffffffffffffffffffff19161790565b6040516affffffffffffffffffffff19909116815260200161026c565b6102ce611613565b6102886116a6565b6004546105b4906001600160a01b031681565b6040516001600160a01b03909116815260200161026c565b6105d46116de565b60405161026c9190612dec565b6106446105ef366004612bea565b60096020908152600092835260408084209091529082529020805460018201546002830154600384015460048501546005860154600690960154949593946001600160a01b0390931693919290919060ff1687565b6040805197885260208801969096526001600160a01b03909416948601949094526060850191909152608084015260a0830191909152151560c082015260e00161026c565b6106b26106973660046129be565b6005602052600090815260409020546001600160401b031681565b6040516001600160401b03909116815260200161026c565b6102886106d8366004612f8a565b611e4f565b6102886106eb36600461306f565b611f26565b6102886106fe3660046130a0565b611f6c565b610260610711366004612bea565b600a60209081526000928352604080842090915290825290205460ff1681565b61028861073f366004613161565b611f9a565b6001546105b4906001600160a01b031681565b610364604051806040016040528060058152602001640312e302e360dc1b81525081565b60006001600160e01b0319821663f23b1ed760e01b14806107ac57506301ffc9a760e01b6001600160e01b03198316145b92915050565b6000838152600660205260408120548491036108095760405162461bcd60e51b8152602060048201526011602482015270141c9bd91d58dd08139bdd08119bdd5b99607a1b60448201526064015b60405180910390fd5b600084815260066020526040902060010154849061010090046001600160a01b031633146108495760405162461bcd60e51b8152600401610800906131ab565b610e108463ffffffff161015801561086b57506301e133808463ffffffff1611155b6108aa5760405162461bcd60e51b815260206004820152601060248201526f1a5b9d985b1a59081a5b9d195c9d985b60821b6044820152606401610800565b600060066000878152602001908152602001600020905060006040518060c0016040528088815260200160035481526020018360010160019054906101000a90046001600160a01b03166001600160a01b031681526020018681526020018763ffffffff168152602001600115158152509050806007600083602001518152602001908152602001600020600082015181600001556020820151816001015560408201518160020160006101000a8154816001600160a01b0302191690836001600160a01b031602179055506060820151816003015560808201518160040160006101000a81548163ffffffff021916908363ffffffff16021790555060a08201518160040160046101000a81548160ff0219169083151502179055509050506001600360008282546109dd91906131e2565b925050819055508060200151877fefcd7034bb3bc315795fdab1fdca7520ce3650a588e5f33fc58163c79e9b737e836060015184608001518560a00151604051610a429392919092835263ffffffff9190911660208301521515604082015260600190565b60405180910390a350505050505050565b6000356001600160e01b031916856040516384b9b37960e01b8152600401610800929190613203565b6000356001600160e01b031916836040516384b9b37960e01b8152600401610800929190613203565b610ad06040518060800160405280606081526020016060815260200160608152602001606081525090565b610afb6040518060800160405280606081526020016060815260200160608152602001606081525090565b604080518082018252601381527229bab139b1b934b83a34b7b71028363ab3b4b760691b6020808301919091529083528151808301835260058152640312e302e360dc1b818301528382015281518083018352600f81526e5465652d70792026204a617962656560881b9181019190915290820152919050565b600082815260076020526040812060010154839103610bc75760405162461bcd60e51b815260206004820152600e60248201526d141b185b88139bdd08119bdd5b9960921b6044820152606401610800565b600083815260076020526040902060028101546001600160a01b03163314610c015760405162461bcd60e51b8152600401610800906131ab565b60048101805484151564010000000090810264ff0000000019909216919091179182905560018301546040519190920460ff16151581527fe8898c20571732660341e9bd58210cbce79a036302e465085395645040fd1cc29060200160405180910390a250505050565b336000818152600960209081526040808320858452825291829020600601805460ff1916905590518381527f3ce0ad9e088ae3e7555f42cc73d57bf59207a30deef3eea8654a27e86650a4a9910160405180910390a250565b3360008181526009602090815260408083208684528252918290206005810185905591518481529192859290917ff89b25a6984f0e221fa1b1aceca144b54e7e350bb8678296e96747d4ae2b9cdf910160405180910390a3505050565b6001546001600160a01b03163314610d3857600080fd5b600480546001600160a01b0319166001600160a01b0392909216919091179055565b60606000356001600160e01b031916866040516384b9b37960e01b8152600401610800929190613203565b610d96898989898989898989612137565b50505050505050505050565b6000828152600760205260409020600401548290640100000000900460ff16610e005760405162461bcd60e51b815260206004820152601060248201526f506c616e20697320696e61637469766560801b6044820152606401610800565b333b600003610e5f5760405162461bcd60e51b815260206004820152602560248201527f4163636f756e74206973206e6f74206f6620736d61727420636f6e7472616374604482015264207479706560d81b6064820152608401610800565b6000838152600760209081526040808320815160c08101835281548082526001808401548387015260028401546001600160a01b0316838601526003840154606084015260049093015463ffffffff8116608084015260ff6401000000009091048116151560a084015290865260068552838620845160e08101909552805485528084015492969590939085019290911690811115610f0057610f00612a4d565b6001811115610f1157610f11612a4d565b815260018201546001600160a01b036101009091048116602083015260028301548116604083015260038301541660608201526004820154608082015260059091015460ff16151560a0918201528301519091508015610f7257508060c001515b610fbe5760405162461bcd60e51b815260206004820152601f60248201527f506c616e20616e642070726f64756374206d75737420626520616374697665006044820152606401610800565b336000908152600a602090815260408083208451845290915290205460ff16156110365760405162461bcd60e51b815260206004820152602360248201527f50726f6475637420737562736372697074696f6e20616c72656164792065786960448201526273747360e81b6064820152608401610800565b60006040518060e0016040528060086000336001600160a01b03166001600160a01b031681526020019081526020016000205481526020018360000151815260200184604001516001600160a01b03168152602001846020015181526020014281526020018681526020016001151581525090506110d1836060015133846060015185608001518660a0015186600001518960200151612373565b3360008181526009602090815260408083208551845282528083208551815585830151600180830191909155868301516002830180546001600160a01b0319166001600160a01b03909216919091179055606087015160038301556080870151600483015560a0870151600583015560c08701516006909201805460ff1916921515929092179091559383526008909152812080549091906111749084906131e2565b9091555050336000818152600a6020908152604080832086518452825291829020805460ff19166001179055845186830151855184516001600160a01b039092168252928101929092529181018890528892907f1913e17d5784005a914657f9e879fcc261644776365f1d84aeb45afcb6da48649060600160405180910390a48151608080840151835160608781015186850151604080516001600160a01b039096168652602086019490945292840152820152889133917ff525c8253dece3e354aaae6f24c19577dea21f33ca86474610ed00771fb13689910160405180910390a4505050505050565b600080356001600160e01b031916846040516384b9b37960e01b8152600401610800929190613203565b6001600160a01b03821660009081526009602090815260408083208484529091529020600601548290829060ff166113035760405162461bcd60e51b815260206004820152601760248201527f537562736372697074696f6e206e6f74206163746976650000000000000000006044820152606401610800565b6001600160a01b0380851660009081526009602090815260408083208784528252808320600380820154855260078452828520835160c08101855281548152600180830154828801526002830154909816818601529181015460608301526004015463ffffffff8116608083015260ff6401000000009091048116151560a083015286830154865260068552838620845160e08101909552805485528088015493979296959093908501929116908111156113c0576113c0612a4d565b60018111156113d1576113d1612a4d565b815260018201546001600160a01b0361010090910481166020830152600283015481166040830152600383015416606082015260048083015460808084019190915260059093015460ff16151560a090920191909152850154908401519192504291611443919063ffffffff166131e2565b11156114895760405162461bcd60e51b81526020600482015260156024820152741d1a5b5948125b9d195c9d985b081b9bdd081b595d605a1b6044820152606401610800565b428360050154118061149d57506005830154155b6114e95760405162461bcd60e51b815260206004820152601d60248201527f737562736372697074696f6e20656e642074696d6520656c61707365640000006044820152606401610800565b8060c001516115305760405162461bcd60e51b815260206004820152601360248201527250726f6475637420697320696e61637469766560681b6044820152606401610800565b8160a001516115745760405162461bcd60e51b815260206004820152601060248201526f506c616e20697320696e61637469766560801b6044820152606401610800565b61159b826060015188836060015184608001518560a0015188600001548860200151612373565b42600484018190558251602080850151608085810151606080890151604080516001600160a01b0394851681529687018f905286015284019590955292939092908b16917ff525c8253dece3e354aaae6f24c19577dea21f33ca86474610ed00771fb13689910160405180910390a450505050505050565b6000306001600160a01b031663c77631306040518163ffffffff1660e01b8152600401600060405180830381865afa158015611653573d6000803e3d6000fd5b505050506040513d6000823e601f3d908101601f1916820160405261167b91908101906135d8565b60405160200161168b9190612dec565b60405160208183030381529060405280519060200120905090565b60405162461bcd60e51b815260206004820152600d60248201526c139bdd081cdd5c1c1bdc9d1959609a1b6044820152606401610800565b6116e66125d1565b6116ee6125d1565b604080516002808252606082018352909160208301908036833750505060208201819052805163f23b1ed760e01b919060009061172d5761172d6137b5565b6001600160e01b0319909216602092830291909101820152810151805163f23b1ed760e01b91906001908110611765576117656137b5565b6001600160e01b03199290921660209283029190910182015260408051600a808252610160820190925291820161014080368337505050604082018190528051638437081360e01b91906000906117be576117be6137b5565b6001600160e01b031990921660209283029190910190910152604081015180516302796b0360e41b919060019081106117f9576117f96137b5565b6001600160e01b031990921660209283029190910190910152604081015180516318552d8360e31b91906002908110611834576118346137b5565b6001600160e01b03199092166020928302919091019091015260408101518051633fafb35f60e11b9190600390811061186f5761186f6137b5565b6001600160e01b03199092166020928302919091019091015260408101518051630c497af360e01b919060049081106118aa576118aa6137b5565b6001600160e01b03199092166020928302919091019091015260408101518051637bfe195160e11b919060059081106118e5576118e56137b5565b6001600160e01b0319909216602092830291909101909101526040810151805163157f712360e01b91906006908110611920576119206137b5565b6001600160e01b031990921660209283029190910190910152604081015180516366c6293960e11b9190600790811061195b5761195b6137b5565b6001600160e01b03199092166020928302919091019091015260408101518051630e4f955b60e41b91906008908110611996576119966137b5565b6001600160e01b03199092166020928302919091019091015260408101518051630a9cdd0360e21b919060099081106119d1576119d16137b5565b6001600160e01b03199290921660209283029190910182015260408051606081018252600281526000928101929092526001828201528051600a808252610160820190925290816020015b611a24612636565b815260200190600190039081611a1c57505060e0830190815260408051808201909152638437081360e01b81526020810183905290518051600090611a6b57611a6b6137b5565b60200260200101819052506040518060400160405280632796b03060e01b6001600160e01b0319168152602001828152508260e00151600181518110611ab357611ab36137b5565b6020026020010181905250604051806040016040528063c2a96c1860e01b6001600160e01b0319168152602001828152508260e00151600281518110611afb57611afb6137b5565b60200260200101819052506040518060400160405280637f5f66be60e01b6001600160e01b0319168152602001828152508260e00151600381518110611b4357611b436137b5565b60200260200101819052506040518060400160405280630c497af360e01b6001600160e01b0319168152602001828152508260e00151600481518110611b8b57611b8b6137b5565b6020026020010181905250604051806040016040528063f7fc32a260e01b6001600160e01b0319168152602001828152508260e00151600581518110611bd357611bd36137b5565b6020026020010181905250604051806040016040528063157f712360e01b6001600160e01b0319168152602001828152508260e00151600681518110611c1b57611c1b6137b5565b6020026020010181905250604051806040016040528063cd8c527260e01b6001600160e01b0319168152602001828152508260e00151600781518110611c6357611c636137b5565b6020026020010181905250604051806040016040528063e4f955b060e01b6001600160e01b0319168152602001828152508260e00151600881518110611cab57611cab6137b5565b60200260200101819052506040518060400160405280632a73740c60e01b6001600160e01b0319168152602001828152508260e00151600981518110611cf357611cf36137b5565b60209081029190910101526040805160038082526080820190925290816020015b611d1c612636565b815260200190600190039081611d145750506101408301908152604080518082018252638437081360e01b8152815160608101835260048152600060208083018290529382018190529282015291518051909190611d7c57611d7c6137b5565b6020908102919091018101919091526040805180820182526302796b0360e41b81528151606081018352600481526000818501819052928101929092529182015261014083015180516001908110611dd657611dd66137b5565b6020908102919091018101919091526040805180820182526318552d8360e31b81528151606081018352600481526000818501819052928101929092529182015261014083015180516002908110611e3057611e306137b5565b60209081029190910101525060016080820181905260a0820152919050565b6000819003611ea05760405162461bcd60e51b815260206004820152601760248201527f706c616e73206d757374206e6f7420626520656d7074790000000000000000006044820152606401610800565b6000611eb38c8c8c8c8c8c8c8c8c612137565b905060005b82811015611f1757611f0f82858584818110611ed657611ed66137b5565b9050604002016020016020810190611eee91906137cb565b868685818110611f0057611f006137b5565b905060400201600001356107b2565b600101611eb8565b50505050505050505050505050565b6001546001600160a01b03163314611f3d57600080fd5b600091825260056020526040909120805467ffffffffffffffff19166001600160401b03909216919091179055565b6000611f808b8b8b8b8b60008c8c8c612137565b9050611f8d8184846107b2565b5050505050505050505050565b600084815260066020526040812054859103611fec5760405162461bcd60e51b8152602060048201526011602482015270141c9bd91d58dd08139bdd08119bdd5b99607a1b6044820152606401610800565b600085815260066020526040902060010154859061010090046001600160a01b0316331461202c5760405162461bcd60e51b8152600401610800906131ab565b600054841461209b576000848152600560205260408120546001600160401b0316900361209b5760405162461bcd60e51b815260206004820152601f60248201527f64657374696e6174696f6e20636861696e206e6f7420737570706f72746564006044820152606401610800565b6000868152600660209081526040918290206003810180546001600160a01b0319166001600160a01b038a169081179091556004820188905560058201805460ff19168815159081179091558254855192835293820189905260ff16151593810193909352917f0e816aab067090cfcfffdd25d4bd81f5a9fa515ea99385748c73eb642debca649060600160405180910390a250505050505050565b6000805482146121a7576000828152600560205260408120546001600160401b031690036121a75760405162461bcd60e51b815260206004820152601f60248201527f64657374696e6174696f6e20636861696e206e6f7420737570706f72746564006044820152606401610800565b60006040518060e0016040528060025481526020018760018111156121ce576121ce612a4d565b8152602001336001600160a01b03168152602001866001600160a01b03168152602001856001600160a01b031681526020018481526020016001151581525090508060066000836000015181526020019081526020016000206000820151816000015560208201518160010160006101000a81548160ff0219169083600181111561225b5761225b612a4d565b0217905550604082015160018281018054610100600160a81b0319166101006001600160a01b03948516021790556060840151600280850180546001600160a01b03199081169386169390931790556080860151600386018054909316941693909317905560a0840151600484015560c0909301516005909201805460ff19169215159290921790915580546000906122f59084906131e2565b92505081905550336001600160a01b031681600001517ff9815db369a250e4360ba847cf51ab4c7702b42b361aac1288caeed4404cc0ad8d8d8d8d8d8d89606001518a608001518b60a001518c60c0015160405161235c9a9998979695949392919061380f565b60405180910390a3519a9950505050505050505050565b6040513060248201526044810188905260009060640160408051601f198184030181529181526020820180516001600160e01b031663a9059cbb60e01b179052516338997b1160e01b81529091506001600160a01b038816906338997b11906123e59089906000908690600401613885565b6000604051808303816000875af1158015612404573d6000803e3d6000fd5b505050506040513d6000823e601f3d908101601f1916820160405261242c91908101906138b5565b5060005484036124af5760405163a9059cbb60e01b81526001600160a01b038681166004830152602482018a905287169063a9059cbb906044016020604051808303816000875af1158015612485573d6000803e3d6000fd5b505050506040513d601f19601f820116820180604052508101906124a99190613948565b506125c7565b6004805460405163095ea7b360e01b81526001600160a01b0391821692810192909252602482018a905287169063095ea7b3906044016020604051808303816000875af1158015612504573d6000803e3d6000fd5b505050506040513d601f19601f820116820180604052508101906125289190613948565b5060048054600086815260056020526040908190205490516327d52ed360e11b81526001600160401b03909116928101929092526001600160a01b0387811660248401528881166044840152606483018b90526084830186905260a483018590521690634faa5da69060c401600060405180830381600087803b1580156125ae57600080fd5b505af11580156125c2573d6000803e3d6000fd5b505050505b5050505050505050565b604051806101800160405280606081526020016060815260200160608152602001606081526020016000151581526020016000151581526020016060815260200160608152602001606081526020016060815260200160608152602001606081525090565b60408051808201909152600081526020810161266d6040805160608101909152806000815260006020820181905260409091015290565b905290565b6001600160e01b03198116811461268857600080fd5b50565b60006020828403121561269d57600080fd5b81356126a881612672565b9392505050565b803563ffffffff811681146126c357600080fd5b919050565b6000806000606084860312156126dd57600080fd5b833592506126ed602085016126af565b9150604084013590509250925092565b60ff8116811461268857600080fd5b6001600160a01b038116811461268857600080fd5b80356126c38161270c565b60008083601f84011261273e57600080fd5b5081356001600160401b0381111561275557600080fd5b60208301915083602082850101111561276d57600080fd5b9250929050565b60008060008060006080868803121561278c57600080fd5b8535612797816126fd565b945060208601356127a78161270c565b93506040860135925060608601356001600160401b038111156127c957600080fd5b6127d58882890161272c565b969995985093965092949392505050565b6000806000604084860312156127fb57600080fd5b8335612806816126fd565b925060208401356001600160401b0381111561282157600080fd5b61282d8682870161272c565b9497909650939450505050565b60005b8381101561285557818101518382015260200161283d565b50506000910152565b6000815180845261287681602086016020860161283a565b601f01601f19169290920160200192915050565b6000602080835283516080828501526128a660a085018261285e565b905081850151601f196040818785030160408801526128c5848461285e565b935060408801519250818785030160608801526128e2848461285e565b6060890151888203840160808a015280518083529195508601935085850190600581901b8601870160005b828110156129545787820386018452865180516001600160e01b03191683528901518983018690526129418684018261285e565b978a0197948a019492505060010161290d565b509a9950505050505050505050565b801515811461268857600080fd5b6000806040838503121561298457600080fd5b82359150602083013561299681612963565b809150509250929050565b6000602082840312156129b357600080fd5b81356126a88161270c565b6000602082840312156129d057600080fd5b5035919050565b600080604083850312156129ea57600080fd5b50508035926020909101359150565b6020815260006126a8602083018461285e565b60008060208385031215612a1f57600080fd5b82356001600160401b03811115612a3557600080fd5b612a418582860161272c565b90969095509350505050565b634e487b7160e01b600052602160045260246000fd5b60028110612a7357612a73612a4d565b9052565b87815260e08101612a8b6020830189612a63565b6001600160a01b039687166040830152948616606082015292909416608083015260a082015291151560c09092019190915292915050565b8035600281106126c357600080fd5b600080600080600080600080600060e08a8c031215612af057600080fd5b8935985060208a01356001600160401b0380821115612b0e57600080fd5b612b1a8d838e0161272c565b909a50985060408c0135915080821115612b3357600080fd5b50612b408c828d0161272c565b9097509550612b53905060608b01612ac3565b935060808a0135612b638161270c565b925060a08a0135612b738161270c565b8092505060c08a013590509295985092959850929598565b600080600060608486031215612ba057600080fd5b8335612bab816126fd565b925060208401356001600160401b03811115612bc657600080fd5b84016101608187031215612bd957600080fd5b929592945050506040919091013590565b60008060408385031215612bfd57600080fd5b8235612c088161270c565b946020939093013593505050565b60008060408385031215612c2957600080fd5b8235612c348161270c565b91506020830135612996816126fd565b60008151808452602080850194506020840160005b83811015612c7f5781516001600160e01b03191687529582019590820190600101612c59565b509495945050505050565b600082825180855260208086019550808260051b84010181860160005b84811015612d0057858303601f19018952815180516001600160a01b0316845284810151151585850152604090810151606091850182905290612cec81860183612c44565b9a86019a9450505090830190600101612ca7565b5090979650505050505050565b805160058110612d1f57612d1f612a4d565b825260208181015160ff1690830152604090810151910152565b60008151808452602080850194506020840160005b83811015612c7f57815180516001600160e01b0319168852830151612d7584890182612d0d565b506080969096019590820190600101612d4e565b60008151808452602080850194506020840160005b83811015612c7f57815180516001600160e01b031916885283810151612dc6858a0182612d0d565b5060400151612dd86080890182612d0d565b5060e0969096019590820190600101612d9e565b6020815260008251610180806020850152612e0b6101a0850183612c44565b91506020850151601f1980868503016040870152612e298483612c44565b93506040870151915080868503016060870152612e468483612c44565b93506060870151915080868503016080870152612e638483612c44565b935060808701519150612e7a60a087018315159052565b60a087015180151560c0880152915060c08701519150808685030160e0870152612ea48483612c8a565b935060e08701519150610100818786030181880152612ec38584612d39565b945080880151925050610120818786030181880152612ee28584612d39565b945080880151925050610140818786030181880152612f018584612d39565b945080880151925050610160818786030181880152612f208584612d39565b908801518782039092018488015293509050612f3c8382612d89565b9695505050505050565b60008083601f840112612f5857600080fd5b5081356001600160401b03811115612f6f57600080fd5b6020830191508360208260061b850101111561276d57600080fd5b60008060008060008060008060008060006101008c8e031215612fac57600080fd5b8b359a506001600160401b038060208e01351115612fc957600080fd5b612fd98e60208f01358f0161272c565b909b50995060408d0135811015612fef57600080fd5b612fff8e60408f01358f0161272c565b909950975061301060608e01612ac3565b965061301e60808e01612721565b955061302c60a08e01612721565b945060c08d013593508060e08e0135111561304657600080fd5b506130578d60e08e01358e01612f46565b81935080925050509295989b509295989b9093969950565b6000806040838503121561308257600080fd5b8235915060208301356001600160401b038116811461299657600080fd5b6000806000806000806000806000806101008b8d0312156130c057600080fd5b8a35995060208b01356001600160401b03808211156130de57600080fd5b6130ea8e838f0161272c565b909b50995060408d013591508082111561310357600080fd5b506131108d828e0161272c565b90985096505060608b01356131248161270c565b945060808b01356131348161270c565b935060a08b0135925061314960c08c016126af565b915060e08b013590509295989b9194979a5092959850565b6000806000806080858703121561317757600080fd5b8435935060208501356131898161270c565b92506040850135915060608501356131a081612963565b939692955090935050565b60208082526017908201527f4e6f7420617574686f72697a65642070726f7669646572000000000000000000604082015260600190565b808201808211156107ac57634e487b7160e01b600052601160045260246000fd5b6001600160e01b031992909216825260ff16602082015260400190565b634e487b7160e01b600052604160045260246000fd5b604051606081016001600160401b038111828210171561325857613258613220565b60405290565b604080519081016001600160401b038111828210171561325857613258613220565b60405161018081016001600160401b038111828210171561325857613258613220565b604051601f8201601f191681016001600160401b03811182821017156132cb576132cb613220565b604052919050565b60006001600160401b038211156132ec576132ec613220565b5060051b60200190565b600082601f83011261330757600080fd5b8151602061331c613317836132d3565b6132a3565b8083825260208201915060208460051b87010193508684111561333e57600080fd5b602086015b8481101561336357805161335681612672565b8352918301918301613343565b509695505050505050565b80516126c381612963565b600082601f83011261338a57600080fd5b8151602061339a613317836132d3565b82815260059290921b840181019181810190868411156133b957600080fd5b8286015b848110156133635780516001600160401b03808211156133dd5760008081fd5b908801906060828b03601f19018113156133f75760008081fd5b6133ff613236565b8784015161340c8161270c565b815260408481015161341d81612963565b828a01529184015191838311156134345760008081fd5b6134428d8a858801016132f6565b9082015286525050509183019183016133bd565b60006060828403121561346857600080fd5b613470613236565b905081516005811061348157600080fd5b81526020820151613491816126fd565b806020830152506040820151604082015292915050565b600082601f8301126134b957600080fd5b815160206134c9613317836132d3565b82815260079290921b840181019181810190868411156134e857600080fd5b8286015b8481101561336357608081890312156135055760008081fd5b61350d61325e565b815161351881612672565b815261352689838701613456565b818601528352918301916080016134ec565b600082601f83011261354957600080fd5b81516020613559613317836132d3565b82815260e0928302850182019282820191908785111561357857600080fd5b8387015b85811015612d005781818a0312156135945760008081fd5b61359c613236565b81516135a781612672565b81526135b58a838801613456565b868201526135c68a60808401613456565b6040820152845292840192810161357c565b6000602082840312156135ea57600080fd5b81516001600160401b038082111561360157600080fd5b90830190610180828603121561361657600080fd5b61361e613280565b82518281111561362d57600080fd5b613639878286016132f6565b82525060208301518281111561364e57600080fd5b61365a878286016132f6565b60208301525060408301518281111561367257600080fd5b61367e878286016132f6565b60408301525060608301518281111561369657600080fd5b6136a2878286016132f6565b6060830152506136b46080840161336e565b60808201526136c560a0840161336e565b60a082015260c0830151828111156136dc57600080fd5b6136e887828601613379565b60c08301525060e08301518281111561370057600080fd5b61370c878286016134a8565b60e083015250610100808401518381111561372657600080fd5b613732888287016134a8565b828401525050610120808401518381111561374c57600080fd5b613758888287016134a8565b828401525050610140808401518381111561377257600080fd5b61377e888287016134a8565b828401525050610160808401518381111561379857600080fd5b6137a488828701613538565b918301919091525095945050505050565b634e487b7160e01b600052603260045260246000fd5b6000602082840312156137dd57600080fd5b6126a8826126af565b81835281816020850137506000828201602090810191909152601f909101601f19169091010190565b60006101008c835280602084015261382a8184018c8e6137e6565b9050828103604084015261383f818a8c6137e6565b91505061384f6060830188612a63565b6001600160a01b0395861660808301529390941660a085015260c0840191909152151560e0909201919091529695505050505050565b60018060a01b03841681528260208201526060604082015260006138ac606083018461285e565b95945050505050565b6000602082840312156138c757600080fd5b81516001600160401b03808211156138de57600080fd5b818401915084601f8301126138f257600080fd5b81518181111561390457613904613220565b613917601f8201601f19166020016132a3565b915080825285602082850101111561392e57600080fd5b61393f81602084016020860161283a565b50949350505050565b60006020828403121561395a57600080fd5b81516126a88161296356fea2646970667358221220c3a5f679624bb0d2071f747c861738086933ab252d86b35d789a597a68943b1264736f6c63430008180033",
  "linkReferences": {},
  "deployedLinkReferences": {}
}