{
  "_format": "hh-sol-artifact-1",
  "contractName": "SubscriptionPlugin",
  "sourceName": "contracts/SubscriptionPlugin.sol",
  "abi": [
    {
      "inputs": [
        {
          "internalType": "uint256",
          "name": "chainId",
          "type": "uint256"
        }
      ],
      "stateMutability": "nonpayable",
      "type": "constructor"
    },
    {
      "inputs": [],
      "name": "AlreadyInitialized",
      "type": "error"
    },
    {
      "inputs": [],
      "name": "InvalidAction",
      "type": "error"
    },
    {
      "inputs": [
        {
          "internalType": "address",
          "name": "caller",
          "type": "address"
        }
      ],
      "name": "NotContractCaller",
      "type": "error"
    },
    {
      "inputs": [
        {
          "internalType": "bytes4",
          "name": "selector",
          "type": "bytes4"
        },
        {
          "internalType": "uint8",
          "name": "functionId",
          "type": "uint8"
        }
      ],
      "name": "NotImplemented",
      "type": "error"
    },
    {
      "inputs": [],
      "name": "NotInitialized",
      "type": "error"
    },
    {
      "anonymous": false,
      "inputs": [
        {
          "indexed": true,
          "internalType": "bytes32",
          "name": "productId",
          "type": "bytes32"
        },
        {
          "indexed": true,
          "internalType": "bytes32",
          "name": "planId",
          "type": "bytes32"
        },
        {
          "indexed": false,
          "internalType": "uint256",
          "name": "price",
          "type": "uint256"
        },
        {
          "indexed": false,
          "internalType": "uint256",
          "name": "chargeInterval",
          "type": "uint256"
        },
        {
          "indexed": false,
          "internalType": "bool",
          "name": "isActive",
          "type": "bool"
        }
      ],
      "name": "PlanCreated",
      "type": "event"
    },
    {
      "anonymous": false,
      "inputs": [
        {
          "indexed": true,
          "internalType": "bytes32",
          "name": "planId",
          "type": "bytes32"
        },
        {
          "indexed": false,
          "internalType": "bool",
          "name": "isActive",
          "type": "bool"
        }
      ],
      "name": "PlanUpdated",
      "type": "event"
    },
    {
      "anonymous": false,
      "inputs": [
        {
          "indexed": true,
          "internalType": "bytes32",
          "name": "productId",
          "type": "bytes32"
        },
        {
          "indexed": true,
          "internalType": "address",
          "name": "provider",
          "type": "address"
        },
        {
          "indexed": false,
          "internalType": "bytes32",
          "name": "name",
          "type": "bytes32"
        },
        {
          "indexed": false,
          "internalType": "address",
          "name": "chargeToken",
          "type": "address"
        },
        {
          "indexed": false,
          "internalType": "uint256",
          "name": "destinationChain",
          "type": "uint256"
        },
        {
          "indexed": false,
          "internalType": "bool",
          "name": "isActive",
          "type": "bool"
        }
      ],
      "name": "ProductCreated",
      "type": "event"
    },
    {
      "anonymous": false,
      "inputs": [
        {
          "indexed": true,
          "internalType": "bytes32",
          "name": "productId",
          "type": "bytes32"
        },
        {
          "indexed": false,
          "internalType": "address",
          "name": "receivingAddress",
          "type": "address"
        },
        {
          "indexed": false,
          "internalType": "address",
          "name": "chargeToken",
          "type": "address"
        },
        {
          "indexed": false,
          "internalType": "uint256",
          "name": "destinationChain",
          "type": "uint256"
        },
        {
          "indexed": false,
          "internalType": "bool",
          "name": "isActive",
          "type": "bool"
        }
      ],
      "name": "ProductUpdated",
      "type": "event"
    },
    {
      "anonymous": false,
      "inputs": [
        {
          "indexed": true,
          "internalType": "address",
          "name": "subscriber",
          "type": "address"
        },
        {
          "indexed": false,
          "internalType": "address",
          "name": "provider",
          "type": "address"
        },
        {
          "indexed": true,
          "internalType": "bytes32",
          "name": "product",
          "type": "bytes32"
        },
        {
          "indexed": true,
          "internalType": "bytes32",
          "name": "plan",
          "type": "bytes32"
        },
        {
          "indexed": false,
          "internalType": "bytes32",
          "name": "subscriptionId",
          "type": "bytes32"
        }
      ],
      "name": "Subscribed",
      "type": "event"
    },
    {
      "anonymous": false,
      "inputs": [
        {
          "indexed": true,
          "internalType": "address",
          "name": "subscriber",
          "type": "address"
        },
        {
          "indexed": false,
          "internalType": "bytes32",
          "name": "subscriptionId",
          "type": "bytes32"
        },
        {
          "indexed": true,
          "internalType": "bytes32",
          "name": "planId",
          "type": "bytes32"
        },
        {
          "indexed": false,
          "internalType": "uint256",
          "name": "amount",
          "type": "uint256"
        }
      ],
      "name": "SubscriptionCharged",
      "type": "event"
    },
    {
      "anonymous": false,
      "inputs": [
        {
          "indexed": true,
          "internalType": "address",
          "name": "user",
          "type": "address"
        },
        {
          "indexed": false,
          "internalType": "bytes32",
          "name": "subscriptionId",
          "type": "bytes32"
        },
        {
          "indexed": false,
          "internalType": "bytes32",
          "name": "planId",
          "type": "bytes32"
        }
      ],
      "name": "SubscriptionPlanChanged",
      "type": "event"
    },
    {
      "anonymous": false,
      "inputs": [
        {
          "indexed": true,
          "internalType": "address",
          "name": "user",
          "type": "address"
        },
        {
          "indexed": false,
          "internalType": "bytes32",
          "name": "subscriptionId",
          "type": "bytes32"
        }
      ],
      "name": "UnSubscribed",
      "type": "event"
    },
    {
      "inputs": [],
      "name": "AUTHOR",
      "outputs": [
        {
          "internalType": "string",
          "name": "",
          "type": "string"
        }
      ],
      "stateMutability": "view",
      "type": "function"
    },
    {
      "inputs": [],
      "name": "NAME",
      "outputs": [
        {
          "internalType": "string",
          "name": "",
          "type": "string"
        }
      ],
      "stateMutability": "view",
      "type": "function"
    },
    {
      "inputs": [],
      "name": "VERSION",
      "outputs": [
        {
          "internalType": "string",
          "name": "",
          "type": "string"
        }
      ],
      "stateMutability": "view",
      "type": "function"
    },
    {
      "inputs": [],
      "name": "admin",
      "outputs": [
        {
          "internalType": "address",
          "name": "",
          "type": "address"
        }
      ],
      "stateMutability": "view",
      "type": "function"
    },
    {
      "inputs": [
        {
          "internalType": "bytes32",
          "name": "productId",
          "type": "bytes32"
        },
        {
          "internalType": "bytes32",
          "name": "planId",
          "type": "bytes32"
        },
        {
          "internalType": "bytes32",
          "name": "subscriptionId",
          "type": "bytes32"
        },
        {
          "internalType": "address",
          "name": "provider",
          "type": "address"
        }
      ],
      "name": "changeSubscriptionPlan",
      "outputs": [],
      "stateMutability": "nonpayable",
      "type": "function"
    },
    {
      "inputs": [
        {
          "internalType": "bytes32",
          "name": "planId",
          "type": "bytes32"
        },
        {
          "internalType": "address",
          "name": "provider",
          "type": "address"
        },
        {
          "internalType": "bytes32",
          "name": "productId",
          "type": "bytes32"
        },
        {
          "internalType": "address",
          "name": "subscriber",
          "type": "address"
        },
        {
          "internalType": "bytes32",
          "name": "subscriptionId",
          "type": "bytes32"
        }
      ],
      "name": "charge",
      "outputs": [],
      "stateMutability": "nonpayable",
      "type": "function"
    },
    {
      "inputs": [
        {
          "internalType": "bytes32",
          "name": "_productId",
          "type": "bytes32"
        },
        {
          "internalType": "uint32",
          "name": "_chargeInterval",
          "type": "uint32"
        },
        {
          "internalType": "uint256",
          "name": "_price",
          "type": "uint256"
        }
      ],
      "name": "createPlan",
      "outputs": [],
      "stateMutability": "nonpayable",
      "type": "function"
    },
    {
      "inputs": [
        {
          "internalType": "bytes32",
          "name": "_name",
          "type": "bytes32"
        },
        {
          "internalType": "address",
          "name": "_chargeToken",
          "type": "address"
        },
        {
          "internalType": "address",
          "name": "_receivingAddress",
          "type": "address"
        },
        {
          "internalType": "uint256",
          "name": "_destinationChain",
          "type": "uint256"
        }
      ],
      "name": "createProduct",
      "outputs": [],
      "stateMutability": "nonpayable",
      "type": "function"
    },
    {
      "inputs": [],
      "name": "currentChainId",
      "outputs": [
        {
          "internalType": "uint256",
          "name": "",
          "type": "uint256"
        }
      ],
      "stateMutability": "view",
      "type": "function"
    },
    {
      "inputs": [],
      "name": "getManifestHash",
      "outputs": [
        {
          "internalType": "bytes32",
          "name": "",
          "type": "bytes32"
        }
      ],
      "stateMutability": "view",
      "type": "function"
    },
    {
      "inputs": [
        {
          "internalType": "address",
          "name": "subscriber",
          "type": "address"
        }
      ],
      "name": "getUserSubscriptions",
      "outputs": [
        {
          "components": [
            {
              "internalType": "bytes32",
              "name": "subscriptionId",
              "type": "bytes32"
            },
            {
              "internalType": "bytes32",
              "name": "product",
              "type": "bytes32"
            },
            {
              "internalType": "address",
              "name": "provider",
              "type": "address"
            },
            {
              "internalType": "bytes32",
              "name": "plan",
              "type": "bytes32"
            },
            {
              "internalType": "uint256",
              "name": "lastChargeDate",
              "type": "uint256"
            },
            {
              "internalType": "bool",
              "name": "isActive",
              "type": "bool"
            }
          ],
          "internalType": "struct SubscriptionPlugin.UserSubscription[]",
          "name": "subscriptions",
          "type": "tuple[]"
        }
      ],
      "stateMutability": "view",
      "type": "function"
    },
    {
      "inputs": [
        {
          "internalType": "address",
          "name": "subscriber",
          "type": "address"
        },
        {
          "internalType": "bytes32",
          "name": "productId",
          "type": "bytes32"
        }
      ],
      "name": "isSubscribedToProduct",
      "outputs": [
        {
          "internalType": "bool",
          "name": "",
          "type": "bool"
        }
      ],
      "stateMutability": "view",
      "type": "function"
    },
    {
      "inputs": [
        {
          "internalType": "bytes",
          "name": "",
          "type": "bytes"
        }
      ],
      "name": "onInstall",
      "outputs": [],
      "stateMutability": "pure",
      "type": "function"
    },
    {
      "inputs": [
        {
          "internalType": "bytes",
          "name": "",
          "type": "bytes"
        }
      ],
      "name": "onUninstall",
      "outputs": [],
      "stateMutability": "pure",
      "type": "function"
    },
    {
      "inputs": [],
      "name": "pluginManifest",
      "outputs": [
        {
          "components": [
            {
              "internalType": "bytes4[]",
              "name": "interfaceIds",
              "type": "bytes4[]"
            },
            {
              "internalType": "bytes4[]",
              "name": "dependencyInterfaceIds",
              "type": "bytes4[]"
            },
            {
              "internalType": "bytes4[]",
              "name": "executionFunctions",
              "type": "bytes4[]"
            },
            {
              "internalType": "bytes4[]",
              "name": "permittedExecutionSelectors",
              "type": "bytes4[]"
            },
            {
              "internalType": "bool",
              "name": "permitAnyExternalAddress",
              "type": "bool"
            },
            {
              "internalType": "bool",
              "name": "canSpendNativeToken",
              "type": "bool"
            },
            {
              "components": [
                {
                  "internalType": "address",
                  "name": "externalAddress",
                  "type": "address"
                },
                {
                  "internalType": "bool",
                  "name": "permitAnySelector",
                  "type": "bool"
                },
                {
                  "internalType": "bytes4[]",
                  "name": "selectors",
                  "type": "bytes4[]"
                }
              ],
              "internalType": "struct ManifestExternalCallPermission[]",
              "name": "permittedExternalCalls",
              "type": "tuple[]"
            },
            {
              "components": [
                {
                  "internalType": "bytes4",
                  "name": "executionSelector",
                  "type": "bytes4"
                },
                {
                  "components": [
                    {
                      "internalType": "enum ManifestAssociatedFunctionType",
                      "name": "functionType",
                      "type": "uint8"
                    },
                    {
                      "internalType": "uint8",
                      "name": "functionId",
                      "type": "uint8"
                    },
                    {
                      "internalType": "uint256",
                      "name": "dependencyIndex",
                      "type": "uint256"
                    }
                  ],
                  "internalType": "struct ManifestFunction",
                  "name": "associatedFunction",
                  "type": "tuple"
                }
              ],
              "internalType": "struct ManifestAssociatedFunction[]",
              "name": "userOpValidationFunctions",
              "type": "tuple[]"
            },
            {
              "components": [
                {
                  "internalType": "bytes4",
                  "name": "executionSelector",
                  "type": "bytes4"
                },
                {
                  "components": [
                    {
                      "internalType": "enum ManifestAssociatedFunctionType",
                      "name": "functionType",
                      "type": "uint8"
                    },
                    {
                      "internalType": "uint8",
                      "name": "functionId",
                      "type": "uint8"
                    },
                    {
                      "internalType": "uint256",
                      "name": "dependencyIndex",
                      "type": "uint256"
                    }
                  ],
                  "internalType": "struct ManifestFunction",
                  "name": "associatedFunction",
                  "type": "tuple"
                }
              ],
              "internalType": "struct ManifestAssociatedFunction[]",
              "name": "runtimeValidationFunctions",
              "type": "tuple[]"
            },
            {
              "components": [
                {
                  "internalType": "bytes4",
                  "name": "executionSelector",
                  "type": "bytes4"
                },
                {
                  "components": [
                    {
                      "internalType": "enum ManifestAssociatedFunctionType",
                      "name": "functionType",
                      "type": "uint8"
                    },
                    {
                      "internalType": "uint8",
                      "name": "functionId",
                      "type": "uint8"
                    },
                    {
                      "internalType": "uint256",
                      "name": "dependencyIndex",
                      "type": "uint256"
                    }
                  ],
                  "internalType": "struct ManifestFunction",
                  "name": "associatedFunction",
                  "type": "tuple"
                }
              ],
              "internalType": "struct ManifestAssociatedFunction[]",
              "name": "preUserOpValidationHooks",
              "type": "tuple[]"
            },
            {
              "components": [
                {
                  "internalType": "bytes4",
                  "name": "executionSelector",
                  "type": "bytes4"
                },
                {
                  "components": [
                    {
                      "internalType": "enum ManifestAssociatedFunctionType",
                      "name": "functionType",
                      "type": "uint8"
                    },
                    {
                      "internalType": "uint8",
                      "name": "functionId",
                      "type": "uint8"
                    },
                    {
                      "internalType": "uint256",
                      "name": "dependencyIndex",
                      "type": "uint256"
                    }
                  ],
                  "internalType": "struct ManifestFunction",
                  "name": "associatedFunction",
                  "type": "tuple"
                }
              ],
              "internalType": "struct ManifestAssociatedFunction[]",
              "name": "preRuntimeValidationHooks",
              "type": "tuple[]"
            },
            {
              "components": [
                {
                  "internalType": "bytes4",
                  "name": "executionSelector",
                  "type": "bytes4"
                },
                {
                  "components": [
                    {
                      "internalType": "enum ManifestAssociatedFunctionType",
                      "name": "functionType",
                      "type": "uint8"
                    },
                    {
                      "internalType": "uint8",
                      "name": "functionId",
                      "type": "uint8"
                    },
                    {
                      "internalType": "uint256",
                      "name": "dependencyIndex",
                      "type": "uint256"
                    }
                  ],
                  "internalType": "struct ManifestFunction",
                  "name": "preExecHook",
                  "type": "tuple"
                },
                {
                  "components": [
                    {
                      "internalType": "enum ManifestAssociatedFunctionType",
                      "name": "functionType",
                      "type": "uint8"
                    },
                    {
                      "internalType": "uint8",
                      "name": "functionId",
                      "type": "uint8"
                    },
                    {
                      "internalType": "uint256",
                      "name": "dependencyIndex",
                      "type": "uint256"
                    }
                  ],
                  "internalType": "struct ManifestFunction",
                  "name": "postExecHook",
                  "type": "tuple"
                }
              ],
              "internalType": "struct ManifestExecutionHook[]",
              "name": "executionHooks",
              "type": "tuple[]"
            }
          ],
          "internalType": "struct PluginManifest",
          "name": "",
          "type": "tuple"
        }
      ],
      "stateMutability": "pure",
      "type": "function"
    },
    {
      "inputs": [],
      "name": "pluginMetadata",
      "outputs": [
        {
          "components": [
            {
              "internalType": "string",
              "name": "name",
              "type": "string"
            },
            {
              "internalType": "string",
              "name": "version",
              "type": "string"
            },
            {
              "internalType": "string",
              "name": "author",
              "type": "string"
            },
            {
              "components": [
                {
                  "internalType": "bytes4",
                  "name": "functionSelector",
                  "type": "bytes4"
                },
                {
                  "internalType": "string",
                  "name": "permissionDescription",
                  "type": "string"
                }
              ],
              "internalType": "struct SelectorPermission[]",
              "name": "permissionDescriptors",
              "type": "tuple[]"
            }
          ],
          "internalType": "struct PluginMetadata",
          "name": "",
          "type": "tuple"
        }
      ],
      "stateMutability": "pure",
      "type": "function"
    },
    {
      "inputs": [
        {
          "internalType": "uint8",
          "name": "functionId",
          "type": "uint8"
        },
        {
          "internalType": "bytes",
          "name": "preExecHookData",
          "type": "bytes"
        }
      ],
      "name": "postExecutionHook",
      "outputs": [],
      "stateMutability": "nonpayable",
      "type": "function"
    },
    {
      "inputs": [
        {
          "internalType": "uint8",
          "name": "functionId",
          "type": "uint8"
        },
        {
          "internalType": "address",
          "name": "sender",
          "type": "address"
        },
        {
          "internalType": "uint256",
          "name": "value",
          "type": "uint256"
        },
        {
          "internalType": "bytes",
          "name": "data",
          "type": "bytes"
        }
      ],
      "name": "preExecutionHook",
      "outputs": [
        {
          "internalType": "bytes",
          "name": "",
          "type": "bytes"
        }
      ],
      "stateMutability": "nonpayable",
      "type": "function"
    },
    {
      "inputs": [
        {
          "internalType": "uint8",
          "name": "functionId",
          "type": "uint8"
        },
        {
          "internalType": "address",
          "name": "sender",
          "type": "address"
        },
        {
          "internalType": "uint256",
          "name": "value",
          "type": "uint256"
        },
        {
          "internalType": "bytes",
          "name": "data",
          "type": "bytes"
        }
      ],
      "name": "preRuntimeValidationHook",
      "outputs": [],
      "stateMutability": "nonpayable",
      "type": "function"
    },
    {
      "inputs": [
        {
          "internalType": "uint8",
          "name": "functionId",
          "type": "uint8"
        },
        {
          "components": [
            {
              "internalType": "address",
              "name": "sender",
              "type": "address"
            },
            {
              "internalType": "uint256",
              "name": "nonce",
              "type": "uint256"
            },
            {
              "internalType": "bytes",
              "name": "initCode",
              "type": "bytes"
            },
            {
              "internalType": "bytes",
              "name": "callData",
              "type": "bytes"
            },
            {
              "internalType": "uint256",
              "name": "callGasLimit",
              "type": "uint256"
            },
            {
              "internalType": "uint256",
              "name": "verificationGasLimit",
              "type": "uint256"
            },
            {
              "internalType": "uint256",
              "name": "preVerificationGas",
              "type": "uint256"
            },
            {
              "internalType": "uint256",
              "name": "maxFeePerGas",
              "type": "uint256"
            },
            {
              "internalType": "uint256",
              "name": "maxPriorityFeePerGas",
              "type": "uint256"
            },
            {
              "internalType": "bytes",
              "name": "paymasterAndData",
              "type": "bytes"
            },
            {
              "internalType": "bytes",
              "name": "signature",
              "type": "bytes"
            }
          ],
          "internalType": "struct UserOperation",
          "name": "userOp",
          "type": "tuple"
        },
        {
          "internalType": "bytes32",
          "name": "userOpHash",
          "type": "bytes32"
        }
      ],
      "name": "preUserOpValidationHook",
      "outputs": [
        {
          "internalType": "uint256",
          "name": "",
          "type": "uint256"
        }
      ],
      "stateMutability": "nonpayable",
      "type": "function"
    },
    {
      "inputs": [
        {
          "internalType": "address",
          "name": "",
          "type": "address"
        }
      ],
      "name": "productNonces",
      "outputs": [
        {
          "internalType": "uint256",
          "name": "",
          "type": "uint256"
        }
      ],
      "stateMutability": "view",
      "type": "function"
    },
    {
      "inputs": [
        {
          "internalType": "address",
          "name": "",
          "type": "address"
        },
        {
          "internalType": "bytes32",
          "name": "",
          "type": "bytes32"
        }
      ],
      "name": "providerPlans",
      "outputs": [
        {
          "internalType": "bytes32",
          "name": "productId",
          "type": "bytes32"
        },
        {
          "internalType": "bytes32",
          "name": "planId",
          "type": "bytes32"
        },
        {
          "internalType": "address",
          "name": "provider",
          "type": "address"
        },
        {
          "internalType": "uint256",
          "name": "price",
          "type": "uint256"
        },
        {
          "internalType": "uint32",
          "name": "chargeInterval",
          "type": "uint32"
        },
        {
          "internalType": "bool",
          "name": "isActive",
          "type": "bool"
        }
      ],
      "stateMutability": "view",
      "type": "function"
    },
    {
      "inputs": [
        {
          "internalType": "address",
          "name": "",
          "type": "address"
        },
        {
          "internalType": "bytes32",
          "name": "",
          "type": "bytes32"
        }
      ],
      "name": "providerProducts",
      "outputs": [
        {
          "internalType": "bytes32",
          "name": "productId",
          "type": "bytes32"
        },
        {
          "internalType": "bytes32",
          "name": "name",
          "type": "bytes32"
        },
        {
          "internalType": "address",
          "name": "provider",
          "type": "address"
        },
        {
          "internalType": "address",
          "name": "chargeToken",
          "type": "address"
        },
        {
          "internalType": "address",
          "name": "receivingAddress",
          "type": "address"
        },
        {
          "internalType": "uint256",
          "name": "destinationChain",
          "type": "uint256"
        },
        {
          "internalType": "uint8",
          "name": "planNonce",
          "type": "uint8"
        },
        {
          "internalType": "bool",
          "name": "isActive",
          "type": "bool"
        }
      ],
      "stateMutability": "view",
      "type": "function"
    },
    {
      "inputs": [
        {
          "internalType": "uint8",
          "name": "functionId",
          "type": "uint8"
        },
        {
          "internalType": "address",
          "name": "sender",
          "type": "address"
        },
        {
          "internalType": "uint256",
          "name": "value",
          "type": "uint256"
        },
        {
          "internalType": "bytes",
          "name": "data",
          "type": "bytes"
        }
      ],
      "name": "runtimeValidationFunction",
      "outputs": [],
      "stateMutability": "nonpayable",
      "type": "function"
    },
    {
      "inputs": [
        {
          "internalType": "bytes32",
          "name": "planId",
          "type": "bytes32"
        },
        {
          "internalType": "bytes32",
          "name": "productId",
          "type": "bytes32"
        },
        {
          "internalType": "address",
          "name": "provider",
          "type": "address"
        }
      ],
      "name": "subscribe",
      "outputs": [],
      "stateMutability": "nonpayable",
      "type": "function"
    },
    {
      "inputs": [
        {
          "internalType": "address",
          "name": "",
          "type": "address"
        }
      ],
      "name": "subscriptionNonces",
      "outputs": [
        {
          "internalType": "uint256",
          "name": "",
          "type": "uint256"
        }
      ],
      "stateMutability": "view",
      "type": "function"
    },
    {
      "inputs": [
        {
          "internalType": "bytes4",
          "name": "interfaceId",
          "type": "bytes4"
        }
      ],
      "name": "supportsInterface",
      "outputs": [
        {
          "internalType": "bool",
          "name": "",
          "type": "bool"
        }
      ],
      "stateMutability": "view",
      "type": "function"
    },
    {
      "inputs": [
        {
          "internalType": "bytes32",
          "name": "subscriptionId",
          "type": "bytes32"
        }
      ],
      "name": "unSubscribe",
      "outputs": [],
      "stateMutability": "nonpayable",
      "type": "function"
    },
    {
      "inputs": [
        {
          "internalType": "bytes32",
          "name": "_planId",
          "type": "bytes32"
        },
        {
          "internalType": "bool",
          "name": "_isActive",
          "type": "bool"
        }
      ],
      "name": "updatePlan",
      "outputs": [],
      "stateMutability": "nonpayable",
      "type": "function"
    },
    {
      "inputs": [
        {
          "internalType": "bytes32",
          "name": "_productId",
          "type": "bytes32"
        },
        {
          "internalType": "address",
          "name": "_chargeToken",
          "type": "address"
        },
        {
          "internalType": "address",
          "name": "_receivingAddr",
          "type": "address"
        },
        {
          "internalType": "uint256",
          "name": "_destChain",
          "type": "uint256"
        },
        {
          "internalType": "bool",
          "name": "_isActive",
          "type": "bool"
        }
      ],
      "name": "updateProduct",
      "outputs": [],
      "stateMutability": "nonpayable",
      "type": "function"
    },
    {
      "inputs": [
        {
          "internalType": "uint8",
          "name": "functionId",
          "type": "uint8"
        },
        {
          "components": [
            {
              "internalType": "address",
              "name": "sender",
              "type": "address"
            },
            {
              "internalType": "uint256",
              "name": "nonce",
              "type": "uint256"
            },
            {
              "internalType": "bytes",
              "name": "initCode",
              "type": "bytes"
            },
            {
              "internalType": "bytes",
              "name": "callData",
              "type": "bytes"
            },
            {
              "internalType": "uint256",
              "name": "callGasLimit",
              "type": "uint256"
            },
            {
              "internalType": "uint256",
              "name": "verificationGasLimit",
              "type": "uint256"
            },
            {
              "internalType": "uint256",
              "name": "preVerificationGas",
              "type": "uint256"
            },
            {
              "internalType": "uint256",
              "name": "maxFeePerGas",
              "type": "uint256"
            },
            {
              "internalType": "uint256",
              "name": "maxPriorityFeePerGas",
              "type": "uint256"
            },
            {
              "internalType": "bytes",
              "name": "paymasterAndData",
              "type": "bytes"
            },
            {
              "internalType": "bytes",
              "name": "signature",
              "type": "bytes"
            }
          ],
          "internalType": "struct UserOperation",
          "name": "userOp",
          "type": "tuple"
        },
        {
          "internalType": "bytes32",
          "name": "userOpHash",
          "type": "bytes32"
        }
      ],
      "name": "userOpValidationFunction",
      "outputs": [
        {
          "internalType": "uint256",
          "name": "",
          "type": "uint256"
        }
      ],
      "stateMutability": "nonpayable",
      "type": "function"
    },
    {
      "inputs": [
        {
          "internalType": "address",
          "name": "",
          "type": "address"
        },
        {
          "internalType": "bytes32",
          "name": "",
          "type": "bytes32"
        }
      ],
      "name": "userSubscriptions",
      "outputs": [
        {
          "internalType": "bytes32",
          "name": "subscriptionId",
          "type": "bytes32"
        },
        {
          "internalType": "bytes32",
          "name": "product",
          "type": "bytes32"
        },
        {
          "internalType": "address",
          "name": "provider",
          "type": "address"
        },
        {
          "internalType": "bytes32",
          "name": "plan",
          "type": "bytes32"
        },
        {
          "internalType": "uint256",
          "name": "lastChargeDate",
          "type": "uint256"
        },
        {
          "internalType": "bool",
          "name": "isActive",
          "type": "bool"
        }
      ],
      "stateMutability": "view",
      "type": "function"
    }
  ],
  "bytecode": "0x60806040523480156200001157600080fd5b50604051620036c2380380620036c283398101604081905262000034916200004f565b600180546001600160a01b0319163317905560005562000069565b6000602082840312156200006257600080fd5b5051919050565b61364980620000796000396000f3fe608060405234801561001057600080fd5b50600436106101f05760003560e01c8063784fc60c1161010f578063baba90cf116100a2578063dbccb23b11610071578063dbccb23b14610616578063f851a44014610629578063fd63f81614610654578063ffa1ad741461066757600080fd5b8063baba90cf146105e6578063bfa15c75146105f9578063bfd151c11461021d578063c77631301461060157600080fd5b80639590bf20116100de5780639590bf20146104c7578063a3f4df7e14610586578063a7be85c6146105b8578063af873483146104b457600080fd5b8063784fc60c1461048e578063875e3329146104a157806388e18ce4146104b45780638a91b0e31461033d57600080fd5b806346d60eb2116101875780636cbadbfa116101565780636cbadbfa146103345780636d61fe701461033d5780637030b6551461034f578063773a6c3b146103f657600080fd5b806346d60eb2146102ce5780634a86a4e8146102ee578063525b55c4146103015780636ca08a901461031457600080fd5b80631feea06a116101c35780631feea06a1461025a5780632726b5ca1461028857806329ea43831461029b5780632e6ca588146102ae57600080fd5b806301ffc9a7146101f55780630c7ecd841461021d5780631128186d14610232578063118a538914610245575b600080fd5b6102086102033660046125c5565b61068b565b60405190151581526020015b60405180910390f35b61023061022b366004612655565b6106c2565b005b6102306102403660046126c7565b6106f4565b61024d61071d565b604051610214919061276b565b61027a610268366004612844565b60036020526000908152604090205481565b604051908152602001610214565b610230610296366004612861565b6107ed565b6102306102a93660046128a2565b610a93565b6102c16102bc366004612844565b610f71565b60405161021491906128f4565b6102e16102dc366004612655565b6110c9565b6040516102149190612977565b6102306102fc36600461298a565b6110f4565b61023061030f3660046129c3565b61158a565b61027a610322366004612844565b60026020526000908152604090205481565b61027a60005481565b61023061034b366004612a04565b5050565b6103b461035d366004612a45565b600560209081526000928352604080842090915290825290208054600182015460028301546003840154600490940154929391926001600160a01b03909116919063ffffffff811690640100000000900460ff1686565b6040805196875260208701959095526001600160a01b0390931693850193909352606084015263ffffffff9091166080830152151560a082015260c001610214565b610451610404366004612a45565b6006602090815260009283526040808420909152908252902080546001820154600283015460038401546004850154600590950154939492936001600160a01b0390921692909160ff1686565b6040805196875260208701959095526001600160a01b039093169385019390935260608401526080830191909152151560a082015260c001610214565b61023061049c366004612a7f565b611817565b6102306104af366004612ade565b61194c565b61027a6104c2366004612b26565b611bae565b6105366104d5366004612a45565b600460208181526000938452604080852090915291835291208054600182015460028301546003840154948401546005850154600690950154939592946001600160a01b039283169493831693929091169160ff8082169161010090041688565b6040805198895260208901979097526001600160a01b039586169688019690965292841660608701529216608085015260a084019190915260ff1660c0830152151560e082015261010001610214565b6102e16040518060400160405280601381526020017229bab139b1b934b83a34b7b71028363ab3b4b760691b81525081565b6102e16040518060400160405280600f81526020016e5465652d70792026204a617962656560881b81525081565b6102306105f4366004612b74565b611bd8565b61027a611c31565b610609611cc4565b6040516102149190612d43565b610230610624366004612e9d565b612273565b60015461063c906001600160a01b031681565b6040516001600160a01b039091168152602001610214565b610208610662366004612a45565b61235d565b6102e1604051806040016040528060058152602001640312e302e360dc1b81525081565b60006001600160e01b0319821663f23b1ed760e01b14806106bc57506301ffc9a760e01b6001600160e01b03198316145b92915050565b6000356001600160e01b031916856040516384b9b37960e01b81526004016106eb929190612ecd565b60405180910390fd5b6000356001600160e01b031916836040516384b9b37960e01b81526004016106eb929190612ecd565b6107486040518060800160405280606081526020016060815260200160608152602001606081525090565b6107736040518060800160405280606081526020016060815260200160608152602001606081525090565b604080518082018252601381527229bab139b1b934b83a34b7b71028363ab3b4b760691b6020808301919091529083528151808301835260058152640312e302e360dc1b818301528382015281518083018352600f81526e5465652d70792026204a617962656560881b9181019190915290820152919050565b6001600160a01b038116600090815260046020908152604080832087845290915290206006015484908290610100900460ff1661083c5760405162461bcd60e51b81526004016106eb90612eea565b6001600160a01b038316600090815260056020908152604080832088845290915290206004015485908490640100000000900460ff1661088e5760405162461bcd60e51b81526004016106eb90612f17565b3360008181526006602090815260408083208a845290915290206002015487906001600160a01b03166108fc5760405162461bcd60e51b815260206004820152601660248201527514dd589cd8dc9a5c1d1a5bdb881b9bdd08199bdd5b9960521b60448201526064016106eb565b3360009081526006602090815260408083208b845282528083206001600160a01b038b8116808652600585528386208f8752855294839020835160c08101855281548152600182015495810195909552600280820154831694860194909452600381015460608601526004015463ffffffff81166080860152640100000000900460ff16151560a08501529181015490939116146109d05760405162461bcd60e51b81526020600482015260116024820152700a0e4deecd2c8cae440dad2e6dac2e8c6d607b1b60448201526064016106eb565b6001820154815114610a345760405162461bcd60e51b815260206004820152602760248201527f506c616e20646f6573206e6f742062656c6f6e6720746f2063757272656e74206044820152661c1c9bd91d58dd60ca1b60648201526084016106eb565b600382018b905560058201805460ff19166001179055604080518b8152602081018d905233917f27569e63751827ab0731a5afec9c039e0bf90d0f48e3c185da158afbc87543de910160405180910390a2505050505050505050505050565b6001600160a01b038416600090815260056020908152604080832088845290915290206004015485908590640100000000900460ff16610ae55760405162461bcd60e51b81526004016106eb90612f17565b6001600160a01b038616600090815260046020908152604080832088845290915290206006015485908790610100900460ff16610b345760405162461bcd60e51b81526004016106eb90612eea565b6001600160a01b03861660009081526006602090815260408083208884529091529020600501548690869060ff16610bae5760405162461bcd60e51b815260206004820152601760248201527f537562736372697074696f6e206e6f742061637469766500000000000000000060448201526064016106eb565b6000600560008c6001600160a01b03166001600160a01b0316815260200190815260200160002060008d81526020019081526020016000206040518060c001604052908160008201548152602001600182015481526020016002820160009054906101000a90046001600160a01b03166001600160a01b03166001600160a01b03168152602001600382015481526020016004820160009054906101000a900463ffffffff1663ffffffff1663ffffffff1681526020016004820160049054906101000a900460ff16151515158152505090506000600460008d6001600160a01b03166001600160a01b0316815260200190815260200160002060008c81526020019081526020016000206040518061010001604052908160008201548152602001600182015481526020016002820160009054906101000a90046001600160a01b03166001600160a01b03166001600160a01b031681526020016003820160009054906101000a90046001600160a01b03166001600160a01b03166001600160a01b031681526020016004820160009054906101000a90046001600160a01b03166001600160a01b03166001600160a01b03168152602001600582015481526020016006820160009054906101000a900460ff1660ff1660ff1681526020016006820160019054906101000a900460ff16151515158152505090506000600660008c6001600160a01b03166001600160a01b0316815260200190815260200160002060008b81526020019081526020016000209050428160040154846080015163ffffffff16610dff9190612f57565b1115610e455760405162461bcd60e51b81526020600482015260156024820152741d1a5b5948125b9d195c9d985b081b9bdd081b595d605a1b60448201526064016106eb565b8060030154836020015114610e905760405162461bcd60e51b8152602060048201526011602482015270125b98dbdc9c9958dd081c1b185b881a59607a1b60448201526064016106eb565b82518c14610ef25760405162461bcd60e51b815260206004820152602960248201527f506c616e20646f6573206e6f742062656c6f6e6720746f20737065636966696560448201526819081c1c9bd91d58dd60ba1b60648201526084016106eb565b610f0f83606001518c846060015185608001518660a001516123cb565b4260048201556060830151604080518c815260208101929092528f916001600160a01b038e16917f4baf2a87602b5958485fc7136aa81d39ef43937cfa425d2b854b7cb544d3e29b910160405180910390a35050505050505050505050505050565b6001600160a01b038116600090815260036020526040902054606090806001600160401b03811115610fa557610fa5612f6a565b60405190808252806020026020018201604052801561100557816020015b6040805160c08101825260008082526020808301829052928201819052606082018190526080820181905260a08201528252600019909201910181610fc35790505b50915060005b6001600160a01b0384166000908152600360205260409020548110156110c2576001600160a01b038085166000908152600660209081526040808320858452825291829020825160c08101845281548152600182015492810192909252600281015490931691810191909152600382015460608201526004820154608082015260059091015460ff16151560a082015283518490839081106110af576110af612f80565b602090810291909101015260010161100b565b5050919050565b60606000356001600160e01b031916866040516384b9b37960e01b81526004016106eb929190612ecd565b6001600160a01b038116600090815260046020908152604080832085845290915290206006015482908290610100900460ff166111435760405162461bcd60e51b81526004016106eb90612eea565b6001600160a01b038316600090815260056020908152604080832088845290915290206004015485908490640100000000900460ff166111955760405162461bcd60e51b81526004016106eb90612f17565b333b6000036111f45760405162461bcd60e51b815260206004820152602560248201527f4163636f756e74206973206e6f74206f6620736d61727420636f6e7472616374604482015264207479706560d81b60648201526084016106eb565b6111fe338761235d565b156112575760405162461bcd60e51b815260206004820152602360248201527f50726f6475637420737562736372697074696f6e20616c72656164792065786960448201526273747360e81b60648201526084016106eb565b600060056000876001600160a01b03166001600160a01b0316815260200190815260200160002060008981526020019081526020016000206040518060c001604052908160008201548152602001600182015481526020016002820160009054906101000a90046001600160a01b03166001600160a01b03166001600160a01b03168152602001600382015481526020016004820160009054906101000a900463ffffffff1663ffffffff1663ffffffff1681526020016004820160049054906101000a900460ff1615151515815250509050600060046000886001600160a01b03166001600160a01b0316815260200190815260200160002060008981526020019081526020016000206040518061010001604052908160008201548152602001600182015481526020016002820160009054906101000a90046001600160a01b03166001600160a01b03166001600160a01b031681526020016003820160009054906101000a90046001600160a01b03166001600160a01b03166001600160a01b031681526020016004820160009054906101000a90046001600160a01b03166001600160a01b03166001600160a01b03168152602001600582015481526020016006820160009054906101000a900460ff1660ff1660ff1681526020016006820160019054906101000a900460ff1615151515815250509050611470826060015133836060015184608001518560a001516123cb565b6040805160c08101825233600081815260036020818152858320805486528186018f81526001600160a01b038f8116888a019081528b85015160608a019081524260808b01908152600160a08c018181528b8b52600689528d8b208d518c5289529c8a208c51815595518682015592516002860180546001600160a01b031916919095161790935551838701559051600483015597516005909101805460ff191691151591909117905593835252815492939261152e908490612f57565b90915550508051604080516001600160a01b038b16815260208101929092528b918b9133917f5457968fbfc470026287041d85c69e61ec331fe3cf5c3aea08934bec512c04f9910160405180910390a450505050505050505050565b3360008181526004602090815260408083208784529091529020600301548491906001600160a01b03166115f45760405162461bcd60e51b8152602060048201526011602482015270141c9bd91d58dd08139bdd08119bdd5b99607a1b60448201526064016106eb565b600060046000336001600160a01b03166001600160a01b031681526020019081526020016000206000878152602001908152602001600020905060006040518060c001604052808881526020018360060160009054906101000a900460ff1660ff1660001b81526020018360020160009054906101000a90046001600160a01b03166001600160a01b031681526020018681526020018763ffffffff1681526020016001151581525090508060056000336001600160a01b03166001600160a01b03168152602001908152602001600020600083602001518152602001908152602001600020600082015181600001556020820151816001015560408201518160020160006101000a8154816001600160a01b0302191690836001600160a01b031602179055506060820151816003015560808201518160040160006101000a81548163ffffffff021916908363ffffffff16021790555060a08201518160040160046101000a81548160ff02191690831515021790555090505060018260060160008282829054906101000a900460ff166117909190612f96565b92506101000a81548160ff021916908360ff1602179055508060200151877f3a388ebfebb056ebdd9e57799a5e711778a65017a58d49a726437239f27708e1836060015184608001518560a001516040516118069392919092835263ffffffff9190911660208301521515604082015260600190565b60405180910390a350505050505050565b3360008181526004602090815260408083208984529091529020600301548691906001600160a01b03166118815760405162461bcd60e51b8152602060048201526011602482015270141c9bd91d58dd08139bdd08119bdd5b99607a1b60448201526064016106eb565b3360009081526004602081815260408084208b85528252928390206003810180546001600160a01b038c81166001600160a01b031992831681179093559483018054958c1695909116851790556005820189905560068201805489151561010090810261ff00199092169190911791829055835487519687529486019290925294840189905290930460ff1615156060830152907f4d98857cf98ec5f3e278b9ea61fc1d34f6df31856d893e1b5cd48e011a198fde9060800160405180910390a25050505050505050565b600060405180610100016040528060026000336001600160a01b03166001600160a01b031681526020019081526020016000205460001b8152602001868152602001336001600160a01b03168152602001856001600160a01b03168152602001846001600160a01b03168152602001838152602001600060ff1681526020016001151581525090508060046000336001600160a01b03166001600160a01b03168152602001908152602001600020600083600001518152602001908152602001600020600082015181600001556020820151816001015560408201518160020160006101000a8154816001600160a01b0302191690836001600160a01b0316021790555060608201518160030160006101000a8154816001600160a01b0302191690836001600160a01b0316021790555060808201518160040160006101000a8154816001600160a01b0302191690836001600160a01b0316021790555060a0820151816005015560c08201518160060160006101000a81548160ff021916908360ff16021790555060e08201518160060160016101000a81548160ff021916908315150217905550905050600160026000336001600160a01b03166001600160a01b031681526020019081526020016000206000828254611b2e9190612f57565b909155505080516020820151606083015160a084015160e08501516040513395947f234a12c3cf684f8f3b1f82fab31eccb87dcbafac3fed0ebda42acd545a485a7194611b9f94919390929384526001600160a01b0392909216602084015260408301521515606082015260800190565b60405180910390a35050505050565b600080356001600160e01b031916846040516384b9b37960e01b81526004016106eb929190612ecd565b336000818152600660209081526040808320858452825291829020600501805460ff1916905590518381527f839b86c6178645c7c4367dfc69b4ae25beee2a0934062898e3a939c1f02a1bda910160405180910390a250565b6000306001600160a01b031663c77631306040518163ffffffff1660e01b8152600401600060405180830381865afa158015611c71573d6000803e3d6000fd5b505050506040513d6000823e601f3d908101601f19168201604052611c999190810190613356565b604051602001611ca99190612d43565b60405160208183030381529060405280519060200120905090565b611ccc61250b565b611cd461250b565b604080516001808252818301909252906020808301908036833750505060208201819052805163f23b1ed760e01b9190600090611d1357611d13612f80565b6001600160e01b031992909216602092830291909101820152604080516007808252610100820190925291820160e080368337505050604082018190528051630950d49d60e31b9190600090611d6b57611d6b612f80565b6001600160e01b0319909216602092830291909101909101526040810151805163baba90cf60e01b91906001908110611da657611da6612f80565b6001600160e01b031990921660209283029190910190910152604081015180516313935ae560e11b91906002908110611de157611de1612f80565b6001600160e01b0319909216602092830291909101909101526040810151805163875e332960e01b91906003908110611e1c57611e1c612f80565b6001600160e01b03199092166020928302919091019091015260408101518051631496d57160e21b91906004908110611e5757611e57612f80565b6001600160e01b03199092166020928302919091019091015260408101518051631e13f18360e21b91906005908110611e9257611e92612f80565b6001600160e01b0319909216602092830291909101909101526040810151805163dbccb23b60e01b91906006908110611ecd57611ecd612f80565b6001600160e01b031992909216602092830291909101820152604080516060810182526002815260009281018390528082019290925280516007808252610100820190925290816020015b611f20612570565b815260200190600190039081611f1857505060e0830190815260408051808201909152630950d49d60e31b81526020810183905290518051600090611f6757611f67612f80565b6020026020010181905250604051806040016040528063baba90cf60e01b6001600160e01b0319168152602001828152508260e00151600181518110611faf57611faf612f80565b60200260200101819052506040518060400160405280632726b5ca60e01b6001600160e01b0319168152602001828152508260e00151600281518110611ff757611ff7612f80565b6020026020010181905250604051806040016040528063875e332960e01b6001600160e01b0319168152602001828152508260e0015160038151811061203f5761203f612f80565b6020026020010181905250604051806040016040528063525b55c460e01b6001600160e01b0319168152602001828152508260e0015160048151811061208757612087612f80565b6020026020010181905250604051806040016040528063784fc60c60e01b6001600160e01b0319168152602001828152508260e001516005815181106120cf576120cf612f80565b6020026020010181905250604051806040016040528063dbccb23b60e01b6001600160e01b0319168152602001828152508260e0015160068151811061211757612117612f80565b60209081029190910101526040805160038082526080820190925290816020015b612140612570565b8152602001906001900390816121385750506101408301908152604080518082018252630950d49d60e31b81528151606081018352600481526000602080830182905293820181905292820152915180519091906121a0576121a0612f80565b60209081029190910181019190915260408051808201825263baba90cf60e01b815281516060810183526004815260008185018190529281019290925291820152610140830151805160019081106121fa576121fa612f80565b6020908102919091018101919091526040805180820182526313935ae560e11b8152815160608101835260048152600081850181905292810192909252918201526101408301518051600290811061225457612254612f80565b60209081029190910101525060016080820181905260a0820152919050565b3360008181526005602090815260408083208684529091529020600201548391906001600160a01b03166122da5760405162461bcd60e51b815260206004820152600e60248201526d141b185b88139bdd08119bdd5b9960921b60448201526064016106eb565b33600090815260056020908152604080832087845282529182902060048101805464ff000000001916640100000000881515810291909117918290556001830154945160ff9190920416151581529092917f33619e290df5067d266873056aab9e9f6719bc6102f3faffe24a03744ef6907d910160405180910390a25050505050565b6000805b6001600160a01b0384166000908152600360205260409020548110156123c1576001600160a01b03841660009081526006602090815260408083208484529091529020600101548390036123b95760019150506106bc565b600101612361565b5060009392505050565b6040513060248201526044810186905260009060640160408051601f198184030181529181526020820180516001600160e01b031663a9059cbb60e01b179052516338997b1160e01b81529091506001600160a01b038616906338997b119061243d9087906000908690600401613533565b6000604051808303816000875af115801561245c573d6000803e3d6000fd5b505050506040513d6000823e601f3d908101601f191682016040526124849190810190613563565b5060005482036125035760405163a9059cbb60e01b81526001600160a01b0384811660048301526024820188905285169063a9059cbb906044016020604051808303816000875af11580156124dd573d6000803e3d6000fd5b505050506040513d601f19601f8201168201806040525081019061250191906135f6565b505b505050505050565b604051806101800160405280606081526020016060815260200160608152602001606081526020016000151581526020016000151581526020016060815260200160608152602001606081526020016060815260200160608152602001606081525090565b6040805180820190915260008152602081016125a76040805160608101909152806000815260006020820181905260409091015290565b905290565b6001600160e01b0319811681146125c257600080fd5b50565b6000602082840312156125d757600080fd5b81356125e2816125ac565b9392505050565b60ff811681146125c257600080fd5b6001600160a01b03811681146125c257600080fd5b60008083601f84011261261f57600080fd5b5081356001600160401b0381111561263657600080fd5b60208301915083602082850101111561264e57600080fd5b9250929050565b60008060008060006080868803121561266d57600080fd5b8535612678816125e9565b94506020860135612688816125f8565b93506040860135925060608601356001600160401b038111156126aa57600080fd5b6126b68882890161260d565b969995985093965092949392505050565b6000806000604084860312156126dc57600080fd5b83356126e7816125e9565b925060208401356001600160401b0381111561270257600080fd5b61270e8682870161260d565b9497909650939450505050565b60005b8381101561273657818101518382015260200161271e565b50506000910152565b6000815180845261275781602086016020860161271b565b601f01601f19169290920160200192915050565b60006020808352835160808285015261278760a085018261273f565b905081850151601f196040818785030160408801526127a6848461273f565b935060408801519250818785030160608801526127c3848461273f565b6060890151888203840160808a015280518083529195508601935085850190600581901b8601870160005b828110156128355787820386018452865180516001600160e01b03191683528901518983018690526128228684018261273f565b978a0197948a01949250506001016127ee565b509a9950505050505050505050565b60006020828403121561285657600080fd5b81356125e2816125f8565b6000806000806080858703121561287757600080fd5b8435935060208501359250604085013591506060850135612897816125f8565b939692955090935050565b600080600080600060a086880312156128ba57600080fd5b8535945060208601356128cc816125f8565b93506040860135925060608601356128e3816125f8565b949793965091946080013592915050565b602080825282518282018190526000919060409081850190868401855b8281101561296a578151805185528681015187860152858101516001600160a01b031686860152606080820151908601526080808201519086015260a09081015115159085015260c09093019290850190600101612911565b5091979650505050505050565b6020815260006125e2602083018461273f565b60008060006060848603121561299f57600080fd5b833592506020840135915060408401356129b8816125f8565b809150509250925092565b6000806000606084860312156129d857600080fd5b83359250602084013563ffffffff811681146129f357600080fd5b929592945050506040919091013590565b60008060208385031215612a1757600080fd5b82356001600160401b03811115612a2d57600080fd5b612a398582860161260d565b90969095509350505050565b60008060408385031215612a5857600080fd5b8235612a63816125f8565b946020939093013593505050565b80151581146125c257600080fd5b600080600080600060a08688031215612a9757600080fd5b853594506020860135612aa9816125f8565b93506040860135612ab9816125f8565b9250606086013591506080860135612ad081612a71565b809150509295509295909350565b60008060008060808587031215612af457600080fd5b843593506020850135612b06816125f8565b92506040850135612b16816125f8565b9396929550929360600135925050565b600080600060608486031215612b3b57600080fd5b8335612b46816125e9565b925060208401356001600160401b03811115612b6157600080fd5b840161016081870312156129f357600080fd5b600060208284031215612b8657600080fd5b5035919050565b60008151808452602080850194506020840160005b83811015612bc85781516001600160e01b03191687529582019590820190600101612ba2565b509495945050505050565b600082825180855260208086019550808260051b84010181860160005b84811015612c4957858303601f19018952815180516001600160a01b0316845284810151151585850152604090810151606091850182905290612c3581860183612b8d565b9a86019a9450505090830190600101612bf0565b5090979650505050505050565b805160058110612c7657634e487b7160e01b600052602160045260246000fd5b825260208181015160ff1690830152604090810151910152565b60008151808452602080850194506020840160005b83811015612bc857815180516001600160e01b0319168852830151612ccc84890182612c56565b506080969096019590820190600101612ca5565b60008151808452602080850194506020840160005b83811015612bc857815180516001600160e01b031916885283810151612d1d858a0182612c56565b5060400151612d2f6080890182612c56565b5060e0969096019590820190600101612cf5565b6020815260008251610180806020850152612d626101a0850183612b8d565b91506020850151601f1980868503016040870152612d808483612b8d565b93506040870151915080868503016060870152612d9d8483612b8d565b93506060870151915080868503016080870152612dba8483612b8d565b935060808701519150612dd160a087018315159052565b60a087015180151560c0880152915060c08701519150808685030160e0870152612dfb8483612bd3565b935060e08701519150610100818786030181880152612e1a8584612c90565b945080880151925050610120818786030181880152612e398584612c90565b945080880151925050610140818786030181880152612e588584612c90565b945080880151925050610160818786030181880152612e778584612c90565b908801518782039092018488015293509050612e938382612ce0565b9695505050505050565b60008060408385031215612eb057600080fd5b823591506020830135612ec281612a71565b809150509250929050565b6001600160e01b031992909216825260ff16602082015260400190565b60208082526013908201527250726f6475637420697320696e61637469766560681b604082015260600190565b60208082526010908201526f506c616e20697320696e61637469766560801b604082015260600190565b634e487b7160e01b600052601160045260246000fd5b808201808211156106bc576106bc612f41565b634e487b7160e01b600052604160045260246000fd5b634e487b7160e01b600052603260045260246000fd5b60ff81811683821601908111156106bc576106bc612f41565b604051606081016001600160401b0381118282101715612fd157612fd1612f6a565b60405290565b604080519081016001600160401b0381118282101715612fd157612fd1612f6a565b60405161018081016001600160401b0381118282101715612fd157612fd1612f6a565b604051601f8201601f191681016001600160401b038111828210171561304457613044612f6a565b604052919050565b60006001600160401b0382111561306557613065612f6a565b5060051b60200190565b600082601f83011261308057600080fd5b815160206130956130908361304c565b61301c565b8083825260208201915060208460051b8701019350868411156130b757600080fd5b602086015b848110156130dc5780516130cf816125ac565b83529183019183016130bc565b509695505050505050565b80516130f281612a71565b919050565b600082601f83011261310857600080fd5b815160206131186130908361304c565b82815260059290921b8401810191818101908684111561313757600080fd5b8286015b848110156130dc5780516001600160401b038082111561315b5760008081fd5b908801906060828b03601f19018113156131755760008081fd5b61317d612faf565b8784015161318a816125f8565b815260408481015161319b81612a71565b828a01529184015191838311156131b25760008081fd5b6131c08d8a8588010161306f565b90820152865250505091830191830161313b565b6000606082840312156131e657600080fd5b6131ee612faf565b90508151600581106131ff57600080fd5b8152602082015161320f816125e9565b806020830152506040820151604082015292915050565b600082601f83011261323757600080fd5b815160206132476130908361304c565b82815260079290921b8401810191818101908684111561326657600080fd5b8286015b848110156130dc57608081890312156132835760008081fd5b61328b612fd7565b8151613296816125ac565b81526132a4898387016131d4565b8186015283529183019160800161326a565b600082601f8301126132c757600080fd5b815160206132d76130908361304c565b82815260e092830285018201928282019190878511156132f657600080fd5b8387015b85811015612c495781818a0312156133125760008081fd5b61331a612faf565b8151613325816125ac565b81526133338a8388016131d4565b868201526133448a608084016131d4565b604082015284529284019281016132fa565b60006020828403121561336857600080fd5b81516001600160401b038082111561337f57600080fd5b90830190610180828603121561339457600080fd5b61339c612ff9565b8251828111156133ab57600080fd5b6133b78782860161306f565b8252506020830151828111156133cc57600080fd5b6133d88782860161306f565b6020830152506040830151828111156133f057600080fd5b6133fc8782860161306f565b60408301525060608301518281111561341457600080fd5b6134208782860161306f565b606083015250613432608084016130e7565b608082015261344360a084016130e7565b60a082015260c08301518281111561345a57600080fd5b613466878286016130f7565b60c08301525060e08301518281111561347e57600080fd5b61348a87828601613226565b60e08301525061010080840151838111156134a457600080fd5b6134b088828701613226565b82840152505061012080840151838111156134ca57600080fd5b6134d688828701613226565b82840152505061014080840151838111156134f057600080fd5b6134fc88828701613226565b828401525050610160808401518381111561351657600080fd5b613522888287016132b6565b918301919091525095945050505050565b60018060a01b038416815282602082015260606040820152600061355a606083018461273f565b95945050505050565b60006020828403121561357557600080fd5b81516001600160401b038082111561358c57600080fd5b818401915084601f8301126135a057600080fd5b8151818111156135b2576135b2612f6a565b6135c5601f8201601f191660200161301c565b91508082528560208285010111156135dc57600080fd5b6135ed81602084016020860161271b565b50949350505050565b60006020828403121561360857600080fd5b81516125e281612a7156fea264697066735822122005aadc017518136de044996a921b577165b4ac1a2af49447392ef606d6d4707f64736f6c63430008180033",
  "linkReferences": {},
  "deployedLinkReferences": {}
}