{
  "_format": "hh-sol-artifact-1",
  "contractName": "SubscriptionPlugin",
  "sourceName": "contracts/SubscriptionPlugin.sol",
  "abi": [
    {
      "inputs": [
        {
          "internalType": "uint256",
          "name": "chainId",
          "type": "uint256"
        },
        {
          "internalType": "address",
          "name": "_bridge",
          "type": "address"
        }
      ],
      "stateMutability": "nonpayable",
      "type": "constructor"
    },
    {
      "inputs": [],
      "name": "AlreadyInitialized",
      "type": "error"
    },
    {
      "inputs": [],
      "name": "InvalidAction",
      "type": "error"
    },
    {
      "inputs": [
        {
          "internalType": "address",
          "name": "caller",
          "type": "address"
        }
      ],
      "name": "NotContractCaller",
      "type": "error"
    },
    {
      "inputs": [
        {
          "internalType": "bytes4",
          "name": "selector",
          "type": "bytes4"
        },
        {
          "internalType": "uint8",
          "name": "functionId",
          "type": "uint8"
        }
      ],
      "name": "NotImplemented",
      "type": "error"
    },
    {
      "inputs": [],
      "name": "NotInitialized",
      "type": "error"
    },
    {
      "anonymous": false,
      "inputs": [
        {
          "indexed": true,
          "internalType": "uint256",
          "name": "productId",
          "type": "uint256"
        },
        {
          "indexed": true,
          "internalType": "uint256",
          "name": "planId",
          "type": "uint256"
        },
        {
          "indexed": false,
          "internalType": "uint256",
          "name": "price",
          "type": "uint256"
        },
        {
          "indexed": false,
          "internalType": "uint256",
          "name": "chargeInterval",
          "type": "uint256"
        },
        {
          "indexed": false,
          "internalType": "bool",
          "name": "isActive",
          "type": "bool"
        }
      ],
      "name": "PlanCreated",
      "type": "event"
    },
    {
      "anonymous": false,
      "inputs": [
        {
          "indexed": true,
          "internalType": "uint256",
          "name": "planId",
          "type": "uint256"
        },
        {
          "indexed": false,
          "internalType": "bool",
          "name": "isActive",
          "type": "bool"
        }
      ],
      "name": "PlanUpdated",
      "type": "event"
    },
    {
      "anonymous": false,
      "inputs": [
        {
          "indexed": true,
          "internalType": "uint256",
          "name": "productId",
          "type": "uint256"
        },
        {
          "indexed": true,
          "internalType": "address",
          "name": "provider",
          "type": "address"
        },
        {
          "indexed": false,
          "internalType": "bytes32",
          "name": "name",
          "type": "bytes32"
        },
        {
          "indexed": false,
          "internalType": "string",
          "name": "description",
          "type": "string"
        },
        {
          "indexed": false,
          "internalType": "string",
          "name": "logoUrl",
          "type": "string"
        },
        {
          "indexed": false,
          "internalType": "enum SubscriptionPlugin.ProductType",
          "name": "productType",
          "type": "uint8"
        },
        {
          "indexed": false,
          "internalType": "address",
          "name": "chargeToken",
          "type": "address"
        },
        {
          "indexed": false,
          "internalType": "address",
          "name": "receivingAddress",
          "type": "address"
        },
        {
          "indexed": false,
          "internalType": "uint256",
          "name": "destinationChain",
          "type": "uint256"
        },
        {
          "indexed": false,
          "internalType": "bool",
          "name": "isActive",
          "type": "bool"
        }
      ],
      "name": "ProductCreated",
      "type": "event"
    },
    {
      "anonymous": false,
      "inputs": [
        {
          "indexed": true,
          "internalType": "uint256",
          "name": "productId",
          "type": "uint256"
        },
        {
          "indexed": false,
          "internalType": "address",
          "name": "receivingAddress",
          "type": "address"
        },
        {
          "indexed": false,
          "internalType": "uint256",
          "name": "destinationChain",
          "type": "uint256"
        },
        {
          "indexed": false,
          "internalType": "bool",
          "name": "isActive",
          "type": "bool"
        }
      ],
      "name": "ProductUpdated",
      "type": "event"
    },
    {
      "anonymous": false,
      "inputs": [
        {
          "indexed": true,
          "internalType": "address",
          "name": "subscriber",
          "type": "address"
        },
        {
          "indexed": false,
          "internalType": "address",
          "name": "provider",
          "type": "address"
        },
        {
          "indexed": true,
          "internalType": "uint256",
          "name": "product",
          "type": "uint256"
        },
        {
          "indexed": true,
          "internalType": "uint256",
          "name": "plan",
          "type": "uint256"
        },
        {
          "indexed": false,
          "internalType": "uint256",
          "name": "subscriptionId",
          "type": "uint256"
        },
        {
          "indexed": false,
          "internalType": "uint256",
          "name": "endTime",
          "type": "uint256"
        }
      ],
      "name": "Subscribed",
      "type": "event"
    },
    {
      "anonymous": false,
      "inputs": [
        {
          "indexed": true,
          "internalType": "address",
          "name": "subscriber",
          "type": "address"
        },
        {
          "indexed": false,
          "internalType": "address",
          "name": "recipient",
          "type": "address"
        },
        {
          "indexed": false,
          "internalType": "uint256",
          "name": "subscriptionId",
          "type": "uint256"
        },
        {
          "indexed": true,
          "internalType": "uint256",
          "name": "planId",
          "type": "uint256"
        },
        {
          "indexed": true,
          "internalType": "uint256",
          "name": "productId",
          "type": "uint256"
        },
        {
          "indexed": false,
          "internalType": "uint256",
          "name": "amount",
          "type": "uint256"
        },
        {
          "indexed": false,
          "internalType": "uint256",
          "name": "timestamp",
          "type": "uint256"
        }
      ],
      "name": "SubscriptionCharged",
      "type": "event"
    },
    {
      "anonymous": false,
      "inputs": [
        {
          "indexed": true,
          "internalType": "address",
          "name": "subscriber",
          "type": "address"
        },
        {
          "indexed": true,
          "internalType": "uint256",
          "name": "id",
          "type": "uint256"
        },
        {
          "indexed": false,
          "internalType": "uint256",
          "name": "endTime",
          "type": "uint256"
        }
      ],
      "name": "SubscriptionEndTimeUpdated",
      "type": "event"
    },
    {
      "anonymous": false,
      "inputs": [
        {
          "indexed": true,
          "internalType": "address",
          "name": "user",
          "type": "address"
        },
        {
          "indexed": false,
          "internalType": "uint256",
          "name": "subscriptionId",
          "type": "uint256"
        },
        {
          "indexed": false,
          "internalType": "uint256",
          "name": "planId",
          "type": "uint256"
        }
      ],
      "name": "SubscriptionPlanChanged",
      "type": "event"
    },
    {
      "anonymous": false,
      "inputs": [
        {
          "indexed": true,
          "internalType": "address",
          "name": "user",
          "type": "address"
        },
        {
          "indexed": false,
          "internalType": "uint256",
          "name": "subscriptionId",
          "type": "uint256"
        }
      ],
      "name": "UnSubscribed",
      "type": "event"
    },
    {
      "inputs": [],
      "name": "AUTHOR",
      "outputs": [
        {
          "internalType": "string",
          "name": "",
          "type": "string"
        }
      ],
      "stateMutability": "view",
      "type": "function"
    },
    {
      "inputs": [],
      "name": "NAME",
      "outputs": [
        {
          "internalType": "string",
          "name": "",
          "type": "string"
        }
      ],
      "stateMutability": "view",
      "type": "function"
    },
    {
      "inputs": [],
      "name": "VERSION",
      "outputs": [
        {
          "internalType": "string",
          "name": "",
          "type": "string"
        }
      ],
      "stateMutability": "view",
      "type": "function"
    },
    {
      "inputs": [
        {
          "internalType": "uint256",
          "name": "_chainId",
          "type": "uint256"
        },
        {
          "internalType": "uint64",
          "name": "_selector",
          "type": "uint64"
        }
      ],
      "name": "addChainSelector",
      "outputs": [],
      "stateMutability": "nonpayable",
      "type": "function"
    },
    {
      "inputs": [],
      "name": "admin",
      "outputs": [
        {
          "internalType": "address",
          "name": "",
          "type": "address"
        }
      ],
      "stateMutability": "view",
      "type": "function"
    },
    {
      "inputs": [
        {
          "internalType": "uint256",
          "name": "",
          "type": "uint256"
        }
      ],
      "name": "ccipChainSelectors",
      "outputs": [
        {
          "internalType": "uint64",
          "name": "",
          "type": "uint64"
        }
      ],
      "stateMutability": "view",
      "type": "function"
    },
    {
      "inputs": [
        {
          "internalType": "uint256",
          "name": "subscriptionId",
          "type": "uint256"
        },
        {
          "internalType": "uint256",
          "name": "endTime",
          "type": "uint256"
        }
      ],
      "name": "changeSubscriptionEndTime",
      "outputs": [],
      "stateMutability": "nonpayable",
      "type": "function"
    },
    {
      "inputs": [],
      "name": "changeSubscriptionPlan",
      "outputs": [],
      "stateMutability": "pure",
      "type": "function"
    },
    {
      "inputs": [
        {
          "internalType": "address",
          "name": "subscriber",
          "type": "address"
        },
        {
          "internalType": "uint256",
          "name": "subscriptionId",
          "type": "uint256"
        }
      ],
      "name": "charge",
      "outputs": [],
      "stateMutability": "nonpayable",
      "type": "function"
    },
    {
      "inputs": [
        {
          "internalType": "uint256",
          "name": "_productId",
          "type": "uint256"
        },
        {
          "internalType": "uint32",
          "name": "_chargeInterval",
          "type": "uint32"
        },
        {
          "internalType": "uint256",
          "name": "_price",
          "type": "uint256"
        }
      ],
      "name": "createPlan",
      "outputs": [],
      "stateMutability": "nonpayable",
      "type": "function"
    },
    {
      "inputs": [
        {
          "internalType": "bytes32",
          "name": "_name",
          "type": "bytes32"
        },
        {
          "internalType": "string",
          "name": "_description",
          "type": "string"
        },
        {
          "internalType": "string",
          "name": "_logoUrl",
          "type": "string"
        },
        {
          "internalType": "enum SubscriptionPlugin.ProductType",
          "name": "_type",
          "type": "uint8"
        },
        {
          "internalType": "address",
          "name": "_chargeToken",
          "type": "address"
        },
        {
          "internalType": "address",
          "name": "_receivingAddress",
          "type": "address"
        },
        {
          "internalType": "uint256",
          "name": "_destinationChain",
          "type": "uint256"
        }
      ],
      "name": "createProduct",
      "outputs": [],
      "stateMutability": "nonpayable",
      "type": "function"
    },
    {
      "inputs": [
        {
          "internalType": "bytes32",
          "name": "_name",
          "type": "bytes32"
        },
        {
          "internalType": "string",
          "name": "_description",
          "type": "string"
        },
        {
          "internalType": "string",
          "name": "_logoUrl",
          "type": "string"
        },
        {
          "internalType": "enum SubscriptionPlugin.ProductType",
          "name": "_type",
          "type": "uint8"
        },
        {
          "internalType": "address",
          "name": "_chargeToken",
          "type": "address"
        },
        {
          "internalType": "address",
          "name": "_receivingAddress",
          "type": "address"
        },
        {
          "internalType": "uint256",
          "name": "_destinationChain",
          "type": "uint256"
        },
        {
          "components": [
            {
              "internalType": "uint256",
              "name": "price",
              "type": "uint256"
            },
            {
              "internalType": "uint32",
              "name": "chargeInterval",
              "type": "uint32"
            }
          ],
          "internalType": "struct SubscriptionPlugin.InitPlanParam[]",
          "name": "_plans",
          "type": "tuple[]"
        }
      ],
      "name": "createProductWithPlans",
      "outputs": [],
      "stateMutability": "nonpayable",
      "type": "function"
    },
    {
      "inputs": [
        {
          "internalType": "bytes32",
          "name": "_name",
          "type": "bytes32"
        },
        {
          "internalType": "string",
          "name": "_description",
          "type": "string"
        },
        {
          "internalType": "string",
          "name": "_logoUrl",
          "type": "string"
        },
        {
          "internalType": "address",
          "name": "_chargeToken",
          "type": "address"
        },
        {
          "internalType": "address",
          "name": "_receivingAddress",
          "type": "address"
        },
        {
          "internalType": "uint256",
          "name": "_destinationChain",
          "type": "uint256"
        },
        {
          "internalType": "uint32",
          "name": "_chargeInterval",
          "type": "uint32"
        },
        {
          "internalType": "uint256",
          "name": "_endTime",
          "type": "uint256"
        },
        {
          "internalType": "uint256",
          "name": "_price",
          "type": "uint256"
        }
      ],
      "name": "createRecurringPayment",
      "outputs": [],
      "stateMutability": "nonpayable",
      "type": "function"
    },
    {
      "inputs": [],
      "name": "currentChainId",
      "outputs": [
        {
          "internalType": "uint256",
          "name": "",
          "type": "uint256"
        }
      ],
      "stateMutability": "view",
      "type": "function"
    },
    {
      "inputs": [],
      "name": "getManifestHash",
      "outputs": [
        {
          "internalType": "bytes32",
          "name": "",
          "type": "bytes32"
        }
      ],
      "stateMutability": "view",
      "type": "function"
    },
    {
      "inputs": [
        {
          "internalType": "bytes",
          "name": "",
          "type": "bytes"
        }
      ],
      "name": "onInstall",
      "outputs": [],
      "stateMutability": "pure",
      "type": "function"
    },
    {
      "inputs": [
        {
          "internalType": "bytes",
          "name": "",
          "type": "bytes"
        }
      ],
      "name": "onUninstall",
      "outputs": [],
      "stateMutability": "pure",
      "type": "function"
    },
    {
      "inputs": [
        {
          "internalType": "address",
          "name": "addr",
          "type": "address"
        },
        {
          "internalType": "uint8",
          "name": "functionId",
          "type": "uint8"
        }
      ],
      "name": "pack",
      "outputs": [
        {
          "internalType": "FunctionReference",
          "name": "",
          "type": "bytes21"
        }
      ],
      "stateMutability": "pure",
      "type": "function"
    },
    {
      "inputs": [],
      "name": "planNonce",
      "outputs": [
        {
          "internalType": "uint256",
          "name": "",
          "type": "uint256"
        }
      ],
      "stateMutability": "view",
      "type": "function"
    },
    {
      "inputs": [
        {
          "internalType": "uint256",
          "name": "",
          "type": "uint256"
        }
      ],
      "name": "plans",
      "outputs": [
        {
          "internalType": "uint256",
          "name": "productId",
          "type": "uint256"
        },
        {
          "internalType": "uint256",
          "name": "planId",
          "type": "uint256"
        },
        {
          "internalType": "address",
          "name": "provider",
          "type": "address"
        },
        {
          "internalType": "uint256",
          "name": "price",
          "type": "uint256"
        },
        {
          "internalType": "uint32",
          "name": "chargeInterval",
          "type": "uint32"
        },
        {
          "internalType": "bool",
          "name": "isActive",
          "type": "bool"
        }
      ],
      "stateMutability": "view",
      "type": "function"
    },
    {
      "inputs": [],
      "name": "pluginManifest",
      "outputs": [
        {
          "components": [
            {
              "internalType": "bytes4[]",
              "name": "interfaceIds",
              "type": "bytes4[]"
            },
            {
              "internalType": "bytes4[]",
              "name": "dependencyInterfaceIds",
              "type": "bytes4[]"
            },
            {
              "internalType": "bytes4[]",
              "name": "executionFunctions",
              "type": "bytes4[]"
            },
            {
              "internalType": "bytes4[]",
              "name": "permittedExecutionSelectors",
              "type": "bytes4[]"
            },
            {
              "internalType": "bool",
              "name": "permitAnyExternalAddress",
              "type": "bool"
            },
            {
              "internalType": "bool",
              "name": "canSpendNativeToken",
              "type": "bool"
            },
            {
              "components": [
                {
                  "internalType": "address",
                  "name": "externalAddress",
                  "type": "address"
                },
                {
                  "internalType": "bool",
                  "name": "permitAnySelector",
                  "type": "bool"
                },
                {
                  "internalType": "bytes4[]",
                  "name": "selectors",
                  "type": "bytes4[]"
                }
              ],
              "internalType": "struct ManifestExternalCallPermission[]",
              "name": "permittedExternalCalls",
              "type": "tuple[]"
            },
            {
              "components": [
                {
                  "internalType": "bytes4",
                  "name": "executionSelector",
                  "type": "bytes4"
                },
                {
                  "components": [
                    {
                      "internalType": "enum ManifestAssociatedFunctionType",
                      "name": "functionType",
                      "type": "uint8"
                    },
                    {
                      "internalType": "uint8",
                      "name": "functionId",
                      "type": "uint8"
                    },
                    {
                      "internalType": "uint256",
                      "name": "dependencyIndex",
                      "type": "uint256"
                    }
                  ],
                  "internalType": "struct ManifestFunction",
                  "name": "associatedFunction",
                  "type": "tuple"
                }
              ],
              "internalType": "struct ManifestAssociatedFunction[]",
              "name": "userOpValidationFunctions",
              "type": "tuple[]"
            },
            {
              "components": [
                {
                  "internalType": "bytes4",
                  "name": "executionSelector",
                  "type": "bytes4"
                },
                {
                  "components": [
                    {
                      "internalType": "enum ManifestAssociatedFunctionType",
                      "name": "functionType",
                      "type": "uint8"
                    },
                    {
                      "internalType": "uint8",
                      "name": "functionId",
                      "type": "uint8"
                    },
                    {
                      "internalType": "uint256",
                      "name": "dependencyIndex",
                      "type": "uint256"
                    }
                  ],
                  "internalType": "struct ManifestFunction",
                  "name": "associatedFunction",
                  "type": "tuple"
                }
              ],
              "internalType": "struct ManifestAssociatedFunction[]",
              "name": "runtimeValidationFunctions",
              "type": "tuple[]"
            },
            {
              "components": [
                {
                  "internalType": "bytes4",
                  "name": "executionSelector",
                  "type": "bytes4"
                },
                {
                  "components": [
                    {
                      "internalType": "enum ManifestAssociatedFunctionType",
                      "name": "functionType",
                      "type": "uint8"
                    },
                    {
                      "internalType": "uint8",
                      "name": "functionId",
                      "type": "uint8"
                    },
                    {
                      "internalType": "uint256",
                      "name": "dependencyIndex",
                      "type": "uint256"
                    }
                  ],
                  "internalType": "struct ManifestFunction",
                  "name": "associatedFunction",
                  "type": "tuple"
                }
              ],
              "internalType": "struct ManifestAssociatedFunction[]",
              "name": "preUserOpValidationHooks",
              "type": "tuple[]"
            },
            {
              "components": [
                {
                  "internalType": "bytes4",
                  "name": "executionSelector",
                  "type": "bytes4"
                },
                {
                  "components": [
                    {
                      "internalType": "enum ManifestAssociatedFunctionType",
                      "name": "functionType",
                      "type": "uint8"
                    },
                    {
                      "internalType": "uint8",
                      "name": "functionId",
                      "type": "uint8"
                    },
                    {
                      "internalType": "uint256",
                      "name": "dependencyIndex",
                      "type": "uint256"
                    }
                  ],
                  "internalType": "struct ManifestFunction",
                  "name": "associatedFunction",
                  "type": "tuple"
                }
              ],
              "internalType": "struct ManifestAssociatedFunction[]",
              "name": "preRuntimeValidationHooks",
              "type": "tuple[]"
            },
            {
              "components": [
                {
                  "internalType": "bytes4",
                  "name": "executionSelector",
                  "type": "bytes4"
                },
                {
                  "components": [
                    {
                      "internalType": "enum ManifestAssociatedFunctionType",
                      "name": "functionType",
                      "type": "uint8"
                    },
                    {
                      "internalType": "uint8",
                      "name": "functionId",
                      "type": "uint8"
                    },
                    {
                      "internalType": "uint256",
                      "name": "dependencyIndex",
                      "type": "uint256"
                    }
                  ],
                  "internalType": "struct ManifestFunction",
                  "name": "preExecHook",
                  "type": "tuple"
                },
                {
                  "components": [
                    {
                      "internalType": "enum ManifestAssociatedFunctionType",
                      "name": "functionType",
                      "type": "uint8"
                    },
                    {
                      "internalType": "uint8",
                      "name": "functionId",
                      "type": "uint8"
                    },
                    {
                      "internalType": "uint256",
                      "name": "dependencyIndex",
                      "type": "uint256"
                    }
                  ],
                  "internalType": "struct ManifestFunction",
                  "name": "postExecHook",
                  "type": "tuple"
                }
              ],
              "internalType": "struct ManifestExecutionHook[]",
              "name": "executionHooks",
              "type": "tuple[]"
            }
          ],
          "internalType": "struct PluginManifest",
          "name": "",
          "type": "tuple"
        }
      ],
      "stateMutability": "pure",
      "type": "function"
    },
    {
      "inputs": [],
      "name": "pluginMetadata",
      "outputs": [
        {
          "components": [
            {
              "internalType": "string",
              "name": "name",
              "type": "string"
            },
            {
              "internalType": "string",
              "name": "version",
              "type": "string"
            },
            {
              "internalType": "string",
              "name": "author",
              "type": "string"
            },
            {
              "components": [
                {
                  "internalType": "bytes4",
                  "name": "functionSelector",
                  "type": "bytes4"
                },
                {
                  "internalType": "string",
                  "name": "permissionDescription",
                  "type": "string"
                }
              ],
              "internalType": "struct SelectorPermission[]",
              "name": "permissionDescriptors",
              "type": "tuple[]"
            }
          ],
          "internalType": "struct PluginMetadata",
          "name": "",
          "type": "tuple"
        }
      ],
      "stateMutability": "pure",
      "type": "function"
    },
    {
      "inputs": [
        {
          "internalType": "uint8",
          "name": "functionId",
          "type": "uint8"
        },
        {
          "internalType": "bytes",
          "name": "preExecHookData",
          "type": "bytes"
        }
      ],
      "name": "postExecutionHook",
      "outputs": [],
      "stateMutability": "nonpayable",
      "type": "function"
    },
    {
      "inputs": [
        {
          "internalType": "uint8",
          "name": "functionId",
          "type": "uint8"
        },
        {
          "internalType": "address",
          "name": "sender",
          "type": "address"
        },
        {
          "internalType": "uint256",
          "name": "value",
          "type": "uint256"
        },
        {
          "internalType": "bytes",
          "name": "data",
          "type": "bytes"
        }
      ],
      "name": "preExecutionHook",
      "outputs": [
        {
          "internalType": "bytes",
          "name": "",
          "type": "bytes"
        }
      ],
      "stateMutability": "nonpayable",
      "type": "function"
    },
    {
      "inputs": [
        {
          "internalType": "uint8",
          "name": "functionId",
          "type": "uint8"
        },
        {
          "internalType": "address",
          "name": "sender",
          "type": "address"
        },
        {
          "internalType": "uint256",
          "name": "value",
          "type": "uint256"
        },
        {
          "internalType": "bytes",
          "name": "data",
          "type": "bytes"
        }
      ],
      "name": "preRuntimeValidationHook",
      "outputs": [],
      "stateMutability": "nonpayable",
      "type": "function"
    },
    {
      "inputs": [
        {
          "internalType": "uint8",
          "name": "functionId",
          "type": "uint8"
        },
        {
          "components": [
            {
              "internalType": "address",
              "name": "sender",
              "type": "address"
            },
            {
              "internalType": "uint256",
              "name": "nonce",
              "type": "uint256"
            },
            {
              "internalType": "bytes",
              "name": "initCode",
              "type": "bytes"
            },
            {
              "internalType": "bytes",
              "name": "callData",
              "type": "bytes"
            },
            {
              "internalType": "uint256",
              "name": "callGasLimit",
              "type": "uint256"
            },
            {
              "internalType": "uint256",
              "name": "verificationGasLimit",
              "type": "uint256"
            },
            {
              "internalType": "uint256",
              "name": "preVerificationGas",
              "type": "uint256"
            },
            {
              "internalType": "uint256",
              "name": "maxFeePerGas",
              "type": "uint256"
            },
            {
              "internalType": "uint256",
              "name": "maxPriorityFeePerGas",
              "type": "uint256"
            },
            {
              "internalType": "bytes",
              "name": "paymasterAndData",
              "type": "bytes"
            },
            {
              "internalType": "bytes",
              "name": "signature",
              "type": "bytes"
            }
          ],
          "internalType": "struct UserOperation",
          "name": "userOp",
          "type": "tuple"
        },
        {
          "internalType": "bytes32",
          "name": "userOpHash",
          "type": "bytes32"
        }
      ],
      "name": "preUserOpValidationHook",
      "outputs": [
        {
          "internalType": "uint256",
          "name": "",
          "type": "uint256"
        }
      ],
      "stateMutability": "nonpayable",
      "type": "function"
    },
    {
      "inputs": [],
      "name": "productNonce",
      "outputs": [
        {
          "internalType": "uint256",
          "name": "",
          "type": "uint256"
        }
      ],
      "stateMutability": "view",
      "type": "function"
    },
    {
      "inputs": [
        {
          "internalType": "uint256",
          "name": "",
          "type": "uint256"
        }
      ],
      "name": "products",
      "outputs": [
        {
          "internalType": "uint256",
          "name": "productId",
          "type": "uint256"
        },
        {
          "internalType": "enum SubscriptionPlugin.ProductType",
          "name": "productType",
          "type": "uint8"
        },
        {
          "internalType": "address",
          "name": "provider",
          "type": "address"
        },
        {
          "internalType": "address",
          "name": "chargeToken",
          "type": "address"
        },
        {
          "internalType": "address",
          "name": "receivingAddress",
          "type": "address"
        },
        {
          "internalType": "uint256",
          "name": "destinationChain",
          "type": "uint256"
        },
        {
          "internalType": "bool",
          "name": "isActive",
          "type": "bool"
        }
      ],
      "stateMutability": "view",
      "type": "function"
    },
    {
      "inputs": [
        {
          "internalType": "uint8",
          "name": "functionId",
          "type": "uint8"
        },
        {
          "internalType": "address",
          "name": "sender",
          "type": "address"
        },
        {
          "internalType": "uint256",
          "name": "value",
          "type": "uint256"
        },
        {
          "internalType": "bytes",
          "name": "data",
          "type": "bytes"
        }
      ],
      "name": "runtimeValidationFunction",
      "outputs": [],
      "stateMutability": "nonpayable",
      "type": "function"
    },
    {
      "inputs": [
        {
          "internalType": "address",
          "name": "_bridgeAddr",
          "type": "address"
        }
      ],
      "name": "setTokenBridge",
      "outputs": [],
      "stateMutability": "nonpayable",
      "type": "function"
    },
    {
      "inputs": [
        {
          "internalType": "uint256",
          "name": "planId",
          "type": "uint256"
        },
        {
          "internalType": "uint256",
          "name": "endTime",
          "type": "uint256"
        }
      ],
      "name": "subscribe",
      "outputs": [],
      "stateMutability": "nonpayable",
      "type": "function"
    },
    {
      "inputs": [
        {
          "internalType": "address",
          "name": "",
          "type": "address"
        },
        {
          "internalType": "uint256",
          "name": "",
          "type": "uint256"
        }
      ],
      "name": "subscribedToProduct",
      "outputs": [
        {
          "internalType": "bool",
          "name": "",
          "type": "bool"
        }
      ],
      "stateMutability": "view",
      "type": "function"
    },
    {
      "inputs": [
        {
          "internalType": "address",
          "name": "",
          "type": "address"
        }
      ],
      "name": "subscriptionNonces",
      "outputs": [
        {
          "internalType": "uint256",
          "name": "",
          "type": "uint256"
        }
      ],
      "stateMutability": "view",
      "type": "function"
    },
    {
      "inputs": [
        {
          "internalType": "bytes4",
          "name": "interfaceId",
          "type": "bytes4"
        }
      ],
      "name": "supportsInterface",
      "outputs": [
        {
          "internalType": "bool",
          "name": "",
          "type": "bool"
        }
      ],
      "stateMutability": "view",
      "type": "function"
    },
    {
      "inputs": [],
      "name": "tokenBridge",
      "outputs": [
        {
          "internalType": "contract ITokenBridge",
          "name": "",
          "type": "address"
        }
      ],
      "stateMutability": "view",
      "type": "function"
    },
    {
      "inputs": [
        {
          "internalType": "uint256",
          "name": "subscriptionId",
          "type": "uint256"
        }
      ],
      "name": "unSubscribe",
      "outputs": [],
      "stateMutability": "nonpayable",
      "type": "function"
    },
    {
      "inputs": [
        {
          "internalType": "uint256",
          "name": "_planId",
          "type": "uint256"
        },
        {
          "internalType": "bool",
          "name": "_isActive",
          "type": "bool"
        }
      ],
      "name": "updatePlan",
      "outputs": [],
      "stateMutability": "nonpayable",
      "type": "function"
    },
    {
      "inputs": [
        {
          "internalType": "uint256",
          "name": "_productId",
          "type": "uint256"
        },
        {
          "internalType": "address",
          "name": "_receivingAddr",
          "type": "address"
        },
        {
          "internalType": "uint256",
          "name": "_destChain",
          "type": "uint256"
        },
        {
          "internalType": "bool",
          "name": "_isActive",
          "type": "bool"
        }
      ],
      "name": "updateProduct",
      "outputs": [],
      "stateMutability": "nonpayable",
      "type": "function"
    },
    {
      "inputs": [
        {
          "internalType": "uint8",
          "name": "functionId",
          "type": "uint8"
        },
        {
          "components": [
            {
              "internalType": "address",
              "name": "sender",
              "type": "address"
            },
            {
              "internalType": "uint256",
              "name": "nonce",
              "type": "uint256"
            },
            {
              "internalType": "bytes",
              "name": "initCode",
              "type": "bytes"
            },
            {
              "internalType": "bytes",
              "name": "callData",
              "type": "bytes"
            },
            {
              "internalType": "uint256",
              "name": "callGasLimit",
              "type": "uint256"
            },
            {
              "internalType": "uint256",
              "name": "verificationGasLimit",
              "type": "uint256"
            },
            {
              "internalType": "uint256",
              "name": "preVerificationGas",
              "type": "uint256"
            },
            {
              "internalType": "uint256",
              "name": "maxFeePerGas",
              "type": "uint256"
            },
            {
              "internalType": "uint256",
              "name": "maxPriorityFeePerGas",
              "type": "uint256"
            },
            {
              "internalType": "bytes",
              "name": "paymasterAndData",
              "type": "bytes"
            },
            {
              "internalType": "bytes",
              "name": "signature",
              "type": "bytes"
            }
          ],
          "internalType": "struct UserOperation",
          "name": "userOp",
          "type": "tuple"
        },
        {
          "internalType": "bytes32",
          "name": "userOpHash",
          "type": "bytes32"
        }
      ],
      "name": "userOpValidationFunction",
      "outputs": [
        {
          "internalType": "uint256",
          "name": "",
          "type": "uint256"
        }
      ],
      "stateMutability": "nonpayable",
      "type": "function"
    },
    {
      "inputs": [
        {
          "internalType": "address",
          "name": "",
          "type": "address"
        },
        {
          "internalType": "uint256",
          "name": "",
          "type": "uint256"
        }
      ],
      "name": "userSubscriptions",
      "outputs": [
        {
          "internalType": "uint256",
          "name": "subscriptionId",
          "type": "uint256"
        },
        {
          "internalType": "uint256",
          "name": "product",
          "type": "uint256"
        },
        {
          "internalType": "address",
          "name": "provider",
          "type": "address"
        },
        {
          "internalType": "uint256",
          "name": "plan",
          "type": "uint256"
        },
        {
          "internalType": "uint256",
          "name": "lastChargeDate",
          "type": "uint256"
        },
        {
          "internalType": "uint256",
          "name": "endTime",
          "type": "uint256"
        },
        {
          "internalType": "bool",
          "name": "isActive",
          "type": "bool"
        }
      ],
      "stateMutability": "view",
      "type": "function"
    }
  ],
  "bytecode": "0x60806040523480156200001157600080fd5b5060405162003ade38038062003ade833981016040819052620000349162000076565b60018054336001600160a01b0319918216178255600480549091166001600160a01b0393909316929092179091556000919091556002819055600355620000b5565b600080604083850312156200008a57600080fd5b825160208401519092506001600160a01b0381168114620000aa57600080fd5b809150509250929050565b613a1980620000c56000396000f3fe608060405234801561001057600080fd5b50600436106102485760003560e01c80638a91b0e31161013b578063c6328a46116100b8578063dfc2f42e1161007c578063dfc2f42e146106f0578063e9f3380814610703578063f7fc32a214610731578063f851a44014610744578063ffa1ad741461075757600080fd5b8063c6328a46146105b4578063c7763130146105df578063c95d6edc146105f4578063cd61587e1461069c578063cd8c5272146106dd57600080fd5b8063b1620616116100ff578063b1620616146104bb578063be8534e214610557578063bfa15c75146105a4578063bfd151c11461028a578063c2a96c18146105ac57600080fd5b80638a91b0e31461037a578063a3f4df7e14610448578063a3ffa9cd1461047a578063a7be85c61461048d578063af8734831461043557600080fd5b80632a73740c116101c95780637acc0b201161018d5780637acc0b201461038c5780637f5f66be146103fc578063843708131461040f578063882611bd1461042257806388e18ce41461043557600080fd5b80632a73740c1461032b57806339d048601461033e57806346d60eb2146103515780636cbadbfa146103715780636d61fe701461037a57600080fd5b8063151d267711610210578063151d2677146102c5578063157f7123146102dc5780631b7c82ec146102ef5780631feea06a146102f85780632796b0301461031857600080fd5b806301ffc9a71461024d5780630c497af3146102755780630c7ecd841461028a5780631128186d1461029d578063118a5389146102b0575b600080fd5b61026061025b3660046126d0565b61077b565b60405190151581526020015b60405180910390f35b61028861028336600461270d565b6107b2565b005b6102886102983660046127b9565b61083c565b6102886102ab36600461282b565b610865565b6102b861088e565b60405161026c91906128cf565b6102ce60035481565b60405190815260200161026c565b6102886102ea3660046129b6565b61095e565b6102ce60025481565b6102ce6103063660046129e6565b60086020526000908152604090205481565b610288610326366004612a03565b610a54565b610288610339366004612a1c565b610aad565b61028861034c3660046129e6565b610b0a565b61036461035f3660046127b9565b610b43565b60405161026c9190612a3e565b6102ce60005481565b610288610388366004612a51565b5050565b6103e961039a366004612a03565b600660205260009081526040902080546001820154600283015460038401546004850154600590950154939460ff808516956101009095046001600160a01b0390811695948116949316921687565b60405161026c9796959493929190612abc565b61028861040a366004612b17565b610b6e565b61028861041d366004612a1c565b610b8b565b610288610430366004612bd0565b611048565b6102ce610443366004612c9f565b611086565b6103646040518060400160405280601381526020017229bab139b1b934b83a34b7b71028363ab3b4b760691b81525081565b610288610488366004612cfe565b6110b0565b6103646040518060400160405280600f81526020016e5465652d70792026204a617962656560881b81525081565b6105156104c9366004612a03565b60076020526000908152604090208054600182015460028301546003840154600490940154929391926001600160a01b03909116919063ffffffff811690640100000000900460ff1686565b6040805196875260208701959095526001600160a01b0390931693850193909352606084015263ffffffff9091166080830152151560a082015260c00161026c565b610587610565366004612d2a565b60581b60ff60581b1660609190911b6bffffffffffffffffffffffff19161790565b6040516affffffffffffffffffffff19909116815260200161026c565b6102ce61143a565b6102886114cd565b6004546105c7906001600160a01b031681565b6040516001600160a01b03909116815260200161026c565b6105e7611505565b60405161026c9190612f00565b610657610602366004612cfe565b60096020908152600092835260408084209091529082529020805460018201546002830154600384015460048501546005860154600690960154949593946001600160a01b0390931693919290919060ff1687565b6040805197885260208801969096526001600160a01b03909416948601949094526060850191909152608084015260a0830191909152151560c082015260e00161026c565b6106c56106aa366004612a03565b6005602052600090815260409020546001600160401b031681565b6040516001600160401b03909116815260200161026c565b6102886106eb36600461309e565b611c76565b6102886106fe366004613183565b611d3e565b610260610711366004612cfe565b600a60209081526000928352604080842090915290825290205460ff1681565b61028861073f3660046131b4565b611d84565b6001546105c7906001600160a01b031681565b610364604051806040016040528060058152602001640312e302e360dc1b81525081565b60006001600160e01b0319821663f23b1ed760e01b14806107ac57506301ffc9a760e01b6001600160e01b03198316145b92915050565b6000838152600660205260408120548491036107e95760405162461bcd60e51b81526004016107e0906131fe565b60405180910390fd5b600084815260066020526040902060010154849061010090046001600160a01b031633146108295760405162461bcd60e51b81526004016107e090613229565b610834858585611efd565b505050505050565b6000356001600160e01b031916856040516384b9b37960e01b81526004016107e0929190613260565b6000356001600160e01b031916836040516384b9b37960e01b81526004016107e0929190613260565b6108b96040518060800160405280606081526020016060815260200160608152602001606081525090565b6108e46040518060800160405280606081526020016060815260200160608152602001606081525090565b604080518082018252601381527229bab139b1b934b83a34b7b71028363ab3b4b760691b6020808301919091529083528151808301835260058152640312e302e360dc1b818301528382015281518083018352600f81526e5465652d70792026204a617962656560881b9181019190915290820152919050565b6000828152600760205260408120600101548391036109b05760405162461bcd60e51b815260206004820152600e60248201526d141b185b88139bdd08119bdd5b9960921b60448201526064016107e0565b600083815260076020526040902060028101546001600160a01b031633146109ea5760405162461bcd60e51b81526004016107e090613229565b60048101805484151564010000000090810264ff0000000019909216919091179182905560018301546040519190920460ff16151581527fe8898c20571732660341e9bd58210cbce79a036302e465085395645040fd1cc29060200160405180910390a250505050565b336000818152600960209081526040808320858452825291829020600601805460ff1916905590518381527f3ce0ad9e088ae3e7555f42cc73d57bf59207a30deef3eea8654a27e86650a4a9910160405180910390a250565b3360008181526009602090815260408083208684528252918290206005810185905591518481529192859290917ff89b25a6984f0e221fa1b1aceca144b54e7e350bb8678296e96747d4ae2b9cdf910160405180910390a3505050565b6001546001600160a01b03163314610b2157600080fd5b600480546001600160a01b0319166001600160a01b0392909216919091179055565b60606000356001600160e01b031916866040516384b9b37960e01b81526004016107e0929190613260565b610b7f89898989898989898961217c565b50505050505050505050565b6000828152600760205260409020600401548290640100000000900460ff16610be95760405162461bcd60e51b815260206004820152601060248201526f506c616e20697320696e61637469766560801b60448201526064016107e0565b333b600003610c485760405162461bcd60e51b815260206004820152602560248201527f4163636f756e74206973206e6f74206f6620736d61727420636f6e7472616374604482015264207479706560d81b60648201526084016107e0565b6000838152600760209081526040808320815160c08101835281548082526001808401548387015260028401546001600160a01b0316838601526003840154606084015260049093015463ffffffff8116608084015260ff6401000000009091048116151560a084015290865260068552838620845160e08101909552805485528084015492969590939085019290911690811115610ce957610ce9612a92565b6001811115610cfa57610cfa612a92565b815260018201546001600160a01b036101009091048116602083015260028301548116604083015260038301541660608201526004820154608082015260059091015460ff16151560a0918201528301519091508015610d5b57508060c001515b610da75760405162461bcd60e51b815260206004820152601f60248201527f506c616e20616e642070726f64756374206d757374206265206163746976650060448201526064016107e0565b336000908152600a602090815260408083208451845290915290205460ff1615610e1f5760405162461bcd60e51b815260206004820152602360248201527f50726f6475637420737562736372697074696f6e20616c72656164792065786960448201526273747360e81b60648201526084016107e0565b60006040518060e0016040528060086000336001600160a01b03166001600160a01b031681526020019081526020016000205481526020018360000151815260200184604001516001600160a01b0316815260200184602001518152602001428152602001868152602001600115158152509050610eba836060015133846060015185608001518660a00151866000015189602001516123b8565b3360008181526009602090815260408083208551845282528083208551815585830151600180830191909155868301516002830180546001600160a01b0319166001600160a01b03909216919091179055606087015160038301556080870151600483015560a0870151600583015560c08701516006909201805460ff191692151592909217909155938352600890915281208054909190610f5d90849061327d565b9091555050336000818152600a6020908152604080832086518452825291829020805460ff19166001179055845186830151855184516001600160a01b039092168252928101929092529181018890528892907f1913e17d5784005a914657f9e879fcc261644776365f1d84aeb45afcb6da48649060600160405180910390a48151608080840151835160608781015186850151604080516001600160a01b039096168652602086019490945292840152820152889133917ff525c8253dece3e354aaae6f24c19577dea21f33ca86474610ed00771fb13689910160405180910390a4505050505050565b600061105c8c8c8c8c8c60008d8d8d61217c565b9050600061106b828685611efd565b90506110778185610b8b565b50505050505050505050505050565b600080356001600160e01b031916846040516384b9b37960e01b81526004016107e0929190613260565b6001600160a01b03821660009081526009602090815260408083208484529091529020600601548290829060ff1661112a5760405162461bcd60e51b815260206004820152601760248201527f537562736372697074696f6e206e6f742061637469766500000000000000000060448201526064016107e0565b6001600160a01b0380851660009081526009602090815260408083208784528252808320600380820154855260078452828520835160c08101855281548152600180830154828801526002830154909816818601529181015460608301526004015463ffffffff8116608083015260ff6401000000009091048116151560a083015286830154865260068552838620845160e08101909552805485528088015493979296959093908501929116908111156111e7576111e7612a92565b60018111156111f8576111f8612a92565b815260018201546001600160a01b0361010090910481166020830152600283015481166040830152600383015416606082015260048083015460808084019190915260059093015460ff16151560a09092019190915285015490840151919250429161126a919063ffffffff1661327d565b11156112b05760405162461bcd60e51b81526020600482015260156024820152741d1a5b5948125b9d195c9d985b081b9bdd081b595d605a1b60448201526064016107e0565b42836005015411806112c457506005830154155b6113105760405162461bcd60e51b815260206004820152601d60248201527f737562736372697074696f6e20656e642074696d6520656c617073656400000060448201526064016107e0565b8060c001516113575760405162461bcd60e51b815260206004820152601360248201527250726f6475637420697320696e61637469766560681b60448201526064016107e0565b8160a0015161139b5760405162461bcd60e51b815260206004820152601060248201526f506c616e20697320696e61637469766560801b60448201526064016107e0565b6113c2826060015188836060015184608001518560a00151886000015488602001516123b8565b42600484018190558251602080850151608085810151606080890151604080516001600160a01b0394851681529687018f905286015284019590955292939092908b16917ff525c8253dece3e354aaae6f24c19577dea21f33ca86474610ed00771fb13689910160405180910390a450505050505050565b6000306001600160a01b031663c77631306040518163ffffffff1660e01b8152600401600060405180830381865afa15801561147a573d6000803e3d6000fd5b505050506040513d6000823e601f3d908101601f191682016040526114a29190810190613656565b6040516020016114b29190612f00565b60405160208183030381529060405280519060200120905090565b60405162461bcd60e51b815260206004820152600d60248201526c139bdd081cdd5c1c1bdc9d1959609a1b60448201526064016107e0565b61150d612616565b611515612616565b604080516002808252606082018352909160208301908036833750505060208201819052805163f23b1ed760e01b919060009061155457611554613833565b6001600160e01b0319909216602092830291909101820152810151805163f23b1ed760e01b9190600190811061158c5761158c613833565b6001600160e01b03199290921660209283029190910182015260408051600a808252610160820190925291820161014080368337505050604082018190528051638437081360e01b91906000906115e5576115e5613833565b6001600160e01b031990921660209283029190910190910152604081015180516302796b0360e41b9190600190811061162057611620613833565b6001600160e01b031990921660209283029190910190910152604081015180516318552d8360e31b9190600290811061165b5761165b613833565b6001600160e01b03199092166020928302919091019091015260408101518051633fafb35f60e11b9190600390811061169657611696613833565b6001600160e01b03199092166020928302919091019091015260408101518051630c497af360e01b919060049081106116d1576116d1613833565b6001600160e01b03199092166020928302919091019091015260408101518051637bfe195160e11b9190600590811061170c5761170c613833565b6001600160e01b0319909216602092830291909101909101526040810151805163157f712360e01b9190600690811061174757611747613833565b6001600160e01b031990921660209283029190910190910152604081015180516366c6293960e11b9190600790811061178257611782613833565b6001600160e01b0319909216602092830291909101909101526040810151805163882611bd60e01b919060089081106117bd576117bd613833565b6001600160e01b03199092166020928302919091019091015260408101518051630a9cdd0360e21b919060099081106117f8576117f8613833565b6001600160e01b03199290921660209283029190910182015260408051606081018252600281526000928101929092526001828201528051600a808252610160820190925290816020015b61184b61267b565b81526020019060019003908161184357505060e0830190815260408051808201909152638437081360e01b8152602081018390529051805160009061189257611892613833565b60200260200101819052506040518060400160405280632796b03060e01b6001600160e01b0319168152602001828152508260e001516001815181106118da576118da613833565b6020026020010181905250604051806040016040528063c2a96c1860e01b6001600160e01b0319168152602001828152508260e0015160028151811061192257611922613833565b60200260200101819052506040518060400160405280637f5f66be60e01b6001600160e01b0319168152602001828152508260e0015160038151811061196a5761196a613833565b60200260200101819052506040518060400160405280630c497af360e01b6001600160e01b0319168152602001828152508260e001516004815181106119b2576119b2613833565b6020026020010181905250604051806040016040528063f7fc32a260e01b6001600160e01b0319168152602001828152508260e001516005815181106119fa576119fa613833565b6020026020010181905250604051806040016040528063157f712360e01b6001600160e01b0319168152602001828152508260e00151600681518110611a4257611a42613833565b6020026020010181905250604051806040016040528063cd8c527260e01b6001600160e01b0319168152602001828152508260e00151600781518110611a8a57611a8a613833565b6020026020010181905250604051806040016040528063882611bd60e01b6001600160e01b0319168152602001828152508260e00151600881518110611ad257611ad2613833565b60200260200101819052506040518060400160405280632a73740c60e01b6001600160e01b0319168152602001828152508260e00151600981518110611b1a57611b1a613833565b60209081029190910101526040805160038082526080820190925290816020015b611b4361267b565b815260200190600190039081611b3b5750506101408301908152604080518082018252638437081360e01b8152815160608101835260048152600060208083018290529382018190529282015291518051909190611ba357611ba3613833565b6020908102919091018101919091526040805180820182526302796b0360e41b81528151606081018352600481526000818501819052928101929092529182015261014083015180516001908110611bfd57611bfd613833565b6020908102919091018101919091526040805180820182526318552d8360e31b81528151606081018352600481526000818501819052928101929092529182015261014083015180516002908110611c5757611c57613833565b60209081029190910101525060016080820181905260a0820152919050565b6000819003611cc75760405162461bcd60e51b815260206004820152601760248201527f706c616e73206d757374206e6f7420626520656d70747900000000000000000060448201526064016107e0565b6000611cda8c8c8c8c8c8c8c8c8c61217c565b905060005b8281101561107757611d3682858584818110611cfd57611cfd613833565b9050604002016020016020810190611d159190613849565b868685818110611d2757611d27613833565b905060400201600001356107b2565b600101611cdf565b6001546001600160a01b03163314611d5557600080fd5b600091825260056020526040909120805467ffffffffffffffff19166001600160401b03909216919091179055565b600084815260066020526040812054859103611db25760405162461bcd60e51b81526004016107e0906131fe565b600085815260066020526040902060010154859061010090046001600160a01b03163314611df25760405162461bcd60e51b81526004016107e090613229565b6000548414611e61576000848152600560205260408120546001600160401b03169003611e615760405162461bcd60e51b815260206004820152601f60248201527f64657374696e6174696f6e20636861696e206e6f7420737570706f727465640060448201526064016107e0565b6000868152600660209081526040918290206003810180546001600160a01b0319166001600160a01b038a169081179091556004820188905560058201805460ff19168815159081179091558254855192835293820189905260ff16151593810193909352917f0e816aab067090cfcfffdd25d4bd81f5a9fa515ea99385748c73eb642debca649060600160405180910390a250505050505050565b60008381526006602052604081205484908203611f2c5760405162461bcd60e51b81526004016107e0906131fe565b600085815260066020526040902060010154859061010090046001600160a01b03163314611f6c5760405162461bcd60e51b81526004016107e090613229565b610e108563ffffffff1610158015611f8e57506301e133808563ffffffff1611155b611fcd5760405162461bcd60e51b815260206004820152601060248201526f1a5b9d985b1a59081a5b9d195c9d985b60821b60448201526064016107e0565b600060066000888152602001908152602001600020905060006040518060c0016040528089815260200160035481526020018360010160019054906101000a90046001600160a01b03166001600160a01b031681526020018781526020018863ffffffff168152602001600115158152509050806007600083602001518152602001908152602001600020600082015181600001556020820151816001015560408201518160020160006101000a8154816001600160a01b0302191690836001600160a01b031602179055506060820151816003015560808201518160040160006101000a81548163ffffffff021916908363ffffffff16021790555060a08201518160040160046101000a81548160ff021916908315150217905550905050600160036000828254612100919061327d565b925050819055508060200151887fefcd7034bb3bc315795fdab1fdca7520ce3650a588e5f33fc58163c79e9b737e836060015184608001518560a001516040516121659392919092835263ffffffff9190911660208301521515604082015260600190565b60405180910390a360200151979650505050505050565b6000805482146121ec576000828152600560205260408120546001600160401b031690036121ec5760405162461bcd60e51b815260206004820152601f60248201527f64657374696e6174696f6e20636861696e206e6f7420737570706f727465640060448201526064016107e0565b60006040518060e00160405280600254815260200187600181111561221357612213612a92565b8152602001336001600160a01b03168152602001866001600160a01b03168152602001856001600160a01b031681526020018481526020016001151581525090508060066000836000015181526020019081526020016000206000820151816000015560208201518160010160006101000a81548160ff021916908360018111156122a0576122a0612a92565b0217905550604082015160018281018054610100600160a81b0319166101006001600160a01b03948516021790556060840151600280850180546001600160a01b03199081169386169390931790556080860151600386018054909316941693909317905560a0840151600484015560c0909301516005909201805460ff191692151592909217909155805460009061233a90849061327d565b92505081905550336001600160a01b031681600001517ff9815db369a250e4360ba847cf51ab4c7702b42b361aac1288caeed4404cc0ad8d8d8d8d8d8d89606001518a608001518b60a001518c60c001516040516123a19a9998979695949392919061388d565b60405180910390a3519a9950505050505050505050565b6040513060248201526044810188905260009060640160408051601f198184030181529181526020820180516001600160e01b031663a9059cbb60e01b179052516338997b1160e01b81529091506001600160a01b038816906338997b119061242a9089906000908690600401613903565b6000604051808303816000875af1158015612449573d6000803e3d6000fd5b505050506040513d6000823e601f3d908101601f191682016040526124719190810190613933565b5060005484036124f45760405163a9059cbb60e01b81526001600160a01b038681166004830152602482018a905287169063a9059cbb906044016020604051808303816000875af11580156124ca573d6000803e3d6000fd5b505050506040513d601f19601f820116820180604052508101906124ee91906139c6565b5061260c565b6004805460405163095ea7b360e01b81526001600160a01b0391821692810192909252602482018a905287169063095ea7b3906044016020604051808303816000875af1158015612549573d6000803e3d6000fd5b505050506040513d601f19601f8201168201806040525081019061256d91906139c6565b5060048054600086815260056020526040908190205490516327d52ed360e11b81526001600160401b03909116928101929092526001600160a01b0387811660248401528881166044840152606483018b90526084830186905260a483018590521690634faa5da69060c401600060405180830381600087803b1580156125f357600080fd5b505af1158015612607573d6000803e3d6000fd5b505050505b5050505050505050565b604051806101800160405280606081526020016060815260200160608152602001606081526020016000151581526020016000151581526020016060815260200160608152602001606081526020016060815260200160608152602001606081525090565b6040805180820190915260008152602081016126b26040805160608101909152806000815260006020820181905260409091015290565b905290565b6001600160e01b0319811681146126cd57600080fd5b50565b6000602082840312156126e257600080fd5b81356126ed816126b7565b9392505050565b803563ffffffff8116811461270857600080fd5b919050565b60008060006060848603121561272257600080fd5b83359250612732602085016126f4565b9150604084013590509250925092565b60ff811681146126cd57600080fd5b6001600160a01b03811681146126cd57600080fd5b803561270881612751565b60008083601f84011261278357600080fd5b5081356001600160401b0381111561279a57600080fd5b6020830191508360208285010111156127b257600080fd5b9250929050565b6000806000806000608086880312156127d157600080fd5b85356127dc81612742565b945060208601356127ec81612751565b93506040860135925060608601356001600160401b0381111561280e57600080fd5b61281a88828901612771565b969995985093965092949392505050565b60008060006040848603121561284057600080fd5b833561284b81612742565b925060208401356001600160401b0381111561286657600080fd5b61287286828701612771565b9497909650939450505050565b60005b8381101561289a578181015183820152602001612882565b50506000910152565b600081518084526128bb81602086016020860161287f565b601f01601f19169290920160200192915050565b6000602080835283516080828501526128eb60a08501826128a3565b905081850151601f1960408187850301604088015261290a84846128a3565b9350604088015192508187850301606088015261292784846128a3565b6060890151888203840160808a015280518083529195508601935085850190600581901b8601870160005b828110156129995787820386018452865180516001600160e01b0319168352890151898301869052612986868401826128a3565b978a0197948a0194925050600101612952565b509a9950505050505050505050565b80151581146126cd57600080fd5b600080604083850312156129c957600080fd5b8235915060208301356129db816129a8565b809150509250929050565b6000602082840312156129f857600080fd5b81356126ed81612751565b600060208284031215612a1557600080fd5b5035919050565b60008060408385031215612a2f57600080fd5b50508035926020909101359150565b6020815260006126ed60208301846128a3565b60008060208385031215612a6457600080fd5b82356001600160401b03811115612a7a57600080fd5b612a8685828601612771565b90969095509350505050565b634e487b7160e01b600052602160045260246000fd5b60028110612ab857612ab8612a92565b9052565b87815260e08101612ad06020830189612aa8565b6001600160a01b039687166040830152948616606082015292909416608083015260a082015291151560c09092019190915292915050565b80356002811061270857600080fd5b600080600080600080600080600060e08a8c031215612b3557600080fd5b8935985060208a01356001600160401b0380821115612b5357600080fd5b612b5f8d838e01612771565b909a50985060408c0135915080821115612b7857600080fd5b50612b858c828d01612771565b9097509550612b98905060608b01612b08565b935060808a0135612ba881612751565b925060a08a0135612bb881612751565b8092505060c08a013590509295985092959850929598565b60008060008060008060008060008060006101208c8e031215612bf257600080fd5b8b359a506001600160401b038060208e01351115612c0f57600080fd5b612c1f8e60208f01358f01612771565b909b50995060408d0135811015612c3557600080fd5b50612c468d60408e01358e01612771565b909850965060608c0135612c5981612751565b955060808c0135612c6981612751565b945060a08c01359350612c7e60c08d016126f4565b925060e08c013591506101008c013590509295989b509295989b9093969950565b600080600060608486031215612cb457600080fd5b8335612cbf81612742565b925060208401356001600160401b03811115612cda57600080fd5b84016101608187031215612ced57600080fd5b929592945050506040919091013590565b60008060408385031215612d1157600080fd5b8235612d1c81612751565b946020939093013593505050565b60008060408385031215612d3d57600080fd5b8235612d4881612751565b915060208301356129db81612742565b60008151808452602080850194506020840160005b83811015612d935781516001600160e01b03191687529582019590820190600101612d6d565b509495945050505050565b600082825180855260208086019550808260051b84010181860160005b84811015612e1457858303601f19018952815180516001600160a01b0316845284810151151585850152604090810151606091850182905290612e0081860183612d58565b9a86019a9450505090830190600101612dbb565b5090979650505050505050565b805160058110612e3357612e33612a92565b825260208181015160ff1690830152604090810151910152565b60008151808452602080850194506020840160005b83811015612d9357815180516001600160e01b0319168852830151612e8984890182612e21565b506080969096019590820190600101612e62565b60008151808452602080850194506020840160005b83811015612d9357815180516001600160e01b031916885283810151612eda858a0182612e21565b5060400151612eec6080890182612e21565b5060e0969096019590820190600101612eb2565b6020815260008251610180806020850152612f1f6101a0850183612d58565b91506020850151601f1980868503016040870152612f3d8483612d58565b93506040870151915080868503016060870152612f5a8483612d58565b93506060870151915080868503016080870152612f778483612d58565b935060808701519150612f8e60a087018315159052565b60a087015180151560c0880152915060c08701519150808685030160e0870152612fb88483612d9e565b935060e08701519150610100818786030181880152612fd78584612e4d565b945080880151925050610120818786030181880152612ff68584612e4d565b9450808801519250506101408187860301818801526130158584612e4d565b9450808801519250506101608187860301818801526130348584612e4d565b9088015187820390920184880152935090506130508382612e9d565b9695505050505050565b60008083601f84011261306c57600080fd5b5081356001600160401b0381111561308357600080fd5b6020830191508360208260061b85010111156127b257600080fd5b60008060008060008060008060008060006101008c8e0312156130c057600080fd5b8b359a506001600160401b038060208e013511156130dd57600080fd5b6130ed8e60208f01358f01612771565b909b50995060408d013581101561310357600080fd5b6131138e60408f01358f01612771565b909950975061312460608e01612b08565b965061313260808e01612766565b955061314060a08e01612766565b945060c08d013593508060e08e0135111561315a57600080fd5b5061316b8d60e08e01358e0161305a565b81935080925050509295989b509295989b9093969950565b6000806040838503121561319657600080fd5b8235915060208301356001600160401b03811681146129db57600080fd5b600080600080608085870312156131ca57600080fd5b8435935060208501356131dc81612751565b92506040850135915060608501356131f3816129a8565b939692955090935050565b602080825260119082015270141c9bd91d58dd08139bdd08119bdd5b99607a1b604082015260600190565b60208082526017908201527f4e6f7420617574686f72697a65642070726f7669646572000000000000000000604082015260600190565b6001600160e01b031992909216825260ff16602082015260400190565b808201808211156107ac57634e487b7160e01b600052601160045260246000fd5b634e487b7160e01b600052604160045260246000fd5b604051606081016001600160401b03811182821017156132d6576132d661329e565b60405290565b604080519081016001600160401b03811182821017156132d6576132d661329e565b60405161018081016001600160401b03811182821017156132d6576132d661329e565b604051601f8201601f191681016001600160401b03811182821017156133495761334961329e565b604052919050565b60006001600160401b0382111561336a5761336a61329e565b5060051b60200190565b600082601f83011261338557600080fd5b8151602061339a61339583613351565b613321565b8083825260208201915060208460051b8701019350868411156133bc57600080fd5b602086015b848110156133e15780516133d4816126b7565b83529183019183016133c1565b509695505050505050565b8051612708816129a8565b600082601f83011261340857600080fd5b8151602061341861339583613351565b82815260059290921b8401810191818101908684111561343757600080fd5b8286015b848110156133e15780516001600160401b038082111561345b5760008081fd5b908801906060828b03601f19018113156134755760008081fd5b61347d6132b4565b8784015161348a81612751565b815260408481015161349b816129a8565b828a01529184015191838311156134b25760008081fd5b6134c08d8a85880101613374565b90820152865250505091830191830161343b565b6000606082840312156134e657600080fd5b6134ee6132b4565b90508151600581106134ff57600080fd5b8152602082015161350f81612742565b806020830152506040820151604082015292915050565b600082601f83011261353757600080fd5b8151602061354761339583613351565b82815260079290921b8401810191818101908684111561356657600080fd5b8286015b848110156133e157608081890312156135835760008081fd5b61358b6132dc565b8151613596816126b7565b81526135a4898387016134d4565b8186015283529183019160800161356a565b600082601f8301126135c757600080fd5b815160206135d761339583613351565b82815260e092830285018201928282019190878511156135f657600080fd5b8387015b85811015612e145781818a0312156136125760008081fd5b61361a6132b4565b8151613625816126b7565b81526136338a8388016134d4565b868201526136448a608084016134d4565b604082015284529284019281016135fa565b60006020828403121561366857600080fd5b81516001600160401b038082111561367f57600080fd5b90830190610180828603121561369457600080fd5b61369c6132fe565b8251828111156136ab57600080fd5b6136b787828601613374565b8252506020830151828111156136cc57600080fd5b6136d887828601613374565b6020830152506040830151828111156136f057600080fd5b6136fc87828601613374565b60408301525060608301518281111561371457600080fd5b61372087828601613374565b606083015250613732608084016133ec565b608082015261374360a084016133ec565b60a082015260c08301518281111561375a57600080fd5b613766878286016133f7565b60c08301525060e08301518281111561377e57600080fd5b61378a87828601613526565b60e08301525061010080840151838111156137a457600080fd5b6137b088828701613526565b82840152505061012080840151838111156137ca57600080fd5b6137d688828701613526565b82840152505061014080840151838111156137f057600080fd5b6137fc88828701613526565b828401525050610160808401518381111561381657600080fd5b613822888287016135b6565b918301919091525095945050505050565b634e487b7160e01b600052603260045260246000fd5b60006020828403121561385b57600080fd5b6126ed826126f4565b81835281816020850137506000828201602090810191909152601f909101601f19169091010190565b60006101008c83528060208401526138a88184018c8e613864565b905082810360408401526138bd818a8c613864565b9150506138cd6060830188612aa8565b6001600160a01b0395861660808301529390941660a085015260c0840191909152151560e0909201919091529695505050505050565b60018060a01b038416815282602082015260606040820152600061392a60608301846128a3565b95945050505050565b60006020828403121561394557600080fd5b81516001600160401b038082111561395c57600080fd5b818401915084601f83011261397057600080fd5b8151818111156139825761398261329e565b613995601f8201601f1916602001613321565b91508082528560208285010111156139ac57600080fd5b6139bd81602084016020860161287f565b50949350505050565b6000602082840312156139d857600080fd5b81516126ed816129a856fea26469706673582212209df47c4bfca811209abf310402198178e44fa9d45b5c35cb25e9ede9533c6a4d64736f6c63430008180033",
  "linkReferences": {},
  "deployedLinkReferences": {}
}