{
  "contracts/SubscriptionPlugin.sol": {
    "SubscriptionPlugin": {
      "abi": [
        {
          "inputs": [
            {
              "internalType": "uint256",
              "name": "chainId",
              "type": "uint256"
            },
            {
              "internalType": "address",
              "name": "_bridge",
              "type": "address"
            }
          ],
          "stateMutability": "nonpayable",
          "type": "constructor"
        },
        {
          "inputs": [],
          "name": "AlreadyInitialized",
          "type": "error"
        },
        {
          "inputs": [],
          "name": "InvalidAction",
          "type": "error"
        },
        {
          "inputs": [
            {
              "internalType": "address",
              "name": "caller",
              "type": "address"
            }
          ],
          "name": "NotContractCaller",
          "type": "error"
        },
        {
          "inputs": [
            {
              "internalType": "bytes4",
              "name": "selector",
              "type": "bytes4"
            },
            {
              "internalType": "uint8",
              "name": "functionId",
              "type": "uint8"
            }
          ],
          "name": "NotImplemented",
          "type": "error"
        },
        {
          "inputs": [],
          "name": "NotInitialized",
          "type": "error"
        },
        {
          "anonymous": false,
          "inputs": [
            {
              "indexed": true,
              "internalType": "uint256",
              "name": "productId",
              "type": "uint256"
            },
            {
              "indexed": true,
              "internalType": "uint256",
              "name": "planId",
              "type": "uint256"
            },
            {
              "indexed": false,
              "internalType": "uint256",
              "name": "price",
              "type": "uint256"
            },
            {
              "indexed": false,
              "internalType": "uint256",
              "name": "chargeInterval",
              "type": "uint256"
            },
            {
              "indexed": false,
              "internalType": "bool",
              "name": "isActive",
              "type": "bool"
            }
          ],
          "name": "PlanCreated",
          "type": "event"
        },
        {
          "anonymous": false,
          "inputs": [
            {
              "indexed": true,
              "internalType": "uint256",
              "name": "planId",
              "type": "uint256"
            },
            {
              "indexed": false,
              "internalType": "bool",
              "name": "isActive",
              "type": "bool"
            }
          ],
          "name": "PlanUpdated",
          "type": "event"
        },
        {
          "anonymous": false,
          "inputs": [
            {
              "indexed": true,
              "internalType": "uint256",
              "name": "productId",
              "type": "uint256"
            },
            {
              "indexed": true,
              "internalType": "address",
              "name": "provider",
              "type": "address"
            },
            {
              "indexed": false,
              "internalType": "bytes32",
              "name": "name",
              "type": "bytes32"
            },
            {
              "indexed": false,
              "internalType": "string",
              "name": "description",
              "type": "string"
            },
            {
              "indexed": false,
              "internalType": "string",
              "name": "logoUrl",
              "type": "string"
            },
            {
              "indexed": false,
              "internalType": "enum SubscriptionPlugin.ProductType",
              "name": "productType",
              "type": "uint8"
            },
            {
              "indexed": false,
              "internalType": "address",
              "name": "chargeToken",
              "type": "address"
            },
            {
              "indexed": false,
              "internalType": "address",
              "name": "receivingAddress",
              "type": "address"
            },
            {
              "indexed": false,
              "internalType": "uint256",
              "name": "destinationChain",
              "type": "uint256"
            },
            {
              "indexed": false,
              "internalType": "bool",
              "name": "isActive",
              "type": "bool"
            }
          ],
          "name": "ProductCreated",
          "type": "event"
        },
        {
          "anonymous": false,
          "inputs": [
            {
              "indexed": true,
              "internalType": "uint256",
              "name": "productId",
              "type": "uint256"
            },
            {
              "indexed": false,
              "internalType": "address",
              "name": "receivingAddress",
              "type": "address"
            },
            {
              "indexed": false,
              "internalType": "uint256",
              "name": "destinationChain",
              "type": "uint256"
            },
            {
              "indexed": false,
              "internalType": "bool",
              "name": "isActive",
              "type": "bool"
            }
          ],
          "name": "ProductUpdated",
          "type": "event"
        },
        {
          "anonymous": false,
          "inputs": [
            {
              "indexed": true,
              "internalType": "address",
              "name": "subscriber",
              "type": "address"
            },
            {
              "indexed": false,
              "internalType": "address",
              "name": "provider",
              "type": "address"
            },
            {
              "indexed": true,
              "internalType": "uint256",
              "name": "product",
              "type": "uint256"
            },
            {
              "indexed": true,
              "internalType": "uint256",
              "name": "plan",
              "type": "uint256"
            },
            {
              "indexed": false,
              "internalType": "uint256",
              "name": "subscriptionId",
              "type": "uint256"
            },
            {
              "indexed": false,
              "internalType": "uint256",
              "name": "endTime",
              "type": "uint256"
            }
          ],
          "name": "Subscribed",
          "type": "event"
        },
        {
          "anonymous": false,
          "inputs": [
            {
              "indexed": true,
              "internalType": "address",
              "name": "subscriber",
              "type": "address"
            },
            {
              "indexed": false,
              "internalType": "address",
              "name": "recipient",
              "type": "address"
            },
            {
              "indexed": false,
              "internalType": "uint256",
              "name": "subscriptionId",
              "type": "uint256"
            },
            {
              "indexed": true,
              "internalType": "uint256",
              "name": "planId",
              "type": "uint256"
            },
            {
              "indexed": true,
              "internalType": "uint256",
              "name": "productId",
              "type": "uint256"
            },
            {
              "indexed": false,
              "internalType": "uint256",
              "name": "amount",
              "type": "uint256"
            },
            {
              "indexed": false,
              "internalType": "uint256",
              "name": "timestamp",
              "type": "uint256"
            }
          ],
          "name": "SubscriptionCharged",
          "type": "event"
        },
        {
          "anonymous": false,
          "inputs": [
            {
              "indexed": true,
              "internalType": "address",
              "name": "user",
              "type": "address"
            },
            {
              "indexed": false,
              "internalType": "uint256",
              "name": "subscriptionId",
              "type": "uint256"
            },
            {
              "indexed": false,
              "internalType": "uint256",
              "name": "planId",
              "type": "uint256"
            }
          ],
          "name": "SubscriptionPlanChanged",
          "type": "event"
        },
        {
          "anonymous": false,
          "inputs": [
            {
              "indexed": true,
              "internalType": "address",
              "name": "user",
              "type": "address"
            },
            {
              "indexed": false,
              "internalType": "uint256",
              "name": "subscriptionId",
              "type": "uint256"
            }
          ],
          "name": "UnSubscribed",
          "type": "event"
        },
        {
          "inputs": [],
          "name": "AUTHOR",
          "outputs": [
            {
              "internalType": "string",
              "name": "",
              "type": "string"
            }
          ],
          "stateMutability": "view",
          "type": "function"
        },
        {
          "inputs": [],
          "name": "NAME",
          "outputs": [
            {
              "internalType": "string",
              "name": "",
              "type": "string"
            }
          ],
          "stateMutability": "view",
          "type": "function"
        },
        {
          "inputs": [],
          "name": "VERSION",
          "outputs": [
            {
              "internalType": "string",
              "name": "",
              "type": "string"
            }
          ],
          "stateMutability": "view",
          "type": "function"
        },
        {
          "inputs": [
            {
              "internalType": "uint256",
              "name": "_chainId",
              "type": "uint256"
            },
            {
              "internalType": "uint64",
              "name": "_selector",
              "type": "uint64"
            }
          ],
          "name": "addChainSelector",
          "outputs": [],
          "stateMutability": "nonpayable",
          "type": "function"
        },
        {
          "inputs": [],
          "name": "admin",
          "outputs": [
            {
              "internalType": "address",
              "name": "",
              "type": "address"
            }
          ],
          "stateMutability": "view",
          "type": "function"
        },
        {
          "inputs": [
            {
              "internalType": "uint256",
              "name": "",
              "type": "uint256"
            }
          ],
          "name": "ccipChainSelectors",
          "outputs": [
            {
              "internalType": "uint64",
              "name": "",
              "type": "uint64"
            }
          ],
          "stateMutability": "view",
          "type": "function"
        },
        {
          "inputs": [
            {
              "internalType": "uint256",
              "name": "subscriptionId",
              "type": "uint256"
            },
            {
              "internalType": "uint256",
              "name": "endTime",
              "type": "uint256"
            }
          ],
          "name": "changeSubscriptionEndTime",
          "outputs": [],
          "stateMutability": "nonpayable",
          "type": "function"
        },
        {
          "inputs": [],
          "name": "changeSubscriptionPlan",
          "outputs": [],
          "stateMutability": "pure",
          "type": "function"
        },
        {
          "inputs": [
            {
              "internalType": "address",
              "name": "subscriber",
              "type": "address"
            },
            {
              "internalType": "uint256",
              "name": "subscriptionId",
              "type": "uint256"
            }
          ],
          "name": "charge",
          "outputs": [],
          "stateMutability": "nonpayable",
          "type": "function"
        },
        {
          "inputs": [
            {
              "internalType": "uint256",
              "name": "_productId",
              "type": "uint256"
            },
            {
              "internalType": "uint32",
              "name": "_chargeInterval",
              "type": "uint32"
            },
            {
              "internalType": "uint256",
              "name": "_price",
              "type": "uint256"
            }
          ],
          "name": "createPlan",
          "outputs": [],
          "stateMutability": "nonpayable",
          "type": "function"
        },
        {
          "inputs": [
            {
              "internalType": "bytes32",
              "name": "_name",
              "type": "bytes32"
            },
            {
              "internalType": "string",
              "name": "_description",
              "type": "string"
            },
            {
              "internalType": "string",
              "name": "_logoUrl",
              "type": "string"
            },
            {
              "internalType": "enum SubscriptionPlugin.ProductType",
              "name": "_type",
              "type": "uint8"
            },
            {
              "internalType": "address",
              "name": "_chargeToken",
              "type": "address"
            },
            {
              "internalType": "address",
              "name": "_receivingAddress",
              "type": "address"
            },
            {
              "internalType": "uint256",
              "name": "_destinationChain",
              "type": "uint256"
            }
          ],
          "name": "createProduct",
          "outputs": [],
          "stateMutability": "nonpayable",
          "type": "function"
        },
        {
          "inputs": [
            {
              "internalType": "bytes32",
              "name": "_name",
              "type": "bytes32"
            },
            {
              "internalType": "string",
              "name": "_description",
              "type": "string"
            },
            {
              "internalType": "string",
              "name": "_logoUrl",
              "type": "string"
            },
            {
              "internalType": "enum SubscriptionPlugin.ProductType",
              "name": "_type",
              "type": "uint8"
            },
            {
              "internalType": "address",
              "name": "_chargeToken",
              "type": "address"
            },
            {
              "internalType": "address",
              "name": "_receivingAddress",
              "type": "address"
            },
            {
              "internalType": "uint256",
              "name": "_destinationChain",
              "type": "uint256"
            },
            {
              "components": [
                {
                  "internalType": "uint256",
                  "name": "price",
                  "type": "uint256"
                },
                {
                  "internalType": "uint32",
                  "name": "chargeInterval",
                  "type": "uint32"
                }
              ],
              "internalType": "struct SubscriptionPlugin.InitPlanParam[]",
              "name": "_plans",
              "type": "tuple[]"
            }
          ],
          "name": "createProductWithPlans",
          "outputs": [],
          "stateMutability": "nonpayable",
          "type": "function"
        },
        {
          "inputs": [
            {
              "internalType": "bytes32",
              "name": "_name",
              "type": "bytes32"
            },
            {
              "internalType": "string",
              "name": "_description",
              "type": "string"
            },
            {
              "internalType": "string",
              "name": "_logoUrl",
              "type": "string"
            },
            {
              "internalType": "address",
              "name": "_chargeToken",
              "type": "address"
            },
            {
              "internalType": "address",
              "name": "_receivingAddress",
              "type": "address"
            },
            {
              "internalType": "uint256",
              "name": "_destinationChain",
              "type": "uint256"
            },
            {
              "internalType": "uint32",
              "name": "_chargeInterval",
              "type": "uint32"
            },
            {
              "internalType": "uint256",
              "name": "_price",
              "type": "uint256"
            }
          ],
          "name": "createRecurringSubscription",
          "outputs": [],
          "stateMutability": "nonpayable",
          "type": "function"
        },
        {
          "inputs": [],
          "name": "currentChainId",
          "outputs": [
            {
              "internalType": "uint256",
              "name": "",
              "type": "uint256"
            }
          ],
          "stateMutability": "view",
          "type": "function"
        },
        {
          "inputs": [],
          "name": "getManifestHash",
          "outputs": [
            {
              "internalType": "bytes32",
              "name": "",
              "type": "bytes32"
            }
          ],
          "stateMutability": "view",
          "type": "function"
        },
        {
          "inputs": [
            {
              "internalType": "bytes",
              "name": "",
              "type": "bytes"
            }
          ],
          "name": "onInstall",
          "outputs": [],
          "stateMutability": "pure",
          "type": "function"
        },
        {
          "inputs": [
            {
              "internalType": "bytes",
              "name": "",
              "type": "bytes"
            }
          ],
          "name": "onUninstall",
          "outputs": [],
          "stateMutability": "pure",
          "type": "function"
        },
        {
          "inputs": [
            {
              "internalType": "address",
              "name": "addr",
              "type": "address"
            },
            {
              "internalType": "uint8",
              "name": "functionId",
              "type": "uint8"
            }
          ],
          "name": "pack",
          "outputs": [
            {
              "internalType": "FunctionReference",
              "name": "",
              "type": "bytes21"
            }
          ],
          "stateMutability": "pure",
          "type": "function"
        },
        {
          "inputs": [],
          "name": "planNonce",
          "outputs": [
            {
              "internalType": "uint256",
              "name": "",
              "type": "uint256"
            }
          ],
          "stateMutability": "view",
          "type": "function"
        },
        {
          "inputs": [
            {
              "internalType": "uint256",
              "name": "",
              "type": "uint256"
            }
          ],
          "name": "plans",
          "outputs": [
            {
              "internalType": "uint256",
              "name": "productId",
              "type": "uint256"
            },
            {
              "internalType": "uint256",
              "name": "planId",
              "type": "uint256"
            },
            {
              "internalType": "address",
              "name": "provider",
              "type": "address"
            },
            {
              "internalType": "uint256",
              "name": "price",
              "type": "uint256"
            },
            {
              "internalType": "uint32",
              "name": "chargeInterval",
              "type": "uint32"
            },
            {
              "internalType": "bool",
              "name": "isActive",
              "type": "bool"
            }
          ],
          "stateMutability": "view",
          "type": "function"
        },
        {
          "inputs": [],
          "name": "pluginManifest",
          "outputs": [
            {
              "components": [
                {
                  "internalType": "bytes4[]",
                  "name": "interfaceIds",
                  "type": "bytes4[]"
                },
                {
                  "internalType": "bytes4[]",
                  "name": "dependencyInterfaceIds",
                  "type": "bytes4[]"
                },
                {
                  "internalType": "bytes4[]",
                  "name": "executionFunctions",
                  "type": "bytes4[]"
                },
                {
                  "internalType": "bytes4[]",
                  "name": "permittedExecutionSelectors",
                  "type": "bytes4[]"
                },
                {
                  "internalType": "bool",
                  "name": "permitAnyExternalAddress",
                  "type": "bool"
                },
                {
                  "internalType": "bool",
                  "name": "canSpendNativeToken",
                  "type": "bool"
                },
                {
                  "components": [
                    {
                      "internalType": "address",
                      "name": "externalAddress",
                      "type": "address"
                    },
                    {
                      "internalType": "bool",
                      "name": "permitAnySelector",
                      "type": "bool"
                    },
                    {
                      "internalType": "bytes4[]",
                      "name": "selectors",
                      "type": "bytes4[]"
                    }
                  ],
                  "internalType": "struct ManifestExternalCallPermission[]",
                  "name": "permittedExternalCalls",
                  "type": "tuple[]"
                },
                {
                  "components": [
                    {
                      "internalType": "bytes4",
                      "name": "executionSelector",
                      "type": "bytes4"
                    },
                    {
                      "components": [
                        {
                          "internalType": "enum ManifestAssociatedFunctionType",
                          "name": "functionType",
                          "type": "uint8"
                        },
                        {
                          "internalType": "uint8",
                          "name": "functionId",
                          "type": "uint8"
                        },
                        {
                          "internalType": "uint256",
                          "name": "dependencyIndex",
                          "type": "uint256"
                        }
                      ],
                      "internalType": "struct ManifestFunction",
                      "name": "associatedFunction",
                      "type": "tuple"
                    }
                  ],
                  "internalType": "struct ManifestAssociatedFunction[]",
                  "name": "userOpValidationFunctions",
                  "type": "tuple[]"
                },
                {
                  "components": [
                    {
                      "internalType": "bytes4",
                      "name": "executionSelector",
                      "type": "bytes4"
                    },
                    {
                      "components": [
                        {
                          "internalType": "enum ManifestAssociatedFunctionType",
                          "name": "functionType",
                          "type": "uint8"
                        },
                        {
                          "internalType": "uint8",
                          "name": "functionId",
                          "type": "uint8"
                        },
                        {
                          "internalType": "uint256",
                          "name": "dependencyIndex",
                          "type": "uint256"
                        }
                      ],
                      "internalType": "struct ManifestFunction",
                      "name": "associatedFunction",
                      "type": "tuple"
                    }
                  ],
                  "internalType": "struct ManifestAssociatedFunction[]",
                  "name": "runtimeValidationFunctions",
                  "type": "tuple[]"
                },
                {
                  "components": [
                    {
                      "internalType": "bytes4",
                      "name": "executionSelector",
                      "type": "bytes4"
                    },
                    {
                      "components": [
                        {
                          "internalType": "enum ManifestAssociatedFunctionType",
                          "name": "functionType",
                          "type": "uint8"
                        },
                        {
                          "internalType": "uint8",
                          "name": "functionId",
                          "type": "uint8"
                        },
                        {
                          "internalType": "uint256",
                          "name": "dependencyIndex",
                          "type": "uint256"
                        }
                      ],
                      "internalType": "struct ManifestFunction",
                      "name": "associatedFunction",
                      "type": "tuple"
                    }
                  ],
                  "internalType": "struct ManifestAssociatedFunction[]",
                  "name": "preUserOpValidationHooks",
                  "type": "tuple[]"
                },
                {
                  "components": [
                    {
                      "internalType": "bytes4",
                      "name": "executionSelector",
                      "type": "bytes4"
                    },
                    {
                      "components": [
                        {
                          "internalType": "enum ManifestAssociatedFunctionType",
                          "name": "functionType",
                          "type": "uint8"
                        },
                        {
                          "internalType": "uint8",
                          "name": "functionId",
                          "type": "uint8"
                        },
                        {
                          "internalType": "uint256",
                          "name": "dependencyIndex",
                          "type": "uint256"
                        }
                      ],
                      "internalType": "struct ManifestFunction",
                      "name": "associatedFunction",
                      "type": "tuple"
                    }
                  ],
                  "internalType": "struct ManifestAssociatedFunction[]",
                  "name": "preRuntimeValidationHooks",
                  "type": "tuple[]"
                },
                {
                  "components": [
                    {
                      "internalType": "bytes4",
                      "name": "executionSelector",
                      "type": "bytes4"
                    },
                    {
                      "components": [
                        {
                          "internalType": "enum ManifestAssociatedFunctionType",
                          "name": "functionType",
                          "type": "uint8"
                        },
                        {
                          "internalType": "uint8",
                          "name": "functionId",
                          "type": "uint8"
                        },
                        {
                          "internalType": "uint256",
                          "name": "dependencyIndex",
                          "type": "uint256"
                        }
                      ],
                      "internalType": "struct ManifestFunction",
                      "name": "preExecHook",
                      "type": "tuple"
                    },
                    {
                      "components": [
                        {
                          "internalType": "enum ManifestAssociatedFunctionType",
                          "name": "functionType",
                          "type": "uint8"
                        },
                        {
                          "internalType": "uint8",
                          "name": "functionId",
                          "type": "uint8"
                        },
                        {
                          "internalType": "uint256",
                          "name": "dependencyIndex",
                          "type": "uint256"
                        }
                      ],
                      "internalType": "struct ManifestFunction",
                      "name": "postExecHook",
                      "type": "tuple"
                    }
                  ],
                  "internalType": "struct ManifestExecutionHook[]",
                  "name": "executionHooks",
                  "type": "tuple[]"
                }
              ],
              "internalType": "struct PluginManifest",
              "name": "",
              "type": "tuple"
            }
          ],
          "stateMutability": "pure",
          "type": "function"
        },
        {
          "inputs": [],
          "name": "pluginMetadata",
          "outputs": [
            {
              "components": [
                {
                  "internalType": "string",
                  "name": "name",
                  "type": "string"
                },
                {
                  "internalType": "string",
                  "name": "version",
                  "type": "string"
                },
                {
                  "internalType": "string",
                  "name": "author",
                  "type": "string"
                },
                {
                  "components": [
                    {
                      "internalType": "bytes4",
                      "name": "functionSelector",
                      "type": "bytes4"
                    },
                    {
                      "internalType": "string",
                      "name": "permissionDescription",
                      "type": "string"
                    }
                  ],
                  "internalType": "struct SelectorPermission[]",
                  "name": "permissionDescriptors",
                  "type": "tuple[]"
                }
              ],
              "internalType": "struct PluginMetadata",
              "name": "",
              "type": "tuple"
            }
          ],
          "stateMutability": "pure",
          "type": "function"
        },
        {
          "inputs": [
            {
              "internalType": "uint8",
              "name": "functionId",
              "type": "uint8"
            },
            {
              "internalType": "bytes",
              "name": "preExecHookData",
              "type": "bytes"
            }
          ],
          "name": "postExecutionHook",
          "outputs": [],
          "stateMutability": "nonpayable",
          "type": "function"
        },
        {
          "inputs": [
            {
              "internalType": "uint8",
              "name": "functionId",
              "type": "uint8"
            },
            {
              "internalType": "address",
              "name": "sender",
              "type": "address"
            },
            {
              "internalType": "uint256",
              "name": "value",
              "type": "uint256"
            },
            {
              "internalType": "bytes",
              "name": "data",
              "type": "bytes"
            }
          ],
          "name": "preExecutionHook",
          "outputs": [
            {
              "internalType": "bytes",
              "name": "",
              "type": "bytes"
            }
          ],
          "stateMutability": "nonpayable",
          "type": "function"
        },
        {
          "inputs": [
            {
              "internalType": "uint8",
              "name": "functionId",
              "type": "uint8"
            },
            {
              "internalType": "address",
              "name": "sender",
              "type": "address"
            },
            {
              "internalType": "uint256",
              "name": "value",
              "type": "uint256"
            },
            {
              "internalType": "bytes",
              "name": "data",
              "type": "bytes"
            }
          ],
          "name": "preRuntimeValidationHook",
          "outputs": [],
          "stateMutability": "nonpayable",
          "type": "function"
        },
        {
          "inputs": [
            {
              "internalType": "uint8",
              "name": "functionId",
              "type": "uint8"
            },
            {
              "components": [
                {
                  "internalType": "address",
                  "name": "sender",
                  "type": "address"
                },
                {
                  "internalType": "uint256",
                  "name": "nonce",
                  "type": "uint256"
                },
                {
                  "internalType": "bytes",
                  "name": "initCode",
                  "type": "bytes"
                },
                {
                  "internalType": "bytes",
                  "name": "callData",
                  "type": "bytes"
                },
                {
                  "internalType": "uint256",
                  "name": "callGasLimit",
                  "type": "uint256"
                },
                {
                  "internalType": "uint256",
                  "name": "verificationGasLimit",
                  "type": "uint256"
                },
                {
                  "internalType": "uint256",
                  "name": "preVerificationGas",
                  "type": "uint256"
                },
                {
                  "internalType": "uint256",
                  "name": "maxFeePerGas",
                  "type": "uint256"
                },
                {
                  "internalType": "uint256",
                  "name": "maxPriorityFeePerGas",
                  "type": "uint256"
                },
                {
                  "internalType": "bytes",
                  "name": "paymasterAndData",
                  "type": "bytes"
                },
                {
                  "internalType": "bytes",
                  "name": "signature",
                  "type": "bytes"
                }
              ],
              "internalType": "struct UserOperation",
              "name": "userOp",
              "type": "tuple"
            },
            {
              "internalType": "bytes32",
              "name": "userOpHash",
              "type": "bytes32"
            }
          ],
          "name": "preUserOpValidationHook",
          "outputs": [
            {
              "internalType": "uint256",
              "name": "",
              "type": "uint256"
            }
          ],
          "stateMutability": "nonpayable",
          "type": "function"
        },
        {
          "inputs": [],
          "name": "productNonce",
          "outputs": [
            {
              "internalType": "uint256",
              "name": "",
              "type": "uint256"
            }
          ],
          "stateMutability": "view",
          "type": "function"
        },
        {
          "inputs": [
            {
              "internalType": "uint256",
              "name": "",
              "type": "uint256"
            }
          ],
          "name": "products",
          "outputs": [
            {
              "internalType": "uint256",
              "name": "productId",
              "type": "uint256"
            },
            {
              "internalType": "enum SubscriptionPlugin.ProductType",
              "name": "productType",
              "type": "uint8"
            },
            {
              "internalType": "address",
              "name": "provider",
              "type": "address"
            },
            {
              "internalType": "address",
              "name": "chargeToken",
              "type": "address"
            },
            {
              "internalType": "address",
              "name": "receivingAddress",
              "type": "address"
            },
            {
              "internalType": "uint256",
              "name": "destinationChain",
              "type": "uint256"
            },
            {
              "internalType": "bool",
              "name": "isActive",
              "type": "bool"
            }
          ],
          "stateMutability": "view",
          "type": "function"
        },
        {
          "inputs": [
            {
              "internalType": "uint8",
              "name": "functionId",
              "type": "uint8"
            },
            {
              "internalType": "address",
              "name": "sender",
              "type": "address"
            },
            {
              "internalType": "uint256",
              "name": "value",
              "type": "uint256"
            },
            {
              "internalType": "bytes",
              "name": "data",
              "type": "bytes"
            }
          ],
          "name": "runtimeValidationFunction",
          "outputs": [],
          "stateMutability": "nonpayable",
          "type": "function"
        },
        {
          "inputs": [
            {
              "internalType": "address",
              "name": "_bridgeAddr",
              "type": "address"
            }
          ],
          "name": "setTokenBridge",
          "outputs": [],
          "stateMutability": "nonpayable",
          "type": "function"
        },
        {
          "inputs": [
            {
              "internalType": "uint256",
              "name": "planId",
              "type": "uint256"
            },
            {
              "internalType": "uint256",
              "name": "endTime",
              "type": "uint256"
            }
          ],
          "name": "subscribe",
          "outputs": [],
          "stateMutability": "nonpayable",
          "type": "function"
        },
        {
          "inputs": [
            {
              "internalType": "address",
              "name": "",
              "type": "address"
            },
            {
              "internalType": "uint256",
              "name": "",
              "type": "uint256"
            }
          ],
          "name": "subscribedToProduct",
          "outputs": [
            {
              "internalType": "bool",
              "name": "",
              "type": "bool"
            }
          ],
          "stateMutability": "view",
          "type": "function"
        },
        {
          "inputs": [
            {
              "internalType": "address",
              "name": "",
              "type": "address"
            }
          ],
          "name": "subscriptionNonces",
          "outputs": [
            {
              "internalType": "uint256",
              "name": "",
              "type": "uint256"
            }
          ],
          "stateMutability": "view",
          "type": "function"
        },
        {
          "inputs": [
            {
              "internalType": "bytes4",
              "name": "interfaceId",
              "type": "bytes4"
            }
          ],
          "name": "supportsInterface",
          "outputs": [
            {
              "internalType": "bool",
              "name": "",
              "type": "bool"
            }
          ],
          "stateMutability": "view",
          "type": "function"
        },
        {
          "inputs": [],
          "name": "tokenBridge",
          "outputs": [
            {
              "internalType": "contract ITokenBridge",
              "name": "",
              "type": "address"
            }
          ],
          "stateMutability": "view",
          "type": "function"
        },
        {
          "inputs": [
            {
              "internalType": "uint256",
              "name": "subscriptionId",
              "type": "uint256"
            }
          ],
          "name": "unSubscribe",
          "outputs": [],
          "stateMutability": "nonpayable",
          "type": "function"
        },
        {
          "inputs": [
            {
              "internalType": "uint256",
              "name": "_planId",
              "type": "uint256"
            },
            {
              "internalType": "bool",
              "name": "_isActive",
              "type": "bool"
            }
          ],
          "name": "updatePlan",
          "outputs": [],
          "stateMutability": "nonpayable",
          "type": "function"
        },
        {
          "inputs": [
            {
              "internalType": "uint256",
              "name": "_productId",
              "type": "uint256"
            },
            {
              "internalType": "address",
              "name": "_receivingAddr",
              "type": "address"
            },
            {
              "internalType": "uint256",
              "name": "_destChain",
              "type": "uint256"
            },
            {
              "internalType": "bool",
              "name": "_isActive",
              "type": "bool"
            }
          ],
          "name": "updateProduct",
          "outputs": [],
          "stateMutability": "nonpayable",
          "type": "function"
        },
        {
          "inputs": [
            {
              "internalType": "uint8",
              "name": "functionId",
              "type": "uint8"
            },
            {
              "components": [
                {
                  "internalType": "address",
                  "name": "sender",
                  "type": "address"
                },
                {
                  "internalType": "uint256",
                  "name": "nonce",
                  "type": "uint256"
                },
                {
                  "internalType": "bytes",
                  "name": "initCode",
                  "type": "bytes"
                },
                {
                  "internalType": "bytes",
                  "name": "callData",
                  "type": "bytes"
                },
                {
                  "internalType": "uint256",
                  "name": "callGasLimit",
                  "type": "uint256"
                },
                {
                  "internalType": "uint256",
                  "name": "verificationGasLimit",
                  "type": "uint256"
                },
                {
                  "internalType": "uint256",
                  "name": "preVerificationGas",
                  "type": "uint256"
                },
                {
                  "internalType": "uint256",
                  "name": "maxFeePerGas",
                  "type": "uint256"
                },
                {
                  "internalType": "uint256",
                  "name": "maxPriorityFeePerGas",
                  "type": "uint256"
                },
                {
                  "internalType": "bytes",
                  "name": "paymasterAndData",
                  "type": "bytes"
                },
                {
                  "internalType": "bytes",
                  "name": "signature",
                  "type": "bytes"
                }
              ],
              "internalType": "struct UserOperation",
              "name": "userOp",
              "type": "tuple"
            },
            {
              "internalType": "bytes32",
              "name": "userOpHash",
              "type": "bytes32"
            }
          ],
          "name": "userOpValidationFunction",
          "outputs": [
            {
              "internalType": "uint256",
              "name": "",
              "type": "uint256"
            }
          ],
          "stateMutability": "nonpayable",
          "type": "function"
        },
        {
          "inputs": [
            {
              "internalType": "address",
              "name": "",
              "type": "address"
            },
            {
              "internalType": "uint256",
              "name": "",
              "type": "uint256"
            }
          ],
          "name": "userSubscriptions",
          "outputs": [
            {
              "internalType": "uint256",
              "name": "subscriptionId",
              "type": "uint256"
            },
            {
              "internalType": "uint256",
              "name": "product",
              "type": "uint256"
            },
            {
              "internalType": "address",
              "name": "provider",
              "type": "address"
            },
            {
              "internalType": "uint256",
              "name": "plan",
              "type": "uint256"
            },
            {
              "internalType": "uint256",
              "name": "lastChargeDate",
              "type": "uint256"
            },
            {
              "internalType": "uint256",
              "name": "endTime",
              "type": "uint256"
            },
            {
              "internalType": "bool",
              "name": "isActive",
              "type": "bool"
            }
          ],
          "stateMutability": "view",
          "type": "function"
        }
      ],
      "evm": {
        "bytecode": {
          "linkReferences": {},
          "object": "60806040523480156200001157600080fd5b506040516200389738038062003897833981016040819052620000349162000076565b60018054336001600160a01b0319918216178255600480549091166001600160a01b0393909316929092179091556000919091556002819055600355620000b5565b600080604083850312156200008a57600080fd5b825160208401519092506001600160a01b0381168114620000aa57600080fd5b809150509250929050565b6137d280620000c56000396000f3fe608060405234801561001057600080fd5b50600436106102485760003560e01c8063a3f4df7e1161013b578063c7763130116100b8578063e4f955b01161007c578063e4f955b01461070d578063e9f3380814610720578063f7fc32a21461074e578063f851a44014610761578063ffa1ad741461077457600080fd5b8063c7763130146105e9578063c95d6edc146105fe578063cd61587e146106a6578063cd8c5272146106e7578063dfc2f42e146106fa57600080fd5b8063be8534e2116100ff578063be8534e214610561578063bfa15c75146105ae578063bfd151c11461028a578063c2a96c18146105b6578063c6328a46146105be57600080fd5b8063a3f4df7e14610452578063a3ffa9cd14610484578063a7be85c614610497578063af8734831461043f578063b1620616146104c557600080fd5b80632a73740c116101c95780637acc0b201161018d5780637acc0b20146103a95780637f5f66be14610419578063843708131461042c57806388e18ce41461043f5780638a91b0e31461039757600080fd5b80632a73740c1461032b57806339d048601461035b57806346d60eb21461036e5780636cbadbfa1461038e5780636d61fe701461039757600080fd5b8063151d267711610210578063151d2677146102c5578063157f7123146102dc5780631b7c82ec146102ef5780631feea06a146102f85780632796b0301461031857600080fd5b806301ffc9a71461024d5780630c497af3146102755780630c7ecd841461028a5780631128186d1461029d578063118a5389146102b0575b600080fd5b61026061025b3660046124c2565b610798565b60405190151581526020015b60405180910390f35b6102886102833660046124ff565b6107cf565b005b6102886102983660046125ab565b610a71565b6102886102ab36600461261d565b610a9a565b6102b8610ac3565b60405161026c91906126c1565b6102ce60035481565b60405190815260200161026c565b6102886102ea3660046127a8565b610b93565b6102ce60025481565b6102ce6103063660046127d8565b60086020526000908152604090205481565b6102886103263660046127f5565b610c89565b61028861033936600461280e565b3360009081526009602090815260408083209483529390529190912060050155565b6102886103693660046127d8565b610ce2565b61038161037c3660046125ab565b610d1b565b60405161026c9190612830565b6102ce60005481565b6102886103a5366004612843565b5050565b6104066103b73660046127f5565b600660205260009081526040902080546001820154600283015460038401546004850154600590950154939460ff808516956101009095046001600160a01b0390811695948116949316921687565b60405161026c97969594939291906128ae565b610288610427366004612909565b610d46565b61028861043a36600461280e565b610d63565b6102ce61044d3660046129c2565b611220565b6103816040518060400160405280601381526020017229bab139b1b934b83a34b7b71028363ab3b4b760691b81525081565b610288610492366004612a21565b61124a565b6103816040518060400160405280600f81526020016e5465652d70792026204a617962656560881b81525081565b61051f6104d33660046127f5565b60076020526000908152604090208054600182015460028301546003840154600490940154929391926001600160a01b03909116919063ffffffff811690640100000000900460ff1686565b6040805196875260208701959095526001600160a01b0390931693850193909352606084015263ffffffff9091166080830152151560a082015260c00161026c565b61059161056f366004612a4d565b60581b60ff60581b1660609190911b6bffffffffffffffffffffffff19161790565b6040516affffffffffffffffffffff19909116815260200161026c565b6102ce6115d4565b610288611667565b6004546105d1906001600160a01b031681565b6040516001600160a01b03909116815260200161026c565b6105f161169f565b60405161026c9190612c23565b61066161060c366004612a21565b60096020908152600092835260408084209091529082529020805460018201546002830154600384015460048501546005860154600690960154949593946001600160a01b0390931693919290919060ff1687565b6040805197885260208801969096526001600160a01b03909416948601949094526060850191909152608084015260a0830191909152151560c082015260e00161026c565b6106cf6106b43660046127f5565b6005602052600090815260409020546001600160401b031681565b6040516001600160401b03909116815260200161026c565b6102886106f5366004612dc1565b611c86565b610288610708366004612ea6565b611d5d565b61028861071b366004612ed7565b611da3565b61026061072e366004612a21565b600a60209081526000928352604080842090915290825290205460ff1681565b61028861075c366004612f98565b611dd1565b6001546105d1906001600160a01b031681565b610381604051806040016040528060058152602001640312e302e360dc1b81525081565b60006001600160e01b0319821663f23b1ed760e01b14806107c957506301ffc9a760e01b6001600160e01b03198316145b92915050565b6000838152600660205260408120548491036108265760405162461bcd60e51b8152602060048201526011602482015270141c9bd91d58dd08139bdd08119bdd5b99607a1b60448201526064015b60405180910390fd5b600084815260066020526040902060010154849061010090046001600160a01b031633146108665760405162461bcd60e51b815260040161081d90612fe2565b620151808463ffffffff161015801561088957506301e133808463ffffffff1611155b6108c85760405162461bcd60e51b815260206004820152601060248201526f1a5b9d985b1a59081a5b9d195c9d985b60821b604482015260640161081d565b600060066000878152602001908152602001600020905060006040518060c0016040528088815260200160035481526020018360010160019054906101000a90046001600160a01b03166001600160a01b031681526020018681526020018763ffffffff168152602001600115158152509050806007600083602001518152602001908152602001600020600082015181600001556020820151816001015560408201518160020160006101000a8154816001600160a01b0302191690836001600160a01b031602179055506060820151816003015560808201518160040160006101000a81548163ffffffff021916908363ffffffff16021790555060a08201518160040160046101000a81548160ff0219169083151502179055509050506001600360008282546109fb9190613019565b925050819055508060200151877fefcd7034bb3bc315795fdab1fdca7520ce3650a588e5f33fc58163c79e9b737e836060015184608001518560a00151604051610a609392919092835263ffffffff9190911660208301521515604082015260600190565b60405180910390a350505050505050565b6000356001600160e01b031916856040516384b9b37960e01b815260040161081d92919061303a565b6000356001600160e01b031916836040516384b9b37960e01b815260040161081d92919061303a565b610aee6040518060800160405280606081526020016060815260200160608152602001606081525090565b610b196040518060800160405280606081526020016060815260200160608152602001606081525090565b604080518082018252601381527229bab139b1b934b83a34b7b71028363ab3b4b760691b6020808301919091529083528151808301835260058152640312e302e360dc1b818301528382015281518083018352600f81526e5465652d70792026204a617962656560881b9181019190915290820152919050565b600082815260076020526040812060010154839103610be55760405162461bcd60e51b815260206004820152600e60248201526d141b185b88139bdd08119bdd5b9960921b604482015260640161081d565b600083815260076020526040902060028101546001600160a01b03163314610c1f5760405162461bcd60e51b815260040161081d90612fe2565b60048101805484151564010000000090810264ff0000000019909216919091179182905560018301546040519190920460ff16151581527fe8898c20571732660341e9bd58210cbce79a036302e465085395645040fd1cc29060200160405180910390a250505050565b336000818152600960209081526040808320858452825291829020600601805460ff1916905590518381527f3ce0ad9e088ae3e7555f42cc73d57bf59207a30deef3eea8654a27e86650a4a9910160405180910390a250565b6001546001600160a01b03163314610cf957600080fd5b600480546001600160a01b0319166001600160a01b0392909216919091179055565b60606000356001600160e01b031916866040516384b9b37960e01b815260040161081d92919061303a565b610d57898989898989898989611f6e565b50505050505050505050565b6000828152600760205260409020600401548290640100000000900460ff16610dc15760405162461bcd60e51b815260206004820152601060248201526f506c616e20697320696e61637469766560801b604482015260640161081d565b333b600003610e205760405162461bcd60e51b815260206004820152602560248201527f4163636f756e74206973206e6f74206f6620736d61727420636f6e7472616374604482015264207479706560d81b606482015260840161081d565b6000838152600760209081526040808320815160c08101835281548082526001808401548387015260028401546001600160a01b0316838601526003840154606084015260049093015463ffffffff8116608084015260ff6401000000009091048116151560a084015290865260068552838620845160e08101909552805485528084015492969590939085019290911690811115610ec157610ec1612884565b6001811115610ed257610ed2612884565b815260018201546001600160a01b036101009091048116602083015260028301548116604083015260038301541660608201526004820154608082015260059091015460ff16151560a0918201528301519091508015610f3357508060c001515b610f7f5760405162461bcd60e51b815260206004820152601f60248201527f506c616e20616e642070726f64756374206d7573742062652061637469766500604482015260640161081d565b336000908152600a602090815260408083208451845290915290205460ff1615610ff75760405162461bcd60e51b815260206004820152602360248201527f50726f6475637420737562736372697074696f6e20616c72656164792065786960448201526273747360e81b606482015260840161081d565b60006040518060e0016040528060086000336001600160a01b03166001600160a01b031681526020019081526020016000205481526020018360000151815260200184604001516001600160a01b0316815260200184602001518152602001428152602001868152602001600115158152509050611092836060015133846060015185608001518660a00151866000015189602001516121aa565b3360008181526009602090815260408083208551845282528083208551815585830151600180830191909155868301516002830180546001600160a01b0319166001600160a01b03909216919091179055606087015160038301556080870151600483015560a0870151600583015560c08701516006909201805460ff191692151592909217909155938352600890915281208054909190611135908490613019565b9091555050336000818152600a6020908152604080832086518452825291829020805460ff19166001179055845186830151855184516001600160a01b039092168252928101929092529181018890528892907f1913e17d5784005a914657f9e879fcc261644776365f1d84aeb45afcb6da48649060600160405180910390a48151608080840151835160608781015186850151604080516001600160a01b039096168652602086019490945292840152820152889133917ff525c8253dece3e354aaae6f24c19577dea21f33ca86474610ed00771fb13689910160405180910390a4505050505050565b600080356001600160e01b031916846040516384b9b37960e01b815260040161081d92919061303a565b6001600160a01b03821660009081526009602090815260408083208484529091529020600601548290829060ff166112c45760405162461bcd60e51b815260206004820152601760248201527f537562736372697074696f6e206e6f7420616374697665000000000000000000604482015260640161081d565b6001600160a01b0380851660009081526009602090815260408083208784528252808320600380820154855260078452828520835160c08101855281548152600180830154828801526002830154909816818601529181015460608301526004015463ffffffff8116608083015260ff6401000000009091048116151560a083015286830154865260068552838620845160e081019095528054855280880154939792969590939085019291169081111561138157611381612884565b600181111561139257611392612884565b815260018201546001600160a01b0361010090910481166020830152600283015481166040830152600383015416606082015260048083015460808084019190915260059093015460ff16151560a090920191909152850154908401519192504291611404919063ffffffff16613019565b111561144a5760405162461bcd60e51b81526020600482015260156024820152741d1a5b5948125b9d195c9d985b081b9bdd081b595d605a1b604482015260640161081d565b428360050154118061145e57506005830154155b6114aa5760405162461bcd60e51b815260206004820152601d60248201527f737562736372697074696f6e20656e642074696d6520656c6170736564000000604482015260640161081d565b8060c001516114f15760405162461bcd60e51b815260206004820152601360248201527250726f6475637420697320696e61637469766560681b604482015260640161081d565b8160a001516115355760405162461bcd60e51b815260206004820152601060248201526f506c616e20697320696e61637469766560801b604482015260640161081d565b61155c826060015188836060015184608001518560a00151886000015488602001516121aa565b42600484018190558251602080850151608085810151606080890151604080516001600160a01b0394851681529687018f905286015284019590955292939092908b16917ff525c8253dece3e354aaae6f24c19577dea21f33ca86474610ed00771fb13689910160405180910390a450505050505050565b6000306001600160a01b031663c77631306040518163ffffffff1660e01b8152600401600060405180830381865afa158015611614573d6000803e3d6000fd5b505050506040513d6000823e601f3d908101601f1916820160405261163c919081019061340f565b60405160200161164c9190612c23565b60405160208183030381529060405280519060200120905090565b60405162461bcd60e51b815260206004820152600d60248201526c139bdd081cdd5c1c1bdc9d1959609a1b604482015260640161081d565b6116a7612408565b6116af612408565b604080516002808252606082018352909160208301908036833750505060208201819052805163f23b1ed760e01b91906000906116ee576116ee6135ec565b6001600160e01b0319909216602092830291909101820152810151805163f23b1ed760e01b91906001908110611726576117266135ec565b6001600160e01b031992909216602092830291909101820152604080516007808252610100820190925291820160e080368337505050604082018190528051638437081360e01b919060009061177e5761177e6135ec565b6001600160e01b031990921660209283029190910190910152604081015180516302796b0360e41b919060019081106117b9576117b96135ec565b6001600160e01b031990921660209283029190910190910152604081015180516318552d8360e31b919060029081106117f4576117f46135ec565b6001600160e01b03199092166020928302919091019091015260408101518051633fafb35f60e11b9190600390811061182f5761182f6135ec565b6001600160e01b03199092166020928302919091019091015260408101518051630c497af360e01b9190600490811061186a5761186a6135ec565b6001600160e01b03199092166020928302919091019091015260408101518051637bfe195160e11b919060059081106118a5576118a56135ec565b6001600160e01b0319909216602092830291909101909101526040810151805163157f712360e01b919060069081106118e0576118e06135ec565b6001600160e01b031992909216602092830291909101820152604080516060810182526002815260009281019290925260018282015280516007808252610100820190925290816020015b61193361246d565b81526020019060019003908161192b57505060e0830190815260408051808201909152638437081360e01b8152602081018390529051805160009061197a5761197a6135ec565b60200260200101819052506040518060400160405280632796b03060e01b6001600160e01b0319168152602001828152508260e001516001815181106119c2576119c26135ec565b6020026020010181905250604051806040016040528063c2a96c1860e01b6001600160e01b0319168152602001828152508260e00151600281518110611a0a57611a0a6135ec565b60200260200101819052506040518060400160405280637f5f66be60e01b6001600160e01b0319168152602001828152508260e00151600381518110611a5257611a526135ec565b60200260200101819052506040518060400160405280630c497af360e01b6001600160e01b0319168152602001828152508260e00151600481518110611a9a57611a9a6135ec565b6020026020010181905250604051806040016040528063f7fc32a260e01b6001600160e01b0319168152602001828152508260e00151600581518110611ae257611ae26135ec565b6020026020010181905250604051806040016040528063157f712360e01b6001600160e01b0319168152602001828152508260e00151600681518110611b2a57611b2a6135ec565b60209081029190910101526040805160038082526080820190925290816020015b611b5361246d565b815260200190600190039081611b4b5750506101408301908152604080518082018252638437081360e01b8152815160608101835260048152600060208083018290529382018190529282015291518051909190611bb357611bb36135ec565b6020908102919091018101919091526040805180820182526302796b0360e41b81528151606081018352600481526000818501819052928101929092529182015261014083015180516001908110611c0d57611c0d6135ec565b6020908102919091018101919091526040805180820182526318552d8360e31b81528151606081018352600481526000818501819052928101929092529182015261014083015180516002908110611c6757611c676135ec565b60209081029190910101525060016080820181905260a0820152919050565b6000819003611cd75760405162461bcd60e51b815260206004820152601760248201527f706c616e73206d757374206e6f7420626520656d707479000000000000000000604482015260640161081d565b6000611cea8c8c8c8c8c8c8c8c8c611f6e565b905060005b82811015611d4e57611d4682858584818110611d0d57611d0d6135ec565b9050604002016020016020810190611d259190613602565b868685818110611d3757611d376135ec565b905060400201600001356107cf565b600101611cef565b50505050505050505050505050565b6001546001600160a01b03163314611d7457600080fd5b600091825260056020526040909120805467ffffffffffffffff19166001600160401b03909216919091179055565b6000611db78b8b8b8b8b60008c8c8c611f6e565b9050611dc48184846107cf565b5050505050505050505050565b600084815260066020526040812054859103611e235760405162461bcd60e51b8152602060048201526011602482015270141c9bd91d58dd08139bdd08119bdd5b99607a1b604482015260640161081d565b600085815260066020526040902060010154859061010090046001600160a01b03163314611e635760405162461bcd60e51b815260040161081d90612fe2565b6000548414611ed2576000848152600560205260408120546001600160401b03169003611ed25760405162461bcd60e51b815260206004820152601f60248201527f64657374696e6174696f6e20636861696e206e6f7420737570706f7274656400604482015260640161081d565b6000868152600660209081526040918290206003810180546001600160a01b0319166001600160a01b038a169081179091556004820188905560058201805460ff19168815159081179091558254855192835293820189905260ff16151593810193909352917f0e816aab067090cfcfffdd25d4bd81f5a9fa515ea99385748c73eb642debca649060600160405180910390a250505050505050565b600080548214611fde576000828152600560205260408120546001600160401b03169003611fde5760405162461bcd60e51b815260206004820152601f60248201527f64657374696e6174696f6e20636861696e206e6f7420737570706f7274656400604482015260640161081d565b60006040518060e00160405280600254815260200187600181111561200557612005612884565b8152602001336001600160a01b03168152602001866001600160a01b03168152602001856001600160a01b031681526020018481526020016001151581525090508060066000836000015181526020019081526020016000206000820151816000015560208201518160010160006101000a81548160ff0219169083600181111561209257612092612884565b0217905550604082015160018281018054610100600160a81b0319166101006001600160a01b03948516021790556060840151600280850180546001600160a01b03199081169386169390931790556080860151600386018054909316941693909317905560a0840151600484015560c0909301516005909201805460ff191692151592909217909155805460009061212c908490613019565b92505081905550336001600160a01b031681600001517ff9815db369a250e4360ba847cf51ab4c7702b42b361aac1288caeed4404cc0ad8d8d8d8d8d8d89606001518a608001518b60a001518c60c001516040516121939a99989796959493929190613646565b60405180910390a3519a9950505050505050505050565b6040513060248201526044810188905260009060640160408051601f198184030181529181526020820180516001600160e01b031663a9059cbb60e01b179052516338997b1160e01b81529091506001600160a01b038816906338997b119061221c90899060009086906004016136bc565b6000604051808303816000875af115801561223b573d6000803e3d6000fd5b505050506040513d6000823e601f3d908101601f1916820160405261226391908101906136ec565b5060005484036122e65760405163a9059cbb60e01b81526001600160a01b038681166004830152602482018a905287169063a9059cbb906044016020604051808303816000875af11580156122bc573d6000803e3d6000fd5b505050506040513d601f19601f820116820180604052508101906122e0919061377f565b506123fe565b6004805460405163095ea7b360e01b81526001600160a01b0391821692810192909252602482018a905287169063095ea7b3906044016020604051808303816000875af115801561233b573d6000803e3d6000fd5b505050506040513d601f19601f8201168201806040525081019061235f919061377f565b5060048054600086815260056020526040908190205490516327d52ed360e11b81526001600160401b03909116928101929092526001600160a01b0387811660248401528881166044840152606483018b90526084830186905260a483018590521690634faa5da69060c401600060405180830381600087803b1580156123e557600080fd5b505af11580156123f9573d6000803e3d6000fd5b505050505b5050505050505050565b604051806101800160405280606081526020016060815260200160608152602001606081526020016000151581526020016000151581526020016060815260200160608152602001606081526020016060815260200160608152602001606081525090565b6040805180820190915260008152602081016124a46040805160608101909152806000815260006020820181905260409091015290565b905290565b6001600160e01b0319811681146124bf57600080fd5b50565b6000602082840312156124d457600080fd5b81356124df816124a9565b9392505050565b803563ffffffff811681146124fa57600080fd5b919050565b60008060006060848603121561251457600080fd5b83359250612524602085016124e6565b9150604084013590509250925092565b60ff811681146124bf57600080fd5b6001600160a01b03811681146124bf57600080fd5b80356124fa81612543565b60008083601f84011261257557600080fd5b5081356001600160401b0381111561258c57600080fd5b6020830191508360208285010111156125a457600080fd5b9250929050565b6000806000806000608086880312156125c357600080fd5b85356125ce81612534565b945060208601356125de81612543565b93506040860135925060608601356001600160401b0381111561260057600080fd5b61260c88828901612563565b969995985093965092949392505050565b60008060006040848603121561263257600080fd5b833561263d81612534565b925060208401356001600160401b0381111561265857600080fd5b61266486828701612563565b9497909650939450505050565b60005b8381101561268c578181015183820152602001612674565b50506000910152565b600081518084526126ad816020860160208601612671565b601f01601f19169290920160200192915050565b6000602080835283516080828501526126dd60a0850182612695565b905081850151601f196040818785030160408801526126fc8484612695565b935060408801519250818785030160608801526127198484612695565b6060890151888203840160808a015280518083529195508601935085850190600581901b8601870160005b8281101561278b5787820386018452865180516001600160e01b031916835289015189830186905261277886840182612695565b978a0197948a0194925050600101612744565b509a9950505050505050505050565b80151581146124bf57600080fd5b600080604083850312156127bb57600080fd5b8235915060208301356127cd8161279a565b809150509250929050565b6000602082840312156127ea57600080fd5b81356124df81612543565b60006020828403121561280757600080fd5b5035919050565b6000806040838503121561282157600080fd5b50508035926020909101359150565b6020815260006124df6020830184612695565b6000806020838503121561285657600080fd5b82356001600160401b0381111561286c57600080fd5b61287885828601612563565b90969095509350505050565b634e487b7160e01b600052602160045260246000fd5b600281106128aa576128aa612884565b9052565b87815260e081016128c2602083018961289a565b6001600160a01b039687166040830152948616606082015292909416608083015260a082015291151560c09092019190915292915050565b8035600281106124fa57600080fd5b600080600080600080600080600060e08a8c03121561292757600080fd5b8935985060208a01356001600160401b038082111561294557600080fd5b6129518d838e01612563565b909a50985060408c013591508082111561296a57600080fd5b506129778c828d01612563565b909750955061298a905060608b016128fa565b935060808a013561299a81612543565b925060a08a01356129aa81612543565b8092505060c08a013590509295985092959850929598565b6000806000606084860312156129d757600080fd5b83356129e281612534565b925060208401356001600160401b038111156129fd57600080fd5b84016101608187031215612a1057600080fd5b929592945050506040919091013590565b60008060408385031215612a3457600080fd5b8235612a3f81612543565b946020939093013593505050565b60008060408385031215612a6057600080fd5b8235612a6b81612543565b915060208301356127cd81612534565b60008151808452602080850194506020840160005b83811015612ab65781516001600160e01b03191687529582019590820190600101612a90565b509495945050505050565b600082825180855260208086019550808260051b84010181860160005b84811015612b3757858303601f19018952815180516001600160a01b0316845284810151151585850152604090810151606091850182905290612b2381860183612a7b565b9a86019a9450505090830190600101612ade565b5090979650505050505050565b805160058110612b5657612b56612884565b825260208181015160ff1690830152604090810151910152565b60008151808452602080850194506020840160005b83811015612ab657815180516001600160e01b0319168852830151612bac84890182612b44565b506080969096019590820190600101612b85565b60008151808452602080850194506020840160005b83811015612ab657815180516001600160e01b031916885283810151612bfd858a0182612b44565b5060400151612c0f6080890182612b44565b5060e0969096019590820190600101612bd5565b6020815260008251610180806020850152612c426101a0850183612a7b565b91506020850151601f1980868503016040870152612c608483612a7b565b93506040870151915080868503016060870152612c7d8483612a7b565b93506060870151915080868503016080870152612c9a8483612a7b565b935060808701519150612cb160a087018315159052565b60a087015180151560c0880152915060c08701519150808685030160e0870152612cdb8483612ac1565b935060e08701519150610100818786030181880152612cfa8584612b70565b945080880151925050610120818786030181880152612d198584612b70565b945080880151925050610140818786030181880152612d388584612b70565b945080880151925050610160818786030181880152612d578584612b70565b908801518782039092018488015293509050612d738382612bc0565b9695505050505050565b60008083601f840112612d8f57600080fd5b5081356001600160401b03811115612da657600080fd5b6020830191508360208260061b85010111156125a457600080fd5b60008060008060008060008060008060006101008c8e031215612de357600080fd5b8b359a506001600160401b038060208e01351115612e0057600080fd5b612e108e60208f01358f01612563565b909b50995060408d0135811015612e2657600080fd5b612e368e60408f01358f01612563565b9099509750612e4760608e016128fa565b9650612e5560808e01612558565b9550612e6360a08e01612558565b945060c08d013593508060e08e01351115612e7d57600080fd5b50612e8e8d60e08e01358e01612d7d565b81935080925050509295989b509295989b9093969950565b60008060408385031215612eb957600080fd5b8235915060208301356001600160401b03811681146127cd57600080fd5b6000806000806000806000806000806101008b8d031215612ef757600080fd5b8a35995060208b01356001600160401b0380821115612f1557600080fd5b612f218e838f01612563565b909b50995060408d0135915080821115612f3a57600080fd5b50612f478d828e01612563565b90985096505060608b0135612f5b81612543565b945060808b0135612f6b81612543565b935060a08b01359250612f8060c08c016124e6565b915060e08b013590509295989b9194979a5092959850565b60008060008060808587031215612fae57600080fd5b843593506020850135612fc081612543565b9250604085013591506060850135612fd78161279a565b939692955090935050565b60208082526017908201527f4e6f7420617574686f72697a65642070726f7669646572000000000000000000604082015260600190565b808201808211156107c957634e487b7160e01b600052601160045260246000fd5b6001600160e01b031992909216825260ff16602082015260400190565b634e487b7160e01b600052604160045260246000fd5b604051606081016001600160401b038111828210171561308f5761308f613057565b60405290565b604080519081016001600160401b038111828210171561308f5761308f613057565b60405161018081016001600160401b038111828210171561308f5761308f613057565b604051601f8201601f191681016001600160401b038111828210171561310257613102613057565b604052919050565b60006001600160401b0382111561312357613123613057565b5060051b60200190565b600082601f83011261313e57600080fd5b8151602061315361314e8361310a565b6130da565b8083825260208201915060208460051b87010193508684111561317557600080fd5b602086015b8481101561319a57805161318d816124a9565b835291830191830161317a565b509695505050505050565b80516124fa8161279a565b600082601f8301126131c157600080fd5b815160206131d161314e8361310a565b82815260059290921b840181019181810190868411156131f057600080fd5b8286015b8481101561319a5780516001600160401b03808211156132145760008081fd5b908801906060828b03601f190181131561322e5760008081fd5b61323661306d565b8784015161324381612543565b81526040848101516132548161279a565b828a015291840151918383111561326b5760008081fd5b6132798d8a8588010161312d565b9082015286525050509183019183016131f4565b60006060828403121561329f57600080fd5b6132a761306d565b90508151600581106132b857600080fd5b815260208201516132c881612534565b806020830152506040820151604082015292915050565b600082601f8301126132f057600080fd5b8151602061330061314e8361310a565b82815260079290921b8401810191818101908684111561331f57600080fd5b8286015b8481101561319a576080818903121561333c5760008081fd5b613344613095565b815161334f816124a9565b815261335d8983870161328d565b81860152835291830191608001613323565b600082601f83011261338057600080fd5b8151602061339061314e8361310a565b82815260e092830285018201928282019190878511156133af57600080fd5b8387015b85811015612b375781818a0312156133cb5760008081fd5b6133d361306d565b81516133de816124a9565b81526133ec8a83880161328d565b868201526133fd8a6080840161328d565b604082015284529284019281016133b3565b60006020828403121561342157600080fd5b81516001600160401b038082111561343857600080fd5b90830190610180828603121561344d57600080fd5b6134556130b7565b82518281111561346457600080fd5b6134708782860161312d565b82525060208301518281111561348557600080fd5b6134918782860161312d565b6020830152506040830151828111156134a957600080fd5b6134b58782860161312d565b6040830152506060830151828111156134cd57600080fd5b6134d98782860161312d565b6060830152506134eb608084016131a5565b60808201526134fc60a084016131a5565b60a082015260c08301518281111561351357600080fd5b61351f878286016131b0565b60c08301525060e08301518281111561353757600080fd5b613543878286016132df565b60e083015250610100808401518381111561355d57600080fd5b613569888287016132df565b828401525050610120808401518381111561358357600080fd5b61358f888287016132df565b82840152505061014080840151838111156135a957600080fd5b6135b5888287016132df565b82840152505061016080840151838111156135cf57600080fd5b6135db8882870161336f565b918301919091525095945050505050565b634e487b7160e01b600052603260045260246000fd5b60006020828403121561361457600080fd5b6124df826124e6565b81835281816020850137506000828201602090810191909152601f909101601f19169091010190565b60006101008c83528060208401526136618184018c8e61361d565b90508281036040840152613676818a8c61361d565b915050613686606083018861289a565b6001600160a01b0395861660808301529390941660a085015260c0840191909152151560e0909201919091529695505050505050565b60018060a01b03841681528260208201526060604082015260006136e36060830184612695565b95945050505050565b6000602082840312156136fe57600080fd5b81516001600160401b038082111561371557600080fd5b818401915084601f83011261372957600080fd5b81518181111561373b5761373b613057565b61374e601f8201601f19166020016130da565b915080825285602082850101111561376557600080fd5b613776816020840160208601612671565b50949350505050565b60006020828403121561379157600080fd5b81516124df8161279a56fea2646970667358221220627f9c77bb6762b63120b109db312293547e263a20f7a006fa268eb21ba55baf64736f6c63430008180033",
          "opcodes": "PUSH1 0x80 PUSH1 0x40 MSTORE CALLVALUE DUP1 ISZERO PUSH3 0x11 JUMPI PUSH1 0x0 DUP1 REVERT JUMPDEST POP PUSH1 0x40 MLOAD PUSH3 0x3897 CODESIZE SUB DUP1 PUSH3 0x3897 DUP4 CODECOPY DUP2 ADD PUSH1 0x40 DUP2 SWAP1 MSTORE PUSH3 0x34 SWAP2 PUSH3 0x76 JUMP JUMPDEST PUSH1 0x1 DUP1 SLOAD CALLER PUSH1 0x1 PUSH1 0x1 PUSH1 0xA0 SHL SUB NOT SWAP2 DUP3 AND OR DUP3 SSTORE PUSH1 0x4 DUP1 SLOAD SWAP1 SWAP2 AND PUSH1 0x1 PUSH1 0x1 PUSH1 0xA0 SHL SUB SWAP4 SWAP1 SWAP4 AND SWAP3 SWAP1 SWAP3 OR SWAP1 SWAP2 SSTORE PUSH1 0x0 SWAP2 SWAP1 SWAP2 SSTORE PUSH1 0x2 DUP2 SWAP1 SSTORE PUSH1 0x3 SSTORE PUSH3 0xB5 JUMP JUMPDEST PUSH1 0x0 DUP1 PUSH1 0x40 DUP4 DUP6 SUB SLT ISZERO PUSH3 0x8A JUMPI PUSH1 0x0 DUP1 REVERT JUMPDEST DUP3 MLOAD PUSH1 0x20 DUP5 ADD MLOAD SWAP1 SWAP3 POP PUSH1 0x1 PUSH1 0x1 PUSH1 0xA0 SHL SUB DUP2 AND DUP2 EQ PUSH3 0xAA JUMPI PUSH1 0x0 DUP1 REVERT JUMPDEST DUP1 SWAP2 POP POP SWAP3 POP SWAP3 SWAP1 POP JUMP JUMPDEST PUSH2 0x37D2 DUP1 PUSH3 0xC5 PUSH1 0x0 CODECOPY PUSH1 0x0 RETURN INVALID PUSH1 0x80 PUSH1 0x40 MSTORE CALLVALUE DUP1 ISZERO PUSH2 0x10 JUMPI PUSH1 0x0 DUP1 REVERT JUMPDEST POP PUSH1 0x4 CALLDATASIZE LT PUSH2 0x248 JUMPI PUSH1 0x0 CALLDATALOAD PUSH1 0xE0 SHR DUP1 PUSH4 0xA3F4DF7E GT PUSH2 0x13B JUMPI DUP1 PUSH4 0xC7763130 GT PUSH2 0xB8 JUMPI DUP1 PUSH4 0xE4F955B0 GT PUSH2 0x7C JUMPI DUP1 PUSH4 0xE4F955B0 EQ PUSH2 0x70D JUMPI DUP1 PUSH4 0xE9F33808 EQ PUSH2 0x720 JUMPI DUP1 PUSH4 0xF7FC32A2 EQ PUSH2 0x74E JUMPI DUP1 PUSH4 0xF851A440 EQ PUSH2 0x761 JUMPI DUP1 PUSH4 0xFFA1AD74 EQ PUSH2 0x774 JUMPI PUSH1 0x0 DUP1 REVERT JUMPDEST DUP1 PUSH4 0xC7763130 EQ PUSH2 0x5E9 JUMPI DUP1 PUSH4 0xC95D6EDC EQ PUSH2 0x5FE JUMPI DUP1 PUSH4 0xCD61587E EQ PUSH2 0x6A6 JUMPI DUP1 PUSH4 0xCD8C5272 EQ PUSH2 0x6E7 JUMPI DUP1 PUSH4 0xDFC2F42E EQ PUSH2 0x6FA JUMPI PUSH1 0x0 DUP1 REVERT JUMPDEST DUP1 PUSH4 0xBE8534E2 GT PUSH2 0xFF JUMPI DUP1 PUSH4 0xBE8534E2 EQ PUSH2 0x561 JUMPI DUP1 PUSH4 0xBFA15C75 EQ PUSH2 0x5AE JUMPI DUP1 PUSH4 0xBFD151C1 EQ PUSH2 0x28A JUMPI DUP1 PUSH4 0xC2A96C18 EQ PUSH2 0x5B6 JUMPI DUP1 PUSH4 0xC6328A46 EQ PUSH2 0x5BE JUMPI PUSH1 0x0 DUP1 REVERT JUMPDEST DUP1 PUSH4 0xA3F4DF7E EQ PUSH2 0x452 JUMPI DUP1 PUSH4 0xA3FFA9CD EQ PUSH2 0x484 JUMPI DUP1 PUSH4 0xA7BE85C6 EQ PUSH2 0x497 JUMPI DUP1 PUSH4 0xAF873483 EQ PUSH2 0x43F JUMPI DUP1 PUSH4 0xB1620616 EQ PUSH2 0x4C5 JUMPI PUSH1 0x0 DUP1 REVERT JUMPDEST DUP1 PUSH4 0x2A73740C GT PUSH2 0x1C9 JUMPI DUP1 PUSH4 0x7ACC0B20 GT PUSH2 0x18D JUMPI DUP1 PUSH4 0x7ACC0B20 EQ PUSH2 0x3A9 JUMPI DUP1 PUSH4 0x7F5F66BE EQ PUSH2 0x419 JUMPI DUP1 PUSH4 0x84370813 EQ PUSH2 0x42C JUMPI DUP1 PUSH4 0x88E18CE4 EQ PUSH2 0x43F JUMPI DUP1 PUSH4 0x8A91B0E3 EQ PUSH2 0x397 JUMPI PUSH1 0x0 DUP1 REVERT JUMPDEST DUP1 PUSH4 0x2A73740C EQ PUSH2 0x32B JUMPI DUP1 PUSH4 0x39D04860 EQ PUSH2 0x35B JUMPI DUP1 PUSH4 0x46D60EB2 EQ PUSH2 0x36E JUMPI DUP1 PUSH4 0x6CBADBFA EQ PUSH2 0x38E JUMPI DUP1 PUSH4 0x6D61FE70 EQ PUSH2 0x397 JUMPI PUSH1 0x0 DUP1 REVERT JUMPDEST DUP1 PUSH4 0x151D2677 GT PUSH2 0x210 JUMPI DUP1 PUSH4 0x151D2677 EQ PUSH2 0x2C5 JUMPI DUP1 PUSH4 0x157F7123 EQ PUSH2 0x2DC JUMPI DUP1 PUSH4 0x1B7C82EC EQ PUSH2 0x2EF JUMPI DUP1 PUSH4 0x1FEEA06A EQ PUSH2 0x2F8 JUMPI DUP1 PUSH4 0x2796B030 EQ PUSH2 0x318 JUMPI PUSH1 0x0 DUP1 REVERT JUMPDEST DUP1 PUSH4 0x1FFC9A7 EQ PUSH2 0x24D JUMPI DUP1 PUSH4 0xC497AF3 EQ PUSH2 0x275 JUMPI DUP1 PUSH4 0xC7ECD84 EQ PUSH2 0x28A JUMPI DUP1 PUSH4 0x1128186D EQ PUSH2 0x29D JUMPI DUP1 PUSH4 0x118A5389 EQ PUSH2 0x2B0 JUMPI JUMPDEST PUSH1 0x0 DUP1 REVERT JUMPDEST PUSH2 0x260 PUSH2 0x25B CALLDATASIZE PUSH1 0x4 PUSH2 0x24C2 JUMP JUMPDEST PUSH2 0x798 JUMP JUMPDEST PUSH1 0x40 MLOAD SWAP1 ISZERO ISZERO DUP2 MSTORE PUSH1 0x20 ADD JUMPDEST PUSH1 0x40 MLOAD DUP1 SWAP2 SUB SWAP1 RETURN JUMPDEST PUSH2 0x288 PUSH2 0x283 CALLDATASIZE PUSH1 0x4 PUSH2 0x24FF JUMP JUMPDEST PUSH2 0x7CF JUMP JUMPDEST STOP JUMPDEST PUSH2 0x288 PUSH2 0x298 CALLDATASIZE PUSH1 0x4 PUSH2 0x25AB JUMP JUMPDEST PUSH2 0xA71 JUMP JUMPDEST PUSH2 0x288 PUSH2 0x2AB CALLDATASIZE PUSH1 0x4 PUSH2 0x261D JUMP JUMPDEST PUSH2 0xA9A JUMP JUMPDEST PUSH2 0x2B8 PUSH2 0xAC3 JUMP JUMPDEST PUSH1 0x40 MLOAD PUSH2 0x26C SWAP2 SWAP1 PUSH2 0x26C1 JUMP JUMPDEST PUSH2 0x2CE PUSH1 0x3 SLOAD DUP2 JUMP JUMPDEST PUSH1 0x40 MLOAD SWAP1 DUP2 MSTORE PUSH1 0x20 ADD PUSH2 0x26C JUMP JUMPDEST PUSH2 0x288 PUSH2 0x2EA CALLDATASIZE PUSH1 0x4 PUSH2 0x27A8 JUMP JUMPDEST PUSH2 0xB93 JUMP JUMPDEST PUSH2 0x2CE PUSH1 0x2 SLOAD DUP2 JUMP JUMPDEST PUSH2 0x2CE PUSH2 0x306 CALLDATASIZE PUSH1 0x4 PUSH2 0x27D8 JUMP JUMPDEST PUSH1 0x8 PUSH1 0x20 MSTORE PUSH1 0x0 SWAP1 DUP2 MSTORE PUSH1 0x40 SWAP1 KECCAK256 SLOAD DUP2 JUMP JUMPDEST PUSH2 0x288 PUSH2 0x326 CALLDATASIZE PUSH1 0x4 PUSH2 0x27F5 JUMP JUMPDEST PUSH2 0xC89 JUMP JUMPDEST PUSH2 0x288 PUSH2 0x339 CALLDATASIZE PUSH1 0x4 PUSH2 0x280E JUMP JUMPDEST CALLER PUSH1 0x0 SWAP1 DUP2 MSTORE PUSH1 0x9 PUSH1 0x20 SWAP1 DUP2 MSTORE PUSH1 0x40 DUP1 DUP4 KECCAK256 SWAP5 DUP4 MSTORE SWAP4 SWAP1 MSTORE SWAP2 SWAP1 SWAP2 KECCAK256 PUSH1 0x5 ADD SSTORE JUMP JUMPDEST PUSH2 0x288 PUSH2 0x369 CALLDATASIZE PUSH1 0x4 PUSH2 0x27D8 JUMP JUMPDEST PUSH2 0xCE2 JUMP JUMPDEST PUSH2 0x381 PUSH2 0x37C CALLDATASIZE PUSH1 0x4 PUSH2 0x25AB JUMP JUMPDEST PUSH2 0xD1B JUMP JUMPDEST PUSH1 0x40 MLOAD PUSH2 0x26C SWAP2 SWAP1 PUSH2 0x2830 JUMP JUMPDEST PUSH2 0x2CE PUSH1 0x0 SLOAD DUP2 JUMP JUMPDEST PUSH2 0x288 PUSH2 0x3A5 CALLDATASIZE PUSH1 0x4 PUSH2 0x2843 JUMP JUMPDEST POP POP JUMP JUMPDEST PUSH2 0x406 PUSH2 0x3B7 CALLDATASIZE PUSH1 0x4 PUSH2 0x27F5 JUMP JUMPDEST PUSH1 0x6 PUSH1 0x20 MSTORE PUSH1 0x0 SWAP1 DUP2 MSTORE PUSH1 0x40 SWAP1 KECCAK256 DUP1 SLOAD PUSH1 0x1 DUP3 ADD SLOAD PUSH1 0x2 DUP4 ADD SLOAD PUSH1 0x3 DUP5 ADD SLOAD PUSH1 0x4 DUP6 ADD SLOAD PUSH1 0x5 SWAP1 SWAP6 ADD SLOAD SWAP4 SWAP5 PUSH1 0xFF DUP1 DUP6 AND SWAP6 PUSH2 0x100 SWAP1 SWAP6 DIV PUSH1 0x1 PUSH1 0x1 PUSH1 0xA0 SHL SUB SWAP1 DUP2 AND SWAP6 SWAP5 DUP2 AND SWAP5 SWAP4 AND SWAP3 AND DUP8 JUMP JUMPDEST PUSH1 0x40 MLOAD PUSH2 0x26C SWAP8 SWAP7 SWAP6 SWAP5 SWAP4 SWAP3 SWAP2 SWAP1 PUSH2 0x28AE JUMP JUMPDEST PUSH2 0x288 PUSH2 0x427 CALLDATASIZE PUSH1 0x4 PUSH2 0x2909 JUMP JUMPDEST PUSH2 0xD46 JUMP JUMPDEST PUSH2 0x288 PUSH2 0x43A CALLDATASIZE PUSH1 0x4 PUSH2 0x280E JUMP JUMPDEST PUSH2 0xD63 JUMP JUMPDEST PUSH2 0x2CE PUSH2 0x44D CALLDATASIZE PUSH1 0x4 PUSH2 0x29C2 JUMP JUMPDEST PUSH2 0x1220 JUMP JUMPDEST PUSH2 0x381 PUSH1 0x40 MLOAD DUP1 PUSH1 0x40 ADD PUSH1 0x40 MSTORE DUP1 PUSH1 0x13 DUP2 MSTORE PUSH1 0x20 ADD PUSH19 0x29BAB139B1B934B83A34B7B71028363AB3B4B7 PUSH1 0x69 SHL DUP2 MSTORE POP DUP2 JUMP JUMPDEST PUSH2 0x288 PUSH2 0x492 CALLDATASIZE PUSH1 0x4 PUSH2 0x2A21 JUMP JUMPDEST PUSH2 0x124A JUMP JUMPDEST PUSH2 0x381 PUSH1 0x40 MLOAD DUP1 PUSH1 0x40 ADD PUSH1 0x40 MSTORE DUP1 PUSH1 0xF DUP2 MSTORE PUSH1 0x20 ADD PUSH15 0x5465652D70792026204A6179626565 PUSH1 0x88 SHL DUP2 MSTORE POP DUP2 JUMP JUMPDEST PUSH2 0x51F PUSH2 0x4D3 CALLDATASIZE PUSH1 0x4 PUSH2 0x27F5 JUMP JUMPDEST PUSH1 0x7 PUSH1 0x20 MSTORE PUSH1 0x0 SWAP1 DUP2 MSTORE PUSH1 0x40 SWAP1 KECCAK256 DUP1 SLOAD PUSH1 0x1 DUP3 ADD SLOAD PUSH1 0x2 DUP4 ADD SLOAD PUSH1 0x3 DUP5 ADD SLOAD PUSH1 0x4 SWAP1 SWAP5 ADD SLOAD SWAP3 SWAP4 SWAP2 SWAP3 PUSH1 0x1 PUSH1 0x1 PUSH1 0xA0 SHL SUB SWAP1 SWAP2 AND SWAP2 SWAP1 PUSH4 0xFFFFFFFF DUP2 AND SWAP1 PUSH5 0x100000000 SWAP1 DIV PUSH1 0xFF AND DUP7 JUMP JUMPDEST PUSH1 0x40 DUP1 MLOAD SWAP7 DUP8 MSTORE PUSH1 0x20 DUP8 ADD SWAP6 SWAP1 SWAP6 MSTORE PUSH1 0x1 PUSH1 0x1 PUSH1 0xA0 SHL SUB SWAP1 SWAP4 AND SWAP4 DUP6 ADD SWAP4 SWAP1 SWAP4 MSTORE PUSH1 0x60 DUP5 ADD MSTORE PUSH4 0xFFFFFFFF SWAP1 SWAP2 AND PUSH1 0x80 DUP4 ADD MSTORE ISZERO ISZERO PUSH1 0xA0 DUP3 ADD MSTORE PUSH1 0xC0 ADD PUSH2 0x26C JUMP JUMPDEST PUSH2 0x591 PUSH2 0x56F CALLDATASIZE PUSH1 0x4 PUSH2 0x2A4D JUMP JUMPDEST PUSH1 0x58 SHL PUSH1 0xFF PUSH1 0x58 SHL AND PUSH1 0x60 SWAP2 SWAP1 SWAP2 SHL PUSH12 0xFFFFFFFFFFFFFFFFFFFFFFFF NOT AND OR SWAP1 JUMP JUMPDEST PUSH1 0x40 MLOAD PUSH11 0xFFFFFFFFFFFFFFFFFFFFFF NOT SWAP1 SWAP2 AND DUP2 MSTORE PUSH1 0x20 ADD PUSH2 0x26C JUMP JUMPDEST PUSH2 0x2CE PUSH2 0x15D4 JUMP JUMPDEST PUSH2 0x288 PUSH2 0x1667 JUMP JUMPDEST PUSH1 0x4 SLOAD PUSH2 0x5D1 SWAP1 PUSH1 0x1 PUSH1 0x1 PUSH1 0xA0 SHL SUB AND DUP2 JUMP JUMPDEST PUSH1 0x40 MLOAD PUSH1 0x1 PUSH1 0x1 PUSH1 0xA0 SHL SUB SWAP1 SWAP2 AND DUP2 MSTORE PUSH1 0x20 ADD PUSH2 0x26C JUMP JUMPDEST PUSH2 0x5F1 PUSH2 0x169F JUMP JUMPDEST PUSH1 0x40 MLOAD PUSH2 0x26C SWAP2 SWAP1 PUSH2 0x2C23 JUMP JUMPDEST PUSH2 0x661 PUSH2 0x60C CALLDATASIZE PUSH1 0x4 PUSH2 0x2A21 JUMP JUMPDEST PUSH1 0x9 PUSH1 0x20 SWAP1 DUP2 MSTORE PUSH1 0x0 SWAP3 DUP4 MSTORE PUSH1 0x40 DUP1 DUP5 KECCAK256 SWAP1 SWAP2 MSTORE SWAP1 DUP3 MSTORE SWAP1 KECCAK256 DUP1 SLOAD PUSH1 0x1 DUP3 ADD SLOAD PUSH1 0x2 DUP4 ADD SLOAD PUSH1 0x3 DUP5 ADD SLOAD PUSH1 0x4 DUP6 ADD SLOAD PUSH1 0x5 DUP7 ADD SLOAD PUSH1 0x6 SWAP1 SWAP7 ADD SLOAD SWAP5 SWAP6 SWAP4 SWAP5 PUSH1 0x1 PUSH1 0x1 PUSH1 0xA0 SHL SUB SWAP1 SWAP4 AND SWAP4 SWAP2 SWAP3 SWAP1 SWAP2 SWAP1 PUSH1 0xFF AND DUP8 JUMP JUMPDEST PUSH1 0x40 DUP1 MLOAD SWAP8 DUP9 MSTORE PUSH1 0x20 DUP9 ADD SWAP7 SWAP1 SWAP7 MSTORE PUSH1 0x1 PUSH1 0x1 PUSH1 0xA0 SHL SUB SWAP1 SWAP5 AND SWAP5 DUP7 ADD SWAP5 SWAP1 SWAP5 MSTORE PUSH1 0x60 DUP6 ADD SWAP2 SWAP1 SWAP2 MSTORE PUSH1 0x80 DUP5 ADD MSTORE PUSH1 0xA0 DUP4 ADD SWAP2 SWAP1 SWAP2 MSTORE ISZERO ISZERO PUSH1 0xC0 DUP3 ADD MSTORE PUSH1 0xE0 ADD PUSH2 0x26C JUMP JUMPDEST PUSH2 0x6CF PUSH2 0x6B4 CALLDATASIZE PUSH1 0x4 PUSH2 0x27F5 JUMP JUMPDEST PUSH1 0x5 PUSH1 0x20 MSTORE PUSH1 0x0 SWAP1 DUP2 MSTORE PUSH1 0x40 SWAP1 KECCAK256 SLOAD PUSH1 0x1 PUSH1 0x1 PUSH1 0x40 SHL SUB AND DUP2 JUMP JUMPDEST PUSH1 0x40 MLOAD PUSH1 0x1 PUSH1 0x1 PUSH1 0x40 SHL SUB SWAP1 SWAP2 AND DUP2 MSTORE PUSH1 0x20 ADD PUSH2 0x26C JUMP JUMPDEST PUSH2 0x288 PUSH2 0x6F5 CALLDATASIZE PUSH1 0x4 PUSH2 0x2DC1 JUMP JUMPDEST PUSH2 0x1C86 JUMP JUMPDEST PUSH2 0x288 PUSH2 0x708 CALLDATASIZE PUSH1 0x4 PUSH2 0x2EA6 JUMP JUMPDEST PUSH2 0x1D5D JUMP JUMPDEST PUSH2 0x288 PUSH2 0x71B CALLDATASIZE PUSH1 0x4 PUSH2 0x2ED7 JUMP JUMPDEST PUSH2 0x1DA3 JUMP JUMPDEST PUSH2 0x260 PUSH2 0x72E CALLDATASIZE PUSH1 0x4 PUSH2 0x2A21 JUMP JUMPDEST PUSH1 0xA PUSH1 0x20 SWAP1 DUP2 MSTORE PUSH1 0x0 SWAP3 DUP4 MSTORE PUSH1 0x40 DUP1 DUP5 KECCAK256 SWAP1 SWAP2 MSTORE SWAP1 DUP3 MSTORE SWAP1 KECCAK256 SLOAD PUSH1 0xFF AND DUP2 JUMP JUMPDEST PUSH2 0x288 PUSH2 0x75C CALLDATASIZE PUSH1 0x4 PUSH2 0x2F98 JUMP JUMPDEST PUSH2 0x1DD1 JUMP JUMPDEST PUSH1 0x1 SLOAD PUSH2 0x5D1 SWAP1 PUSH1 0x1 PUSH1 0x1 PUSH1 0xA0 SHL SUB AND DUP2 JUMP JUMPDEST PUSH2 0x381 PUSH1 0x40 MLOAD DUP1 PUSH1 0x40 ADD PUSH1 0x40 MSTORE DUP1 PUSH1 0x5 DUP2 MSTORE PUSH1 0x20 ADD PUSH5 0x312E302E3 PUSH1 0xDC SHL DUP2 MSTORE POP DUP2 JUMP JUMPDEST PUSH1 0x0 PUSH1 0x1 PUSH1 0x1 PUSH1 0xE0 SHL SUB NOT DUP3 AND PUSH4 0xF23B1ED7 PUSH1 0xE0 SHL EQ DUP1 PUSH2 0x7C9 JUMPI POP PUSH4 0x1FFC9A7 PUSH1 0xE0 SHL PUSH1 0x1 PUSH1 0x1 PUSH1 0xE0 SHL SUB NOT DUP4 AND EQ JUMPDEST SWAP3 SWAP2 POP POP JUMP JUMPDEST PUSH1 0x0 DUP4 DUP2 MSTORE PUSH1 0x6 PUSH1 0x20 MSTORE PUSH1 0x40 DUP2 KECCAK256 SLOAD DUP5 SWAP2 SUB PUSH2 0x826 JUMPI PUSH1 0x40 MLOAD PUSH3 0x461BCD PUSH1 0xE5 SHL DUP2 MSTORE PUSH1 0x20 PUSH1 0x4 DUP3 ADD MSTORE PUSH1 0x11 PUSH1 0x24 DUP3 ADD MSTORE PUSH17 0x141C9BD91D58DD08139BDD08119BDD5B99 PUSH1 0x7A SHL PUSH1 0x44 DUP3 ADD MSTORE PUSH1 0x64 ADD JUMPDEST PUSH1 0x40 MLOAD DUP1 SWAP2 SUB SWAP1 REVERT JUMPDEST PUSH1 0x0 DUP5 DUP2 MSTORE PUSH1 0x6 PUSH1 0x20 MSTORE PUSH1 0x40 SWAP1 KECCAK256 PUSH1 0x1 ADD SLOAD DUP5 SWAP1 PUSH2 0x100 SWAP1 DIV PUSH1 0x1 PUSH1 0x1 PUSH1 0xA0 SHL SUB AND CALLER EQ PUSH2 0x866 JUMPI PUSH1 0x40 MLOAD PUSH3 0x461BCD PUSH1 0xE5 SHL DUP2 MSTORE PUSH1 0x4 ADD PUSH2 0x81D SWAP1 PUSH2 0x2FE2 JUMP JUMPDEST PUSH3 0x15180 DUP5 PUSH4 0xFFFFFFFF AND LT ISZERO DUP1 ISZERO PUSH2 0x889 JUMPI POP PUSH4 0x1E13380 DUP5 PUSH4 0xFFFFFFFF AND GT ISZERO JUMPDEST PUSH2 0x8C8 JUMPI PUSH1 0x40 MLOAD PUSH3 0x461BCD PUSH1 0xE5 SHL DUP2 MSTORE PUSH1 0x20 PUSH1 0x4 DUP3 ADD MSTORE PUSH1 0x10 PUSH1 0x24 DUP3 ADD MSTORE PUSH16 0x1A5B9D985B1A59081A5B9D195C9D985B PUSH1 0x82 SHL PUSH1 0x44 DUP3 ADD MSTORE PUSH1 0x64 ADD PUSH2 0x81D JUMP JUMPDEST PUSH1 0x0 PUSH1 0x6 PUSH1 0x0 DUP8 DUP2 MSTORE PUSH1 0x20 ADD SWAP1 DUP2 MSTORE PUSH1 0x20 ADD PUSH1 0x0 KECCAK256 SWAP1 POP PUSH1 0x0 PUSH1 0x40 MLOAD DUP1 PUSH1 0xC0 ADD PUSH1 0x40 MSTORE DUP1 DUP9 DUP2 MSTORE PUSH1 0x20 ADD PUSH1 0x3 SLOAD DUP2 MSTORE PUSH1 0x20 ADD DUP4 PUSH1 0x1 ADD PUSH1 0x1 SWAP1 SLOAD SWAP1 PUSH2 0x100 EXP SWAP1 DIV PUSH1 0x1 PUSH1 0x1 PUSH1 0xA0 SHL SUB AND PUSH1 0x1 PUSH1 0x1 PUSH1 0xA0 SHL SUB AND DUP2 MSTORE PUSH1 0x20 ADD DUP7 DUP2 MSTORE PUSH1 0x20 ADD DUP8 PUSH4 0xFFFFFFFF AND DUP2 MSTORE PUSH1 0x20 ADD PUSH1 0x1 ISZERO ISZERO DUP2 MSTORE POP SWAP1 POP DUP1 PUSH1 0x7 PUSH1 0x0 DUP4 PUSH1 0x20 ADD MLOAD DUP2 MSTORE PUSH1 0x20 ADD SWAP1 DUP2 MSTORE PUSH1 0x20 ADD PUSH1 0x0 KECCAK256 PUSH1 0x0 DUP3 ADD MLOAD DUP2 PUSH1 0x0 ADD SSTORE PUSH1 0x20 DUP3 ADD MLOAD DUP2 PUSH1 0x1 ADD SSTORE PUSH1 0x40 DUP3 ADD MLOAD DUP2 PUSH1 0x2 ADD PUSH1 0x0 PUSH2 0x100 EXP DUP2 SLOAD DUP2 PUSH1 0x1 PUSH1 0x1 PUSH1 0xA0 SHL SUB MUL NOT AND SWAP1 DUP4 PUSH1 0x1 PUSH1 0x1 PUSH1 0xA0 SHL SUB AND MUL OR SWAP1 SSTORE POP PUSH1 0x60 DUP3 ADD MLOAD DUP2 PUSH1 0x3 ADD SSTORE PUSH1 0x80 DUP3 ADD MLOAD DUP2 PUSH1 0x4 ADD PUSH1 0x0 PUSH2 0x100 EXP DUP2 SLOAD DUP2 PUSH4 0xFFFFFFFF MUL NOT AND SWAP1 DUP4 PUSH4 0xFFFFFFFF AND MUL OR SWAP1 SSTORE POP PUSH1 0xA0 DUP3 ADD MLOAD DUP2 PUSH1 0x4 ADD PUSH1 0x4 PUSH2 0x100 EXP DUP2 SLOAD DUP2 PUSH1 0xFF MUL NOT AND SWAP1 DUP4 ISZERO ISZERO MUL OR SWAP1 SSTORE POP SWAP1 POP POP PUSH1 0x1 PUSH1 0x3 PUSH1 0x0 DUP3 DUP3 SLOAD PUSH2 0x9FB SWAP2 SWAP1 PUSH2 0x3019 JUMP JUMPDEST SWAP3 POP POP DUP2 SWAP1 SSTORE POP DUP1 PUSH1 0x20 ADD MLOAD DUP8 PUSH32 0xEFCD7034BB3BC315795FDAB1FDCA7520CE3650A588E5F33FC58163C79E9B737E DUP4 PUSH1 0x60 ADD MLOAD DUP5 PUSH1 0x80 ADD MLOAD DUP6 PUSH1 0xA0 ADD MLOAD PUSH1 0x40 MLOAD PUSH2 0xA60 SWAP4 SWAP3 SWAP2 SWAP1 SWAP3 DUP4 MSTORE PUSH4 0xFFFFFFFF SWAP2 SWAP1 SWAP2 AND PUSH1 0x20 DUP4 ADD MSTORE ISZERO ISZERO PUSH1 0x40 DUP3 ADD MSTORE PUSH1 0x60 ADD SWAP1 JUMP JUMPDEST PUSH1 0x40 MLOAD DUP1 SWAP2 SUB SWAP1 LOG3 POP POP POP POP POP POP POP JUMP JUMPDEST PUSH1 0x0 CALLDATALOAD PUSH1 0x1 PUSH1 0x1 PUSH1 0xE0 SHL SUB NOT AND DUP6 PUSH1 0x40 MLOAD PUSH4 0x84B9B379 PUSH1 0xE0 SHL DUP2 MSTORE PUSH1 0x4 ADD PUSH2 0x81D SWAP3 SWAP2 SWAP1 PUSH2 0x303A JUMP JUMPDEST PUSH1 0x0 CALLDATALOAD PUSH1 0x1 PUSH1 0x1 PUSH1 0xE0 SHL SUB NOT AND DUP4 PUSH1 0x40 MLOAD PUSH4 0x84B9B379 PUSH1 0xE0 SHL DUP2 MSTORE PUSH1 0x4 ADD PUSH2 0x81D SWAP3 SWAP2 SWAP1 PUSH2 0x303A JUMP JUMPDEST PUSH2 0xAEE PUSH1 0x40 MLOAD DUP1 PUSH1 0x80 ADD PUSH1 0x40 MSTORE DUP1 PUSH1 0x60 DUP2 MSTORE PUSH1 0x20 ADD PUSH1 0x60 DUP2 MSTORE PUSH1 0x20 ADD PUSH1 0x60 DUP2 MSTORE PUSH1 0x20 ADD PUSH1 0x60 DUP2 MSTORE POP SWAP1 JUMP JUMPDEST PUSH2 0xB19 PUSH1 0x40 MLOAD DUP1 PUSH1 0x80 ADD PUSH1 0x40 MSTORE DUP1 PUSH1 0x60 DUP2 MSTORE PUSH1 0x20 ADD PUSH1 0x60 DUP2 MSTORE PUSH1 0x20 ADD PUSH1 0x60 DUP2 MSTORE PUSH1 0x20 ADD PUSH1 0x60 DUP2 MSTORE POP SWAP1 JUMP JUMPDEST PUSH1 0x40 DUP1 MLOAD DUP1 DUP3 ADD DUP3 MSTORE PUSH1 0x13 DUP2 MSTORE PUSH19 0x29BAB139B1B934B83A34B7B71028363AB3B4B7 PUSH1 0x69 SHL PUSH1 0x20 DUP1 DUP4 ADD SWAP2 SWAP1 SWAP2 MSTORE SWAP1 DUP4 MSTORE DUP2 MLOAD DUP1 DUP4 ADD DUP4 MSTORE PUSH1 0x5 DUP2 MSTORE PUSH5 0x312E302E3 PUSH1 0xDC SHL DUP2 DUP4 ADD MSTORE DUP4 DUP3 ADD MSTORE DUP2 MLOAD DUP1 DUP4 ADD DUP4 MSTORE PUSH1 0xF DUP2 MSTORE PUSH15 0x5465652D70792026204A6179626565 PUSH1 0x88 SHL SWAP2 DUP2 ADD SWAP2 SWAP1 SWAP2 MSTORE SWAP1 DUP3 ADD MSTORE SWAP2 SWAP1 POP JUMP JUMPDEST PUSH1 0x0 DUP3 DUP2 MSTORE PUSH1 0x7 PUSH1 0x20 MSTORE PUSH1 0x40 DUP2 KECCAK256 PUSH1 0x1 ADD SLOAD DUP4 SWAP2 SUB PUSH2 0xBE5 JUMPI PUSH1 0x40 MLOAD PUSH3 0x461BCD PUSH1 0xE5 SHL DUP2 MSTORE PUSH1 0x20 PUSH1 0x4 DUP3 ADD MSTORE PUSH1 0xE PUSH1 0x24 DUP3 ADD MSTORE PUSH14 0x141B185B88139BDD08119BDD5B99 PUSH1 0x92 SHL PUSH1 0x44 DUP3 ADD MSTORE PUSH1 0x64 ADD PUSH2 0x81D JUMP JUMPDEST PUSH1 0x0 DUP4 DUP2 MSTORE PUSH1 0x7 PUSH1 0x20 MSTORE PUSH1 0x40 SWAP1 KECCAK256 PUSH1 0x2 DUP2 ADD SLOAD PUSH1 0x1 PUSH1 0x1 PUSH1 0xA0 SHL SUB AND CALLER EQ PUSH2 0xC1F JUMPI PUSH1 0x40 MLOAD PUSH3 0x461BCD PUSH1 0xE5 SHL DUP2 MSTORE PUSH1 0x4 ADD PUSH2 0x81D SWAP1 PUSH2 0x2FE2 JUMP JUMPDEST PUSH1 0x4 DUP2 ADD DUP1 SLOAD DUP5 ISZERO ISZERO PUSH5 0x100000000 SWAP1 DUP2 MUL PUSH5 0xFF00000000 NOT SWAP1 SWAP3 AND SWAP2 SWAP1 SWAP2 OR SWAP2 DUP3 SWAP1 SSTORE PUSH1 0x1 DUP4 ADD SLOAD PUSH1 0x40 MLOAD SWAP2 SWAP1 SWAP3 DIV PUSH1 0xFF AND ISZERO ISZERO DUP2 MSTORE PUSH32 0xE8898C20571732660341E9BD58210CBCE79A036302E465085395645040FD1CC2 SWAP1 PUSH1 0x20 ADD PUSH1 0x40 MLOAD DUP1 SWAP2 SUB SWAP1 LOG2 POP POP POP POP JUMP JUMPDEST CALLER PUSH1 0x0 DUP2 DUP2 MSTORE PUSH1 0x9 PUSH1 0x20 SWAP1 DUP2 MSTORE PUSH1 0x40 DUP1 DUP4 KECCAK256 DUP6 DUP5 MSTORE DUP3 MSTORE SWAP2 DUP3 SWAP1 KECCAK256 PUSH1 0x6 ADD DUP1 SLOAD PUSH1 0xFF NOT AND SWAP1 SSTORE SWAP1 MLOAD DUP4 DUP2 MSTORE PUSH32 0x3CE0AD9E088AE3E7555F42CC73D57BF59207A30DEEF3EEA8654A27E86650A4A9 SWAP2 ADD PUSH1 0x40 MLOAD DUP1 SWAP2 SUB SWAP1 LOG2 POP JUMP JUMPDEST PUSH1 0x1 SLOAD PUSH1 0x1 PUSH1 0x1 PUSH1 0xA0 SHL SUB AND CALLER EQ PUSH2 0xCF9 JUMPI PUSH1 0x0 DUP1 REVERT JUMPDEST PUSH1 0x4 DUP1 SLOAD PUSH1 0x1 PUSH1 0x1 PUSH1 0xA0 SHL SUB NOT AND PUSH1 0x1 PUSH1 0x1 PUSH1 0xA0 SHL SUB SWAP3 SWAP1 SWAP3 AND SWAP2 SWAP1 SWAP2 OR SWAP1 SSTORE JUMP JUMPDEST PUSH1 0x60 PUSH1 0x0 CALLDATALOAD PUSH1 0x1 PUSH1 0x1 PUSH1 0xE0 SHL SUB NOT AND DUP7 PUSH1 0x40 MLOAD PUSH4 0x84B9B379 PUSH1 0xE0 SHL DUP2 MSTORE PUSH1 0x4 ADD PUSH2 0x81D SWAP3 SWAP2 SWAP1 PUSH2 0x303A JUMP JUMPDEST PUSH2 0xD57 DUP10 DUP10 DUP10 DUP10 DUP10 DUP10 DUP10 DUP10 DUP10 PUSH2 0x1F6E JUMP JUMPDEST POP POP POP POP POP POP POP POP POP POP JUMP JUMPDEST PUSH1 0x0 DUP3 DUP2 MSTORE PUSH1 0x7 PUSH1 0x20 MSTORE PUSH1 0x40 SWAP1 KECCAK256 PUSH1 0x4 ADD SLOAD DUP3 SWAP1 PUSH5 0x100000000 SWAP1 DIV PUSH1 0xFF AND PUSH2 0xDC1 JUMPI PUSH1 0x40 MLOAD PUSH3 0x461BCD PUSH1 0xE5 SHL DUP2 MSTORE PUSH1 0x20 PUSH1 0x4 DUP3 ADD MSTORE PUSH1 0x10 PUSH1 0x24 DUP3 ADD MSTORE PUSH16 0x506C616E20697320696E616374697665 PUSH1 0x80 SHL PUSH1 0x44 DUP3 ADD MSTORE PUSH1 0x64 ADD PUSH2 0x81D JUMP JUMPDEST CALLER EXTCODESIZE PUSH1 0x0 SUB PUSH2 0xE20 JUMPI PUSH1 0x40 MLOAD PUSH3 0x461BCD PUSH1 0xE5 SHL DUP2 MSTORE PUSH1 0x20 PUSH1 0x4 DUP3 ADD MSTORE PUSH1 0x25 PUSH1 0x24 DUP3 ADD MSTORE PUSH32 0x4163636F756E74206973206E6F74206F6620736D61727420636F6E7472616374 PUSH1 0x44 DUP3 ADD MSTORE PUSH5 0x2074797065 PUSH1 0xD8 SHL PUSH1 0x64 DUP3 ADD MSTORE PUSH1 0x84 ADD PUSH2 0x81D JUMP JUMPDEST PUSH1 0x0 DUP4 DUP2 MSTORE PUSH1 0x7 PUSH1 0x20 SWAP1 DUP2 MSTORE PUSH1 0x40 DUP1 DUP4 KECCAK256 DUP2 MLOAD PUSH1 0xC0 DUP2 ADD DUP4 MSTORE DUP2 SLOAD DUP1 DUP3 MSTORE PUSH1 0x1 DUP1 DUP5 ADD SLOAD DUP4 DUP8 ADD MSTORE PUSH1 0x2 DUP5 ADD SLOAD PUSH1 0x1 PUSH1 0x1 PUSH1 0xA0 SHL SUB AND DUP4 DUP7 ADD MSTORE PUSH1 0x3 DUP5 ADD SLOAD PUSH1 0x60 DUP5 ADD MSTORE PUSH1 0x4 SWAP1 SWAP4 ADD SLOAD PUSH4 0xFFFFFFFF DUP2 AND PUSH1 0x80 DUP5 ADD MSTORE PUSH1 0xFF PUSH5 0x100000000 SWAP1 SWAP2 DIV DUP2 AND ISZERO ISZERO PUSH1 0xA0 DUP5 ADD MSTORE SWAP1 DUP7 MSTORE PUSH1 0x6 DUP6 MSTORE DUP4 DUP7 KECCAK256 DUP5 MLOAD PUSH1 0xE0 DUP2 ADD SWAP1 SWAP6 MSTORE DUP1 SLOAD DUP6 MSTORE DUP1 DUP5 ADD SLOAD SWAP3 SWAP7 SWAP6 SWAP1 SWAP4 SWAP1 DUP6 ADD SWAP3 SWAP1 SWAP2 AND SWAP1 DUP2 GT ISZERO PUSH2 0xEC1 JUMPI PUSH2 0xEC1 PUSH2 0x2884 JUMP JUMPDEST PUSH1 0x1 DUP2 GT ISZERO PUSH2 0xED2 JUMPI PUSH2 0xED2 PUSH2 0x2884 JUMP JUMPDEST DUP2 MSTORE PUSH1 0x1 DUP3 ADD SLOAD PUSH1 0x1 PUSH1 0x1 PUSH1 0xA0 SHL SUB PUSH2 0x100 SWAP1 SWAP2 DIV DUP2 AND PUSH1 0x20 DUP4 ADD MSTORE PUSH1 0x2 DUP4 ADD SLOAD DUP2 AND PUSH1 0x40 DUP4 ADD MSTORE PUSH1 0x3 DUP4 ADD SLOAD AND PUSH1 0x60 DUP3 ADD MSTORE PUSH1 0x4 DUP3 ADD SLOAD PUSH1 0x80 DUP3 ADD MSTORE PUSH1 0x5 SWAP1 SWAP2 ADD SLOAD PUSH1 0xFF AND ISZERO ISZERO PUSH1 0xA0 SWAP2 DUP3 ADD MSTORE DUP4 ADD MLOAD SWAP1 SWAP2 POP DUP1 ISZERO PUSH2 0xF33 JUMPI POP DUP1 PUSH1 0xC0 ADD MLOAD JUMPDEST PUSH2 0xF7F JUMPI PUSH1 0x40 MLOAD PUSH3 0x461BCD PUSH1 0xE5 SHL DUP2 MSTORE PUSH1 0x20 PUSH1 0x4 DUP3 ADD MSTORE PUSH1 0x1F PUSH1 0x24 DUP3 ADD MSTORE PUSH32 0x506C616E20616E642070726F64756374206D7573742062652061637469766500 PUSH1 0x44 DUP3 ADD MSTORE PUSH1 0x64 ADD PUSH2 0x81D JUMP JUMPDEST CALLER PUSH1 0x0 SWAP1 DUP2 MSTORE PUSH1 0xA PUSH1 0x20 SWAP1 DUP2 MSTORE PUSH1 0x40 DUP1 DUP4 KECCAK256 DUP5 MLOAD DUP5 MSTORE SWAP1 SWAP2 MSTORE SWAP1 KECCAK256 SLOAD PUSH1 0xFF AND ISZERO PUSH2 0xFF7 JUMPI PUSH1 0x40 MLOAD PUSH3 0x461BCD PUSH1 0xE5 SHL DUP2 MSTORE PUSH1 0x20 PUSH1 0x4 DUP3 ADD MSTORE PUSH1 0x23 PUSH1 0x24 DUP3 ADD MSTORE PUSH32 0x50726F6475637420737562736372697074696F6E20616C726561647920657869 PUSH1 0x44 DUP3 ADD MSTORE PUSH3 0x737473 PUSH1 0xE8 SHL PUSH1 0x64 DUP3 ADD MSTORE PUSH1 0x84 ADD PUSH2 0x81D JUMP JUMPDEST PUSH1 0x0 PUSH1 0x40 MLOAD DUP1 PUSH1 0xE0 ADD PUSH1 0x40 MSTORE DUP1 PUSH1 0x8 PUSH1 0x0 CALLER PUSH1 0x1 PUSH1 0x1 PUSH1 0xA0 SHL SUB AND PUSH1 0x1 PUSH1 0x1 PUSH1 0xA0 SHL SUB AND DUP2 MSTORE PUSH1 0x20 ADD SWAP1 DUP2 MSTORE PUSH1 0x20 ADD PUSH1 0x0 KECCAK256 SLOAD DUP2 MSTORE PUSH1 0x20 ADD DUP4 PUSH1 0x0 ADD MLOAD DUP2 MSTORE PUSH1 0x20 ADD DUP5 PUSH1 0x40 ADD MLOAD PUSH1 0x1 PUSH1 0x1 PUSH1 0xA0 SHL SUB AND DUP2 MSTORE PUSH1 0x20 ADD DUP5 PUSH1 0x20 ADD MLOAD DUP2 MSTORE PUSH1 0x20 ADD TIMESTAMP DUP2 MSTORE PUSH1 0x20 ADD DUP7 DUP2 MSTORE PUSH1 0x20 ADD PUSH1 0x1 ISZERO ISZERO DUP2 MSTORE POP SWAP1 POP PUSH2 0x1092 DUP4 PUSH1 0x60 ADD MLOAD CALLER DUP5 PUSH1 0x60 ADD MLOAD DUP6 PUSH1 0x80 ADD MLOAD DUP7 PUSH1 0xA0 ADD MLOAD DUP7 PUSH1 0x0 ADD MLOAD DUP10 PUSH1 0x20 ADD MLOAD PUSH2 0x21AA JUMP JUMPDEST CALLER PUSH1 0x0 DUP2 DUP2 MSTORE PUSH1 0x9 PUSH1 0x20 SWAP1 DUP2 MSTORE PUSH1 0x40 DUP1 DUP4 KECCAK256 DUP6 MLOAD DUP5 MSTORE DUP3 MSTORE DUP1 DUP4 KECCAK256 DUP6 MLOAD DUP2 SSTORE DUP6 DUP4 ADD MLOAD PUSH1 0x1 DUP1 DUP4 ADD SWAP2 SWAP1 SWAP2 SSTORE DUP7 DUP4 ADD MLOAD PUSH1 0x2 DUP4 ADD DUP1 SLOAD PUSH1 0x1 PUSH1 0x1 PUSH1 0xA0 SHL SUB NOT AND PUSH1 0x1 PUSH1 0x1 PUSH1 0xA0 SHL SUB SWAP1 SWAP3 AND SWAP2 SWAP1 SWAP2 OR SWAP1 SSTORE PUSH1 0x60 DUP8 ADD MLOAD PUSH1 0x3 DUP4 ADD SSTORE PUSH1 0x80 DUP8 ADD MLOAD PUSH1 0x4 DUP4 ADD SSTORE PUSH1 0xA0 DUP8 ADD MLOAD PUSH1 0x5 DUP4 ADD SSTORE PUSH1 0xC0 DUP8 ADD MLOAD PUSH1 0x6 SWAP1 SWAP3 ADD DUP1 SLOAD PUSH1 0xFF NOT AND SWAP3 ISZERO ISZERO SWAP3 SWAP1 SWAP3 OR SWAP1 SWAP2 SSTORE SWAP4 DUP4 MSTORE PUSH1 0x8 SWAP1 SWAP2 MSTORE DUP2 KECCAK256 DUP1 SLOAD SWAP1 SWAP2 SWAP1 PUSH2 0x1135 SWAP1 DUP5 SWAP1 PUSH2 0x3019 JUMP JUMPDEST SWAP1 SWAP2 SSTORE POP POP CALLER PUSH1 0x0 DUP2 DUP2 MSTORE PUSH1 0xA PUSH1 0x20 SWAP1 DUP2 MSTORE PUSH1 0x40 DUP1 DUP4 KECCAK256 DUP7 MLOAD DUP5 MSTORE DUP3 MSTORE SWAP2 DUP3 SWAP1 KECCAK256 DUP1 SLOAD PUSH1 0xFF NOT AND PUSH1 0x1 OR SWAP1 SSTORE DUP5 MLOAD DUP7 DUP4 ADD MLOAD DUP6 MLOAD DUP5 MLOAD PUSH1 0x1 PUSH1 0x1 PUSH1 0xA0 SHL SUB SWAP1 SWAP3 AND DUP3 MSTORE SWAP3 DUP2 ADD SWAP3 SWAP1 SWAP3 MSTORE SWAP2 DUP2 ADD DUP9 SWAP1 MSTORE DUP9 SWAP3 SWAP1 PUSH32 0x1913E17D5784005A914657F9E879FCC261644776365F1D84AEB45AFCB6DA4864 SWAP1 PUSH1 0x60 ADD PUSH1 0x40 MLOAD DUP1 SWAP2 SUB SWAP1 LOG4 DUP2 MLOAD PUSH1 0x80 DUP1 DUP5 ADD MLOAD DUP4 MLOAD PUSH1 0x60 DUP8 DUP2 ADD MLOAD DUP7 DUP6 ADD MLOAD PUSH1 0x40 DUP1 MLOAD PUSH1 0x1 PUSH1 0x1 PUSH1 0xA0 SHL SUB SWAP1 SWAP7 AND DUP7 MSTORE PUSH1 0x20 DUP7 ADD SWAP5 SWAP1 SWAP5 MSTORE SWAP3 DUP5 ADD MSTORE DUP3 ADD MSTORE DUP9 SWAP2 CALLER SWAP2 PUSH32 0xF525C8253DECE3E354AAAE6F24C19577DEA21F33CA86474610ED00771FB13689 SWAP2 ADD PUSH1 0x40 MLOAD DUP1 SWAP2 SUB SWAP1 LOG4 POP POP POP POP POP POP JUMP JUMPDEST PUSH1 0x0 DUP1 CALLDATALOAD PUSH1 0x1 PUSH1 0x1 PUSH1 0xE0 SHL SUB NOT AND DUP5 PUSH1 0x40 MLOAD PUSH4 0x84B9B379 PUSH1 0xE0 SHL DUP2 MSTORE PUSH1 0x4 ADD PUSH2 0x81D SWAP3 SWAP2 SWAP1 PUSH2 0x303A JUMP JUMPDEST PUSH1 0x1 PUSH1 0x1 PUSH1 0xA0 SHL SUB DUP3 AND PUSH1 0x0 SWAP1 DUP2 MSTORE PUSH1 0x9 PUSH1 0x20 SWAP1 DUP2 MSTORE PUSH1 0x40 DUP1 DUP4 KECCAK256 DUP5 DUP5 MSTORE SWAP1 SWAP2 MSTORE SWAP1 KECCAK256 PUSH1 0x6 ADD SLOAD DUP3 SWAP1 DUP3 SWAP1 PUSH1 0xFF AND PUSH2 0x12C4 JUMPI PUSH1 0x40 MLOAD PUSH3 0x461BCD PUSH1 0xE5 SHL DUP2 MSTORE PUSH1 0x20 PUSH1 0x4 DUP3 ADD MSTORE PUSH1 0x17 PUSH1 0x24 DUP3 ADD MSTORE PUSH32 0x537562736372697074696F6E206E6F7420616374697665000000000000000000 PUSH1 0x44 DUP3 ADD MSTORE PUSH1 0x64 ADD PUSH2 0x81D JUMP JUMPDEST PUSH1 0x1 PUSH1 0x1 PUSH1 0xA0 SHL SUB DUP1 DUP6 AND PUSH1 0x0 SWAP1 DUP2 MSTORE PUSH1 0x9 PUSH1 0x20 SWAP1 DUP2 MSTORE PUSH1 0x40 DUP1 DUP4 KECCAK256 DUP8 DUP5 MSTORE DUP3 MSTORE DUP1 DUP4 KECCAK256 PUSH1 0x3 DUP1 DUP3 ADD SLOAD DUP6 MSTORE PUSH1 0x7 DUP5 MSTORE DUP3 DUP6 KECCAK256 DUP4 MLOAD PUSH1 0xC0 DUP2 ADD DUP6 MSTORE DUP2 SLOAD DUP2 MSTORE PUSH1 0x1 DUP1 DUP4 ADD SLOAD DUP3 DUP9 ADD MSTORE PUSH1 0x2 DUP4 ADD SLOAD SWAP1 SWAP9 AND DUP2 DUP7 ADD MSTORE SWAP2 DUP2 ADD SLOAD PUSH1 0x60 DUP4 ADD MSTORE PUSH1 0x4 ADD SLOAD PUSH4 0xFFFFFFFF DUP2 AND PUSH1 0x80 DUP4 ADD MSTORE PUSH1 0xFF PUSH5 0x100000000 SWAP1 SWAP2 DIV DUP2 AND ISZERO ISZERO PUSH1 0xA0 DUP4 ADD MSTORE DUP7 DUP4 ADD SLOAD DUP7 MSTORE PUSH1 0x6 DUP6 MSTORE DUP4 DUP7 KECCAK256 DUP5 MLOAD PUSH1 0xE0 DUP2 ADD SWAP1 SWAP6 MSTORE DUP1 SLOAD DUP6 MSTORE DUP1 DUP9 ADD SLOAD SWAP4 SWAP8 SWAP3 SWAP7 SWAP6 SWAP1 SWAP4 SWAP1 DUP6 ADD SWAP3 SWAP2 AND SWAP1 DUP2 GT ISZERO PUSH2 0x1381 JUMPI PUSH2 0x1381 PUSH2 0x2884 JUMP JUMPDEST PUSH1 0x1 DUP2 GT ISZERO PUSH2 0x1392 JUMPI PUSH2 0x1392 PUSH2 0x2884 JUMP JUMPDEST DUP2 MSTORE PUSH1 0x1 DUP3 ADD SLOAD PUSH1 0x1 PUSH1 0x1 PUSH1 0xA0 SHL SUB PUSH2 0x100 SWAP1 SWAP2 DIV DUP2 AND PUSH1 0x20 DUP4 ADD MSTORE PUSH1 0x2 DUP4 ADD SLOAD DUP2 AND PUSH1 0x40 DUP4 ADD MSTORE PUSH1 0x3 DUP4 ADD SLOAD AND PUSH1 0x60 DUP3 ADD MSTORE PUSH1 0x4 DUP1 DUP4 ADD SLOAD PUSH1 0x80 DUP1 DUP5 ADD SWAP2 SWAP1 SWAP2 MSTORE PUSH1 0x5 SWAP1 SWAP4 ADD SLOAD PUSH1 0xFF AND ISZERO ISZERO PUSH1 0xA0 SWAP1 SWAP3 ADD SWAP2 SWAP1 SWAP2 MSTORE DUP6 ADD SLOAD SWAP1 DUP5 ADD MLOAD SWAP2 SWAP3 POP TIMESTAMP SWAP2 PUSH2 0x1404 SWAP2 SWAP1 PUSH4 0xFFFFFFFF AND PUSH2 0x3019 JUMP JUMPDEST GT ISZERO PUSH2 0x144A JUMPI PUSH1 0x40 MLOAD PUSH3 0x461BCD PUSH1 0xE5 SHL DUP2 MSTORE PUSH1 0x20 PUSH1 0x4 DUP3 ADD MSTORE PUSH1 0x15 PUSH1 0x24 DUP3 ADD MSTORE PUSH21 0x1D1A5B5948125B9D195C9D985B081B9BDD081B595D PUSH1 0x5A SHL PUSH1 0x44 DUP3 ADD MSTORE PUSH1 0x64 ADD PUSH2 0x81D JUMP JUMPDEST TIMESTAMP DUP4 PUSH1 0x5 ADD SLOAD GT DUP1 PUSH2 0x145E JUMPI POP PUSH1 0x5 DUP4 ADD SLOAD ISZERO JUMPDEST PUSH2 0x14AA JUMPI PUSH1 0x40 MLOAD PUSH3 0x461BCD PUSH1 0xE5 SHL DUP2 MSTORE PUSH1 0x20 PUSH1 0x4 DUP3 ADD MSTORE PUSH1 0x1D PUSH1 0x24 DUP3 ADD MSTORE PUSH32 0x737562736372697074696F6E20656E642074696D6520656C6170736564000000 PUSH1 0x44 DUP3 ADD MSTORE PUSH1 0x64 ADD PUSH2 0x81D JUMP JUMPDEST DUP1 PUSH1 0xC0 ADD MLOAD PUSH2 0x14F1 JUMPI PUSH1 0x40 MLOAD PUSH3 0x461BCD PUSH1 0xE5 SHL DUP2 MSTORE PUSH1 0x20 PUSH1 0x4 DUP3 ADD MSTORE PUSH1 0x13 PUSH1 0x24 DUP3 ADD MSTORE PUSH19 0x50726F6475637420697320696E616374697665 PUSH1 0x68 SHL PUSH1 0x44 DUP3 ADD MSTORE PUSH1 0x64 ADD PUSH2 0x81D JUMP JUMPDEST DUP2 PUSH1 0xA0 ADD MLOAD PUSH2 0x1535 JUMPI PUSH1 0x40 MLOAD PUSH3 0x461BCD PUSH1 0xE5 SHL DUP2 MSTORE PUSH1 0x20 PUSH1 0x4 DUP3 ADD MSTORE PUSH1 0x10 PUSH1 0x24 DUP3 ADD MSTORE PUSH16 0x506C616E20697320696E616374697665 PUSH1 0x80 SHL PUSH1 0x44 DUP3 ADD MSTORE PUSH1 0x64 ADD PUSH2 0x81D JUMP JUMPDEST PUSH2 0x155C DUP3 PUSH1 0x60 ADD MLOAD DUP9 DUP4 PUSH1 0x60 ADD MLOAD DUP5 PUSH1 0x80 ADD MLOAD DUP6 PUSH1 0xA0 ADD MLOAD DUP9 PUSH1 0x0 ADD SLOAD DUP9 PUSH1 0x20 ADD MLOAD PUSH2 0x21AA JUMP JUMPDEST TIMESTAMP PUSH1 0x4 DUP5 ADD DUP2 SWAP1 SSTORE DUP3 MLOAD PUSH1 0x20 DUP1 DUP6 ADD MLOAD PUSH1 0x80 DUP6 DUP2 ADD MLOAD PUSH1 0x60 DUP1 DUP10 ADD MLOAD PUSH1 0x40 DUP1 MLOAD PUSH1 0x1 PUSH1 0x1 PUSH1 0xA0 SHL SUB SWAP5 DUP6 AND DUP2 MSTORE SWAP7 DUP8 ADD DUP16 SWAP1 MSTORE DUP7 ADD MSTORE DUP5 ADD SWAP6 SWAP1 SWAP6 MSTORE SWAP3 SWAP4 SWAP1 SWAP3 SWAP1 DUP12 AND SWAP2 PUSH32 0xF525C8253DECE3E354AAAE6F24C19577DEA21F33CA86474610ED00771FB13689 SWAP2 ADD PUSH1 0x40 MLOAD DUP1 SWAP2 SUB SWAP1 LOG4 POP POP POP POP POP POP POP JUMP JUMPDEST PUSH1 0x0 ADDRESS PUSH1 0x1 PUSH1 0x1 PUSH1 0xA0 SHL SUB AND PUSH4 0xC7763130 PUSH1 0x40 MLOAD DUP2 PUSH4 0xFFFFFFFF AND PUSH1 0xE0 SHL DUP2 MSTORE PUSH1 0x4 ADD PUSH1 0x0 PUSH1 0x40 MLOAD DUP1 DUP4 SUB DUP2 DUP7 GAS STATICCALL ISZERO DUP1 ISZERO PUSH2 0x1614 JUMPI RETURNDATASIZE PUSH1 0x0 DUP1 RETURNDATACOPY RETURNDATASIZE PUSH1 0x0 REVERT JUMPDEST POP POP POP POP PUSH1 0x40 MLOAD RETURNDATASIZE PUSH1 0x0 DUP3 RETURNDATACOPY PUSH1 0x1F RETURNDATASIZE SWAP1 DUP2 ADD PUSH1 0x1F NOT AND DUP3 ADD PUSH1 0x40 MSTORE PUSH2 0x163C SWAP2 SWAP1 DUP2 ADD SWAP1 PUSH2 0x340F JUMP JUMPDEST PUSH1 0x40 MLOAD PUSH1 0x20 ADD PUSH2 0x164C SWAP2 SWAP1 PUSH2 0x2C23 JUMP JUMPDEST PUSH1 0x40 MLOAD PUSH1 0x20 DUP2 DUP4 SUB SUB DUP2 MSTORE SWAP1 PUSH1 0x40 MSTORE DUP1 MLOAD SWAP1 PUSH1 0x20 ADD KECCAK256 SWAP1 POP SWAP1 JUMP JUMPDEST PUSH1 0x40 MLOAD PUSH3 0x461BCD PUSH1 0xE5 SHL DUP2 MSTORE PUSH1 0x20 PUSH1 0x4 DUP3 ADD MSTORE PUSH1 0xD PUSH1 0x24 DUP3 ADD MSTORE PUSH13 0x139BDD081CDD5C1C1BDC9D1959 PUSH1 0x9A SHL PUSH1 0x44 DUP3 ADD MSTORE PUSH1 0x64 ADD PUSH2 0x81D JUMP JUMPDEST PUSH2 0x16A7 PUSH2 0x2408 JUMP JUMPDEST PUSH2 0x16AF PUSH2 0x2408 JUMP JUMPDEST PUSH1 0x40 DUP1 MLOAD PUSH1 0x2 DUP1 DUP3 MSTORE PUSH1 0x60 DUP3 ADD DUP4 MSTORE SWAP1 SWAP2 PUSH1 0x20 DUP4 ADD SWAP1 DUP1 CALLDATASIZE DUP4 CALLDATACOPY POP POP POP PUSH1 0x20 DUP3 ADD DUP2 SWAP1 MSTORE DUP1 MLOAD PUSH4 0xF23B1ED7 PUSH1 0xE0 SHL SWAP2 SWAP1 PUSH1 0x0 SWAP1 PUSH2 0x16EE JUMPI PUSH2 0x16EE PUSH2 0x35EC JUMP JUMPDEST PUSH1 0x1 PUSH1 0x1 PUSH1 0xE0 SHL SUB NOT SWAP1 SWAP3 AND PUSH1 0x20 SWAP3 DUP4 MUL SWAP2 SWAP1 SWAP2 ADD DUP3 ADD MSTORE DUP2 ADD MLOAD DUP1 MLOAD PUSH4 0xF23B1ED7 PUSH1 0xE0 SHL SWAP2 SWAP1 PUSH1 0x1 SWAP1 DUP2 LT PUSH2 0x1726 JUMPI PUSH2 0x1726 PUSH2 0x35EC JUMP JUMPDEST PUSH1 0x1 PUSH1 0x1 PUSH1 0xE0 SHL SUB NOT SWAP3 SWAP1 SWAP3 AND PUSH1 0x20 SWAP3 DUP4 MUL SWAP2 SWAP1 SWAP2 ADD DUP3 ADD MSTORE PUSH1 0x40 DUP1 MLOAD PUSH1 0x7 DUP1 DUP3 MSTORE PUSH2 0x100 DUP3 ADD SWAP1 SWAP3 MSTORE SWAP2 DUP3 ADD PUSH1 0xE0 DUP1 CALLDATASIZE DUP4 CALLDATACOPY POP POP POP PUSH1 0x40 DUP3 ADD DUP2 SWAP1 MSTORE DUP1 MLOAD PUSH4 0x84370813 PUSH1 0xE0 SHL SWAP2 SWAP1 PUSH1 0x0 SWAP1 PUSH2 0x177E JUMPI PUSH2 0x177E PUSH2 0x35EC JUMP JUMPDEST PUSH1 0x1 PUSH1 0x1 PUSH1 0xE0 SHL SUB NOT SWAP1 SWAP3 AND PUSH1 0x20 SWAP3 DUP4 MUL SWAP2 SWAP1 SWAP2 ADD SWAP1 SWAP2 ADD MSTORE PUSH1 0x40 DUP2 ADD MLOAD DUP1 MLOAD PUSH4 0x2796B03 PUSH1 0xE4 SHL SWAP2 SWAP1 PUSH1 0x1 SWAP1 DUP2 LT PUSH2 0x17B9 JUMPI PUSH2 0x17B9 PUSH2 0x35EC JUMP JUMPDEST PUSH1 0x1 PUSH1 0x1 PUSH1 0xE0 SHL SUB NOT SWAP1 SWAP3 AND PUSH1 0x20 SWAP3 DUP4 MUL SWAP2 SWAP1 SWAP2 ADD SWAP1 SWAP2 ADD MSTORE PUSH1 0x40 DUP2 ADD MLOAD DUP1 MLOAD PUSH4 0x18552D83 PUSH1 0xE3 SHL SWAP2 SWAP1 PUSH1 0x2 SWAP1 DUP2 LT PUSH2 0x17F4 JUMPI PUSH2 0x17F4 PUSH2 0x35EC JUMP JUMPDEST PUSH1 0x1 PUSH1 0x1 PUSH1 0xE0 SHL SUB NOT SWAP1 SWAP3 AND PUSH1 0x20 SWAP3 DUP4 MUL SWAP2 SWAP1 SWAP2 ADD SWAP1 SWAP2 ADD MSTORE PUSH1 0x40 DUP2 ADD MLOAD DUP1 MLOAD PUSH4 0x3FAFB35F PUSH1 0xE1 SHL SWAP2 SWAP1 PUSH1 0x3 SWAP1 DUP2 LT PUSH2 0x182F JUMPI PUSH2 0x182F PUSH2 0x35EC JUMP JUMPDEST PUSH1 0x1 PUSH1 0x1 PUSH1 0xE0 SHL SUB NOT SWAP1 SWAP3 AND PUSH1 0x20 SWAP3 DUP4 MUL SWAP2 SWAP1 SWAP2 ADD SWAP1 SWAP2 ADD MSTORE PUSH1 0x40 DUP2 ADD MLOAD DUP1 MLOAD PUSH4 0xC497AF3 PUSH1 0xE0 SHL SWAP2 SWAP1 PUSH1 0x4 SWAP1 DUP2 LT PUSH2 0x186A JUMPI PUSH2 0x186A PUSH2 0x35EC JUMP JUMPDEST PUSH1 0x1 PUSH1 0x1 PUSH1 0xE0 SHL SUB NOT SWAP1 SWAP3 AND PUSH1 0x20 SWAP3 DUP4 MUL SWAP2 SWAP1 SWAP2 ADD SWAP1 SWAP2 ADD MSTORE PUSH1 0x40 DUP2 ADD MLOAD DUP1 MLOAD PUSH4 0x7BFE1951 PUSH1 0xE1 SHL SWAP2 SWAP1 PUSH1 0x5 SWAP1 DUP2 LT PUSH2 0x18A5 JUMPI PUSH2 0x18A5 PUSH2 0x35EC JUMP JUMPDEST PUSH1 0x1 PUSH1 0x1 PUSH1 0xE0 SHL SUB NOT SWAP1 SWAP3 AND PUSH1 0x20 SWAP3 DUP4 MUL SWAP2 SWAP1 SWAP2 ADD SWAP1 SWAP2 ADD MSTORE PUSH1 0x40 DUP2 ADD MLOAD DUP1 MLOAD PUSH4 0x157F7123 PUSH1 0xE0 SHL SWAP2 SWAP1 PUSH1 0x6 SWAP1 DUP2 LT PUSH2 0x18E0 JUMPI PUSH2 0x18E0 PUSH2 0x35EC JUMP JUMPDEST PUSH1 0x1 PUSH1 0x1 PUSH1 0xE0 SHL SUB NOT SWAP3 SWAP1 SWAP3 AND PUSH1 0x20 SWAP3 DUP4 MUL SWAP2 SWAP1 SWAP2 ADD DUP3 ADD MSTORE PUSH1 0x40 DUP1 MLOAD PUSH1 0x60 DUP2 ADD DUP3 MSTORE PUSH1 0x2 DUP2 MSTORE PUSH1 0x0 SWAP3 DUP2 ADD SWAP3 SWAP1 SWAP3 MSTORE PUSH1 0x1 DUP3 DUP3 ADD MSTORE DUP1 MLOAD PUSH1 0x7 DUP1 DUP3 MSTORE PUSH2 0x100 DUP3 ADD SWAP1 SWAP3 MSTORE SWAP1 DUP2 PUSH1 0x20 ADD JUMPDEST PUSH2 0x1933 PUSH2 0x246D JUMP JUMPDEST DUP2 MSTORE PUSH1 0x20 ADD SWAP1 PUSH1 0x1 SWAP1 SUB SWAP1 DUP2 PUSH2 0x192B JUMPI POP POP PUSH1 0xE0 DUP4 ADD SWAP1 DUP2 MSTORE PUSH1 0x40 DUP1 MLOAD DUP1 DUP3 ADD SWAP1 SWAP2 MSTORE PUSH4 0x84370813 PUSH1 0xE0 SHL DUP2 MSTORE PUSH1 0x20 DUP2 ADD DUP4 SWAP1 MSTORE SWAP1 MLOAD DUP1 MLOAD PUSH1 0x0 SWAP1 PUSH2 0x197A JUMPI PUSH2 0x197A PUSH2 0x35EC JUMP JUMPDEST PUSH1 0x20 MUL PUSH1 0x20 ADD ADD DUP2 SWAP1 MSTORE POP PUSH1 0x40 MLOAD DUP1 PUSH1 0x40 ADD PUSH1 0x40 MSTORE DUP1 PUSH4 0x2796B030 PUSH1 0xE0 SHL PUSH1 0x1 PUSH1 0x1 PUSH1 0xE0 SHL SUB NOT AND DUP2 MSTORE PUSH1 0x20 ADD DUP3 DUP2 MSTORE POP DUP3 PUSH1 0xE0 ADD MLOAD PUSH1 0x1 DUP2 MLOAD DUP2 LT PUSH2 0x19C2 JUMPI PUSH2 0x19C2 PUSH2 0x35EC JUMP JUMPDEST PUSH1 0x20 MUL PUSH1 0x20 ADD ADD DUP2 SWAP1 MSTORE POP PUSH1 0x40 MLOAD DUP1 PUSH1 0x40 ADD PUSH1 0x40 MSTORE DUP1 PUSH4 0xC2A96C18 PUSH1 0xE0 SHL PUSH1 0x1 PUSH1 0x1 PUSH1 0xE0 SHL SUB NOT AND DUP2 MSTORE PUSH1 0x20 ADD DUP3 DUP2 MSTORE POP DUP3 PUSH1 0xE0 ADD MLOAD PUSH1 0x2 DUP2 MLOAD DUP2 LT PUSH2 0x1A0A JUMPI PUSH2 0x1A0A PUSH2 0x35EC JUMP JUMPDEST PUSH1 0x20 MUL PUSH1 0x20 ADD ADD DUP2 SWAP1 MSTORE POP PUSH1 0x40 MLOAD DUP1 PUSH1 0x40 ADD PUSH1 0x40 MSTORE DUP1 PUSH4 0x7F5F66BE PUSH1 0xE0 SHL PUSH1 0x1 PUSH1 0x1 PUSH1 0xE0 SHL SUB NOT AND DUP2 MSTORE PUSH1 0x20 ADD DUP3 DUP2 MSTORE POP DUP3 PUSH1 0xE0 ADD MLOAD PUSH1 0x3 DUP2 MLOAD DUP2 LT PUSH2 0x1A52 JUMPI PUSH2 0x1A52 PUSH2 0x35EC JUMP JUMPDEST PUSH1 0x20 MUL PUSH1 0x20 ADD ADD DUP2 SWAP1 MSTORE POP PUSH1 0x40 MLOAD DUP1 PUSH1 0x40 ADD PUSH1 0x40 MSTORE DUP1 PUSH4 0xC497AF3 PUSH1 0xE0 SHL PUSH1 0x1 PUSH1 0x1 PUSH1 0xE0 SHL SUB NOT AND DUP2 MSTORE PUSH1 0x20 ADD DUP3 DUP2 MSTORE POP DUP3 PUSH1 0xE0 ADD MLOAD PUSH1 0x4 DUP2 MLOAD DUP2 LT PUSH2 0x1A9A JUMPI PUSH2 0x1A9A PUSH2 0x35EC JUMP JUMPDEST PUSH1 0x20 MUL PUSH1 0x20 ADD ADD DUP2 SWAP1 MSTORE POP PUSH1 0x40 MLOAD DUP1 PUSH1 0x40 ADD PUSH1 0x40 MSTORE DUP1 PUSH4 0xF7FC32A2 PUSH1 0xE0 SHL PUSH1 0x1 PUSH1 0x1 PUSH1 0xE0 SHL SUB NOT AND DUP2 MSTORE PUSH1 0x20 ADD DUP3 DUP2 MSTORE POP DUP3 PUSH1 0xE0 ADD MLOAD PUSH1 0x5 DUP2 MLOAD DUP2 LT PUSH2 0x1AE2 JUMPI PUSH2 0x1AE2 PUSH2 0x35EC JUMP JUMPDEST PUSH1 0x20 MUL PUSH1 0x20 ADD ADD DUP2 SWAP1 MSTORE POP PUSH1 0x40 MLOAD DUP1 PUSH1 0x40 ADD PUSH1 0x40 MSTORE DUP1 PUSH4 0x157F7123 PUSH1 0xE0 SHL PUSH1 0x1 PUSH1 0x1 PUSH1 0xE0 SHL SUB NOT AND DUP2 MSTORE PUSH1 0x20 ADD DUP3 DUP2 MSTORE POP DUP3 PUSH1 0xE0 ADD MLOAD PUSH1 0x6 DUP2 MLOAD DUP2 LT PUSH2 0x1B2A JUMPI PUSH2 0x1B2A PUSH2 0x35EC JUMP JUMPDEST PUSH1 0x20 SWAP1 DUP2 MUL SWAP2 SWAP1 SWAP2 ADD ADD MSTORE PUSH1 0x40 DUP1 MLOAD PUSH1 0x3 DUP1 DUP3 MSTORE PUSH1 0x80 DUP3 ADD SWAP1 SWAP3 MSTORE SWAP1 DUP2 PUSH1 0x20 ADD JUMPDEST PUSH2 0x1B53 PUSH2 0x246D JUMP JUMPDEST DUP2 MSTORE PUSH1 0x20 ADD SWAP1 PUSH1 0x1 SWAP1 SUB SWAP1 DUP2 PUSH2 0x1B4B JUMPI POP POP PUSH2 0x140 DUP4 ADD SWAP1 DUP2 MSTORE PUSH1 0x40 DUP1 MLOAD DUP1 DUP3 ADD DUP3 MSTORE PUSH4 0x84370813 PUSH1 0xE0 SHL DUP2 MSTORE DUP2 MLOAD PUSH1 0x60 DUP2 ADD DUP4 MSTORE PUSH1 0x4 DUP2 MSTORE PUSH1 0x0 PUSH1 0x20 DUP1 DUP4 ADD DUP3 SWAP1 MSTORE SWAP4 DUP3 ADD DUP2 SWAP1 MSTORE SWAP3 DUP3 ADD MSTORE SWAP2 MLOAD DUP1 MLOAD SWAP1 SWAP2 SWAP1 PUSH2 0x1BB3 JUMPI PUSH2 0x1BB3 PUSH2 0x35EC JUMP JUMPDEST PUSH1 0x20 SWAP1 DUP2 MUL SWAP2 SWAP1 SWAP2 ADD DUP2 ADD SWAP2 SWAP1 SWAP2 MSTORE PUSH1 0x40 DUP1 MLOAD DUP1 DUP3 ADD DUP3 MSTORE PUSH4 0x2796B03 PUSH1 0xE4 SHL DUP2 MSTORE DUP2 MLOAD PUSH1 0x60 DUP2 ADD DUP4 MSTORE PUSH1 0x4 DUP2 MSTORE PUSH1 0x0 DUP2 DUP6 ADD DUP2 SWAP1 MSTORE SWAP3 DUP2 ADD SWAP3 SWAP1 SWAP3 MSTORE SWAP2 DUP3 ADD MSTORE PUSH2 0x140 DUP4 ADD MLOAD DUP1 MLOAD PUSH1 0x1 SWAP1 DUP2 LT PUSH2 0x1C0D JUMPI PUSH2 0x1C0D PUSH2 0x35EC JUMP JUMPDEST PUSH1 0x20 SWAP1 DUP2 MUL SWAP2 SWAP1 SWAP2 ADD DUP2 ADD SWAP2 SWAP1 SWAP2 MSTORE PUSH1 0x40 DUP1 MLOAD DUP1 DUP3 ADD DUP3 MSTORE PUSH4 0x18552D83 PUSH1 0xE3 SHL DUP2 MSTORE DUP2 MLOAD PUSH1 0x60 DUP2 ADD DUP4 MSTORE PUSH1 0x4 DUP2 MSTORE PUSH1 0x0 DUP2 DUP6 ADD DUP2 SWAP1 MSTORE SWAP3 DUP2 ADD SWAP3 SWAP1 SWAP3 MSTORE SWAP2 DUP3 ADD MSTORE PUSH2 0x140 DUP4 ADD MLOAD DUP1 MLOAD PUSH1 0x2 SWAP1 DUP2 LT PUSH2 0x1C67 JUMPI PUSH2 0x1C67 PUSH2 0x35EC JUMP JUMPDEST PUSH1 0x20 SWAP1 DUP2 MUL SWAP2 SWAP1 SWAP2 ADD ADD MSTORE POP PUSH1 0x1 PUSH1 0x80 DUP3 ADD DUP2 SWAP1 MSTORE PUSH1 0xA0 DUP3 ADD MSTORE SWAP2 SWAP1 POP JUMP JUMPDEST PUSH1 0x0 DUP2 SWAP1 SUB PUSH2 0x1CD7 JUMPI PUSH1 0x40 MLOAD PUSH3 0x461BCD PUSH1 0xE5 SHL DUP2 MSTORE PUSH1 0x20 PUSH1 0x4 DUP3 ADD MSTORE PUSH1 0x17 PUSH1 0x24 DUP3 ADD MSTORE PUSH32 0x706C616E73206D757374206E6F7420626520656D707479000000000000000000 PUSH1 0x44 DUP3 ADD MSTORE PUSH1 0x64 ADD PUSH2 0x81D JUMP JUMPDEST PUSH1 0x0 PUSH2 0x1CEA DUP13 DUP13 DUP13 DUP13 DUP13 DUP13 DUP13 DUP13 DUP13 PUSH2 0x1F6E JUMP JUMPDEST SWAP1 POP PUSH1 0x0 JUMPDEST DUP3 DUP2 LT ISZERO PUSH2 0x1D4E JUMPI PUSH2 0x1D46 DUP3 DUP6 DUP6 DUP5 DUP2 DUP2 LT PUSH2 0x1D0D JUMPI PUSH2 0x1D0D PUSH2 0x35EC JUMP JUMPDEST SWAP1 POP PUSH1 0x40 MUL ADD PUSH1 0x20 ADD PUSH1 0x20 DUP2 ADD SWAP1 PUSH2 0x1D25 SWAP2 SWAP1 PUSH2 0x3602 JUMP JUMPDEST DUP7 DUP7 DUP6 DUP2 DUP2 LT PUSH2 0x1D37 JUMPI PUSH2 0x1D37 PUSH2 0x35EC JUMP JUMPDEST SWAP1 POP PUSH1 0x40 MUL ADD PUSH1 0x0 ADD CALLDATALOAD PUSH2 0x7CF JUMP JUMPDEST PUSH1 0x1 ADD PUSH2 0x1CEF JUMP JUMPDEST POP POP POP POP POP POP POP POP POP POP POP POP POP JUMP JUMPDEST PUSH1 0x1 SLOAD PUSH1 0x1 PUSH1 0x1 PUSH1 0xA0 SHL SUB AND CALLER EQ PUSH2 0x1D74 JUMPI PUSH1 0x0 DUP1 REVERT JUMPDEST PUSH1 0x0 SWAP2 DUP3 MSTORE PUSH1 0x5 PUSH1 0x20 MSTORE PUSH1 0x40 SWAP1 SWAP2 KECCAK256 DUP1 SLOAD PUSH8 0xFFFFFFFFFFFFFFFF NOT AND PUSH1 0x1 PUSH1 0x1 PUSH1 0x40 SHL SUB SWAP1 SWAP3 AND SWAP2 SWAP1 SWAP2 OR SWAP1 SSTORE JUMP JUMPDEST PUSH1 0x0 PUSH2 0x1DB7 DUP12 DUP12 DUP12 DUP12 DUP12 PUSH1 0x0 DUP13 DUP13 DUP13 PUSH2 0x1F6E JUMP JUMPDEST SWAP1 POP PUSH2 0x1DC4 DUP2 DUP5 DUP5 PUSH2 0x7CF JUMP JUMPDEST POP POP POP POP POP POP POP POP POP POP POP JUMP JUMPDEST PUSH1 0x0 DUP5 DUP2 MSTORE PUSH1 0x6 PUSH1 0x20 MSTORE PUSH1 0x40 DUP2 KECCAK256 SLOAD DUP6 SWAP2 SUB PUSH2 0x1E23 JUMPI PUSH1 0x40 MLOAD PUSH3 0x461BCD PUSH1 0xE5 SHL DUP2 MSTORE PUSH1 0x20 PUSH1 0x4 DUP3 ADD MSTORE PUSH1 0x11 PUSH1 0x24 DUP3 ADD MSTORE PUSH17 0x141C9BD91D58DD08139BDD08119BDD5B99 PUSH1 0x7A SHL PUSH1 0x44 DUP3 ADD MSTORE PUSH1 0x64 ADD PUSH2 0x81D JUMP JUMPDEST PUSH1 0x0 DUP6 DUP2 MSTORE PUSH1 0x6 PUSH1 0x20 MSTORE PUSH1 0x40 SWAP1 KECCAK256 PUSH1 0x1 ADD SLOAD DUP6 SWAP1 PUSH2 0x100 SWAP1 DIV PUSH1 0x1 PUSH1 0x1 PUSH1 0xA0 SHL SUB AND CALLER EQ PUSH2 0x1E63 JUMPI PUSH1 0x40 MLOAD PUSH3 0x461BCD PUSH1 0xE5 SHL DUP2 MSTORE PUSH1 0x4 ADD PUSH2 0x81D SWAP1 PUSH2 0x2FE2 JUMP JUMPDEST PUSH1 0x0 SLOAD DUP5 EQ PUSH2 0x1ED2 JUMPI PUSH1 0x0 DUP5 DUP2 MSTORE PUSH1 0x5 PUSH1 0x20 MSTORE PUSH1 0x40 DUP2 KECCAK256 SLOAD PUSH1 0x1 PUSH1 0x1 PUSH1 0x40 SHL SUB AND SWAP1 SUB PUSH2 0x1ED2 JUMPI PUSH1 0x40 MLOAD PUSH3 0x461BCD PUSH1 0xE5 SHL DUP2 MSTORE PUSH1 0x20 PUSH1 0x4 DUP3 ADD MSTORE PUSH1 0x1F PUSH1 0x24 DUP3 ADD MSTORE PUSH32 0x64657374696E6174696F6E20636861696E206E6F7420737570706F7274656400 PUSH1 0x44 DUP3 ADD MSTORE PUSH1 0x64 ADD PUSH2 0x81D JUMP JUMPDEST PUSH1 0x0 DUP7 DUP2 MSTORE PUSH1 0x6 PUSH1 0x20 SWAP1 DUP2 MSTORE PUSH1 0x40 SWAP2 DUP3 SWAP1 KECCAK256 PUSH1 0x3 DUP2 ADD DUP1 SLOAD PUSH1 0x1 PUSH1 0x1 PUSH1 0xA0 SHL SUB NOT AND PUSH1 0x1 PUSH1 0x1 PUSH1 0xA0 SHL SUB DUP11 AND SWAP1 DUP2 OR SWAP1 SWAP2 SSTORE PUSH1 0x4 DUP3 ADD DUP9 SWAP1 SSTORE PUSH1 0x5 DUP3 ADD DUP1 SLOAD PUSH1 0xFF NOT AND DUP9 ISZERO ISZERO SWAP1 DUP2 OR SWAP1 SWAP2 SSTORE DUP3 SLOAD DUP6 MLOAD SWAP3 DUP4 MSTORE SWAP4 DUP3 ADD DUP10 SWAP1 MSTORE PUSH1 0xFF AND ISZERO ISZERO SWAP4 DUP2 ADD SWAP4 SWAP1 SWAP4 MSTORE SWAP2 PUSH32 0xE816AAB067090CFCFFFDD25D4BD81F5A9FA515EA99385748C73EB642DEBCA64 SWAP1 PUSH1 0x60 ADD PUSH1 0x40 MLOAD DUP1 SWAP2 SUB SWAP1 LOG2 POP POP POP POP POP POP POP JUMP JUMPDEST PUSH1 0x0 DUP1 SLOAD DUP3 EQ PUSH2 0x1FDE JUMPI PUSH1 0x0 DUP3 DUP2 MSTORE PUSH1 0x5 PUSH1 0x20 MSTORE PUSH1 0x40 DUP2 KECCAK256 SLOAD PUSH1 0x1 PUSH1 0x1 PUSH1 0x40 SHL SUB AND SWAP1 SUB PUSH2 0x1FDE JUMPI PUSH1 0x40 MLOAD PUSH3 0x461BCD PUSH1 0xE5 SHL DUP2 MSTORE PUSH1 0x20 PUSH1 0x4 DUP3 ADD MSTORE PUSH1 0x1F PUSH1 0x24 DUP3 ADD MSTORE PUSH32 0x64657374696E6174696F6E20636861696E206E6F7420737570706F7274656400 PUSH1 0x44 DUP3 ADD MSTORE PUSH1 0x64 ADD PUSH2 0x81D JUMP JUMPDEST PUSH1 0x0 PUSH1 0x40 MLOAD DUP1 PUSH1 0xE0 ADD PUSH1 0x40 MSTORE DUP1 PUSH1 0x2 SLOAD DUP2 MSTORE PUSH1 0x20 ADD DUP8 PUSH1 0x1 DUP2 GT ISZERO PUSH2 0x2005 JUMPI PUSH2 0x2005 PUSH2 0x2884 JUMP JUMPDEST DUP2 MSTORE PUSH1 0x20 ADD CALLER PUSH1 0x1 PUSH1 0x1 PUSH1 0xA0 SHL SUB AND DUP2 MSTORE PUSH1 0x20 ADD DUP7 PUSH1 0x1 PUSH1 0x1 PUSH1 0xA0 SHL SUB AND DUP2 MSTORE PUSH1 0x20 ADD DUP6 PUSH1 0x1 PUSH1 0x1 PUSH1 0xA0 SHL SUB AND DUP2 MSTORE PUSH1 0x20 ADD DUP5 DUP2 MSTORE PUSH1 0x20 ADD PUSH1 0x1 ISZERO ISZERO DUP2 MSTORE POP SWAP1 POP DUP1 PUSH1 0x6 PUSH1 0x0 DUP4 PUSH1 0x0 ADD MLOAD DUP2 MSTORE PUSH1 0x20 ADD SWAP1 DUP2 MSTORE PUSH1 0x20 ADD PUSH1 0x0 KECCAK256 PUSH1 0x0 DUP3 ADD MLOAD DUP2 PUSH1 0x0 ADD SSTORE PUSH1 0x20 DUP3 ADD MLOAD DUP2 PUSH1 0x1 ADD PUSH1 0x0 PUSH2 0x100 EXP DUP2 SLOAD DUP2 PUSH1 0xFF MUL NOT AND SWAP1 DUP4 PUSH1 0x1 DUP2 GT ISZERO PUSH2 0x2092 JUMPI PUSH2 0x2092 PUSH2 0x2884 JUMP JUMPDEST MUL OR SWAP1 SSTORE POP PUSH1 0x40 DUP3 ADD MLOAD PUSH1 0x1 DUP3 DUP2 ADD DUP1 SLOAD PUSH2 0x100 PUSH1 0x1 PUSH1 0xA8 SHL SUB NOT AND PUSH2 0x100 PUSH1 0x1 PUSH1 0x1 PUSH1 0xA0 SHL SUB SWAP5 DUP6 AND MUL OR SWAP1 SSTORE PUSH1 0x60 DUP5 ADD MLOAD PUSH1 0x2 DUP1 DUP6 ADD DUP1 SLOAD PUSH1 0x1 PUSH1 0x1 PUSH1 0xA0 SHL SUB NOT SWAP1 DUP2 AND SWAP4 DUP7 AND SWAP4 SWAP1 SWAP4 OR SWAP1 SSTORE PUSH1 0x80 DUP7 ADD MLOAD PUSH1 0x3 DUP7 ADD DUP1 SLOAD SWAP1 SWAP4 AND SWAP5 AND SWAP4 SWAP1 SWAP4 OR SWAP1 SSTORE PUSH1 0xA0 DUP5 ADD MLOAD PUSH1 0x4 DUP5 ADD SSTORE PUSH1 0xC0 SWAP1 SWAP4 ADD MLOAD PUSH1 0x5 SWAP1 SWAP3 ADD DUP1 SLOAD PUSH1 0xFF NOT AND SWAP3 ISZERO ISZERO SWAP3 SWAP1 SWAP3 OR SWAP1 SWAP2 SSTORE DUP1 SLOAD PUSH1 0x0 SWAP1 PUSH2 0x212C SWAP1 DUP5 SWAP1 PUSH2 0x3019 JUMP JUMPDEST SWAP3 POP POP DUP2 SWAP1 SSTORE POP CALLER PUSH1 0x1 PUSH1 0x1 PUSH1 0xA0 SHL SUB AND DUP2 PUSH1 0x0 ADD MLOAD PUSH32 0xF9815DB369A250E4360BA847CF51AB4C7702B42B361AAC1288CAEED4404CC0AD DUP14 DUP14 DUP14 DUP14 DUP14 DUP14 DUP10 PUSH1 0x60 ADD MLOAD DUP11 PUSH1 0x80 ADD MLOAD DUP12 PUSH1 0xA0 ADD MLOAD DUP13 PUSH1 0xC0 ADD MLOAD PUSH1 0x40 MLOAD PUSH2 0x2193 SWAP11 SWAP10 SWAP9 SWAP8 SWAP7 SWAP6 SWAP5 SWAP4 SWAP3 SWAP2 SWAP1 PUSH2 0x3646 JUMP JUMPDEST PUSH1 0x40 MLOAD DUP1 SWAP2 SUB SWAP1 LOG3 MLOAD SWAP11 SWAP10 POP POP POP POP POP POP POP POP POP POP JUMP JUMPDEST PUSH1 0x40 MLOAD ADDRESS PUSH1 0x24 DUP3 ADD MSTORE PUSH1 0x44 DUP2 ADD DUP9 SWAP1 MSTORE PUSH1 0x0 SWAP1 PUSH1 0x64 ADD PUSH1 0x40 DUP1 MLOAD PUSH1 0x1F NOT DUP2 DUP5 SUB ADD DUP2 MSTORE SWAP2 DUP2 MSTORE PUSH1 0x20 DUP3 ADD DUP1 MLOAD PUSH1 0x1 PUSH1 0x1 PUSH1 0xE0 SHL SUB AND PUSH4 0xA9059CBB PUSH1 0xE0 SHL OR SWAP1 MSTORE MLOAD PUSH4 0x38997B11 PUSH1 0xE0 SHL DUP2 MSTORE SWAP1 SWAP2 POP PUSH1 0x1 PUSH1 0x1 PUSH1 0xA0 SHL SUB DUP9 AND SWAP1 PUSH4 0x38997B11 SWAP1 PUSH2 0x221C SWAP1 DUP10 SWAP1 PUSH1 0x0 SWAP1 DUP7 SWAP1 PUSH1 0x4 ADD PUSH2 0x36BC JUMP JUMPDEST PUSH1 0x0 PUSH1 0x40 MLOAD DUP1 DUP4 SUB DUP2 PUSH1 0x0 DUP8 GAS CALL ISZERO DUP1 ISZERO PUSH2 0x223B JUMPI RETURNDATASIZE PUSH1 0x0 DUP1 RETURNDATACOPY RETURNDATASIZE PUSH1 0x0 REVERT JUMPDEST POP POP POP POP PUSH1 0x40 MLOAD RETURNDATASIZE PUSH1 0x0 DUP3 RETURNDATACOPY PUSH1 0x1F RETURNDATASIZE SWAP1 DUP2 ADD PUSH1 0x1F NOT AND DUP3 ADD PUSH1 0x40 MSTORE PUSH2 0x2263 SWAP2 SWAP1 DUP2 ADD SWAP1 PUSH2 0x36EC JUMP JUMPDEST POP PUSH1 0x0 SLOAD DUP5 SUB PUSH2 0x22E6 JUMPI PUSH1 0x40 MLOAD PUSH4 0xA9059CBB PUSH1 0xE0 SHL DUP2 MSTORE PUSH1 0x1 PUSH1 0x1 PUSH1 0xA0 SHL SUB DUP7 DUP2 AND PUSH1 0x4 DUP4 ADD MSTORE PUSH1 0x24 DUP3 ADD DUP11 SWAP1 MSTORE DUP8 AND SWAP1 PUSH4 0xA9059CBB SWAP1 PUSH1 0x44 ADD PUSH1 0x20 PUSH1 0x40 MLOAD DUP1 DUP4 SUB DUP2 PUSH1 0x0 DUP8 GAS CALL ISZERO DUP1 ISZERO PUSH2 0x22BC JUMPI RETURNDATASIZE PUSH1 0x0 DUP1 RETURNDATACOPY RETURNDATASIZE PUSH1 0x0 REVERT JUMPDEST POP POP POP POP PUSH1 0x40 MLOAD RETURNDATASIZE PUSH1 0x1F NOT PUSH1 0x1F DUP3 ADD AND DUP3 ADD DUP1 PUSH1 0x40 MSTORE POP DUP2 ADD SWAP1 PUSH2 0x22E0 SWAP2 SWAP1 PUSH2 0x377F JUMP JUMPDEST POP PUSH2 0x23FE JUMP JUMPDEST PUSH1 0x4 DUP1 SLOAD PUSH1 0x40 MLOAD PUSH4 0x95EA7B3 PUSH1 0xE0 SHL DUP2 MSTORE PUSH1 0x1 PUSH1 0x1 PUSH1 0xA0 SHL SUB SWAP2 DUP3 AND SWAP3 DUP2 ADD SWAP3 SWAP1 SWAP3 MSTORE PUSH1 0x24 DUP3 ADD DUP11 SWAP1 MSTORE DUP8 AND SWAP1 PUSH4 0x95EA7B3 SWAP1 PUSH1 0x44 ADD PUSH1 0x20 PUSH1 0x40 MLOAD DUP1 DUP4 SUB DUP2 PUSH1 0x0 DUP8 GAS CALL ISZERO DUP1 ISZERO PUSH2 0x233B JUMPI RETURNDATASIZE PUSH1 0x0 DUP1 RETURNDATACOPY RETURNDATASIZE PUSH1 0x0 REVERT JUMPDEST POP POP POP POP PUSH1 0x40 MLOAD RETURNDATASIZE PUSH1 0x1F NOT PUSH1 0x1F DUP3 ADD AND DUP3 ADD DUP1 PUSH1 0x40 MSTORE POP DUP2 ADD SWAP1 PUSH2 0x235F SWAP2 SWAP1 PUSH2 0x377F JUMP JUMPDEST POP PUSH1 0x4 DUP1 SLOAD PUSH1 0x0 DUP7 DUP2 MSTORE PUSH1 0x5 PUSH1 0x20 MSTORE PUSH1 0x40 SWAP1 DUP2 SWAP1 KECCAK256 SLOAD SWAP1 MLOAD PUSH4 0x27D52ED3 PUSH1 0xE1 SHL DUP2 MSTORE PUSH1 0x1 PUSH1 0x1 PUSH1 0x40 SHL SUB SWAP1 SWAP2 AND SWAP3 DUP2 ADD SWAP3 SWAP1 SWAP3 MSTORE PUSH1 0x1 PUSH1 0x1 PUSH1 0xA0 SHL SUB DUP8 DUP2 AND PUSH1 0x24 DUP5 ADD MSTORE DUP9 DUP2 AND PUSH1 0x44 DUP5 ADD MSTORE PUSH1 0x64 DUP4 ADD DUP12 SWAP1 MSTORE PUSH1 0x84 DUP4 ADD DUP7 SWAP1 MSTORE PUSH1 0xA4 DUP4 ADD DUP6 SWAP1 MSTORE AND SWAP1 PUSH4 0x4FAA5DA6 SWAP1 PUSH1 0xC4 ADD PUSH1 0x0 PUSH1 0x40 MLOAD DUP1 DUP4 SUB DUP2 PUSH1 0x0 DUP8 DUP1 EXTCODESIZE ISZERO DUP1 ISZERO PUSH2 0x23E5 JUMPI PUSH1 0x0 DUP1 REVERT JUMPDEST POP GAS CALL ISZERO DUP1 ISZERO PUSH2 0x23F9 JUMPI RETURNDATASIZE PUSH1 0x0 DUP1 RETURNDATACOPY RETURNDATASIZE PUSH1 0x0 REVERT JUMPDEST POP POP POP POP JUMPDEST POP POP POP POP POP POP POP POP JUMP JUMPDEST PUSH1 0x40 MLOAD DUP1 PUSH2 0x180 ADD PUSH1 0x40 MSTORE DUP1 PUSH1 0x60 DUP2 MSTORE PUSH1 0x20 ADD PUSH1 0x60 DUP2 MSTORE PUSH1 0x20 ADD PUSH1 0x60 DUP2 MSTORE PUSH1 0x20 ADD PUSH1 0x60 DUP2 MSTORE PUSH1 0x20 ADD PUSH1 0x0 ISZERO ISZERO DUP2 MSTORE PUSH1 0x20 ADD PUSH1 0x0 ISZERO ISZERO DUP2 MSTORE PUSH1 0x20 ADD PUSH1 0x60 DUP2 MSTORE PUSH1 0x20 ADD PUSH1 0x60 DUP2 MSTORE PUSH1 0x20 ADD PUSH1 0x60 DUP2 MSTORE PUSH1 0x20 ADD PUSH1 0x60 DUP2 MSTORE PUSH1 0x20 ADD PUSH1 0x60 DUP2 MSTORE PUSH1 0x20 ADD PUSH1 0x60 DUP2 MSTORE POP SWAP1 JUMP JUMPDEST PUSH1 0x40 DUP1 MLOAD DUP1 DUP3 ADD SWAP1 SWAP2 MSTORE PUSH1 0x0 DUP2 MSTORE PUSH1 0x20 DUP2 ADD PUSH2 0x24A4 PUSH1 0x40 DUP1 MLOAD PUSH1 0x60 DUP2 ADD SWAP1 SWAP2 MSTORE DUP1 PUSH1 0x0 DUP2 MSTORE PUSH1 0x0 PUSH1 0x20 DUP3 ADD DUP2 SWAP1 MSTORE PUSH1 0x40 SWAP1 SWAP2 ADD MSTORE SWAP1 JUMP JUMPDEST SWAP1 MSTORE SWAP1 JUMP JUMPDEST PUSH1 0x1 PUSH1 0x1 PUSH1 0xE0 SHL SUB NOT DUP2 AND DUP2 EQ PUSH2 0x24BF JUMPI PUSH1 0x0 DUP1 REVERT JUMPDEST POP JUMP JUMPDEST PUSH1 0x0 PUSH1 0x20 DUP3 DUP5 SUB SLT ISZERO PUSH2 0x24D4 JUMPI PUSH1 0x0 DUP1 REVERT JUMPDEST DUP2 CALLDATALOAD PUSH2 0x24DF DUP2 PUSH2 0x24A9 JUMP JUMPDEST SWAP4 SWAP3 POP POP POP JUMP JUMPDEST DUP1 CALLDATALOAD PUSH4 0xFFFFFFFF DUP2 AND DUP2 EQ PUSH2 0x24FA JUMPI PUSH1 0x0 DUP1 REVERT JUMPDEST SWAP2 SWAP1 POP JUMP JUMPDEST PUSH1 0x0 DUP1 PUSH1 0x0 PUSH1 0x60 DUP5 DUP7 SUB SLT ISZERO PUSH2 0x2514 JUMPI PUSH1 0x0 DUP1 REVERT JUMPDEST DUP4 CALLDATALOAD SWAP3 POP PUSH2 0x2524 PUSH1 0x20 DUP6 ADD PUSH2 0x24E6 JUMP JUMPDEST SWAP2 POP PUSH1 0x40 DUP5 ADD CALLDATALOAD SWAP1 POP SWAP3 POP SWAP3 POP SWAP3 JUMP JUMPDEST PUSH1 0xFF DUP2 AND DUP2 EQ PUSH2 0x24BF JUMPI PUSH1 0x0 DUP1 REVERT JUMPDEST PUSH1 0x1 PUSH1 0x1 PUSH1 0xA0 SHL SUB DUP2 AND DUP2 EQ PUSH2 0x24BF JUMPI PUSH1 0x0 DUP1 REVERT JUMPDEST DUP1 CALLDATALOAD PUSH2 0x24FA DUP2 PUSH2 0x2543 JUMP JUMPDEST PUSH1 0x0 DUP1 DUP4 PUSH1 0x1F DUP5 ADD SLT PUSH2 0x2575 JUMPI PUSH1 0x0 DUP1 REVERT JUMPDEST POP DUP2 CALLDATALOAD PUSH1 0x1 PUSH1 0x1 PUSH1 0x40 SHL SUB DUP2 GT ISZERO PUSH2 0x258C JUMPI PUSH1 0x0 DUP1 REVERT JUMPDEST PUSH1 0x20 DUP4 ADD SWAP2 POP DUP4 PUSH1 0x20 DUP3 DUP6 ADD ADD GT ISZERO PUSH2 0x25A4 JUMPI PUSH1 0x0 DUP1 REVERT JUMPDEST SWAP3 POP SWAP3 SWAP1 POP JUMP JUMPDEST PUSH1 0x0 DUP1 PUSH1 0x0 DUP1 PUSH1 0x0 PUSH1 0x80 DUP7 DUP9 SUB SLT ISZERO PUSH2 0x25C3 JUMPI PUSH1 0x0 DUP1 REVERT JUMPDEST DUP6 CALLDATALOAD PUSH2 0x25CE DUP2 PUSH2 0x2534 JUMP JUMPDEST SWAP5 POP PUSH1 0x20 DUP7 ADD CALLDATALOAD PUSH2 0x25DE DUP2 PUSH2 0x2543 JUMP JUMPDEST SWAP4 POP PUSH1 0x40 DUP7 ADD CALLDATALOAD SWAP3 POP PUSH1 0x60 DUP7 ADD CALLDATALOAD PUSH1 0x1 PUSH1 0x1 PUSH1 0x40 SHL SUB DUP2 GT ISZERO PUSH2 0x2600 JUMPI PUSH1 0x0 DUP1 REVERT JUMPDEST PUSH2 0x260C DUP9 DUP3 DUP10 ADD PUSH2 0x2563 JUMP JUMPDEST SWAP7 SWAP10 SWAP6 SWAP9 POP SWAP4 SWAP7 POP SWAP3 SWAP5 SWAP4 SWAP3 POP POP POP JUMP JUMPDEST PUSH1 0x0 DUP1 PUSH1 0x0 PUSH1 0x40 DUP5 DUP7 SUB SLT ISZERO PUSH2 0x2632 JUMPI PUSH1 0x0 DUP1 REVERT JUMPDEST DUP4 CALLDATALOAD PUSH2 0x263D DUP2 PUSH2 0x2534 JUMP JUMPDEST SWAP3 POP PUSH1 0x20 DUP5 ADD CALLDATALOAD PUSH1 0x1 PUSH1 0x1 PUSH1 0x40 SHL SUB DUP2 GT ISZERO PUSH2 0x2658 JUMPI PUSH1 0x0 DUP1 REVERT JUMPDEST PUSH2 0x2664 DUP7 DUP3 DUP8 ADD PUSH2 0x2563 JUMP JUMPDEST SWAP5 SWAP8 SWAP1 SWAP7 POP SWAP4 SWAP5 POP POP POP POP JUMP JUMPDEST PUSH1 0x0 JUMPDEST DUP4 DUP2 LT ISZERO PUSH2 0x268C JUMPI DUP2 DUP2 ADD MLOAD DUP4 DUP3 ADD MSTORE PUSH1 0x20 ADD PUSH2 0x2674 JUMP JUMPDEST POP POP PUSH1 0x0 SWAP2 ADD MSTORE JUMP JUMPDEST PUSH1 0x0 DUP2 MLOAD DUP1 DUP5 MSTORE PUSH2 0x26AD DUP2 PUSH1 0x20 DUP7 ADD PUSH1 0x20 DUP7 ADD PUSH2 0x2671 JUMP JUMPDEST PUSH1 0x1F ADD PUSH1 0x1F NOT AND SWAP3 SWAP1 SWAP3 ADD PUSH1 0x20 ADD SWAP3 SWAP2 POP POP JUMP JUMPDEST PUSH1 0x0 PUSH1 0x20 DUP1 DUP4 MSTORE DUP4 MLOAD PUSH1 0x80 DUP3 DUP6 ADD MSTORE PUSH2 0x26DD PUSH1 0xA0 DUP6 ADD DUP3 PUSH2 0x2695 JUMP JUMPDEST SWAP1 POP DUP2 DUP6 ADD MLOAD PUSH1 0x1F NOT PUSH1 0x40 DUP2 DUP8 DUP6 SUB ADD PUSH1 0x40 DUP9 ADD MSTORE PUSH2 0x26FC DUP5 DUP5 PUSH2 0x2695 JUMP JUMPDEST SWAP4 POP PUSH1 0x40 DUP9 ADD MLOAD SWAP3 POP DUP2 DUP8 DUP6 SUB ADD PUSH1 0x60 DUP9 ADD MSTORE PUSH2 0x2719 DUP5 DUP5 PUSH2 0x2695 JUMP JUMPDEST PUSH1 0x60 DUP10 ADD MLOAD DUP9 DUP3 SUB DUP5 ADD PUSH1 0x80 DUP11 ADD MSTORE DUP1 MLOAD DUP1 DUP4 MSTORE SWAP2 SWAP6 POP DUP7 ADD SWAP4 POP DUP6 DUP6 ADD SWAP1 PUSH1 0x5 DUP2 SWAP1 SHL DUP7 ADD DUP8 ADD PUSH1 0x0 JUMPDEST DUP3 DUP2 LT ISZERO PUSH2 0x278B JUMPI DUP8 DUP3 SUB DUP7 ADD DUP5 MSTORE DUP7 MLOAD DUP1 MLOAD PUSH1 0x1 PUSH1 0x1 PUSH1 0xE0 SHL SUB NOT AND DUP4 MSTORE DUP10 ADD MLOAD DUP10 DUP4 ADD DUP7 SWAP1 MSTORE PUSH2 0x2778 DUP7 DUP5 ADD DUP3 PUSH2 0x2695 JUMP JUMPDEST SWAP8 DUP11 ADD SWAP8 SWAP5 DUP11 ADD SWAP5 SWAP3 POP POP PUSH1 0x1 ADD PUSH2 0x2744 JUMP JUMPDEST POP SWAP11 SWAP10 POP POP POP POP POP POP POP POP POP POP JUMP JUMPDEST DUP1 ISZERO ISZERO DUP2 EQ PUSH2 0x24BF JUMPI PUSH1 0x0 DUP1 REVERT JUMPDEST PUSH1 0x0 DUP1 PUSH1 0x40 DUP4 DUP6 SUB SLT ISZERO PUSH2 0x27BB JUMPI PUSH1 0x0 DUP1 REVERT JUMPDEST DUP3 CALLDATALOAD SWAP2 POP PUSH1 0x20 DUP4 ADD CALLDATALOAD PUSH2 0x27CD DUP2 PUSH2 0x279A JUMP JUMPDEST DUP1 SWAP2 POP POP SWAP3 POP SWAP3 SWAP1 POP JUMP JUMPDEST PUSH1 0x0 PUSH1 0x20 DUP3 DUP5 SUB SLT ISZERO PUSH2 0x27EA JUMPI PUSH1 0x0 DUP1 REVERT JUMPDEST DUP2 CALLDATALOAD PUSH2 0x24DF DUP2 PUSH2 0x2543 JUMP JUMPDEST PUSH1 0x0 PUSH1 0x20 DUP3 DUP5 SUB SLT ISZERO PUSH2 0x2807 JUMPI PUSH1 0x0 DUP1 REVERT JUMPDEST POP CALLDATALOAD SWAP2 SWAP1 POP JUMP JUMPDEST PUSH1 0x0 DUP1 PUSH1 0x40 DUP4 DUP6 SUB SLT ISZERO PUSH2 0x2821 JUMPI PUSH1 0x0 DUP1 REVERT JUMPDEST POP POP DUP1 CALLDATALOAD SWAP3 PUSH1 0x20 SWAP1 SWAP2 ADD CALLDATALOAD SWAP2 POP JUMP JUMPDEST PUSH1 0x20 DUP2 MSTORE PUSH1 0x0 PUSH2 0x24DF PUSH1 0x20 DUP4 ADD DUP5 PUSH2 0x2695 JUMP JUMPDEST PUSH1 0x0 DUP1 PUSH1 0x20 DUP4 DUP6 SUB SLT ISZERO PUSH2 0x2856 JUMPI PUSH1 0x0 DUP1 REVERT JUMPDEST DUP3 CALLDATALOAD PUSH1 0x1 PUSH1 0x1 PUSH1 0x40 SHL SUB DUP2 GT ISZERO PUSH2 0x286C JUMPI PUSH1 0x0 DUP1 REVERT JUMPDEST PUSH2 0x2878 DUP6 DUP3 DUP7 ADD PUSH2 0x2563 JUMP JUMPDEST SWAP1 SWAP7 SWAP1 SWAP6 POP SWAP4 POP POP POP POP JUMP JUMPDEST PUSH4 0x4E487B71 PUSH1 0xE0 SHL PUSH1 0x0 MSTORE PUSH1 0x21 PUSH1 0x4 MSTORE PUSH1 0x24 PUSH1 0x0 REVERT JUMPDEST PUSH1 0x2 DUP2 LT PUSH2 0x28AA JUMPI PUSH2 0x28AA PUSH2 0x2884 JUMP JUMPDEST SWAP1 MSTORE JUMP JUMPDEST DUP8 DUP2 MSTORE PUSH1 0xE0 DUP2 ADD PUSH2 0x28C2 PUSH1 0x20 DUP4 ADD DUP10 PUSH2 0x289A JUMP JUMPDEST PUSH1 0x1 PUSH1 0x1 PUSH1 0xA0 SHL SUB SWAP7 DUP8 AND PUSH1 0x40 DUP4 ADD MSTORE SWAP5 DUP7 AND PUSH1 0x60 DUP3 ADD MSTORE SWAP3 SWAP1 SWAP5 AND PUSH1 0x80 DUP4 ADD MSTORE PUSH1 0xA0 DUP3 ADD MSTORE SWAP2 ISZERO ISZERO PUSH1 0xC0 SWAP1 SWAP3 ADD SWAP2 SWAP1 SWAP2 MSTORE SWAP3 SWAP2 POP POP JUMP JUMPDEST DUP1 CALLDATALOAD PUSH1 0x2 DUP2 LT PUSH2 0x24FA JUMPI PUSH1 0x0 DUP1 REVERT JUMPDEST PUSH1 0x0 DUP1 PUSH1 0x0 DUP1 PUSH1 0x0 DUP1 PUSH1 0x0 DUP1 PUSH1 0x0 PUSH1 0xE0 DUP11 DUP13 SUB SLT ISZERO PUSH2 0x2927 JUMPI PUSH1 0x0 DUP1 REVERT JUMPDEST DUP10 CALLDATALOAD SWAP9 POP PUSH1 0x20 DUP11 ADD CALLDATALOAD PUSH1 0x1 PUSH1 0x1 PUSH1 0x40 SHL SUB DUP1 DUP3 GT ISZERO PUSH2 0x2945 JUMPI PUSH1 0x0 DUP1 REVERT JUMPDEST PUSH2 0x2951 DUP14 DUP4 DUP15 ADD PUSH2 0x2563 JUMP JUMPDEST SWAP1 SWAP11 POP SWAP9 POP PUSH1 0x40 DUP13 ADD CALLDATALOAD SWAP2 POP DUP1 DUP3 GT ISZERO PUSH2 0x296A JUMPI PUSH1 0x0 DUP1 REVERT JUMPDEST POP PUSH2 0x2977 DUP13 DUP3 DUP14 ADD PUSH2 0x2563 JUMP JUMPDEST SWAP1 SWAP8 POP SWAP6 POP PUSH2 0x298A SWAP1 POP PUSH1 0x60 DUP12 ADD PUSH2 0x28FA JUMP JUMPDEST SWAP4 POP PUSH1 0x80 DUP11 ADD CALLDATALOAD PUSH2 0x299A DUP2 PUSH2 0x2543 JUMP JUMPDEST SWAP3 POP PUSH1 0xA0 DUP11 ADD CALLDATALOAD PUSH2 0x29AA DUP2 PUSH2 0x2543 JUMP JUMPDEST DUP1 SWAP3 POP POP PUSH1 0xC0 DUP11 ADD CALLDATALOAD SWAP1 POP SWAP3 SWAP6 SWAP9 POP SWAP3 SWAP6 SWAP9 POP SWAP3 SWAP6 SWAP9 JUMP JUMPDEST PUSH1 0x0 DUP1 PUSH1 0x0 PUSH1 0x60 DUP5 DUP7 SUB SLT ISZERO PUSH2 0x29D7 JUMPI PUSH1 0x0 DUP1 REVERT JUMPDEST DUP4 CALLDATALOAD PUSH2 0x29E2 DUP2 PUSH2 0x2534 JUMP JUMPDEST SWAP3 POP PUSH1 0x20 DUP5 ADD CALLDATALOAD PUSH1 0x1 PUSH1 0x1 PUSH1 0x40 SHL SUB DUP2 GT ISZERO PUSH2 0x29FD JUMPI PUSH1 0x0 DUP1 REVERT JUMPDEST DUP5 ADD PUSH2 0x160 DUP2 DUP8 SUB SLT ISZERO PUSH2 0x2A10 JUMPI PUSH1 0x0 DUP1 REVERT JUMPDEST SWAP3 SWAP6 SWAP3 SWAP5 POP POP POP PUSH1 0x40 SWAP2 SWAP1 SWAP2 ADD CALLDATALOAD SWAP1 JUMP JUMPDEST PUSH1 0x0 DUP1 PUSH1 0x40 DUP4 DUP6 SUB SLT ISZERO PUSH2 0x2A34 JUMPI PUSH1 0x0 DUP1 REVERT JUMPDEST DUP3 CALLDATALOAD PUSH2 0x2A3F DUP2 PUSH2 0x2543 JUMP JUMPDEST SWAP5 PUSH1 0x20 SWAP4 SWAP1 SWAP4 ADD CALLDATALOAD SWAP4 POP POP POP JUMP JUMPDEST PUSH1 0x0 DUP1 PUSH1 0x40 DUP4 DUP6 SUB SLT ISZERO PUSH2 0x2A60 JUMPI PUSH1 0x0 DUP1 REVERT JUMPDEST DUP3 CALLDATALOAD PUSH2 0x2A6B DUP2 PUSH2 0x2543 JUMP JUMPDEST SWAP2 POP PUSH1 0x20 DUP4 ADD CALLDATALOAD PUSH2 0x27CD DUP2 PUSH2 0x2534 JUMP JUMPDEST PUSH1 0x0 DUP2 MLOAD DUP1 DUP5 MSTORE PUSH1 0x20 DUP1 DUP6 ADD SWAP5 POP PUSH1 0x20 DUP5 ADD PUSH1 0x0 JUMPDEST DUP4 DUP2 LT ISZERO PUSH2 0x2AB6 JUMPI DUP2 MLOAD PUSH1 0x1 PUSH1 0x1 PUSH1 0xE0 SHL SUB NOT AND DUP8 MSTORE SWAP6 DUP3 ADD SWAP6 SWAP1 DUP3 ADD SWAP1 PUSH1 0x1 ADD PUSH2 0x2A90 JUMP JUMPDEST POP SWAP5 SWAP6 SWAP5 POP POP POP POP POP JUMP JUMPDEST PUSH1 0x0 DUP3 DUP3 MLOAD DUP1 DUP6 MSTORE PUSH1 0x20 DUP1 DUP7 ADD SWAP6 POP DUP1 DUP3 PUSH1 0x5 SHL DUP5 ADD ADD DUP2 DUP7 ADD PUSH1 0x0 JUMPDEST DUP5 DUP2 LT ISZERO PUSH2 0x2B37 JUMPI DUP6 DUP4 SUB PUSH1 0x1F NOT ADD DUP10 MSTORE DUP2 MLOAD DUP1 MLOAD PUSH1 0x1 PUSH1 0x1 PUSH1 0xA0 SHL SUB AND DUP5 MSTORE DUP5 DUP2 ADD MLOAD ISZERO ISZERO DUP6 DUP6 ADD MSTORE PUSH1 0x40 SWAP1 DUP2 ADD MLOAD PUSH1 0x60 SWAP2 DUP6 ADD DUP3 SWAP1 MSTORE SWAP1 PUSH2 0x2B23 DUP2 DUP7 ADD DUP4 PUSH2 0x2A7B JUMP JUMPDEST SWAP11 DUP7 ADD SWAP11 SWAP5 POP POP POP SWAP1 DUP4 ADD SWAP1 PUSH1 0x1 ADD PUSH2 0x2ADE JUMP JUMPDEST POP SWAP1 SWAP8 SWAP7 POP POP POP POP POP POP POP JUMP JUMPDEST DUP1 MLOAD PUSH1 0x5 DUP2 LT PUSH2 0x2B56 JUMPI PUSH2 0x2B56 PUSH2 0x2884 JUMP JUMPDEST DUP3 MSTORE PUSH1 0x20 DUP2 DUP2 ADD MLOAD PUSH1 0xFF AND SWAP1 DUP4 ADD MSTORE PUSH1 0x40 SWAP1 DUP2 ADD MLOAD SWAP2 ADD MSTORE JUMP JUMPDEST PUSH1 0x0 DUP2 MLOAD DUP1 DUP5 MSTORE PUSH1 0x20 DUP1 DUP6 ADD SWAP5 POP PUSH1 0x20 DUP5 ADD PUSH1 0x0 JUMPDEST DUP4 DUP2 LT ISZERO PUSH2 0x2AB6 JUMPI DUP2 MLOAD DUP1 MLOAD PUSH1 0x1 PUSH1 0x1 PUSH1 0xE0 SHL SUB NOT AND DUP9 MSTORE DUP4 ADD MLOAD PUSH2 0x2BAC DUP5 DUP10 ADD DUP3 PUSH2 0x2B44 JUMP JUMPDEST POP PUSH1 0x80 SWAP7 SWAP1 SWAP7 ADD SWAP6 SWAP1 DUP3 ADD SWAP1 PUSH1 0x1 ADD PUSH2 0x2B85 JUMP JUMPDEST PUSH1 0x0 DUP2 MLOAD DUP1 DUP5 MSTORE PUSH1 0x20 DUP1 DUP6 ADD SWAP5 POP PUSH1 0x20 DUP5 ADD PUSH1 0x0 JUMPDEST DUP4 DUP2 LT ISZERO PUSH2 0x2AB6 JUMPI DUP2 MLOAD DUP1 MLOAD PUSH1 0x1 PUSH1 0x1 PUSH1 0xE0 SHL SUB NOT AND DUP9 MSTORE DUP4 DUP2 ADD MLOAD PUSH2 0x2BFD DUP6 DUP11 ADD DUP3 PUSH2 0x2B44 JUMP JUMPDEST POP PUSH1 0x40 ADD MLOAD PUSH2 0x2C0F PUSH1 0x80 DUP10 ADD DUP3 PUSH2 0x2B44 JUMP JUMPDEST POP PUSH1 0xE0 SWAP7 SWAP1 SWAP7 ADD SWAP6 SWAP1 DUP3 ADD SWAP1 PUSH1 0x1 ADD PUSH2 0x2BD5 JUMP JUMPDEST PUSH1 0x20 DUP2 MSTORE PUSH1 0x0 DUP3 MLOAD PUSH2 0x180 DUP1 PUSH1 0x20 DUP6 ADD MSTORE PUSH2 0x2C42 PUSH2 0x1A0 DUP6 ADD DUP4 PUSH2 0x2A7B JUMP JUMPDEST SWAP2 POP PUSH1 0x20 DUP6 ADD MLOAD PUSH1 0x1F NOT DUP1 DUP7 DUP6 SUB ADD PUSH1 0x40 DUP8 ADD MSTORE PUSH2 0x2C60 DUP5 DUP4 PUSH2 0x2A7B JUMP JUMPDEST SWAP4 POP PUSH1 0x40 DUP8 ADD MLOAD SWAP2 POP DUP1 DUP7 DUP6 SUB ADD PUSH1 0x60 DUP8 ADD MSTORE PUSH2 0x2C7D DUP5 DUP4 PUSH2 0x2A7B JUMP JUMPDEST SWAP4 POP PUSH1 0x60 DUP8 ADD MLOAD SWAP2 POP DUP1 DUP7 DUP6 SUB ADD PUSH1 0x80 DUP8 ADD MSTORE PUSH2 0x2C9A DUP5 DUP4 PUSH2 0x2A7B JUMP JUMPDEST SWAP4 POP PUSH1 0x80 DUP8 ADD MLOAD SWAP2 POP PUSH2 0x2CB1 PUSH1 0xA0 DUP8 ADD DUP4 ISZERO ISZERO SWAP1 MSTORE JUMP JUMPDEST PUSH1 0xA0 DUP8 ADD MLOAD DUP1 ISZERO ISZERO PUSH1 0xC0 DUP9 ADD MSTORE SWAP2 POP PUSH1 0xC0 DUP8 ADD MLOAD SWAP2 POP DUP1 DUP7 DUP6 SUB ADD PUSH1 0xE0 DUP8 ADD MSTORE PUSH2 0x2CDB DUP5 DUP4 PUSH2 0x2AC1 JUMP JUMPDEST SWAP4 POP PUSH1 0xE0 DUP8 ADD MLOAD SWAP2 POP PUSH2 0x100 DUP2 DUP8 DUP7 SUB ADD DUP2 DUP9 ADD MSTORE PUSH2 0x2CFA DUP6 DUP5 PUSH2 0x2B70 JUMP JUMPDEST SWAP5 POP DUP1 DUP9 ADD MLOAD SWAP3 POP POP PUSH2 0x120 DUP2 DUP8 DUP7 SUB ADD DUP2 DUP9 ADD MSTORE PUSH2 0x2D19 DUP6 DUP5 PUSH2 0x2B70 JUMP JUMPDEST SWAP5 POP DUP1 DUP9 ADD MLOAD SWAP3 POP POP PUSH2 0x140 DUP2 DUP8 DUP7 SUB ADD DUP2 DUP9 ADD MSTORE PUSH2 0x2D38 DUP6 DUP5 PUSH2 0x2B70 JUMP JUMPDEST SWAP5 POP DUP1 DUP9 ADD MLOAD SWAP3 POP POP PUSH2 0x160 DUP2 DUP8 DUP7 SUB ADD DUP2 DUP9 ADD MSTORE PUSH2 0x2D57 DUP6 DUP5 PUSH2 0x2B70 JUMP JUMPDEST SWAP1 DUP9 ADD MLOAD DUP8 DUP3 SUB SWAP1 SWAP3 ADD DUP5 DUP9 ADD MSTORE SWAP4 POP SWAP1 POP PUSH2 0x2D73 DUP4 DUP3 PUSH2 0x2BC0 JUMP JUMPDEST SWAP7 SWAP6 POP POP POP POP POP POP JUMP JUMPDEST PUSH1 0x0 DUP1 DUP4 PUSH1 0x1F DUP5 ADD SLT PUSH2 0x2D8F JUMPI PUSH1 0x0 DUP1 REVERT JUMPDEST POP DUP2 CALLDATALOAD PUSH1 0x1 PUSH1 0x1 PUSH1 0x40 SHL SUB DUP2 GT ISZERO PUSH2 0x2DA6 JUMPI PUSH1 0x0 DUP1 REVERT JUMPDEST PUSH1 0x20 DUP4 ADD SWAP2 POP DUP4 PUSH1 0x20 DUP3 PUSH1 0x6 SHL DUP6 ADD ADD GT ISZERO PUSH2 0x25A4 JUMPI PUSH1 0x0 DUP1 REVERT JUMPDEST PUSH1 0x0 DUP1 PUSH1 0x0 DUP1 PUSH1 0x0 DUP1 PUSH1 0x0 DUP1 PUSH1 0x0 DUP1 PUSH1 0x0 PUSH2 0x100 DUP13 DUP15 SUB SLT ISZERO PUSH2 0x2DE3 JUMPI PUSH1 0x0 DUP1 REVERT JUMPDEST DUP12 CALLDATALOAD SWAP11 POP PUSH1 0x1 PUSH1 0x1 PUSH1 0x40 SHL SUB DUP1 PUSH1 0x20 DUP15 ADD CALLDATALOAD GT ISZERO PUSH2 0x2E00 JUMPI PUSH1 0x0 DUP1 REVERT JUMPDEST PUSH2 0x2E10 DUP15 PUSH1 0x20 DUP16 ADD CALLDATALOAD DUP16 ADD PUSH2 0x2563 JUMP JUMPDEST SWAP1 SWAP12 POP SWAP10 POP PUSH1 0x40 DUP14 ADD CALLDATALOAD DUP2 LT ISZERO PUSH2 0x2E26 JUMPI PUSH1 0x0 DUP1 REVERT JUMPDEST PUSH2 0x2E36 DUP15 PUSH1 0x40 DUP16 ADD CALLDATALOAD DUP16 ADD PUSH2 0x2563 JUMP JUMPDEST SWAP1 SWAP10 POP SWAP8 POP PUSH2 0x2E47 PUSH1 0x60 DUP15 ADD PUSH2 0x28FA JUMP JUMPDEST SWAP7 POP PUSH2 0x2E55 PUSH1 0x80 DUP15 ADD PUSH2 0x2558 JUMP JUMPDEST SWAP6 POP PUSH2 0x2E63 PUSH1 0xA0 DUP15 ADD PUSH2 0x2558 JUMP JUMPDEST SWAP5 POP PUSH1 0xC0 DUP14 ADD CALLDATALOAD SWAP4 POP DUP1 PUSH1 0xE0 DUP15 ADD CALLDATALOAD GT ISZERO PUSH2 0x2E7D JUMPI PUSH1 0x0 DUP1 REVERT JUMPDEST POP PUSH2 0x2E8E DUP14 PUSH1 0xE0 DUP15 ADD CALLDATALOAD DUP15 ADD PUSH2 0x2D7D JUMP JUMPDEST DUP2 SWAP4 POP DUP1 SWAP3 POP POP POP SWAP3 SWAP6 SWAP9 SWAP12 POP SWAP3 SWAP6 SWAP9 SWAP12 SWAP1 SWAP4 SWAP7 SWAP10 POP JUMP JUMPDEST PUSH1 0x0 DUP1 PUSH1 0x40 DUP4 DUP6 SUB SLT ISZERO PUSH2 0x2EB9 JUMPI PUSH1 0x0 DUP1 REVERT JUMPDEST DUP3 CALLDATALOAD SWAP2 POP PUSH1 0x20 DUP4 ADD CALLDATALOAD PUSH1 0x1 PUSH1 0x1 PUSH1 0x40 SHL SUB DUP2 AND DUP2 EQ PUSH2 0x27CD JUMPI PUSH1 0x0 DUP1 REVERT JUMPDEST PUSH1 0x0 DUP1 PUSH1 0x0 DUP1 PUSH1 0x0 DUP1 PUSH1 0x0 DUP1 PUSH1 0x0 DUP1 PUSH2 0x100 DUP12 DUP14 SUB SLT ISZERO PUSH2 0x2EF7 JUMPI PUSH1 0x0 DUP1 REVERT JUMPDEST DUP11 CALLDATALOAD SWAP10 POP PUSH1 0x20 DUP12 ADD CALLDATALOAD PUSH1 0x1 PUSH1 0x1 PUSH1 0x40 SHL SUB DUP1 DUP3 GT ISZERO PUSH2 0x2F15 JUMPI PUSH1 0x0 DUP1 REVERT JUMPDEST PUSH2 0x2F21 DUP15 DUP4 DUP16 ADD PUSH2 0x2563 JUMP JUMPDEST SWAP1 SWAP12 POP SWAP10 POP PUSH1 0x40 DUP14 ADD CALLDATALOAD SWAP2 POP DUP1 DUP3 GT ISZERO PUSH2 0x2F3A JUMPI PUSH1 0x0 DUP1 REVERT JUMPDEST POP PUSH2 0x2F47 DUP14 DUP3 DUP15 ADD PUSH2 0x2563 JUMP JUMPDEST SWAP1 SWAP9 POP SWAP7 POP POP PUSH1 0x60 DUP12 ADD CALLDATALOAD PUSH2 0x2F5B DUP2 PUSH2 0x2543 JUMP JUMPDEST SWAP5 POP PUSH1 0x80 DUP12 ADD CALLDATALOAD PUSH2 0x2F6B DUP2 PUSH2 0x2543 JUMP JUMPDEST SWAP4 POP PUSH1 0xA0 DUP12 ADD CALLDATALOAD SWAP3 POP PUSH2 0x2F80 PUSH1 0xC0 DUP13 ADD PUSH2 0x24E6 JUMP JUMPDEST SWAP2 POP PUSH1 0xE0 DUP12 ADD CALLDATALOAD SWAP1 POP SWAP3 SWAP6 SWAP9 SWAP12 SWAP2 SWAP5 SWAP8 SWAP11 POP SWAP3 SWAP6 SWAP9 POP JUMP JUMPDEST PUSH1 0x0 DUP1 PUSH1 0x0 DUP1 PUSH1 0x80 DUP6 DUP8 SUB SLT ISZERO PUSH2 0x2FAE JUMPI PUSH1 0x0 DUP1 REVERT JUMPDEST DUP5 CALLDATALOAD SWAP4 POP PUSH1 0x20 DUP6 ADD CALLDATALOAD PUSH2 0x2FC0 DUP2 PUSH2 0x2543 JUMP JUMPDEST SWAP3 POP PUSH1 0x40 DUP6 ADD CALLDATALOAD SWAP2 POP PUSH1 0x60 DUP6 ADD CALLDATALOAD PUSH2 0x2FD7 DUP2 PUSH2 0x279A JUMP JUMPDEST SWAP4 SWAP7 SWAP3 SWAP6 POP SWAP1 SWAP4 POP POP JUMP JUMPDEST PUSH1 0x20 DUP1 DUP3 MSTORE PUSH1 0x17 SWAP1 DUP3 ADD MSTORE PUSH32 0x4E6F7420617574686F72697A65642070726F7669646572000000000000000000 PUSH1 0x40 DUP3 ADD MSTORE PUSH1 0x60 ADD SWAP1 JUMP JUMPDEST DUP1 DUP3 ADD DUP1 DUP3 GT ISZERO PUSH2 0x7C9 JUMPI PUSH4 0x4E487B71 PUSH1 0xE0 SHL PUSH1 0x0 MSTORE PUSH1 0x11 PUSH1 0x4 MSTORE PUSH1 0x24 PUSH1 0x0 REVERT JUMPDEST PUSH1 0x1 PUSH1 0x1 PUSH1 0xE0 SHL SUB NOT SWAP3 SWAP1 SWAP3 AND DUP3 MSTORE PUSH1 0xFF AND PUSH1 0x20 DUP3 ADD MSTORE PUSH1 0x40 ADD SWAP1 JUMP JUMPDEST PUSH4 0x4E487B71 PUSH1 0xE0 SHL PUSH1 0x0 MSTORE PUSH1 0x41 PUSH1 0x4 MSTORE PUSH1 0x24 PUSH1 0x0 REVERT JUMPDEST PUSH1 0x40 MLOAD PUSH1 0x60 DUP2 ADD PUSH1 0x1 PUSH1 0x1 PUSH1 0x40 SHL SUB DUP2 GT DUP3 DUP3 LT OR ISZERO PUSH2 0x308F JUMPI PUSH2 0x308F PUSH2 0x3057 JUMP JUMPDEST PUSH1 0x40 MSTORE SWAP1 JUMP JUMPDEST PUSH1 0x40 DUP1 MLOAD SWAP1 DUP2 ADD PUSH1 0x1 PUSH1 0x1 PUSH1 0x40 SHL SUB DUP2 GT DUP3 DUP3 LT OR ISZERO PUSH2 0x308F JUMPI PUSH2 0x308F PUSH2 0x3057 JUMP JUMPDEST PUSH1 0x40 MLOAD PUSH2 0x180 DUP2 ADD PUSH1 0x1 PUSH1 0x1 PUSH1 0x40 SHL SUB DUP2 GT DUP3 DUP3 LT OR ISZERO PUSH2 0x308F JUMPI PUSH2 0x308F PUSH2 0x3057 JUMP JUMPDEST PUSH1 0x40 MLOAD PUSH1 0x1F DUP3 ADD PUSH1 0x1F NOT AND DUP2 ADD PUSH1 0x1 PUSH1 0x1 PUSH1 0x40 SHL SUB DUP2 GT DUP3 DUP3 LT OR ISZERO PUSH2 0x3102 JUMPI PUSH2 0x3102 PUSH2 0x3057 JUMP JUMPDEST PUSH1 0x40 MSTORE SWAP2 SWAP1 POP JUMP JUMPDEST PUSH1 0x0 PUSH1 0x1 PUSH1 0x1 PUSH1 0x40 SHL SUB DUP3 GT ISZERO PUSH2 0x3123 JUMPI PUSH2 0x3123 PUSH2 0x3057 JUMP JUMPDEST POP PUSH1 0x5 SHL PUSH1 0x20 ADD SWAP1 JUMP JUMPDEST PUSH1 0x0 DUP3 PUSH1 0x1F DUP4 ADD SLT PUSH2 0x313E JUMPI PUSH1 0x0 DUP1 REVERT JUMPDEST DUP2 MLOAD PUSH1 0x20 PUSH2 0x3153 PUSH2 0x314E DUP4 PUSH2 0x310A JUMP JUMPDEST PUSH2 0x30DA JUMP JUMPDEST DUP1 DUP4 DUP3 MSTORE PUSH1 0x20 DUP3 ADD SWAP2 POP PUSH1 0x20 DUP5 PUSH1 0x5 SHL DUP8 ADD ADD SWAP4 POP DUP7 DUP5 GT ISZERO PUSH2 0x3175 JUMPI PUSH1 0x0 DUP1 REVERT JUMPDEST PUSH1 0x20 DUP7 ADD JUMPDEST DUP5 DUP2 LT ISZERO PUSH2 0x319A JUMPI DUP1 MLOAD PUSH2 0x318D DUP2 PUSH2 0x24A9 JUMP JUMPDEST DUP4 MSTORE SWAP2 DUP4 ADD SWAP2 DUP4 ADD PUSH2 0x317A JUMP JUMPDEST POP SWAP7 SWAP6 POP POP POP POP POP POP JUMP JUMPDEST DUP1 MLOAD PUSH2 0x24FA DUP2 PUSH2 0x279A JUMP JUMPDEST PUSH1 0x0 DUP3 PUSH1 0x1F DUP4 ADD SLT PUSH2 0x31C1 JUMPI PUSH1 0x0 DUP1 REVERT JUMPDEST DUP2 MLOAD PUSH1 0x20 PUSH2 0x31D1 PUSH2 0x314E DUP4 PUSH2 0x310A JUMP JUMPDEST DUP3 DUP2 MSTORE PUSH1 0x5 SWAP3 SWAP1 SWAP3 SHL DUP5 ADD DUP2 ADD SWAP2 DUP2 DUP2 ADD SWAP1 DUP7 DUP5 GT ISZERO PUSH2 0x31F0 JUMPI PUSH1 0x0 DUP1 REVERT JUMPDEST DUP3 DUP7 ADD JUMPDEST DUP5 DUP2 LT ISZERO PUSH2 0x319A JUMPI DUP1 MLOAD PUSH1 0x1 PUSH1 0x1 PUSH1 0x40 SHL SUB DUP1 DUP3 GT ISZERO PUSH2 0x3214 JUMPI PUSH1 0x0 DUP1 DUP2 REVERT JUMPDEST SWAP1 DUP9 ADD SWAP1 PUSH1 0x60 DUP3 DUP12 SUB PUSH1 0x1F NOT ADD DUP2 SGT ISZERO PUSH2 0x322E JUMPI PUSH1 0x0 DUP1 DUP2 REVERT JUMPDEST PUSH2 0x3236 PUSH2 0x306D JUMP JUMPDEST DUP8 DUP5 ADD MLOAD PUSH2 0x3243 DUP2 PUSH2 0x2543 JUMP JUMPDEST DUP2 MSTORE PUSH1 0x40 DUP5 DUP2 ADD MLOAD PUSH2 0x3254 DUP2 PUSH2 0x279A JUMP JUMPDEST DUP3 DUP11 ADD MSTORE SWAP2 DUP5 ADD MLOAD SWAP2 DUP4 DUP4 GT ISZERO PUSH2 0x326B JUMPI PUSH1 0x0 DUP1 DUP2 REVERT JUMPDEST PUSH2 0x3279 DUP14 DUP11 DUP6 DUP9 ADD ADD PUSH2 0x312D JUMP JUMPDEST SWAP1 DUP3 ADD MSTORE DUP7 MSTORE POP POP POP SWAP2 DUP4 ADD SWAP2 DUP4 ADD PUSH2 0x31F4 JUMP JUMPDEST PUSH1 0x0 PUSH1 0x60 DUP3 DUP5 SUB SLT ISZERO PUSH2 0x329F JUMPI PUSH1 0x0 DUP1 REVERT JUMPDEST PUSH2 0x32A7 PUSH2 0x306D JUMP JUMPDEST SWAP1 POP DUP2 MLOAD PUSH1 0x5 DUP2 LT PUSH2 0x32B8 JUMPI PUSH1 0x0 DUP1 REVERT JUMPDEST DUP2 MSTORE PUSH1 0x20 DUP3 ADD MLOAD PUSH2 0x32C8 DUP2 PUSH2 0x2534 JUMP JUMPDEST DUP1 PUSH1 0x20 DUP4 ADD MSTORE POP PUSH1 0x40 DUP3 ADD MLOAD PUSH1 0x40 DUP3 ADD MSTORE SWAP3 SWAP2 POP POP JUMP JUMPDEST PUSH1 0x0 DUP3 PUSH1 0x1F DUP4 ADD SLT PUSH2 0x32F0 JUMPI PUSH1 0x0 DUP1 REVERT JUMPDEST DUP2 MLOAD PUSH1 0x20 PUSH2 0x3300 PUSH2 0x314E DUP4 PUSH2 0x310A JUMP JUMPDEST DUP3 DUP2 MSTORE PUSH1 0x7 SWAP3 SWAP1 SWAP3 SHL DUP5 ADD DUP2 ADD SWAP2 DUP2 DUP2 ADD SWAP1 DUP7 DUP5 GT ISZERO PUSH2 0x331F JUMPI PUSH1 0x0 DUP1 REVERT JUMPDEST DUP3 DUP7 ADD JUMPDEST DUP5 DUP2 LT ISZERO PUSH2 0x319A JUMPI PUSH1 0x80 DUP2 DUP10 SUB SLT ISZERO PUSH2 0x333C JUMPI PUSH1 0x0 DUP1 DUP2 REVERT JUMPDEST PUSH2 0x3344 PUSH2 0x3095 JUMP JUMPDEST DUP2 MLOAD PUSH2 0x334F DUP2 PUSH2 0x24A9 JUMP JUMPDEST DUP2 MSTORE PUSH2 0x335D DUP10 DUP4 DUP8 ADD PUSH2 0x328D JUMP JUMPDEST DUP2 DUP7 ADD MSTORE DUP4 MSTORE SWAP2 DUP4 ADD SWAP2 PUSH1 0x80 ADD PUSH2 0x3323 JUMP JUMPDEST PUSH1 0x0 DUP3 PUSH1 0x1F DUP4 ADD SLT PUSH2 0x3380 JUMPI PUSH1 0x0 DUP1 REVERT JUMPDEST DUP2 MLOAD PUSH1 0x20 PUSH2 0x3390 PUSH2 0x314E DUP4 PUSH2 0x310A JUMP JUMPDEST DUP3 DUP2 MSTORE PUSH1 0xE0 SWAP3 DUP4 MUL DUP6 ADD DUP3 ADD SWAP3 DUP3 DUP3 ADD SWAP2 SWAP1 DUP8 DUP6 GT ISZERO PUSH2 0x33AF JUMPI PUSH1 0x0 DUP1 REVERT JUMPDEST DUP4 DUP8 ADD JUMPDEST DUP6 DUP2 LT ISZERO PUSH2 0x2B37 JUMPI DUP2 DUP2 DUP11 SUB SLT ISZERO PUSH2 0x33CB JUMPI PUSH1 0x0 DUP1 DUP2 REVERT JUMPDEST PUSH2 0x33D3 PUSH2 0x306D JUMP JUMPDEST DUP2 MLOAD PUSH2 0x33DE DUP2 PUSH2 0x24A9 JUMP JUMPDEST DUP2 MSTORE PUSH2 0x33EC DUP11 DUP4 DUP9 ADD PUSH2 0x328D JUMP JUMPDEST DUP7 DUP3 ADD MSTORE PUSH2 0x33FD DUP11 PUSH1 0x80 DUP5 ADD PUSH2 0x328D JUMP JUMPDEST PUSH1 0x40 DUP3 ADD MSTORE DUP5 MSTORE SWAP3 DUP5 ADD SWAP3 DUP2 ADD PUSH2 0x33B3 JUMP JUMPDEST PUSH1 0x0 PUSH1 0x20 DUP3 DUP5 SUB SLT ISZERO PUSH2 0x3421 JUMPI PUSH1 0x0 DUP1 REVERT JUMPDEST DUP2 MLOAD PUSH1 0x1 PUSH1 0x1 PUSH1 0x40 SHL SUB DUP1 DUP3 GT ISZERO PUSH2 0x3438 JUMPI PUSH1 0x0 DUP1 REVERT JUMPDEST SWAP1 DUP4 ADD SWAP1 PUSH2 0x180 DUP3 DUP7 SUB SLT ISZERO PUSH2 0x344D JUMPI PUSH1 0x0 DUP1 REVERT JUMPDEST PUSH2 0x3455 PUSH2 0x30B7 JUMP JUMPDEST DUP3 MLOAD DUP3 DUP2 GT ISZERO PUSH2 0x3464 JUMPI PUSH1 0x0 DUP1 REVERT JUMPDEST PUSH2 0x3470 DUP8 DUP3 DUP7 ADD PUSH2 0x312D JUMP JUMPDEST DUP3 MSTORE POP PUSH1 0x20 DUP4 ADD MLOAD DUP3 DUP2 GT ISZERO PUSH2 0x3485 JUMPI PUSH1 0x0 DUP1 REVERT JUMPDEST PUSH2 0x3491 DUP8 DUP3 DUP7 ADD PUSH2 0x312D JUMP JUMPDEST PUSH1 0x20 DUP4 ADD MSTORE POP PUSH1 0x40 DUP4 ADD MLOAD DUP3 DUP2 GT ISZERO PUSH2 0x34A9 JUMPI PUSH1 0x0 DUP1 REVERT JUMPDEST PUSH2 0x34B5 DUP8 DUP3 DUP7 ADD PUSH2 0x312D JUMP JUMPDEST PUSH1 0x40 DUP4 ADD MSTORE POP PUSH1 0x60 DUP4 ADD MLOAD DUP3 DUP2 GT ISZERO PUSH2 0x34CD JUMPI PUSH1 0x0 DUP1 REVERT JUMPDEST PUSH2 0x34D9 DUP8 DUP3 DUP7 ADD PUSH2 0x312D JUMP JUMPDEST PUSH1 0x60 DUP4 ADD MSTORE POP PUSH2 0x34EB PUSH1 0x80 DUP5 ADD PUSH2 0x31A5 JUMP JUMPDEST PUSH1 0x80 DUP3 ADD MSTORE PUSH2 0x34FC PUSH1 0xA0 DUP5 ADD PUSH2 0x31A5 JUMP JUMPDEST PUSH1 0xA0 DUP3 ADD MSTORE PUSH1 0xC0 DUP4 ADD MLOAD DUP3 DUP2 GT ISZERO PUSH2 0x3513 JUMPI PUSH1 0x0 DUP1 REVERT JUMPDEST PUSH2 0x351F DUP8 DUP3 DUP7 ADD PUSH2 0x31B0 JUMP JUMPDEST PUSH1 0xC0 DUP4 ADD MSTORE POP PUSH1 0xE0 DUP4 ADD MLOAD DUP3 DUP2 GT ISZERO PUSH2 0x3537 JUMPI PUSH1 0x0 DUP1 REVERT JUMPDEST PUSH2 0x3543 DUP8 DUP3 DUP7 ADD PUSH2 0x32DF JUMP JUMPDEST PUSH1 0xE0 DUP4 ADD MSTORE POP PUSH2 0x100 DUP1 DUP5 ADD MLOAD DUP4 DUP2 GT ISZERO PUSH2 0x355D JUMPI PUSH1 0x0 DUP1 REVERT JUMPDEST PUSH2 0x3569 DUP9 DUP3 DUP8 ADD PUSH2 0x32DF JUMP JUMPDEST DUP3 DUP5 ADD MSTORE POP POP PUSH2 0x120 DUP1 DUP5 ADD MLOAD DUP4 DUP2 GT ISZERO PUSH2 0x3583 JUMPI PUSH1 0x0 DUP1 REVERT JUMPDEST PUSH2 0x358F DUP9 DUP3 DUP8 ADD PUSH2 0x32DF JUMP JUMPDEST DUP3 DUP5 ADD MSTORE POP POP PUSH2 0x140 DUP1 DUP5 ADD MLOAD DUP4 DUP2 GT ISZERO PUSH2 0x35A9 JUMPI PUSH1 0x0 DUP1 REVERT JUMPDEST PUSH2 0x35B5 DUP9 DUP3 DUP8 ADD PUSH2 0x32DF JUMP JUMPDEST DUP3 DUP5 ADD MSTORE POP POP PUSH2 0x160 DUP1 DUP5 ADD MLOAD DUP4 DUP2 GT ISZERO PUSH2 0x35CF JUMPI PUSH1 0x0 DUP1 REVERT JUMPDEST PUSH2 0x35DB DUP9 DUP3 DUP8 ADD PUSH2 0x336F JUMP JUMPDEST SWAP2 DUP4 ADD SWAP2 SWAP1 SWAP2 MSTORE POP SWAP6 SWAP5 POP POP POP POP POP JUMP JUMPDEST PUSH4 0x4E487B71 PUSH1 0xE0 SHL PUSH1 0x0 MSTORE PUSH1 0x32 PUSH1 0x4 MSTORE PUSH1 0x24 PUSH1 0x0 REVERT JUMPDEST PUSH1 0x0 PUSH1 0x20 DUP3 DUP5 SUB SLT ISZERO PUSH2 0x3614 JUMPI PUSH1 0x0 DUP1 REVERT JUMPDEST PUSH2 0x24DF DUP3 PUSH2 0x24E6 JUMP JUMPDEST DUP2 DUP4 MSTORE DUP2 DUP2 PUSH1 0x20 DUP6 ADD CALLDATACOPY POP PUSH1 0x0 DUP3 DUP3 ADD PUSH1 0x20 SWAP1 DUP2 ADD SWAP2 SWAP1 SWAP2 MSTORE PUSH1 0x1F SWAP1 SWAP2 ADD PUSH1 0x1F NOT AND SWAP1 SWAP2 ADD ADD SWAP1 JUMP JUMPDEST PUSH1 0x0 PUSH2 0x100 DUP13 DUP4 MSTORE DUP1 PUSH1 0x20 DUP5 ADD MSTORE PUSH2 0x3661 DUP2 DUP5 ADD DUP13 DUP15 PUSH2 0x361D JUMP JUMPDEST SWAP1 POP DUP3 DUP2 SUB PUSH1 0x40 DUP5 ADD MSTORE PUSH2 0x3676 DUP2 DUP11 DUP13 PUSH2 0x361D JUMP JUMPDEST SWAP2 POP POP PUSH2 0x3686 PUSH1 0x60 DUP4 ADD DUP9 PUSH2 0x289A JUMP JUMPDEST PUSH1 0x1 PUSH1 0x1 PUSH1 0xA0 SHL SUB SWAP6 DUP7 AND PUSH1 0x80 DUP4 ADD MSTORE SWAP4 SWAP1 SWAP5 AND PUSH1 0xA0 DUP6 ADD MSTORE PUSH1 0xC0 DUP5 ADD SWAP2 SWAP1 SWAP2 MSTORE ISZERO ISZERO PUSH1 0xE0 SWAP1 SWAP3 ADD SWAP2 SWAP1 SWAP2 MSTORE SWAP7 SWAP6 POP POP POP POP POP POP JUMP JUMPDEST PUSH1 0x1 DUP1 PUSH1 0xA0 SHL SUB DUP5 AND DUP2 MSTORE DUP3 PUSH1 0x20 DUP3 ADD MSTORE PUSH1 0x60 PUSH1 0x40 DUP3 ADD MSTORE PUSH1 0x0 PUSH2 0x36E3 PUSH1 0x60 DUP4 ADD DUP5 PUSH2 0x2695 JUMP JUMPDEST SWAP6 SWAP5 POP POP POP POP POP JUMP JUMPDEST PUSH1 0x0 PUSH1 0x20 DUP3 DUP5 SUB SLT ISZERO PUSH2 0x36FE JUMPI PUSH1 0x0 DUP1 REVERT JUMPDEST DUP2 MLOAD PUSH1 0x1 PUSH1 0x1 PUSH1 0x40 SHL SUB DUP1 DUP3 GT ISZERO PUSH2 0x3715 JUMPI PUSH1 0x0 DUP1 REVERT JUMPDEST DUP2 DUP5 ADD SWAP2 POP DUP5 PUSH1 0x1F DUP4 ADD SLT PUSH2 0x3729 JUMPI PUSH1 0x0 DUP1 REVERT JUMPDEST DUP2 MLOAD DUP2 DUP2 GT ISZERO PUSH2 0x373B JUMPI PUSH2 0x373B PUSH2 0x3057 JUMP JUMPDEST PUSH2 0x374E PUSH1 0x1F DUP3 ADD PUSH1 0x1F NOT AND PUSH1 0x20 ADD PUSH2 0x30DA JUMP JUMPDEST SWAP2 POP DUP1 DUP3 MSTORE DUP6 PUSH1 0x20 DUP3 DUP6 ADD ADD GT ISZERO PUSH2 0x3765 JUMPI PUSH1 0x0 DUP1 REVERT JUMPDEST PUSH2 0x3776 DUP2 PUSH1 0x20 DUP5 ADD PUSH1 0x20 DUP7 ADD PUSH2 0x2671 JUMP JUMPDEST POP SWAP5 SWAP4 POP POP POP POP JUMP JUMPDEST PUSH1 0x0 PUSH1 0x20 DUP3 DUP5 SUB SLT ISZERO PUSH2 0x3791 JUMPI PUSH1 0x0 DUP1 REVERT JUMPDEST DUP2 MLOAD PUSH2 0x24DF DUP2 PUSH2 0x279A JUMP INVALID LOG2 PUSH5 0x6970667358 0x22 SLT KECCAK256 PUSH3 0x7F9C77 0xBB PUSH8 0x62B63120B109DB31 0x22 SWAP4 SLOAD PUSH31 0x263A20F7A006FA268EB21BA55BAF64736F6C63430008180033000000000000 "
        },
        "methodIdentifiers": {
          "AUTHOR()": "a7be85c6",
          "NAME()": "a3f4df7e",
          "VERSION()": "ffa1ad74",
          "addChainSelector(uint256,uint64)": "dfc2f42e",
          "admin()": "f851a440",
          "ccipChainSelectors(uint256)": "cd61587e",
          "changeSubscriptionEndTime(uint256,uint256)": "2a73740c",
          "changeSubscriptionPlan()": "c2a96c18",
          "charge(address,uint256)": "a3ffa9cd",
          "createPlan(uint256,uint32,uint256)": "0c497af3",
          "createProduct(bytes32,string,string,uint8,address,address,uint256)": "7f5f66be",
          "createProductWithPlans(bytes32,string,string,uint8,address,address,uint256,(uint256,uint32)[])": "cd8c5272",
          "createRecurringSubscription(bytes32,string,string,address,address,uint256,uint32,uint256)": "e4f955b0",
          "currentChainId()": "6cbadbfa",
          "getManifestHash()": "bfa15c75",
          "onInstall(bytes)": "6d61fe70",
          "onUninstall(bytes)": "8a91b0e3",
          "pack(address,uint8)": "be8534e2",
          "planNonce()": "151d2677",
          "plans(uint256)": "b1620616",
          "pluginManifest()": "c7763130",
          "pluginMetadata()": "118a5389",
          "postExecutionHook(uint8,bytes)": "1128186d",
          "preExecutionHook(uint8,address,uint256,bytes)": "46d60eb2",
          "preRuntimeValidationHook(uint8,address,uint256,bytes)": "0c7ecd84",
          "preUserOpValidationHook(uint8,(address,uint256,bytes,bytes,uint256,uint256,uint256,uint256,uint256,bytes,bytes),bytes32)": "88e18ce4",
          "productNonce()": "1b7c82ec",
          "products(uint256)": "7acc0b20",
          "runtimeValidationFunction(uint8,address,uint256,bytes)": "bfd151c1",
          "setTokenBridge(address)": "39d04860",
          "subscribe(uint256,uint256)": "84370813",
          "subscribedToProduct(address,uint256)": "e9f33808",
          "subscriptionNonces(address)": "1feea06a",
          "supportsInterface(bytes4)": "01ffc9a7",
          "tokenBridge()": "c6328a46",
          "unSubscribe(uint256)": "2796b030",
          "updatePlan(uint256,bool)": "157f7123",
          "updateProduct(uint256,address,uint256,bool)": "f7fc32a2",
          "userOpValidationFunction(uint8,(address,uint256,bytes,bytes,uint256,uint256,uint256,uint256,uint256,bytes,bytes),bytes32)": "af873483",
          "userSubscriptions(address,uint256)": "c95d6edc"
        }
      }
    }
  }
}